{
	"contracts/Surebuy.sol": {
		"Surebuy": {
			"abi": [
				{
					"inputs": [],
					"stateMutability": "nonpayable",
					"type": "constructor"
				},
				{
					"inputs": [],
					"name": "SureBuy_AlreadyRegistered",
					"type": "error"
				},
				{
					"inputs": [],
					"name": "SureBuy_NotAllowed",
					"type": "error"
				},
				{
					"inputs": [
						{
							"internalType": "uint256",
							"name": "requestId",
							"type": "uint256"
						}
					],
					"name": "confirmRequest",
					"outputs": [
						{
							"internalType": "uint64",
							"name": "",
							"type": "uint64"
						}
					],
					"stateMutability": "nonpayable",
					"type": "function"
				},
				{
					"inputs": [
						{
							"internalType": "uint256",
							"name": "requestId",
							"type": "uint256"
						}
					],
					"name": "declineRequest",
					"outputs": [],
					"stateMutability": "nonpayable",
					"type": "function"
				},
				{
					"inputs": [
						{
							"internalType": "address",
							"name": "_ven",
							"type": "address"
						}
					],
					"name": "getApprovedManufacturers",
					"outputs": [
						{
							"internalType": "address[]",
							"name": "",
							"type": "address[]"
						}
					],
					"stateMutability": "view",
					"type": "function"
				},
				{
					"inputs": [
						{
							"internalType": "address",
							"name": "_man",
							"type": "address"
						}
					],
					"name": "getApprovedVendors",
					"outputs": [
						{
							"internalType": "address[]",
							"name": "",
							"type": "address[]"
						}
					],
					"stateMutability": "view",
					"type": "function"
				},
				{
					"inputs": [
						{
							"internalType": "address",
							"name": "_addr",
							"type": "address"
						}
					],
					"name": "getEntity",
					"outputs": [
						{
							"components": [
								{
									"internalType": "string",
									"name": "pan",
									"type": "string"
								},
								{
									"internalType": "string",
									"name": "name",
									"type": "string"
								}
							],
							"internalType": "struct Surebuy.Entity",
							"name": "",
							"type": "tuple"
						}
					],
					"stateMutability": "view",
					"type": "function"
				},
				{
					"inputs": [
						{
							"internalType": "uint256",
							"name": "_id",
							"type": "uint256"
						}
					],
					"name": "getRequest",
					"outputs": [
						{
							"components": [
								{
									"internalType": "uint256",
									"name": "id",
									"type": "uint256"
								},
								{
									"internalType": "address",
									"name": "vendor",
									"type": "address"
								},
								{
									"internalType": "address",
									"name": "manufacturer",
									"type": "address"
								},
								{
									"internalType": "bool",
									"name": "granted",
									"type": "bool"
								}
							],
							"internalType": "struct Surebuy.Request",
							"name": "",
							"type": "tuple"
						}
					],
					"stateMutability": "view",
					"type": "function"
				},
				{
					"inputs": [],
					"name": "getRequests",
					"outputs": [
						{
							"components": [
								{
									"internalType": "uint256",
									"name": "id",
									"type": "uint256"
								},
								{
									"internalType": "address",
									"name": "vendor",
									"type": "address"
								},
								{
									"internalType": "address",
									"name": "manufacturer",
									"type": "address"
								},
								{
									"internalType": "bool",
									"name": "granted",
									"type": "bool"
								}
							],
							"internalType": "struct Surebuy.Request[]",
							"name": "",
							"type": "tuple[]"
						}
					],
					"stateMutability": "view",
					"type": "function"
				},
				{
					"inputs": [
						{
							"internalType": "address",
							"name": "_addr",
							"type": "address"
						}
					],
					"name": "isAManufacturer",
					"outputs": [
						{
							"internalType": "bool",
							"name": "",
							"type": "bool"
						}
					],
					"stateMutability": "view",
					"type": "function"
				},
				{
					"inputs": [
						{
							"internalType": "address",
							"name": "_addr",
							"type": "address"
						}
					],
					"name": "isAVendor",
					"outputs": [
						{
							"internalType": "bool",
							"name": "",
							"type": "bool"
						}
					],
					"stateMutability": "view",
					"type": "function"
				},
				{
					"inputs": [
						{
							"internalType": "address",
							"name": "_ven",
							"type": "address"
						},
						{
							"internalType": "address",
							"name": "_man",
							"type": "address"
						}
					],
					"name": "isAttested",
					"outputs": [
						{
							"internalType": "bool",
							"name": "",
							"type": "bool"
						}
					],
					"stateMutability": "view",
					"type": "function"
				},
				{
					"inputs": [
						{
							"internalType": "string",
							"name": "_name",
							"type": "string"
						},
						{
							"internalType": "string",
							"name": "_pan",
							"type": "string"
						}
					],
					"name": "registerAsManufacturer",
					"outputs": [],
					"stateMutability": "nonpayable",
					"type": "function"
				},
				{
					"inputs": [
						{
							"internalType": "string",
							"name": "_name",
							"type": "string"
						},
						{
							"internalType": "string",
							"name": "_pan",
							"type": "string"
						}
					],
					"name": "registerAsVendor",
					"outputs": [],
					"stateMutability": "nonpayable",
					"type": "function"
				},
				{
					"inputs": [],
					"name": "schemaId",
					"outputs": [
						{
							"internalType": "uint64",
							"name": "",
							"type": "uint64"
						}
					],
					"stateMutability": "view",
					"type": "function"
				},
				{
					"inputs": [
						{
							"internalType": "address",
							"name": "_man",
							"type": "address"
						}
					],
					"name": "sendRequest",
					"outputs": [],
					"stateMutability": "nonpayable",
					"type": "function"
				},
				{
					"inputs": [
						{
							"internalType": "address",
							"name": "instance",
							"type": "address"
						}
					],
					"name": "setSPInstance",
					"outputs": [],
					"stateMutability": "nonpayable",
					"type": "function"
				},
				{
					"inputs": [
						{
							"internalType": "uint64",
							"name": "schemaId_",
							"type": "uint64"
						}
					],
					"name": "setSchemaID",
					"outputs": [],
					"stateMutability": "nonpayable",
					"type": "function"
				},
				{
					"inputs": [],
					"name": "spInstance",
					"outputs": [
						{
							"internalType": "contract ISP",
							"name": "",
							"type": "address"
						}
					],
					"stateMutability": "view",
					"type": "function"
				}
			],
			"devdoc": {
				"kind": "dev",
				"methods": {},
				"version": 1
			},
			"evm": {
				"assembly": "    /* \"contracts/Surebuy.sol\":304:9337  contract Surebuy {... */\n  mstore(0x40, 0x80)\n    /* \"contracts/Surebuy.sol\":625:626  0 */\n  0x00\n    /* \"contracts/Surebuy.sol\":591:626  uint256 private _requestCounter = 0 */\n  0x01\n  sstore\n    /* \"contracts/Surebuy.sol\":1273:1289  constructor() {} */\n  callvalue\n  dup1\n  iszero\n  tag_1\n  jumpi\n  0x00\n  dup1\n  revert\ntag_1:\n  pop\n    /* \"contracts/Surebuy.sol\":304:9337  contract Surebuy {... */\n  dataSize(sub_0)\n  dup1\n  dataOffset(sub_0)\n  0x00\n  codecopy\n  0x00\n  return\nstop\n\nsub_0: assembly {\n        /* \"contracts/Surebuy.sol\":304:9337  contract Surebuy {... */\n      mstore(0x40, 0x80)\n      callvalue\n      dup1\n      iszero\n      tag_1\n      jumpi\n      0x00\n      dup1\n      revert\n    tag_1:\n      pop\n      jumpi(tag_2, lt(calldatasize, 0x04))\n      shr(0xe0, calldataload(0x00))\n      dup1\n      0x8e9d660f\n      gt\n      tag_20\n      jumpi\n      dup1\n      0xa9524aa4\n      gt\n      tag_21\n      jumpi\n      dup1\n      0xa9524aa4\n      eq\n      tag_15\n      jumpi\n      dup1\n      0xc58343ef\n      eq\n      tag_16\n      jumpi\n      dup1\n      0xc84a9407\n      eq\n      tag_17\n      jumpi\n      dup1\n      0xf9d1d0c0\n      eq\n      tag_18\n      jumpi\n      dup1\n      0xfb7d5bf6\n      eq\n      tag_19\n      jumpi\n      jump(tag_2)\n    tag_21:\n      dup1\n      0x8e9d660f\n      eq\n      tag_11\n      jumpi\n      dup1\n      0x93a87d3c\n      eq\n      tag_12\n      jumpi\n      dup1\n      0xa6b2c437\n      eq\n      tag_13\n      jumpi\n      dup1\n      0xa8c5dc33\n      eq\n      tag_14\n      jumpi\n      jump(tag_2)\n    tag_20:\n      dup1\n      0x75894e8c\n      gt\n      tag_22\n      jumpi\n      dup1\n      0x75894e8c\n      eq\n      tag_7\n      jumpi\n      dup1\n      0x85e1b15b\n      eq\n      tag_8\n      jumpi\n      dup1\n      0x86b602f8\n      eq\n      tag_9\n      jumpi\n      dup1\n      0x8813ce12\n      eq\n      tag_10\n      jumpi\n      jump(tag_2)\n    tag_22:\n      dup1\n      0x05ca8ee3\n      eq\n      tag_3\n      jumpi\n      dup1\n      0x075b1a09\n      eq\n      tag_4\n      jumpi\n      dup1\n      0x399b4ddc\n      eq\n      tag_5\n      jumpi\n      dup1\n      0x665bb095\n      eq\n      tag_6\n      jumpi\n    tag_2:\n      0x00\n      dup1\n      revert\n        /* \"contracts/Surebuy.sol\":1401:1489  function setSchemaID(uint64 schemaId_) external  {... */\n    tag_3:\n      tag_23\n      0x04\n      dup1\n      calldatasize\n      sub\n      dup2\n      add\n      swap1\n      tag_24\n      swap2\n      swap1\n      tag_25\n      jump\t// in\n    tag_24:\n      tag_26\n      jump\t// in\n    tag_23:\n      stop\n        /* \"contracts/Surebuy.sol\":560:582  uint64 public schemaId */\n    tag_4:\n      tag_27\n      tag_28\n      jump\t// in\n    tag_27:\n      mload(0x40)\n      tag_29\n      swap2\n      swap1\n      tag_30\n      jump\t// in\n    tag_29:\n      mload(0x40)\n      dup1\n      swap2\n      sub\n      swap1\n      return\n        /* \"contracts/Surebuy.sol\":5551:7159  function declineRequest(uint256 requestId) external {... */\n    tag_5:\n      tag_31\n      0x04\n      dup1\n      calldatasize\n      sub\n      dup2\n      add\n      swap1\n      tag_32\n      swap2\n      swap1\n      tag_33\n      jump\t// in\n    tag_32:\n      tag_34\n      jump\t// in\n    tag_31:\n      stop\n        /* \"contracts/Surebuy.sol\":8247:8469  function isAttested(address _ven, address _man) external view returns(bool){... */\n    tag_6:\n      tag_35\n      0x04\n      dup1\n      calldatasize\n      sub\n      dup2\n      add\n      swap1\n      tag_36\n      swap2\n      swap1\n      tag_37\n      jump\t// in\n    tag_36:\n      tag_38\n      jump\t// in\n    tag_35:\n      mload(0x40)\n      tag_39\n      swap2\n      swap1\n      tag_40\n      jump\t// in\n    tag_39:\n      mload(0x40)\n      dup1\n      swap2\n      sub\n      swap1\n      return\n        /* \"contracts/Surebuy.sol\":9105:9334  function getEntity(address _addr) external view returns(Entity memory){... */\n    tag_7:\n      tag_41\n      0x04\n      dup1\n      calldatasize\n      sub\n      dup2\n      add\n      swap1\n      tag_42\n      swap2\n      swap1\n      tag_43\n      jump\t// in\n    tag_42:\n      tag_44\n      jump\t// in\n    tag_41:\n      mload(0x40)\n      tag_45\n      swap2\n      swap1\n      tag_46\n      jump\t// in\n    tag_45:\n      mload(0x40)\n      dup1\n      swap2\n      sub\n      swap1\n      return\n        /* \"contracts/Surebuy.sol\":2164:2871  function sendRequest(address _man) public {... */\n    tag_8:\n      tag_47\n      0x04\n      dup1\n      calldatasize\n      sub\n      dup2\n      add\n      swap1\n      tag_48\n      swap2\n      swap1\n      tag_43\n      jump\t// in\n    tag_48:\n      tag_49\n      jump\t// in\n    tag_47:\n      stop\n        /* \"contracts/Surebuy.sol\":8015:8117  function isAVendor(address _addr) external view returns(bool){... */\n    tag_9:\n      tag_50\n      0x04\n      dup1\n      calldatasize\n      sub\n      dup2\n      add\n      swap1\n      tag_51\n      swap2\n      swap1\n      tag_43\n      jump\t// in\n    tag_51:\n      tag_52\n      jump\t// in\n    tag_50:\n      mload(0x40)\n      tag_53\n      swap2\n      swap1\n      tag_40\n      jump\t// in\n    tag_53:\n      mload(0x40)\n      dup1\n      swap2\n      sub\n      swap1\n      return\n        /* \"contracts/Surebuy.sol\":7167:8007  function getRequests() external view returns (Request[] memory) {... */\n    tag_10:\n      tag_54\n      tag_55\n      jump\t// in\n    tag_54:\n      mload(0x40)\n      tag_56\n      swap2\n      swap1\n      tag_57\n      jump\t// in\n    tag_56:\n      mload(0x40)\n      dup1\n      swap2\n      sub\n      swap1\n      return\n        /* \"contracts/Surebuy.sol\":1297:1393  function setSPInstance(address instance) external  {... */\n    tag_11:\n      tag_58\n      0x04\n      dup1\n      calldatasize\n      sub\n      dup2\n      add\n      swap1\n      tag_59\n      swap2\n      swap1\n      tag_43\n      jump\t// in\n    tag_59:\n      tag_60\n      jump\t// in\n    tag_58:\n      stop\n        /* \"contracts/Surebuy.sol\":8888:9099  function getApprovedVendors(address _man) external view returns(address[] memory){... */\n    tag_12:\n      tag_61\n      0x04\n      dup1\n      calldatasize\n      sub\n      dup2\n      add\n      swap1\n      tag_62\n      swap2\n      swap1\n      tag_43\n      jump\t// in\n    tag_62:\n      tag_63\n      jump\t// in\n    tag_61:\n      mload(0x40)\n      tag_64\n      swap2\n      swap1\n      tag_65\n      jump\t// in\n    tag_64:\n      mload(0x40)\n      dup1\n      swap2\n      sub\n      swap1\n      return\n        /* \"contracts/Surebuy.sol\":2879:5543  function confirmRequest(uint256 requestId) external returns (uint64) {... */\n    tag_13:\n      tag_66\n      0x04\n      dup1\n      calldatasize\n      sub\n      dup2\n      add\n      swap1\n      tag_67\n      swap2\n      swap1\n      tag_33\n      jump\t// in\n    tag_67:\n      tag_68\n      jump\t// in\n    tag_66:\n      mload(0x40)\n      tag_69\n      swap2\n      swap1\n      tag_30\n      jump\t// in\n    tag_69:\n      mload(0x40)\n      dup1\n      swap2\n      sub\n      swap1\n      return\n        /* \"contracts/Surebuy.sol\":532:553  ISP public spInstance */\n    tag_14:\n      tag_70\n      tag_71\n      jump\t// in\n    tag_70:\n      mload(0x40)\n      tag_72\n      swap2\n      swap1\n      tag_73\n      jump\t// in\n    tag_72:\n      mload(0x40)\n      dup1\n      swap2\n      sub\n      swap1\n      return\n        /* \"contracts/Surebuy.sol\":1497:1841  function registerAsManufacturer(... */\n    tag_15:\n      tag_74\n      0x04\n      dup1\n      calldatasize\n      sub\n      dup2\n      add\n      swap1\n      tag_75\n      swap2\n      swap1\n      tag_76\n      jump\t// in\n    tag_75:\n      tag_77\n      jump\t// in\n    tag_74:\n      stop\n        /* \"contracts/Surebuy.sol\":8477:8660  function getRequest(uint256 _id) external view returns(Request memory){... */\n    tag_16:\n      tag_78\n      0x04\n      dup1\n      calldatasize\n      sub\n      dup2\n      add\n      swap1\n      tag_79\n      swap2\n      swap1\n      tag_33\n      jump\t// in\n    tag_79:\n      tag_80\n      jump\t// in\n    tag_78:\n      mload(0x40)\n      tag_81\n      swap2\n      swap1\n      tag_82\n      jump\t// in\n    tag_81:\n      mload(0x40)\n      dup1\n      swap2\n      sub\n      swap1\n      return\n        /* \"contracts/Surebuy.sol\":8668:8880  function getApprovedManufacturers(address _ven) external view returns(address[] memory){... */\n    tag_17:\n      tag_83\n      0x04\n      dup1\n      calldatasize\n      sub\n      dup2\n      add\n      swap1\n      tag_84\n      swap2\n      swap1\n      tag_43\n      jump\t// in\n    tag_84:\n      tag_85\n      jump\t// in\n    tag_83:\n      mload(0x40)\n      tag_86\n      swap2\n      swap1\n      tag_65\n      jump\t// in\n    tag_86:\n      mload(0x40)\n      dup1\n      swap2\n      sub\n      swap1\n      return\n        /* \"contracts/Surebuy.sol\":8125:8239  function isAManufacturer(address _addr) external view returns(bool){... */\n    tag_18:\n      tag_87\n      0x04\n      dup1\n      calldatasize\n      sub\n      dup2\n      add\n      swap1\n      tag_88\n      swap2\n      swap1\n      tag_43\n      jump\t// in\n    tag_88:\n      tag_89\n      jump\t// in\n    tag_87:\n      mload(0x40)\n      tag_90\n      swap2\n      swap1\n      tag_40\n      jump\t// in\n    tag_90:\n      mload(0x40)\n      dup1\n      swap2\n      sub\n      swap1\n      return\n        /* \"contracts/Surebuy.sol\":1849:2156  function registerAsVendor(string memory _name, string memory _pan) public {... */\n    tag_19:\n      tag_91\n      0x04\n      dup1\n      calldatasize\n      sub\n      dup2\n      add\n      swap1\n      tag_92\n      swap2\n      swap1\n      tag_76\n      jump\t// in\n    tag_92:\n      tag_93\n      jump\t// in\n    tag_91:\n      stop\n        /* \"contracts/Surebuy.sol\":1401:1489  function setSchemaID(uint64 schemaId_) external  {... */\n    tag_26:\n        /* \"contracts/Surebuy.sol\":1472:1481  schemaId_ */\n      dup1\n        /* \"contracts/Surebuy.sol\":1461:1469  schemaId */\n      0x00\n      0x14\n        /* \"contracts/Surebuy.sol\":1461:1481  schemaId = schemaId_ */\n      0x0100\n      exp\n      dup2\n      sload\n      dup2\n      0xffffffffffffffff\n      mul\n      not\n      and\n      swap1\n      dup4\n      0xffffffffffffffff\n      and\n      mul\n      or\n      swap1\n      sstore\n      pop\n        /* \"contracts/Surebuy.sol\":1401:1489  function setSchemaID(uint64 schemaId_) external  {... */\n      pop\n      jump\t// out\n        /* \"contracts/Surebuy.sol\":560:582  uint64 public schemaId */\n    tag_28:\n      0x00\n      0x14\n      swap1\n      sload\n      swap1\n      0x0100\n      exp\n      swap1\n      div\n      0xffffffffffffffff\n      and\n      dup2\n      jump\t// out\n        /* \"contracts/Surebuy.sol\":5551:7159  function declineRequest(uint256 requestId) external {... */\n    tag_34:\n        /* \"contracts/Surebuy.sol\":5645:5660  _requestCounter */\n      sload(0x01)\n        /* \"contracts/Surebuy.sol\":5632:5641  requestId */\n      dup2\n        /* \"contracts/Surebuy.sol\":5632:5660  requestId >= _requestCounter */\n      lt\n      iszero\n        /* \"contracts/Surebuy.sol\":5632:5704  requestId >= _requestCounter ||... */\n      dup1\n      tag_96\n      jumpi\n      pop\n        /* \"contracts/Surebuy.sol\":5678:5692  isManufacturer */\n      0x02\n        /* \"contracts/Surebuy.sol\":5678:5704  isManufacturer[msg.sender] */\n      0x00\n        /* \"contracts/Surebuy.sol\":5693:5703  msg.sender */\n      caller\n        /* \"contracts/Surebuy.sol\":5678:5704  isManufacturer[msg.sender] */\n      0xffffffffffffffffffffffffffffffffffffffff\n      and\n      0xffffffffffffffffffffffffffffffffffffffff\n      and\n      dup2\n      mstore\n      0x20\n      add\n      swap1\n      dup2\n      mstore\n      0x20\n      add\n      0x00\n      keccak256\n      0x00\n      swap1\n      sload\n      swap1\n      0x0100\n      exp\n      swap1\n      div\n      0xff\n      and\n        /* \"contracts/Surebuy.sol\":5677:5704  !isManufacturer[msg.sender] */\n      iszero\n        /* \"contracts/Surebuy.sol\":5632:5704  requestId >= _requestCounter ||... */\n    tag_96:\n        /* \"contracts/Surebuy.sol\":5632:5741  requestId >= _requestCounter ||... */\n      dup1\n      tag_97\n      jumpi\n      pop\n        /* \"contracts/Surebuy.sol\":5721:5729  isVendor */\n      0x03\n        /* \"contracts/Surebuy.sol\":5721:5741  isVendor[msg.sender] */\n      0x00\n        /* \"contracts/Surebuy.sol\":5730:5740  msg.sender */\n      caller\n        /* \"contracts/Surebuy.sol\":5721:5741  isVendor[msg.sender] */\n      0xffffffffffffffffffffffffffffffffffffffff\n      and\n      0xffffffffffffffffffffffffffffffffffffffff\n      and\n      dup2\n      mstore\n      0x20\n      add\n      swap1\n      dup2\n      mstore\n      0x20\n      add\n      0x00\n      keccak256\n      0x00\n      swap1\n      sload\n      swap1\n      0x0100\n      exp\n      swap1\n      div\n      0xff\n      and\n        /* \"contracts/Surebuy.sol\":5632:5741  requestId >= _requestCounter ||... */\n    tag_97:\n        /* \"contracts/Surebuy.sol\":5614:5788  if (... */\n      iszero\n      tag_98\n      jumpi\n        /* \"contracts/Surebuy.sol\":5768:5776  revert() */\n      0x00\n      dup1\n      revert\n        /* \"contracts/Surebuy.sol\":5614:5788  if (... */\n    tag_98:\n        /* \"contracts/Surebuy.sol\":5798:5817  Request memory temp */\n      0x00\n        /* \"contracts/Surebuy.sol\":5820:5831  idToRequest */\n      0x04\n        /* \"contracts/Surebuy.sol\":5820:5842  idToRequest[requestId] */\n      0x00\n        /* \"contracts/Surebuy.sol\":5832:5841  requestId */\n      dup4\n        /* \"contracts/Surebuy.sol\":5820:5842  idToRequest[requestId] */\n      dup2\n      mstore\n      0x20\n      add\n      swap1\n      dup2\n      mstore\n      0x20\n      add\n      0x00\n      keccak256\n        /* \"contracts/Surebuy.sol\":5798:5842  Request memory temp = idToRequest[requestId] */\n      mload(0x40)\n      dup1\n      0x80\n      add\n      0x40\n      mstore\n      swap1\n      dup2\n      0x00\n      dup3\n      add\n      sload\n      dup2\n      mstore\n      0x20\n      add\n      0x01\n      dup3\n      add\n      0x00\n      swap1\n      sload\n      swap1\n      0x0100\n      exp\n      swap1\n      div\n      0xffffffffffffffffffffffffffffffffffffffff\n      and\n      0xffffffffffffffffffffffffffffffffffffffff\n      and\n      0xffffffffffffffffffffffffffffffffffffffff\n      and\n      dup2\n      mstore\n      0x20\n      add\n      0x02\n      dup3\n      add\n      0x00\n      swap1\n      sload\n      swap1\n      0x0100\n      exp\n      swap1\n      div\n      0xffffffffffffffffffffffffffffffffffffffff\n      and\n      0xffffffffffffffffffffffffffffffffffffffff\n      and\n      0xffffffffffffffffffffffffffffffffffffffff\n      and\n      dup2\n      mstore\n      0x20\n      add\n      0x02\n      dup3\n      add\n      0x14\n      swap1\n      sload\n      swap1\n      0x0100\n      exp\n      swap1\n      div\n      0xff\n      and\n      iszero\n      iszero\n      iszero\n      iszero\n      dup2\n      mstore\n      pop\n      pop\n      swap1\n      pop\n        /* \"contracts/Surebuy.sol\":5872:5880  isVendor */\n      0x03\n        /* \"contracts/Surebuy.sol\":5872:5893  isVendor[temp.vendor] */\n      0x00\n        /* \"contracts/Surebuy.sol\":5881:5885  temp */\n      dup3\n        /* \"contracts/Surebuy.sol\":5881:5892  temp.vendor */\n      0x20\n      add\n      mload\n        /* \"contracts/Surebuy.sol\":5872:5893  isVendor[temp.vendor] */\n      0xffffffffffffffffffffffffffffffffffffffff\n      and\n      0xffffffffffffffffffffffffffffffffffffffff\n      and\n      dup2\n      mstore\n      0x20\n      add\n      swap1\n      dup2\n      mstore\n      0x20\n      add\n      0x00\n      keccak256\n      0x00\n      swap1\n      sload\n      swap1\n      0x0100\n      exp\n      swap1\n      div\n      0xff\n      and\n        /* \"contracts/Surebuy.sol\":5871:5893  !isVendor[temp.vendor] */\n      iszero\n        /* \"contracts/Surebuy.sol\":5871:5944  !isVendor[temp.vendor] ||... */\n      dup1\n      tag_99\n      jumpi\n      pop\n        /* \"contracts/Surebuy.sol\":5911:5925  isManufacturer */\n      0x02\n        /* \"contracts/Surebuy.sol\":5911:5944  isManufacturer[temp.manufacturer] */\n      0x00\n        /* \"contracts/Surebuy.sol\":5926:5930  temp */\n      dup3\n        /* \"contracts/Surebuy.sol\":5926:5943  temp.manufacturer */\n      0x40\n      add\n      mload\n        /* \"contracts/Surebuy.sol\":5911:5944  isManufacturer[temp.manufacturer] */\n      0xffffffffffffffffffffffffffffffffffffffff\n      and\n      0xffffffffffffffffffffffffffffffffffffffff\n      and\n      dup2\n      mstore\n      0x20\n      add\n      swap1\n      dup2\n      mstore\n      0x20\n      add\n      0x00\n      keccak256\n      0x00\n      swap1\n      sload\n      swap1\n      0x0100\n      exp\n      swap1\n      div\n      0xff\n      and\n        /* \"contracts/Surebuy.sol\":5910:5944  !isManufacturer[temp.manufacturer] */\n      iszero\n        /* \"contracts/Surebuy.sol\":5871:5944  !isVendor[temp.vendor] ||... */\n    tag_99:\n        /* \"contracts/Surebuy.sol\":5871:5973  !isVendor[temp.vendor] ||... */\n      dup1\n      tag_100\n      jumpi\n      pop\n        /* \"contracts/Surebuy.sol\":5961:5965  temp */\n      dup1\n        /* \"contracts/Surebuy.sol\":5961:5973  temp.granted */\n      0x60\n      add\n      mload\n        /* \"contracts/Surebuy.sol\":5871:5973  !isVendor[temp.vendor] ||... */\n    tag_100:\n        /* \"contracts/Surebuy.sol\":5853:6020  if (... */\n      iszero\n      tag_101\n      jumpi\n        /* \"contracts/Surebuy.sol\":6000:6008  revert() */\n      0x00\n      dup1\n      revert\n        /* \"contracts/Surebuy.sol\":5853:6020  if (... */\n    tag_101:\n        /* \"contracts/Surebuy.sol\":6063:6068  false */\n      0x00\n        /* \"contracts/Surebuy.sol\":6030:6041  idToRequest */\n      0x04\n        /* \"contracts/Surebuy.sol\":6030:6052  idToRequest[requestId] */\n      0x00\n        /* \"contracts/Surebuy.sol\":6042:6051  requestId */\n      dup5\n        /* \"contracts/Surebuy.sol\":6030:6052  idToRequest[requestId] */\n      dup2\n      mstore\n      0x20\n      add\n      swap1\n      dup2\n      mstore\n      0x20\n      add\n      0x00\n      keccak256\n        /* \"contracts/Surebuy.sol\":6030:6060  idToRequest[requestId].granted */\n      0x02\n      add\n      0x14\n        /* \"contracts/Surebuy.sol\":6030:6068  idToRequest[requestId].granted = false */\n      0x0100\n      exp\n      dup2\n      sload\n      dup2\n      0xff\n      mul\n      not\n      and\n      swap1\n      dup4\n      iszero\n      iszero\n      mul\n      or\n      swap1\n      sstore\n      pop\n        /* \"contracts/Surebuy.sol\":6079:6093  uint256 index1 */\n      0x00\n        /* \"contracts/Surebuy.sol\":6104:6114  uint256 n1 */\n      dup1\n        /* \"contracts/Surebuy.sol\":6117:6141  manufacturerToRequestIds */\n      0x07\n        /* \"contracts/Surebuy.sol\":6117:6153  manufacturerToRequestIds[msg.sender] */\n      0x00\n        /* \"contracts/Surebuy.sol\":6142:6152  msg.sender */\n      caller\n        /* \"contracts/Surebuy.sol\":6117:6153  manufacturerToRequestIds[msg.sender] */\n      0xffffffffffffffffffffffffffffffffffffffff\n      and\n      0xffffffffffffffffffffffffffffffffffffffff\n      and\n      dup2\n      mstore\n      0x20\n      add\n      swap1\n      dup2\n      mstore\n      0x20\n      add\n      0x00\n      keccak256\n        /* \"contracts/Surebuy.sol\":6117:6160  manufacturerToRequestIds[msg.sender].length */\n      dup1\n      sload\n      swap1\n      pop\n        /* \"contracts/Surebuy.sol\":6104:6160  uint256 n1 = manufacturerToRequestIds[msg.sender].length */\n      swap1\n      pop\n        /* \"contracts/Surebuy.sol\":6171:6180  bool flag */\n      0x00\n        /* \"contracts/Surebuy.sol\":6204:6213  uint256 i */\n      dup1\n        /* \"contracts/Surebuy.sol\":6199:6415  for (uint256 i = 0; i < n1; i++) {... */\n    tag_102:\n        /* \"contracts/Surebuy.sol\":6223:6225  n1 */\n      dup3\n        /* \"contracts/Surebuy.sol\":6219:6220  i */\n      dup2\n        /* \"contracts/Surebuy.sol\":6219:6225  i < n1 */\n      lt\n        /* \"contracts/Surebuy.sol\":6199:6415  for (uint256 i = 0; i < n1; i++) {... */\n      iszero\n      tag_103\n      jumpi\n        /* \"contracts/Surebuy.sol\":6264:6288  manufacturerToRequestIds */\n      0x07\n        /* \"contracts/Surebuy.sol\":6264:6300  manufacturerToRequestIds[msg.sender] */\n      0x00\n        /* \"contracts/Surebuy.sol\":6289:6299  msg.sender */\n      caller\n        /* \"contracts/Surebuy.sol\":6264:6300  manufacturerToRequestIds[msg.sender] */\n      0xffffffffffffffffffffffffffffffffffffffff\n      and\n      0xffffffffffffffffffffffffffffffffffffffff\n      and\n      dup2\n      mstore\n      0x20\n      add\n      swap1\n      dup2\n      mstore\n      0x20\n      add\n      0x00\n      keccak256\n        /* \"contracts/Surebuy.sol\":6301:6302  i */\n      dup2\n        /* \"contracts/Surebuy.sol\":6264:6303  manufacturerToRequestIds[msg.sender][i] */\n      dup2\n      sload\n      dup2\n      lt\n      tag_105\n      jumpi\n      tag_106\n      tag_107\n      jump\t// in\n    tag_106:\n    tag_105:\n      swap1\n      0x00\n      mstore\n      keccak256(0x00, 0x20)\n      add\n      sload\n        /* \"contracts/Surebuy.sol\":6251:6260  requestId */\n      dup7\n        /* \"contracts/Surebuy.sol\":6251:6303  requestId == manufacturerToRequestIds[msg.sender][i] */\n      sub\n        /* \"contracts/Surebuy.sol\":6247:6404  if (requestId == manufacturerToRequestIds[msg.sender][i]) {... */\n      tag_109\n      jumpi\n        /* \"contracts/Surebuy.sol\":6333:6334  i */\n      dup1\n        /* \"contracts/Surebuy.sol\":6324:6334  index1 = i */\n      swap4\n      pop\n        /* \"contracts/Surebuy.sol\":6360:6364  true */\n      0x01\n        /* \"contracts/Surebuy.sol\":6353:6364  flag = true */\n      swap2\n      pop\n        /* \"contracts/Surebuy.sol\":6383:6388  break */\n      jump(tag_103)\n        /* \"contracts/Surebuy.sol\":6247:6404  if (requestId == manufacturerToRequestIds[msg.sender][i]) {... */\n    tag_109:\n        /* \"contracts/Surebuy.sol\":6227:6230  i++ */\n      dup1\n      dup1\n      0x01\n      add\n      swap2\n      pop\n      pop\n        /* \"contracts/Surebuy.sol\":6199:6415  for (uint256 i = 0; i < n1; i++) {... */\n      jump(tag_102)\n    tag_103:\n      pop\n        /* \"contracts/Surebuy.sol\":6430:6434  flag */\n      dup1\n        /* \"contracts/Surebuy.sol\":6425:6471  if (!flag) {... */\n      tag_110\n      jumpi\n        /* \"contracts/Surebuy.sol\":6451:6459  revert() */\n      0x00\n      dup1\n      revert\n        /* \"contracts/Surebuy.sol\":6425:6471  if (!flag) {... */\n    tag_110:\n        /* \"contracts/Surebuy.sol\":6528:6552  manufacturerToRequestIds */\n      0x07\n        /* \"contracts/Surebuy.sol\":6528:6588  manufacturerToRequestIds[... */\n      0x00\n        /* \"contracts/Surebuy.sol\":6567:6577  msg.sender */\n      caller\n        /* \"contracts/Surebuy.sol\":6528:6588  manufacturerToRequestIds[... */\n      0xffffffffffffffffffffffffffffffffffffffff\n      and\n      0xffffffffffffffffffffffffffffffffffffffff\n      and\n      dup2\n      mstore\n      0x20\n      add\n      swap1\n      dup2\n      mstore\n      0x20\n      add\n      0x00\n      keccak256\n        /* \"contracts/Surebuy.sol\":6594:6595  1 */\n      0x01\n        /* \"contracts/Surebuy.sol\":6589:6591  n1 */\n      dup4\n        /* \"contracts/Surebuy.sol\":6589:6595  n1 - 1 */\n      tag_111\n      swap2\n      swap1\n      tag_112\n      jump\t// in\n    tag_111:\n        /* \"contracts/Surebuy.sol\":6528:6596  manufacturerToRequestIds[... */\n      dup2\n      sload\n      dup2\n      lt\n      tag_113\n      jumpi\n      tag_114\n      tag_107\n      jump\t// in\n    tag_114:\n    tag_113:\n      swap1\n      0x00\n      mstore\n      keccak256(0x00, 0x20)\n      add\n      sload\n        /* \"contracts/Surebuy.sol\":6481:6505  manufacturerToRequestIds */\n      0x07\n        /* \"contracts/Surebuy.sol\":6481:6517  manufacturerToRequestIds[msg.sender] */\n      0x00\n        /* \"contracts/Surebuy.sol\":6506:6516  msg.sender */\n      caller\n        /* \"contracts/Surebuy.sol\":6481:6517  manufacturerToRequestIds[msg.sender] */\n      0xffffffffffffffffffffffffffffffffffffffff\n      and\n      0xffffffffffffffffffffffffffffffffffffffff\n      and\n      dup2\n      mstore\n      0x20\n      add\n      swap1\n      dup2\n      mstore\n      0x20\n      add\n      0x00\n      keccak256\n        /* \"contracts/Surebuy.sol\":6518:6524  index1 */\n      dup5\n        /* \"contracts/Surebuy.sol\":6481:6525  manufacturerToRequestIds[msg.sender][index1] */\n      dup2\n      sload\n      dup2\n      lt\n      tag_116\n      jumpi\n      tag_117\n      tag_107\n      jump\t// in\n    tag_117:\n    tag_116:\n      swap1\n      0x00\n      mstore\n      keccak256(0x00, 0x20)\n      add\n        /* \"contracts/Surebuy.sol\":6481:6596  manufacturerToRequestIds[msg.sender][index1] = manufacturerToRequestIds[... */\n      dup2\n      swap1\n      sstore\n      pop\n        /* \"contracts/Surebuy.sol\":6607:6631  manufacturerToRequestIds */\n      0x07\n        /* \"contracts/Surebuy.sol\":6607:6643  manufacturerToRequestIds[msg.sender] */\n      0x00\n        /* \"contracts/Surebuy.sol\":6632:6642  msg.sender */\n      caller\n        /* \"contracts/Surebuy.sol\":6607:6643  manufacturerToRequestIds[msg.sender] */\n      0xffffffffffffffffffffffffffffffffffffffff\n      and\n      0xffffffffffffffffffffffffffffffffffffffff\n      and\n      dup2\n      mstore\n      0x20\n      add\n      swap1\n      dup2\n      mstore\n      0x20\n      add\n      0x00\n      keccak256\n        /* \"contracts/Surebuy.sol\":6607:6649  manufacturerToRequestIds[msg.sender].pop() */\n      dup1\n      sload\n      dup1\n      tag_119\n      jumpi\n      tag_120\n      tag_121\n      jump\t// in\n    tag_120:\n    tag_119:\n      0x01\n      swap1\n      sub\n      dup2\n      dup2\n      swap1\n      0x00\n      mstore\n      keccak256(0x00, 0x20)\n      add\n      0x00\n      swap1\n      sstore\n      swap1\n      sstore\n        /* \"contracts/Surebuy.sol\":6660:6674  uint256 index2 */\n      0x00\n        /* \"contracts/Surebuy.sol\":6685:6695  uint256 n2 */\n      dup1\n        /* \"contracts/Surebuy.sol\":6698:6716  vendorToRequestIds */\n      0x06\n        /* \"contracts/Surebuy.sol\":6698:6729  vendorToRequestIds[temp.vendor] */\n      0x00\n        /* \"contracts/Surebuy.sol\":6717:6721  temp */\n      dup8\n        /* \"contracts/Surebuy.sol\":6717:6728  temp.vendor */\n      0x20\n      add\n      mload\n        /* \"contracts/Surebuy.sol\":6698:6729  vendorToRequestIds[temp.vendor] */\n      0xffffffffffffffffffffffffffffffffffffffff\n      and\n      0xffffffffffffffffffffffffffffffffffffffff\n      and\n      dup2\n      mstore\n      0x20\n      add\n      swap1\n      dup2\n      mstore\n      0x20\n      add\n      0x00\n      keccak256\n        /* \"contracts/Surebuy.sol\":6698:6736  vendorToRequestIds[temp.vendor].length */\n      dup1\n      sload\n      swap1\n      pop\n        /* \"contracts/Surebuy.sol\":6685:6736  uint256 n2 = vendorToRequestIds[temp.vendor].length */\n      swap1\n      pop\n        /* \"contracts/Surebuy.sol\":6752:6761  uint256 i */\n      0x00\n        /* \"contracts/Surebuy.sol\":6747:6928  for (uint256 i = 0; i < n2; i++) {... */\n    tag_123:\n        /* \"contracts/Surebuy.sol\":6771:6773  n2 */\n      dup2\n        /* \"contracts/Surebuy.sol\":6767:6768  i */\n      dup2\n        /* \"contracts/Surebuy.sol\":6767:6773  i < n2 */\n      lt\n        /* \"contracts/Surebuy.sol\":6747:6928  for (uint256 i = 0; i < n2; i++) {... */\n      iszero\n      tag_124\n      jumpi\n        /* \"contracts/Surebuy.sol\":6812:6830  vendorToRequestIds */\n      0x06\n        /* \"contracts/Surebuy.sol\":6812:6843  vendorToRequestIds[temp.vendor] */\n      0x00\n        /* \"contracts/Surebuy.sol\":6831:6835  temp */\n      dup9\n        /* \"contracts/Surebuy.sol\":6831:6842  temp.vendor */\n      0x20\n      add\n      mload\n        /* \"contracts/Surebuy.sol\":6812:6843  vendorToRequestIds[temp.vendor] */\n      0xffffffffffffffffffffffffffffffffffffffff\n      and\n      0xffffffffffffffffffffffffffffffffffffffff\n      and\n      dup2\n      mstore\n      0x20\n      add\n      swap1\n      dup2\n      mstore\n      0x20\n      add\n      0x00\n      keccak256\n        /* \"contracts/Surebuy.sol\":6844:6845  i */\n      dup2\n        /* \"contracts/Surebuy.sol\":6812:6846  vendorToRequestIds[temp.vendor][i] */\n      dup2\n      sload\n      dup2\n      lt\n      tag_126\n      jumpi\n      tag_127\n      tag_107\n      jump\t// in\n    tag_127:\n    tag_126:\n      swap1\n      0x00\n      mstore\n      keccak256(0x00, 0x20)\n      add\n      sload\n        /* \"contracts/Surebuy.sol\":6799:6808  requestId */\n      dup9\n        /* \"contracts/Surebuy.sol\":6799:6846  requestId == vendorToRequestIds[temp.vendor][i] */\n      sub\n        /* \"contracts/Surebuy.sol\":6795:6917  if (requestId == vendorToRequestIds[temp.vendor][i]) {... */\n      tag_129\n      jumpi\n        /* \"contracts/Surebuy.sol\":6876:6877  i */\n      dup1\n        /* \"contracts/Surebuy.sol\":6867:6877  index2 = i */\n      swap3\n      pop\n        /* \"contracts/Surebuy.sol\":6896:6901  break */\n      jump(tag_124)\n        /* \"contracts/Surebuy.sol\":6795:6917  if (requestId == vendorToRequestIds[temp.vendor][i]) {... */\n    tag_129:\n        /* \"contracts/Surebuy.sol\":6775:6778  i++ */\n      dup1\n      dup1\n      0x01\n      add\n      swap2\n      pop\n      pop\n        /* \"contracts/Surebuy.sol\":6747:6928  for (uint256 i = 0; i < n2; i++) {... */\n      jump(tag_123)\n    tag_124:\n      pop\n        /* \"contracts/Surebuy.sol\":6980:6998  vendorToRequestIds */\n      0x06\n        /* \"contracts/Surebuy.sol\":6980:7035  vendorToRequestIds[... */\n      0x00\n        /* \"contracts/Surebuy.sol\":7013:7017  temp */\n      dup8\n        /* \"contracts/Surebuy.sol\":7013:7024  temp.vendor */\n      0x20\n      add\n      mload\n        /* \"contracts/Surebuy.sol\":6980:7035  vendorToRequestIds[... */\n      0xffffffffffffffffffffffffffffffffffffffff\n      and\n      0xffffffffffffffffffffffffffffffffffffffff\n      and\n      dup2\n      mstore\n      0x20\n      add\n      swap1\n      dup2\n      mstore\n      0x20\n      add\n      0x00\n      keccak256\n        /* \"contracts/Surebuy.sol\":7041:7042  1 */\n      0x01\n        /* \"contracts/Surebuy.sol\":7036:7038  n2 */\n      dup3\n        /* \"contracts/Surebuy.sol\":7036:7042  n2 - 1 */\n      tag_130\n      swap2\n      swap1\n      tag_112\n      jump\t// in\n    tag_130:\n        /* \"contracts/Surebuy.sol\":6980:7043  vendorToRequestIds[... */\n      dup2\n      sload\n      dup2\n      lt\n      tag_131\n      jumpi\n      tag_132\n      tag_107\n      jump\t// in\n    tag_132:\n    tag_131:\n      swap1\n      0x00\n      mstore\n      keccak256(0x00, 0x20)\n      add\n      sload\n        /* \"contracts/Surebuy.sol\":6938:6956  vendorToRequestIds */\n      0x06\n        /* \"contracts/Surebuy.sol\":6938:6969  vendorToRequestIds[temp.vendor] */\n      0x00\n        /* \"contracts/Surebuy.sol\":6957:6961  temp */\n      dup9\n        /* \"contracts/Surebuy.sol\":6957:6968  temp.vendor */\n      0x20\n      add\n      mload\n        /* \"contracts/Surebuy.sol\":6938:6969  vendorToRequestIds[temp.vendor] */\n      0xffffffffffffffffffffffffffffffffffffffff\n      and\n      0xffffffffffffffffffffffffffffffffffffffff\n      and\n      dup2\n      mstore\n      0x20\n      add\n      swap1\n      dup2\n      mstore\n      0x20\n      add\n      0x00\n      keccak256\n        /* \"contracts/Surebuy.sol\":6970:6976  index2 */\n      dup4\n        /* \"contracts/Surebuy.sol\":6938:6977  vendorToRequestIds[temp.vendor][index2] */\n      dup2\n      sload\n      dup2\n      lt\n      tag_134\n      jumpi\n      tag_135\n      tag_107\n      jump\t// in\n    tag_135:\n    tag_134:\n      swap1\n      0x00\n      mstore\n      keccak256(0x00, 0x20)\n      add\n        /* \"contracts/Surebuy.sol\":6938:7043  vendorToRequestIds[temp.vendor][index2] = vendorToRequestIds[... */\n      dup2\n      swap1\n      sstore\n      pop\n        /* \"contracts/Surebuy.sol\":7054:7072  vendorToRequestIds */\n      0x06\n        /* \"contracts/Surebuy.sol\":7054:7085  vendorToRequestIds[temp.vendor] */\n      0x00\n        /* \"contracts/Surebuy.sol\":7073:7077  temp */\n      dup8\n        /* \"contracts/Surebuy.sol\":7073:7084  temp.vendor */\n      0x20\n      add\n      mload\n        /* \"contracts/Surebuy.sol\":7054:7085  vendorToRequestIds[temp.vendor] */\n      0xffffffffffffffffffffffffffffffffffffffff\n      and\n      0xffffffffffffffffffffffffffffffffffffffff\n      and\n      dup2\n      mstore\n      0x20\n      add\n      swap1\n      dup2\n      mstore\n      0x20\n      add\n      0x00\n      keccak256\n        /* \"contracts/Surebuy.sol\":7054:7091  vendorToRequestIds[temp.vendor].pop() */\n      dup1\n      sload\n      dup1\n      tag_137\n      jumpi\n      tag_138\n      tag_121\n      jump\t// in\n    tag_138:\n    tag_137:\n      0x01\n      swap1\n      sub\n      dup2\n      dup2\n      swap1\n      0x00\n      mstore\n      keccak256(0x00, 0x20)\n      add\n      0x00\n      swap1\n      sstore\n      swap1\n      sstore\n        /* \"contracts/Surebuy.sol\":7146:7151  false */\n      0x00\n        /* \"contracts/Surebuy.sol\":7102:7111  requested */\n      0x09\n        /* \"contracts/Surebuy.sol\":7102:7124  requested[temp.vendor] */\n      0x00\n        /* \"contracts/Surebuy.sol\":7112:7116  temp */\n      dup9\n        /* \"contracts/Surebuy.sol\":7112:7123  temp.vendor */\n      0x20\n      add\n      mload\n        /* \"contracts/Surebuy.sol\":7102:7124  requested[temp.vendor] */\n      0xffffffffffffffffffffffffffffffffffffffff\n      and\n      0xffffffffffffffffffffffffffffffffffffffff\n      and\n      dup2\n      mstore\n      0x20\n      add\n      swap1\n      dup2\n      mstore\n      0x20\n      add\n      0x00\n      keccak256\n        /* \"contracts/Surebuy.sol\":7102:7143  requested[temp.vendor][temp.manufacturer] */\n      0x00\n        /* \"contracts/Surebuy.sol\":7125:7129  temp */\n      dup9\n        /* \"contracts/Surebuy.sol\":7125:7142  temp.manufacturer */\n      0x40\n      add\n      mload\n        /* \"contracts/Surebuy.sol\":7102:7143  requested[temp.vendor][temp.manufacturer] */\n      0xffffffffffffffffffffffffffffffffffffffff\n      and\n      0xffffffffffffffffffffffffffffffffffffffff\n      and\n      dup2\n      mstore\n      0x20\n      add\n      swap1\n      dup2\n      mstore\n      0x20\n      add\n      0x00\n      keccak256\n      0x00\n        /* \"contracts/Surebuy.sol\":7102:7151  requested[temp.vendor][temp.manufacturer] = false */\n      0x0100\n      exp\n      dup2\n      sload\n      dup2\n      0xff\n      mul\n      not\n      and\n      swap1\n      dup4\n      iszero\n      iszero\n      mul\n      or\n      swap1\n      sstore\n      pop\n        /* \"contracts/Surebuy.sol\":5603:7159  {... */\n      pop\n      pop\n      pop\n      pop\n      pop\n      pop\n        /* \"contracts/Surebuy.sol\":5551:7159  function declineRequest(uint256 requestId) external {... */\n      pop\n      jump\t// out\n        /* \"contracts/Surebuy.sol\":8247:8469  function isAttested(address _ven, address _man) external view returns(bool){... */\n    tag_38:\n        /* \"contracts/Surebuy.sol\":8317:8321  bool */\n      0x00\n        /* \"contracts/Surebuy.sol\":8337:8345  isVendor */\n      0x03\n        /* \"contracts/Surebuy.sol\":8337:8351  isVendor[_ven] */\n      0x00\n        /* \"contracts/Surebuy.sol\":8346:8350  _ven */\n      dup5\n        /* \"contracts/Surebuy.sol\":8337:8351  isVendor[_ven] */\n      0xffffffffffffffffffffffffffffffffffffffff\n      and\n      0xffffffffffffffffffffffffffffffffffffffff\n      and\n      dup2\n      mstore\n      0x20\n      add\n      swap1\n      dup2\n      mstore\n      0x20\n      add\n      0x00\n      keccak256\n      0x00\n      swap1\n      sload\n      swap1\n      0x0100\n      exp\n      swap1\n      div\n      0xff\n      and\n        /* \"contracts/Surebuy.sol\":8336:8351  !isVendor[_ven] */\n      iszero\n        /* \"contracts/Surebuy.sol\":8336:8376  !isVendor[_ven] || !isManufacturer[_man] */\n      dup1\n      tag_141\n      jumpi\n      pop\n        /* \"contracts/Surebuy.sol\":8356:8370  isManufacturer */\n      0x02\n        /* \"contracts/Surebuy.sol\":8356:8376  isManufacturer[_man] */\n      0x00\n        /* \"contracts/Surebuy.sol\":8371:8375  _man */\n      dup4\n        /* \"contracts/Surebuy.sol\":8356:8376  isManufacturer[_man] */\n      0xffffffffffffffffffffffffffffffffffffffff\n      and\n      0xffffffffffffffffffffffffffffffffffffffff\n      and\n      dup2\n      mstore\n      0x20\n      add\n      swap1\n      dup2\n      mstore\n      0x20\n      add\n      0x00\n      keccak256\n      0x00\n      swap1\n      sload\n      swap1\n      0x0100\n      exp\n      swap1\n      div\n      0xff\n      and\n        /* \"contracts/Surebuy.sol\":8355:8376  !isManufacturer[_man] */\n      iszero\n        /* \"contracts/Surebuy.sol\":8336:8376  !isVendor[_ven] || !isManufacturer[_man] */\n    tag_141:\n        /* \"contracts/Surebuy.sol\":8333:8412  if(!isVendor[_ven] || !isManufacturer[_man]){... */\n      iszero\n      tag_142\n      jumpi\n        /* \"contracts/Surebuy.sol\":8392:8400  revert() */\n      0x00\n      dup1\n      revert\n        /* \"contracts/Surebuy.sol\":8333:8412  if(!isVendor[_ven] || !isManufacturer[_man]){... */\n    tag_142:\n        /* \"contracts/Surebuy.sol\":8429:8449  vendorToManufacturer */\n      0x08\n        /* \"contracts/Surebuy.sol\":8429:8455  vendorToManufacturer[_ven] */\n      0x00\n        /* \"contracts/Surebuy.sol\":8450:8454  _ven */\n      dup5\n        /* \"contracts/Surebuy.sol\":8429:8455  vendorToManufacturer[_ven] */\n      0xffffffffffffffffffffffffffffffffffffffff\n      and\n      0xffffffffffffffffffffffffffffffffffffffff\n      and\n      dup2\n      mstore\n      0x20\n      add\n      swap1\n      dup2\n      mstore\n      0x20\n      add\n      0x00\n      keccak256\n        /* \"contracts/Surebuy.sol\":8429:8461  vendorToManufacturer[_ven][_man] */\n      0x00\n        /* \"contracts/Surebuy.sol\":8456:8460  _man */\n      dup4\n        /* \"contracts/Surebuy.sol\":8429:8461  vendorToManufacturer[_ven][_man] */\n      0xffffffffffffffffffffffffffffffffffffffff\n      and\n      0xffffffffffffffffffffffffffffffffffffffff\n      and\n      dup2\n      mstore\n      0x20\n      add\n      swap1\n      dup2\n      mstore\n      0x20\n      add\n      0x00\n      keccak256\n      0x00\n      swap1\n      sload\n      swap1\n      0x0100\n      exp\n      swap1\n      div\n      0xff\n      and\n        /* \"contracts/Surebuy.sol\":8422:8461  return vendorToManufacturer[_ven][_man] */\n      swap1\n      pop\n        /* \"contracts/Surebuy.sol\":8247:8469  function isAttested(address _ven, address _man) external view returns(bool){... */\n      swap3\n      swap2\n      pop\n      pop\n      jump\t// out\n        /* \"contracts/Surebuy.sol\":9105:9334  function getEntity(address _addr) external view returns(Entity memory){... */\n    tag_44:\n        /* \"contracts/Surebuy.sol\":9161:9174  Entity memory */\n      tag_143\n      tag_144\n      jump\t// in\n    tag_143:\n        /* \"contracts/Surebuy.sol\":9189:9203  isManufacturer */\n      0x02\n        /* \"contracts/Surebuy.sol\":9189:9210  isManufacturer[_addr] */\n      0x00\n        /* \"contracts/Surebuy.sol\":9204:9209  _addr */\n      dup4\n        /* \"contracts/Surebuy.sol\":9189:9210  isManufacturer[_addr] */\n      0xffffffffffffffffffffffffffffffffffffffff\n      and\n      0xffffffffffffffffffffffffffffffffffffffff\n      and\n      dup2\n      mstore\n      0x20\n      add\n      swap1\n      dup2\n      mstore\n      0x20\n      add\n      0x00\n      keccak256\n      0x00\n      swap1\n      sload\n      swap1\n      0x0100\n      exp\n      swap1\n      div\n      0xff\n      and\n        /* \"contracts/Surebuy.sol\":9189:9229  isManufacturer[_addr] || isVendor[_addr] */\n      dup1\n      tag_146\n      jumpi\n      pop\n        /* \"contracts/Surebuy.sol\":9214:9222  isVendor */\n      0x03\n        /* \"contracts/Surebuy.sol\":9214:9229  isVendor[_addr] */\n      0x00\n        /* \"contracts/Surebuy.sol\":9223:9228  _addr */\n      dup4\n        /* \"contracts/Surebuy.sol\":9214:9229  isVendor[_addr] */\n      0xffffffffffffffffffffffffffffffffffffffff\n      and\n      0xffffffffffffffffffffffffffffffffffffffff\n      and\n      dup2\n      mstore\n      0x20\n      add\n      swap1\n      dup2\n      mstore\n      0x20\n      add\n      0x00\n      keccak256\n      0x00\n      swap1\n      sload\n      swap1\n      0x0100\n      exp\n      swap1\n      div\n      0xff\n      and\n        /* \"contracts/Surebuy.sol\":9189:9229  isManufacturer[_addr] || isVendor[_addr] */\n    tag_146:\n        /* \"contracts/Surebuy.sol\":9186:9325  if(isManufacturer[_addr] || isVendor[_addr]){... */\n      iszero\n      tag_147\n      jumpi\n        /* \"contracts/Surebuy.sol\":9252:9267  addressToEntity */\n      0x05\n        /* \"contracts/Surebuy.sol\":9252:9274  addressToEntity[_addr] */\n      0x00\n        /* \"contracts/Surebuy.sol\":9268:9273  _addr */\n      dup4\n        /* \"contracts/Surebuy.sol\":9252:9274  addressToEntity[_addr] */\n      0xffffffffffffffffffffffffffffffffffffffff\n      and\n      0xffffffffffffffffffffffffffffffffffffffff\n      and\n      dup2\n      mstore\n      0x20\n      add\n      swap1\n      dup2\n      mstore\n      0x20\n      add\n      0x00\n      keccak256\n        /* \"contracts/Surebuy.sol\":9245:9274  return addressToEntity[_addr] */\n      mload(0x40)\n      dup1\n      0x40\n      add\n      0x40\n      mstore\n      swap1\n      dup2\n      0x00\n      dup3\n      add\n      dup1\n      sload\n      tag_148\n      swap1\n      tag_149\n      jump\t// in\n    tag_148:\n      dup1\n      0x1f\n      add\n      0x20\n      dup1\n      swap2\n      div\n      mul\n      0x20\n      add\n      mload(0x40)\n      swap1\n      dup2\n      add\n      0x40\n      mstore\n      dup1\n      swap3\n      swap2\n      swap1\n      dup2\n      dup2\n      mstore\n      0x20\n      add\n      dup3\n      dup1\n      sload\n      tag_150\n      swap1\n      tag_149\n      jump\t// in\n    tag_150:\n      dup1\n      iszero\n      tag_151\n      jumpi\n      dup1\n      0x1f\n      lt\n      tag_152\n      jumpi\n      0x0100\n      dup1\n      dup4\n      sload\n      div\n      mul\n      dup4\n      mstore\n      swap2\n      0x20\n      add\n      swap2\n      jump(tag_151)\n    tag_152:\n      dup3\n      add\n      swap2\n      swap1\n      0x00\n      mstore\n      keccak256(0x00, 0x20)\n      swap1\n    tag_153:\n      dup2\n      sload\n      dup2\n      mstore\n      swap1\n      0x01\n      add\n      swap1\n      0x20\n      add\n      dup1\n      dup4\n      gt\n      tag_153\n      jumpi\n      dup3\n      swap1\n      sub\n      0x1f\n      and\n      dup3\n      add\n      swap2\n    tag_151:\n      pop\n      pop\n      pop\n      pop\n      pop\n      dup2\n      mstore\n      0x20\n      add\n      0x01\n      dup3\n      add\n      dup1\n      sload\n      tag_154\n      swap1\n      tag_149\n      jump\t// in\n    tag_154:\n      dup1\n      0x1f\n      add\n      0x20\n      dup1\n      swap2\n      div\n      mul\n      0x20\n      add\n      mload(0x40)\n      swap1\n      dup2\n      add\n      0x40\n      mstore\n      dup1\n      swap3\n      swap2\n      swap1\n      dup2\n      dup2\n      mstore\n      0x20\n      add\n      dup3\n      dup1\n      sload\n      tag_155\n      swap1\n      tag_149\n      jump\t// in\n    tag_155:\n      dup1\n      iszero\n      tag_156\n      jumpi\n      dup1\n      0x1f\n      lt\n      tag_157\n      jumpi\n      0x0100\n      dup1\n      dup4\n      sload\n      div\n      mul\n      dup4\n      mstore\n      swap2\n      0x20\n      add\n      swap2\n      jump(tag_156)\n    tag_157:\n      dup3\n      add\n      swap2\n      swap1\n      0x00\n      mstore\n      keccak256(0x00, 0x20)\n      swap1\n    tag_158:\n      dup2\n      sload\n      dup2\n      mstore\n      swap1\n      0x01\n      add\n      swap1\n      0x20\n      add\n      dup1\n      dup4\n      gt\n      tag_158\n      jumpi\n      dup3\n      swap1\n      sub\n      0x1f\n      and\n      dup3\n      add\n      swap2\n    tag_156:\n      pop\n      pop\n      pop\n      pop\n      pop\n      dup2\n      mstore\n      pop\n      pop\n      swap1\n      pop\n      jump(tag_145)\n        /* \"contracts/Surebuy.sol\":9186:9325  if(isManufacturer[_addr] || isVendor[_addr]){... */\n    tag_147:\n        /* \"contracts/Surebuy.sol\":9305:9313  revert() */\n      0x00\n      dup1\n      revert\n        /* \"contracts/Surebuy.sol\":9105:9334  function getEntity(address _addr) external view returns(Entity memory){... */\n    tag_145:\n      swap2\n      swap1\n      pop\n      jump\t// out\n        /* \"contracts/Surebuy.sol\":2164:2871  function sendRequest(address _man) public {... */\n    tag_49:\n        /* \"contracts/Surebuy.sol\":2236:2244  isVendor */\n      0x03\n        /* \"contracts/Surebuy.sol\":2236:2256  isVendor[msg.sender] */\n      0x00\n        /* \"contracts/Surebuy.sol\":2245:2255  msg.sender */\n      caller\n        /* \"contracts/Surebuy.sol\":2236:2256  isVendor[msg.sender] */\n      0xffffffffffffffffffffffffffffffffffffffff\n      and\n      0xffffffffffffffffffffffffffffffffffffffff\n      and\n      dup2\n      mstore\n      0x20\n      add\n      swap1\n      dup2\n      mstore\n      0x20\n      add\n      0x00\n      keccak256\n      0x00\n      swap1\n      sload\n      swap1\n      0x0100\n      exp\n      swap1\n      div\n      0xff\n      and\n        /* \"contracts/Surebuy.sol\":2235:2256  !isVendor[msg.sender] */\n      iszero\n        /* \"contracts/Surebuy.sol\":2235:2299  !isVendor[msg.sender] ||... */\n      dup1\n      tag_161\n      jumpi\n      pop\n        /* \"contracts/Surebuy.sol\":2273:2287  isManufacturer */\n      0x02\n        /* \"contracts/Surebuy.sol\":2273:2299  isManufacturer[msg.sender] */\n      0x00\n        /* \"contracts/Surebuy.sol\":2288:2298  msg.sender */\n      caller\n        /* \"contracts/Surebuy.sol\":2273:2299  isManufacturer[msg.sender] */\n      0xffffffffffffffffffffffffffffffffffffffff\n      and\n      0xffffffffffffffffffffffffffffffffffffffff\n      and\n      dup2\n      mstore\n      0x20\n      add\n      swap1\n      dup2\n      mstore\n      0x20\n      add\n      0x00\n      keccak256\n      0x00\n      swap1\n      sload\n      swap1\n      0x0100\n      exp\n      swap1\n      div\n      0xff\n      and\n        /* \"contracts/Surebuy.sol\":2235:2299  !isVendor[msg.sender] ||... */\n    tag_161:\n        /* \"contracts/Surebuy.sol\":2235:2343  !isVendor[msg.sender] ||... */\n      dup1\n      tag_162\n      jumpi\n      pop\n        /* \"contracts/Surebuy.sol\":2316:2325  requested */\n      0x09\n        /* \"contracts/Surebuy.sol\":2316:2337  requested[msg.sender] */\n      0x00\n        /* \"contracts/Surebuy.sol\":2326:2336  msg.sender */\n      caller\n        /* \"contracts/Surebuy.sol\":2316:2337  requested[msg.sender] */\n      0xffffffffffffffffffffffffffffffffffffffff\n      and\n      0xffffffffffffffffffffffffffffffffffffffff\n      and\n      dup2\n      mstore\n      0x20\n      add\n      swap1\n      dup2\n      mstore\n      0x20\n      add\n      0x00\n      keccak256\n        /* \"contracts/Surebuy.sol\":2316:2343  requested[msg.sender][_man] */\n      0x00\n        /* \"contracts/Surebuy.sol\":2338:2342  _man */\n      dup3\n        /* \"contracts/Surebuy.sol\":2316:2343  requested[msg.sender][_man] */\n      0xffffffffffffffffffffffffffffffffffffffff\n      and\n      0xffffffffffffffffffffffffffffffffffffffff\n      and\n      dup2\n      mstore\n      0x20\n      add\n      swap1\n      dup2\n      mstore\n      0x20\n      add\n      0x00\n      keccak256\n      0x00\n      swap1\n      sload\n      swap1\n      0x0100\n      exp\n      swap1\n      div\n      0xff\n      and\n        /* \"contracts/Surebuy.sol\":2235:2343  !isVendor[msg.sender] ||... */\n    tag_162:\n        /* \"contracts/Surebuy.sol\":2235:2381  !isVendor[msg.sender] ||... */\n      dup1\n      tag_163\n      jumpi\n      pop\n        /* \"contracts/Surebuy.sol\":2361:2375  isManufacturer */\n      0x02\n        /* \"contracts/Surebuy.sol\":2361:2381  isManufacturer[_man] */\n      0x00\n        /* \"contracts/Surebuy.sol\":2376:2380  _man */\n      dup3\n        /* \"contracts/Surebuy.sol\":2361:2381  isManufacturer[_man] */\n      0xffffffffffffffffffffffffffffffffffffffff\n      and\n      0xffffffffffffffffffffffffffffffffffffffff\n      and\n      dup2\n      mstore\n      0x20\n      add\n      swap1\n      dup2\n      mstore\n      0x20\n      add\n      0x00\n      keccak256\n      0x00\n      swap1\n      sload\n      swap1\n      0x0100\n      exp\n      swap1\n      div\n      0xff\n      and\n        /* \"contracts/Surebuy.sol\":2360:2381  !isManufacturer[_man] */\n      iszero\n        /* \"contracts/Surebuy.sol\":2235:2381  !isVendor[msg.sender] ||... */\n    tag_163:\n        /* \"contracts/Surebuy.sol\":2235:2412  !isVendor[msg.sender] ||... */\n      dup1\n      tag_164\n      jumpi\n      pop\n        /* \"contracts/Surebuy.sol\":2398:2406  isVendor */\n      0x03\n        /* \"contracts/Surebuy.sol\":2398:2412  isVendor[_man] */\n      0x00\n        /* \"contracts/Surebuy.sol\":2407:2411  _man */\n      dup3\n        /* \"contracts/Surebuy.sol\":2398:2412  isVendor[_man] */\n      0xffffffffffffffffffffffffffffffffffffffff\n      and\n      0xffffffffffffffffffffffffffffffffffffffff\n      and\n      dup2\n      mstore\n      0x20\n      add\n      swap1\n      dup2\n      mstore\n      0x20\n      add\n      0x00\n      keccak256\n      0x00\n      swap1\n      sload\n      swap1\n      0x0100\n      exp\n      swap1\n      div\n      0xff\n      and\n        /* \"contracts/Surebuy.sol\":2235:2412  !isVendor[msg.sender] ||... */\n    tag_164:\n        /* \"contracts/Surebuy.sol\":2217:2459  if (... */\n      iszero\n      tag_165\n      jumpi\n        /* \"contracts/Surebuy.sol\":2439:2447  revert() */\n      0x00\n      dup1\n      revert\n        /* \"contracts/Surebuy.sol\":2217:2459  if (... */\n    tag_165:\n        /* \"contracts/Surebuy.sol\":2469:2494  Request memory newRequest */\n      0x00\n        /* \"contracts/Surebuy.sol\":2497:2609  Request(... */\n      mload(0x40)\n      dup1\n      0x80\n      add\n      0x40\n      mstore\n      dup1\n        /* \"contracts/Surebuy.sol\":2519:2534  _requestCounter */\n      sload(0x01)\n        /* \"contracts/Surebuy.sol\":2497:2609  Request(... */\n      dup2\n      mstore\n      0x20\n      add\n        /* \"contracts/Surebuy.sol\":2549:2559  msg.sender */\n      caller\n        /* \"contracts/Surebuy.sol\":2497:2609  Request(... */\n      0xffffffffffffffffffffffffffffffffffffffff\n      and\n      dup2\n      mstore\n      0x20\n      add\n        /* \"contracts/Surebuy.sol\":2574:2578  _man */\n      dup4\n        /* \"contracts/Surebuy.sol\":2497:2609  Request(... */\n      0xffffffffffffffffffffffffffffffffffffffff\n      and\n      dup2\n      mstore\n      0x20\n      add\n        /* \"contracts/Surebuy.sol\":2593:2598  false */\n      0x00\n        /* \"contracts/Surebuy.sol\":2497:2609  Request(... */\n      iszero\n      iszero\n      dup2\n      mstore\n      pop\n        /* \"contracts/Surebuy.sol\":2469:2609  Request memory newRequest = Request(... */\n      swap1\n      pop\n        /* \"contracts/Surebuy.sol\":2651:2661  newRequest */\n      dup1\n        /* \"contracts/Surebuy.sol\":2620:2631  idToRequest */\n      0x04\n        /* \"contracts/Surebuy.sol\":2620:2648  idToRequest[_requestCounter] */\n      0x00\n        /* \"contracts/Surebuy.sol\":2632:2647  _requestCounter */\n      sload(0x01)\n        /* \"contracts/Surebuy.sol\":2620:2648  idToRequest[_requestCounter] */\n      dup2\n      mstore\n      0x20\n      add\n      swap1\n      dup2\n      mstore\n      0x20\n      add\n      0x00\n      keccak256\n        /* \"contracts/Surebuy.sol\":2620:2661  idToRequest[_requestCounter] = newRequest */\n      0x00\n      dup3\n      add\n      mload\n      dup2\n      0x00\n      add\n      sstore\n      0x20\n      dup3\n      add\n      mload\n      dup2\n      0x01\n      add\n      exp(0x0100, 0x00)\n      dup2\n      sload\n      dup2\n      0xffffffffffffffffffffffffffffffffffffffff\n      mul\n      not\n      and\n      swap1\n      dup4\n      0xffffffffffffffffffffffffffffffffffffffff\n      and\n      mul\n      or\n      swap1\n      sstore\n      pop\n      0x40\n      dup3\n      add\n      mload\n      dup2\n      0x02\n      add\n      exp(0x0100, 0x00)\n      dup2\n      sload\n      dup2\n      0xffffffffffffffffffffffffffffffffffffffff\n      mul\n      not\n      and\n      swap1\n      dup4\n      0xffffffffffffffffffffffffffffffffffffffff\n      and\n      mul\n      or\n      swap1\n      sstore\n      pop\n      0x60\n      dup3\n      add\n      mload\n      dup2\n      0x02\n      add\n      exp(0x0100, 0x14)\n      dup2\n      sload\n      dup2\n      0xff\n      mul\n      not\n      and\n      swap1\n      dup4\n      iszero\n      iszero\n      mul\n      or\n      swap1\n      sstore\n      pop\n      swap1\n      pop\n      pop\n        /* \"contracts/Surebuy.sol\":2672:2690  vendorToRequestIds */\n      0x06\n        /* \"contracts/Surebuy.sol\":2672:2702  vendorToRequestIds[msg.sender] */\n      0x00\n        /* \"contracts/Surebuy.sol\":2691:2701  msg.sender */\n      caller\n        /* \"contracts/Surebuy.sol\":2672:2702  vendorToRequestIds[msg.sender] */\n      0xffffffffffffffffffffffffffffffffffffffff\n      and\n      0xffffffffffffffffffffffffffffffffffffffff\n      and\n      dup2\n      mstore\n      0x20\n      add\n      swap1\n      dup2\n      mstore\n      0x20\n      add\n      0x00\n      keccak256\n        /* \"contracts/Surebuy.sol\":2708:2723  _requestCounter */\n      sload(0x01)\n        /* \"contracts/Surebuy.sol\":2672:2724  vendorToRequestIds[msg.sender].push(_requestCounter) */\n      swap1\n      dup1\n      0x01\n      dup2\n      sload\n      add\n      dup1\n      dup3\n      sstore\n      dup1\n      swap2\n      pop\n      pop\n      0x01\n      swap1\n      sub\n      swap1\n      0x00\n      mstore\n      keccak256(0x00, 0x20)\n      add\n      0x00\n      swap1\n      swap2\n      swap1\n      swap2\n      swap1\n      swap2\n      pop\n      sstore\n        /* \"contracts/Surebuy.sol\":2735:2759  manufacturerToRequestIds */\n      0x07\n        /* \"contracts/Surebuy.sol\":2735:2765  manufacturerToRequestIds[_man] */\n      0x00\n        /* \"contracts/Surebuy.sol\":2760:2764  _man */\n      dup4\n        /* \"contracts/Surebuy.sol\":2735:2765  manufacturerToRequestIds[_man] */\n      0xffffffffffffffffffffffffffffffffffffffff\n      and\n      0xffffffffffffffffffffffffffffffffffffffff\n      and\n      dup2\n      mstore\n      0x20\n      add\n      swap1\n      dup2\n      mstore\n      0x20\n      add\n      0x00\n      keccak256\n        /* \"contracts/Surebuy.sol\":2771:2786  _requestCounter */\n      sload(0x01)\n        /* \"contracts/Surebuy.sol\":2735:2787  manufacturerToRequestIds[_man].push(_requestCounter) */\n      swap1\n      dup1\n      0x01\n      dup2\n      sload\n      add\n      dup1\n      dup3\n      sstore\n      dup1\n      swap2\n      pop\n      pop\n      0x01\n      swap1\n      sub\n      swap1\n      0x00\n      mstore\n      keccak256(0x00, 0x20)\n      add\n      0x00\n      swap1\n      swap2\n      swap1\n      swap2\n      swap1\n      swap2\n      pop\n      sstore\n        /* \"contracts/Surebuy.sol\":2828:2832  true */\n      0x01\n        /* \"contracts/Surebuy.sol\":2798:2807  requested */\n      0x09\n        /* \"contracts/Surebuy.sol\":2798:2819  requested[msg.sender] */\n      0x00\n        /* \"contracts/Surebuy.sol\":2808:2818  msg.sender */\n      caller\n        /* \"contracts/Surebuy.sol\":2798:2819  requested[msg.sender] */\n      0xffffffffffffffffffffffffffffffffffffffff\n      and\n      0xffffffffffffffffffffffffffffffffffffffff\n      and\n      dup2\n      mstore\n      0x20\n      add\n      swap1\n      dup2\n      mstore\n      0x20\n      add\n      0x00\n      keccak256\n        /* \"contracts/Surebuy.sol\":2798:2825  requested[msg.sender][_man] */\n      0x00\n        /* \"contracts/Surebuy.sol\":2820:2824  _man */\n      dup5\n        /* \"contracts/Surebuy.sol\":2798:2825  requested[msg.sender][_man] */\n      0xffffffffffffffffffffffffffffffffffffffff\n      and\n      0xffffffffffffffffffffffffffffffffffffffff\n      and\n      dup2\n      mstore\n      0x20\n      add\n      swap1\n      dup2\n      mstore\n      0x20\n      add\n      0x00\n      keccak256\n      0x00\n        /* \"contracts/Surebuy.sol\":2798:2832  requested[msg.sender][_man] = true */\n      0x0100\n      exp\n      dup2\n      sload\n      dup2\n      0xff\n      mul\n      not\n      and\n      swap1\n      dup4\n      iszero\n      iszero\n      mul\n      or\n      swap1\n      sstore\n      pop\n        /* \"contracts/Surebuy.sol\":2862:2863  1 */\n      0x01\n        /* \"contracts/Surebuy.sol\":2843:2858  _requestCounter */\n      dup1\n      0x00\n        /* \"contracts/Surebuy.sol\":2843:2863  _requestCounter += 1 */\n      dup3\n      dup3\n      sload\n      tag_168\n      swap2\n      swap1\n      tag_169\n      jump\t// in\n    tag_168:\n      swap3\n      pop\n      pop\n      dup2\n      swap1\n      sstore\n      pop\n        /* \"contracts/Surebuy.sol\":2206:2871  {... */\n      pop\n        /* \"contracts/Surebuy.sol\":2164:2871  function sendRequest(address _man) public {... */\n      pop\n      jump\t// out\n        /* \"contracts/Surebuy.sol\":8015:8117  function isAVendor(address _addr) external view returns(bool){... */\n    tag_52:\n        /* \"contracts/Surebuy.sol\":8071:8075  bool */\n      0x00\n        /* \"contracts/Surebuy.sol\":8094:8102  isVendor */\n      0x03\n        /* \"contracts/Surebuy.sol\":8094:8109  isVendor[_addr] */\n      0x00\n        /* \"contracts/Surebuy.sol\":8103:8108  _addr */\n      dup4\n        /* \"contracts/Surebuy.sol\":8094:8109  isVendor[_addr] */\n      0xffffffffffffffffffffffffffffffffffffffff\n      and\n      0xffffffffffffffffffffffffffffffffffffffff\n      and\n      dup2\n      mstore\n      0x20\n      add\n      swap1\n      dup2\n      mstore\n      0x20\n      add\n      0x00\n      keccak256\n      0x00\n      swap1\n      sload\n      swap1\n      0x0100\n      exp\n      swap1\n      div\n      0xff\n      and\n        /* \"contracts/Surebuy.sol\":8087:8109  return isVendor[_addr] */\n      swap1\n      pop\n        /* \"contracts/Surebuy.sol\":8015:8117  function isAVendor(address _addr) external view returns(bool){... */\n      swap2\n      swap1\n      pop\n      jump\t// out\n        /* \"contracts/Surebuy.sol\":7167:8007  function getRequests() external view returns (Request[] memory) {... */\n    tag_55:\n        /* \"contracts/Surebuy.sol\":7213:7229  Request[] memory */\n      0x60\n        /* \"contracts/Surebuy.sol\":7246:7254  isVendor */\n      0x03\n        /* \"contracts/Surebuy.sol\":7246:7266  isVendor[msg.sender] */\n      0x00\n        /* \"contracts/Surebuy.sol\":7255:7265  msg.sender */\n      caller\n        /* \"contracts/Surebuy.sol\":7246:7266  isVendor[msg.sender] */\n      0xffffffffffffffffffffffffffffffffffffffff\n      and\n      0xffffffffffffffffffffffffffffffffffffffff\n      and\n      dup2\n      mstore\n      0x20\n      add\n      swap1\n      dup2\n      mstore\n      0x20\n      add\n      0x00\n      keccak256\n      0x00\n      swap1\n      sload\n      swap1\n      0x0100\n      exp\n      swap1\n      div\n      0xff\n      and\n        /* \"contracts/Surebuy.sol\":7242:8000  if (isVendor[msg.sender]) {... */\n      iszero\n      tag_172\n      jumpi\n        /* \"contracts/Surebuy.sol\":7283:7295  uint256 size */\n      0x00\n        /* \"contracts/Surebuy.sol\":7298:7316  vendorToRequestIds */\n      0x06\n        /* \"contracts/Surebuy.sol\":7298:7328  vendorToRequestIds[msg.sender] */\n      0x00\n        /* \"contracts/Surebuy.sol\":7317:7327  msg.sender */\n      caller\n        /* \"contracts/Surebuy.sol\":7298:7328  vendorToRequestIds[msg.sender] */\n      0xffffffffffffffffffffffffffffffffffffffff\n      and\n      0xffffffffffffffffffffffffffffffffffffffff\n      and\n      dup2\n      mstore\n      0x20\n      add\n      swap1\n      dup2\n      mstore\n      0x20\n      add\n      0x00\n      keccak256\n        /* \"contracts/Surebuy.sol\":7298:7335  vendorToRequestIds[msg.sender].length */\n      dup1\n      sload\n      swap1\n      pop\n        /* \"contracts/Surebuy.sol\":7283:7335  uint256 size = vendorToRequestIds[msg.sender].length */\n      swap1\n      pop\n        /* \"contracts/Surebuy.sol\":7350:7371  Request[] memory temp */\n      0x00\n        /* \"contracts/Surebuy.sol\":7388:7392  size */\n      dup2\n        /* \"contracts/Surebuy.sol\":7374:7393  new Request[](size) */\n      0xffffffffffffffff\n      dup2\n      gt\n      iszero\n      tag_173\n      jumpi\n      tag_174\n      tag_175\n      jump\t// in\n    tag_174:\n    tag_173:\n      mload(0x40)\n      swap1\n      dup1\n      dup3\n      mstore\n      dup1\n      0x20\n      mul\n      0x20\n      add\n      dup3\n      add\n      0x40\n      mstore\n      dup1\n      iszero\n      tag_176\n      jumpi\n      dup2\n      0x20\n      add\n    tag_177:\n      tag_178\n      tag_179\n      jump\t// in\n    tag_178:\n      dup2\n      mstore\n      0x20\n      add\n      swap1\n      0x01\n      swap1\n      sub\n      swap1\n      dup2\n      tag_177\n      jumpi\n      swap1\n      pop\n    tag_176:\n      pop\n        /* \"contracts/Surebuy.sol\":7350:7393  Request[] memory temp = new Request[](size) */\n      swap1\n      pop\n        /* \"contracts/Surebuy.sol\":7413:7419  uint i */\n      0x00\n        /* \"contracts/Surebuy.sol\":7408:7533  for (uint i = 0; i < size; i++) {... */\n    tag_180:\n        /* \"contracts/Surebuy.sol\":7429:7433  size */\n      dup3\n        /* \"contracts/Surebuy.sol\":7425:7426  i */\n      dup2\n        /* \"contracts/Surebuy.sol\":7425:7433  i < size */\n      lt\n        /* \"contracts/Surebuy.sol\":7408:7533  for (uint i = 0; i < size; i++) {... */\n      iszero\n      tag_181\n      jumpi\n        /* \"contracts/Surebuy.sol\":7470:7481  idToRequest */\n      0x04\n        /* \"contracts/Surebuy.sol\":7470:7516  idToRequest[vendorToRequestIds[msg.sender][i]] */\n      0x00\n        /* \"contracts/Surebuy.sol\":7482:7500  vendorToRequestIds */\n      0x06\n        /* \"contracts/Surebuy.sol\":7482:7512  vendorToRequestIds[msg.sender] */\n      0x00\n        /* \"contracts/Surebuy.sol\":7501:7511  msg.sender */\n      caller\n        /* \"contracts/Surebuy.sol\":7482:7512  vendorToRequestIds[msg.sender] */\n      0xffffffffffffffffffffffffffffffffffffffff\n      and\n      0xffffffffffffffffffffffffffffffffffffffff\n      and\n      dup2\n      mstore\n      0x20\n      add\n      swap1\n      dup2\n      mstore\n      0x20\n      add\n      0x00\n      keccak256\n        /* \"contracts/Surebuy.sol\":7513:7514  i */\n      dup4\n        /* \"contracts/Surebuy.sol\":7482:7515  vendorToRequestIds[msg.sender][i] */\n      dup2\n      sload\n      dup2\n      lt\n      tag_183\n      jumpi\n      tag_184\n      tag_107\n      jump\t// in\n    tag_184:\n    tag_183:\n      swap1\n      0x00\n      mstore\n      keccak256(0x00, 0x20)\n      add\n      sload\n        /* \"contracts/Surebuy.sol\":7470:7516  idToRequest[vendorToRequestIds[msg.sender][i]] */\n      dup2\n      mstore\n      0x20\n      add\n      swap1\n      dup2\n      mstore\n      0x20\n      add\n      0x00\n      keccak256\n        /* \"contracts/Surebuy.sol\":7459:7517  temp[i] = (idToRequest[vendorToRequestIds[msg.sender][i]]) */\n      mload(0x40)\n      dup1\n      0x80\n      add\n      0x40\n      mstore\n      swap1\n      dup2\n      0x00\n      dup3\n      add\n      sload\n      dup2\n      mstore\n      0x20\n      add\n      0x01\n      dup3\n      add\n      0x00\n      swap1\n      sload\n      swap1\n      0x0100\n      exp\n      swap1\n      div\n      0xffffffffffffffffffffffffffffffffffffffff\n      and\n      0xffffffffffffffffffffffffffffffffffffffff\n      and\n      0xffffffffffffffffffffffffffffffffffffffff\n      and\n      dup2\n      mstore\n      0x20\n      add\n      0x02\n      dup3\n      add\n      0x00\n      swap1\n      sload\n      swap1\n      0x0100\n      exp\n      swap1\n      div\n      0xffffffffffffffffffffffffffffffffffffffff\n      and\n      0xffffffffffffffffffffffffffffffffffffffff\n      and\n      0xffffffffffffffffffffffffffffffffffffffff\n      and\n      dup2\n      mstore\n      0x20\n      add\n      0x02\n      dup3\n      add\n      0x14\n      swap1\n      sload\n      swap1\n      0x0100\n      exp\n      swap1\n      div\n      0xff\n      and\n      iszero\n      iszero\n      iszero\n      iszero\n      dup2\n      mstore\n      pop\n      pop\n        /* \"contracts/Surebuy.sol\":7459:7463  temp */\n      dup3\n        /* \"contracts/Surebuy.sol\":7464:7465  i */\n      dup3\n        /* \"contracts/Surebuy.sol\":7459:7466  temp[i] */\n      dup2\n      mload\n      dup2\n      lt\n      tag_186\n      jumpi\n      tag_187\n      tag_107\n      jump\t// in\n    tag_187:\n    tag_186:\n      0x20\n      mul\n      0x20\n      add\n      add\n        /* \"contracts/Surebuy.sol\":7459:7517  temp[i] = (idToRequest[vendorToRequestIds[msg.sender][i]]) */\n      dup2\n      swap1\n      mstore\n      pop\n        /* \"contracts/Surebuy.sol\":7435:7438  i++ */\n      dup1\n      dup1\n      0x01\n      add\n      swap2\n      pop\n      pop\n        /* \"contracts/Surebuy.sol\":7408:7533  for (uint i = 0; i < size; i++) {... */\n      jump(tag_180)\n    tag_181:\n      pop\n        /* \"contracts/Surebuy.sol\":7554:7558  temp */\n      dup1\n        /* \"contracts/Surebuy.sol\":7547:7558  return temp */\n      swap3\n      pop\n      pop\n      pop\n      jump(tag_171)\n        /* \"contracts/Surebuy.sol\":7242:8000  if (isVendor[msg.sender]) {... */\n    tag_172:\n        /* \"contracts/Surebuy.sol\":7579:7593  isManufacturer */\n      0x02\n        /* \"contracts/Surebuy.sol\":7579:7605  isManufacturer[msg.sender] */\n      0x00\n        /* \"contracts/Surebuy.sol\":7594:7604  msg.sender */\n      caller\n        /* \"contracts/Surebuy.sol\":7579:7605  isManufacturer[msg.sender] */\n      0xffffffffffffffffffffffffffffffffffffffff\n      and\n      0xffffffffffffffffffffffffffffffffffffffff\n      and\n      dup2\n      mstore\n      0x20\n      add\n      swap1\n      dup2\n      mstore\n      0x20\n      add\n      0x00\n      keccak256\n      0x00\n      swap1\n      sload\n      swap1\n      0x0100\n      exp\n      swap1\n      div\n      0xff\n      and\n        /* \"contracts/Surebuy.sol\":7575:8000  if (isManufacturer[msg.sender]) {... */\n      iszero\n      tag_189\n      jumpi\n        /* \"contracts/Surebuy.sol\":7622:7634  uint256 size */\n      0x00\n        /* \"contracts/Surebuy.sol\":7637:7661  manufacturerToRequestIds */\n      0x07\n        /* \"contracts/Surebuy.sol\":7637:7673  manufacturerToRequestIds[msg.sender] */\n      0x00\n        /* \"contracts/Surebuy.sol\":7662:7672  msg.sender */\n      caller\n        /* \"contracts/Surebuy.sol\":7637:7673  manufacturerToRequestIds[msg.sender] */\n      0xffffffffffffffffffffffffffffffffffffffff\n      and\n      0xffffffffffffffffffffffffffffffffffffffff\n      and\n      dup2\n      mstore\n      0x20\n      add\n      swap1\n      dup2\n      mstore\n      0x20\n      add\n      0x00\n      keccak256\n        /* \"contracts/Surebuy.sol\":7637:7680  manufacturerToRequestIds[msg.sender].length */\n      dup1\n      sload\n      swap1\n      pop\n        /* \"contracts/Surebuy.sol\":7622:7680  uint256 size = manufacturerToRequestIds[msg.sender].length */\n      swap1\n      pop\n        /* \"contracts/Surebuy.sol\":7695:7716  Request[] memory temp */\n      0x00\n        /* \"contracts/Surebuy.sol\":7733:7737  size */\n      dup2\n        /* \"contracts/Surebuy.sol\":7719:7738  new Request[](size) */\n      0xffffffffffffffff\n      dup2\n      gt\n      iszero\n      tag_190\n      jumpi\n      tag_191\n      tag_175\n      jump\t// in\n    tag_191:\n    tag_190:\n      mload(0x40)\n      swap1\n      dup1\n      dup3\n      mstore\n      dup1\n      0x20\n      mul\n      0x20\n      add\n      dup3\n      add\n      0x40\n      mstore\n      dup1\n      iszero\n      tag_192\n      jumpi\n      dup2\n      0x20\n      add\n    tag_193:\n      tag_194\n      tag_179\n      jump\t// in\n    tag_194:\n      dup2\n      mstore\n      0x20\n      add\n      swap1\n      0x01\n      swap1\n      sub\n      swap1\n      dup2\n      tag_193\n      jumpi\n      swap1\n      pop\n    tag_192:\n      pop\n        /* \"contracts/Surebuy.sol\":7695:7738  Request[] memory temp = new Request[](size) */\n      swap1\n      pop\n        /* \"contracts/Surebuy.sol\":7758:7764  uint i */\n      0x00\n        /* \"contracts/Surebuy.sol\":7753:7924  for (uint i = 0; i < size; i++) {... */\n    tag_195:\n        /* \"contracts/Surebuy.sol\":7774:7778  size */\n      dup3\n        /* \"contracts/Surebuy.sol\":7770:7771  i */\n      dup2\n        /* \"contracts/Surebuy.sol\":7770:7778  i < size */\n      lt\n        /* \"contracts/Surebuy.sol\":7753:7924  for (uint i = 0; i < size; i++) {... */\n      iszero\n      tag_196\n      jumpi\n        /* \"contracts/Surebuy.sol\":7837:7848  idToRequest */\n      0x04\n        /* \"contracts/Surebuy.sol\":7837:7889  idToRequest[manufacturerToRequestIds[msg.sender][i]] */\n      0x00\n        /* \"contracts/Surebuy.sol\":7849:7873  manufacturerToRequestIds */\n      0x07\n        /* \"contracts/Surebuy.sol\":7849:7885  manufacturerToRequestIds[msg.sender] */\n      0x00\n        /* \"contracts/Surebuy.sol\":7874:7884  msg.sender */\n      caller\n        /* \"contracts/Surebuy.sol\":7849:7885  manufacturerToRequestIds[msg.sender] */\n      0xffffffffffffffffffffffffffffffffffffffff\n      and\n      0xffffffffffffffffffffffffffffffffffffffff\n      and\n      dup2\n      mstore\n      0x20\n      add\n      swap1\n      dup2\n      mstore\n      0x20\n      add\n      0x00\n      keccak256\n        /* \"contracts/Surebuy.sol\":7886:7887  i */\n      dup4\n        /* \"contracts/Surebuy.sol\":7849:7888  manufacturerToRequestIds[msg.sender][i] */\n      dup2\n      sload\n      dup2\n      lt\n      tag_198\n      jumpi\n      tag_199\n      tag_107\n      jump\t// in\n    tag_199:\n    tag_198:\n      swap1\n      0x00\n      mstore\n      keccak256(0x00, 0x20)\n      add\n      sload\n        /* \"contracts/Surebuy.sol\":7837:7889  idToRequest[manufacturerToRequestIds[msg.sender][i]] */\n      dup2\n      mstore\n      0x20\n      add\n      swap1\n      dup2\n      mstore\n      0x20\n      add\n      0x00\n      keccak256\n        /* \"contracts/Surebuy.sol\":7804:7908  temp[i] = (... */\n      mload(0x40)\n      dup1\n      0x80\n      add\n      0x40\n      mstore\n      swap1\n      dup2\n      0x00\n      dup3\n      add\n      sload\n      dup2\n      mstore\n      0x20\n      add\n      0x01\n      dup3\n      add\n      0x00\n      swap1\n      sload\n      swap1\n      0x0100\n      exp\n      swap1\n      div\n      0xffffffffffffffffffffffffffffffffffffffff\n      and\n      0xffffffffffffffffffffffffffffffffffffffff\n      and\n      0xffffffffffffffffffffffffffffffffffffffff\n      and\n      dup2\n      mstore\n      0x20\n      add\n      0x02\n      dup3\n      add\n      0x00\n      swap1\n      sload\n      swap1\n      0x0100\n      exp\n      swap1\n      div\n      0xffffffffffffffffffffffffffffffffffffffff\n      and\n      0xffffffffffffffffffffffffffffffffffffffff\n      and\n      0xffffffffffffffffffffffffffffffffffffffff\n      and\n      dup2\n      mstore\n      0x20\n      add\n      0x02\n      dup3\n      add\n      0x14\n      swap1\n      sload\n      swap1\n      0x0100\n      exp\n      swap1\n      div\n      0xff\n      and\n      iszero\n      iszero\n      iszero\n      iszero\n      dup2\n      mstore\n      pop\n      pop\n        /* \"contracts/Surebuy.sol\":7804:7808  temp */\n      dup3\n        /* \"contracts/Surebuy.sol\":7809:7810  i */\n      dup3\n        /* \"contracts/Surebuy.sol\":7804:7811  temp[i] */\n      dup2\n      mload\n      dup2\n      lt\n      tag_201\n      jumpi\n      tag_202\n      tag_107\n      jump\t// in\n    tag_202:\n    tag_201:\n      0x20\n      mul\n      0x20\n      add\n      add\n        /* \"contracts/Surebuy.sol\":7804:7908  temp[i] = (... */\n      dup2\n      swap1\n      mstore\n      pop\n        /* \"contracts/Surebuy.sol\":7780:7783  i++ */\n      dup1\n      dup1\n      0x01\n      add\n      swap2\n      pop\n      pop\n        /* \"contracts/Surebuy.sol\":7753:7924  for (uint i = 0; i < size; i++) {... */\n      jump(tag_195)\n    tag_196:\n      pop\n        /* \"contracts/Surebuy.sol\":7945:7949  temp */\n      dup1\n        /* \"contracts/Surebuy.sol\":7938:7949  return temp */\n      swap3\n      pop\n      pop\n      pop\n      jump(tag_171)\n        /* \"contracts/Surebuy.sol\":7575:8000  if (isManufacturer[msg.sender]) {... */\n    tag_189:\n        /* \"contracts/Surebuy.sol\":7980:7988  revert() */\n      0x00\n      dup1\n      revert\n        /* \"contracts/Surebuy.sol\":7167:8007  function getRequests() external view returns (Request[] memory) {... */\n    tag_171:\n      swap1\n      jump\t// out\n        /* \"contracts/Surebuy.sol\":1297:1393  function setSPInstance(address instance) external  {... */\n    tag_60:\n        /* \"contracts/Surebuy.sol\":1376:1384  instance */\n      dup1\n        /* \"contracts/Surebuy.sol\":1359:1369  spInstance */\n      0x00\n      dup1\n        /* \"contracts/Surebuy.sol\":1359:1385  spInstance = ISP(instance) */\n      0x0100\n      exp\n      dup2\n      sload\n      dup2\n      0xffffffffffffffffffffffffffffffffffffffff\n      mul\n      not\n      and\n      swap1\n      dup4\n      0xffffffffffffffffffffffffffffffffffffffff\n      and\n      mul\n      or\n      swap1\n      sstore\n      pop\n        /* \"contracts/Surebuy.sol\":1297:1393  function setSPInstance(address instance) external  {... */\n      pop\n      jump\t// out\n        /* \"contracts/Surebuy.sol\":8888:9099  function getApprovedVendors(address _man) external view returns(address[] memory){... */\n    tag_63:\n        /* \"contracts/Surebuy.sol\":8952:8968  address[] memory */\n      0x60\n        /* \"contracts/Surebuy.sol\":8984:8998  isManufacturer */\n      0x02\n        /* \"contracts/Surebuy.sol\":8984:9004  isManufacturer[_man] */\n      0x00\n        /* \"contracts/Surebuy.sol\":8999:9003  _man */\n      dup4\n        /* \"contracts/Surebuy.sol\":8984:9004  isManufacturer[_man] */\n      0xffffffffffffffffffffffffffffffffffffffff\n      and\n      0xffffffffffffffffffffffffffffffffffffffff\n      and\n      dup2\n      mstore\n      0x20\n      add\n      swap1\n      dup2\n      mstore\n      0x20\n      add\n      0x00\n      keccak256\n      0x00\n      swap1\n      sload\n      swap1\n      0x0100\n      exp\n      swap1\n      div\n      0xff\n      and\n        /* \"contracts/Surebuy.sol\":8980:9040  if(!isManufacturer[_man]){... */\n      tag_206\n      jumpi\n        /* \"contracts/Surebuy.sol\":9020:9028  revert() */\n      0x00\n      dup1\n      revert\n        /* \"contracts/Surebuy.sol\":8980:9040  if(!isManufacturer[_man]){... */\n    tag_206:\n        /* \"contracts/Surebuy.sol\":9057:9085  approvedManufacturerToVendor */\n      0x0b\n        /* \"contracts/Surebuy.sol\":9057:9091  approvedManufacturerToVendor[_man] */\n      0x00\n        /* \"contracts/Surebuy.sol\":9086:9090  _man */\n      dup4\n        /* \"contracts/Surebuy.sol\":9057:9091  approvedManufacturerToVendor[_man] */\n      0xffffffffffffffffffffffffffffffffffffffff\n      and\n      0xffffffffffffffffffffffffffffffffffffffff\n      and\n      dup2\n      mstore\n      0x20\n      add\n      swap1\n      dup2\n      mstore\n      0x20\n      add\n      0x00\n      keccak256\n        /* \"contracts/Surebuy.sol\":9050:9091  return approvedManufacturerToVendor[_man] */\n      dup1\n      sload\n      dup1\n      0x20\n      mul\n      0x20\n      add\n      mload(0x40)\n      swap1\n      dup2\n      add\n      0x40\n      mstore\n      dup1\n      swap3\n      swap2\n      swap1\n      dup2\n      dup2\n      mstore\n      0x20\n      add\n      dup3\n      dup1\n      sload\n      dup1\n      iszero\n      tag_207\n      jumpi\n      0x20\n      mul\n      dup3\n      add\n      swap2\n      swap1\n      0x00\n      mstore\n      keccak256(0x00, 0x20)\n      swap1\n    tag_208:\n      dup2\n      0x00\n      swap1\n      sload\n      swap1\n      0x0100\n      exp\n      swap1\n      div\n      0xffffffffffffffffffffffffffffffffffffffff\n      and\n      0xffffffffffffffffffffffffffffffffffffffff\n      and\n      dup2\n      mstore\n      0x20\n      add\n      swap1\n      0x01\n      add\n      swap1\n      dup1\n      dup4\n      gt\n      tag_208\n      jumpi\n    tag_207:\n      pop\n      pop\n      pop\n      pop\n      pop\n      swap1\n      pop\n        /* \"contracts/Surebuy.sol\":8888:9099  function getApprovedVendors(address _man) external view returns(address[] memory){... */\n      swap2\n      swap1\n      pop\n      jump\t// out\n        /* \"contracts/Surebuy.sol\":2879:5543  function confirmRequest(uint256 requestId) external returns (uint64) {... */\n    tag_68:\n        /* \"contracts/Surebuy.sol\":2940:2946  uint64 */\n      0x00\n        /* \"contracts/Surebuy.sol\":2990:3005  _requestCounter */\n      sload(0x01)\n        /* \"contracts/Surebuy.sol\":2977:2986  requestId */\n      dup3\n        /* \"contracts/Surebuy.sol\":2977:3005  requestId >= _requestCounter */\n      lt\n      iszero\n        /* \"contracts/Surebuy.sol\":2977:3049  requestId >= _requestCounter ||... */\n      dup1\n      tag_210\n      jumpi\n      pop\n        /* \"contracts/Surebuy.sol\":3023:3037  isManufacturer */\n      0x02\n        /* \"contracts/Surebuy.sol\":3023:3049  isManufacturer[msg.sender] */\n      0x00\n        /* \"contracts/Surebuy.sol\":3038:3048  msg.sender */\n      caller\n        /* \"contracts/Surebuy.sol\":3023:3049  isManufacturer[msg.sender] */\n      0xffffffffffffffffffffffffffffffffffffffff\n      and\n      0xffffffffffffffffffffffffffffffffffffffff\n      and\n      dup2\n      mstore\n      0x20\n      add\n      swap1\n      dup2\n      mstore\n      0x20\n      add\n      0x00\n      keccak256\n      0x00\n      swap1\n      sload\n      swap1\n      0x0100\n      exp\n      swap1\n      div\n      0xff\n      and\n        /* \"contracts/Surebuy.sol\":3022:3049  !isManufacturer[msg.sender] */\n      iszero\n        /* \"contracts/Surebuy.sol\":2977:3049  requestId >= _requestCounter ||... */\n    tag_210:\n        /* \"contracts/Surebuy.sol\":2977:3086  requestId >= _requestCounter ||... */\n      dup1\n      tag_211\n      jumpi\n      pop\n        /* \"contracts/Surebuy.sol\":3066:3074  isVendor */\n      0x03\n        /* \"contracts/Surebuy.sol\":3066:3086  isVendor[msg.sender] */\n      0x00\n        /* \"contracts/Surebuy.sol\":3075:3085  msg.sender */\n      caller\n        /* \"contracts/Surebuy.sol\":3066:3086  isVendor[msg.sender] */\n      0xffffffffffffffffffffffffffffffffffffffff\n      and\n      0xffffffffffffffffffffffffffffffffffffffff\n      and\n      dup2\n      mstore\n      0x20\n      add\n      swap1\n      dup2\n      mstore\n      0x20\n      add\n      0x00\n      keccak256\n      0x00\n      swap1\n      sload\n      swap1\n      0x0100\n      exp\n      swap1\n      div\n      0xff\n      and\n        /* \"contracts/Surebuy.sol\":2977:3086  requestId >= _requestCounter ||... */\n    tag_211:\n        /* \"contracts/Surebuy.sol\":2959:3152  if (... */\n      iszero\n      tag_212\n      jumpi\n        /* \"contracts/Surebuy.sol\":3120:3140  SureBuy_NotAllowed() */\n      mload(0x40)\n      0xc1f4106e00000000000000000000000000000000000000000000000000000000\n      dup2\n      mstore\n      0x04\n      add\n      mload(0x40)\n      dup1\n      swap2\n      sub\n      swap1\n      revert\n        /* \"contracts/Surebuy.sol\":2959:3152  if (... */\n    tag_212:\n        /* \"contracts/Surebuy.sol\":3162:3181  Request memory temp */\n      0x00\n        /* \"contracts/Surebuy.sol\":3184:3195  idToRequest */\n      0x04\n        /* \"contracts/Surebuy.sol\":3184:3206  idToRequest[requestId] */\n      0x00\n        /* \"contracts/Surebuy.sol\":3196:3205  requestId */\n      dup5\n        /* \"contracts/Surebuy.sol\":3184:3206  idToRequest[requestId] */\n      dup2\n      mstore\n      0x20\n      add\n      swap1\n      dup2\n      mstore\n      0x20\n      add\n      0x00\n      keccak256\n        /* \"contracts/Surebuy.sol\":3162:3206  Request memory temp = idToRequest[requestId] */\n      mload(0x40)\n      dup1\n      0x80\n      add\n      0x40\n      mstore\n      swap1\n      dup2\n      0x00\n      dup3\n      add\n      sload\n      dup2\n      mstore\n      0x20\n      add\n      0x01\n      dup3\n      add\n      0x00\n      swap1\n      sload\n      swap1\n      0x0100\n      exp\n      swap1\n      div\n      0xffffffffffffffffffffffffffffffffffffffff\n      and\n      0xffffffffffffffffffffffffffffffffffffffff\n      and\n      0xffffffffffffffffffffffffffffffffffffffff\n      and\n      dup2\n      mstore\n      0x20\n      add\n      0x02\n      dup3\n      add\n      0x00\n      swap1\n      sload\n      swap1\n      0x0100\n      exp\n      swap1\n      div\n      0xffffffffffffffffffffffffffffffffffffffff\n      and\n      0xffffffffffffffffffffffffffffffffffffffff\n      and\n      0xffffffffffffffffffffffffffffffffffffffff\n      and\n      dup2\n      mstore\n      0x20\n      add\n      0x02\n      dup3\n      add\n      0x14\n      swap1\n      sload\n      swap1\n      0x0100\n      exp\n      swap1\n      div\n      0xff\n      and\n      iszero\n      iszero\n      iszero\n      iszero\n      dup2\n      mstore\n      pop\n      pop\n      swap1\n      pop\n        /* \"contracts/Surebuy.sol\":3236:3244  isVendor */\n      0x03\n        /* \"contracts/Surebuy.sol\":3236:3257  isVendor[temp.vendor] */\n      0x00\n        /* \"contracts/Surebuy.sol\":3245:3249  temp */\n      dup3\n        /* \"contracts/Surebuy.sol\":3245:3256  temp.vendor */\n      0x20\n      add\n      mload\n        /* \"contracts/Surebuy.sol\":3236:3257  isVendor[temp.vendor] */\n      0xffffffffffffffffffffffffffffffffffffffff\n      and\n      0xffffffffffffffffffffffffffffffffffffffff\n      and\n      dup2\n      mstore\n      0x20\n      add\n      swap1\n      dup2\n      mstore\n      0x20\n      add\n      0x00\n      keccak256\n      0x00\n      swap1\n      sload\n      swap1\n      0x0100\n      exp\n      swap1\n      div\n      0xff\n      and\n        /* \"contracts/Surebuy.sol\":3235:3257  !isVendor[temp.vendor] */\n      iszero\n        /* \"contracts/Surebuy.sol\":3235:3308  !isVendor[temp.vendor] ||... */\n      dup1\n      tag_213\n      jumpi\n      pop\n        /* \"contracts/Surebuy.sol\":3275:3289  isManufacturer */\n      0x02\n        /* \"contracts/Surebuy.sol\":3275:3308  isManufacturer[temp.manufacturer] */\n      0x00\n        /* \"contracts/Surebuy.sol\":3290:3294  temp */\n      dup3\n        /* \"contracts/Surebuy.sol\":3290:3307  temp.manufacturer */\n      0x40\n      add\n      mload\n        /* \"contracts/Surebuy.sol\":3275:3308  isManufacturer[temp.manufacturer] */\n      0xffffffffffffffffffffffffffffffffffffffff\n      and\n      0xffffffffffffffffffffffffffffffffffffffff\n      and\n      dup2\n      mstore\n      0x20\n      add\n      swap1\n      dup2\n      mstore\n      0x20\n      add\n      0x00\n      keccak256\n      0x00\n      swap1\n      sload\n      swap1\n      0x0100\n      exp\n      swap1\n      div\n      0xff\n      and\n        /* \"contracts/Surebuy.sol\":3274:3308  !isManufacturer[temp.manufacturer] */\n      iszero\n        /* \"contracts/Surebuy.sol\":3235:3308  !isVendor[temp.vendor] ||... */\n    tag_213:\n        /* \"contracts/Surebuy.sol\":3235:3337  !isVendor[temp.vendor] ||... */\n      dup1\n      tag_214\n      jumpi\n      pop\n        /* \"contracts/Surebuy.sol\":3325:3329  temp */\n      dup1\n        /* \"contracts/Surebuy.sol\":3325:3337  temp.granted */\n      0x60\n      add\n      mload\n        /* \"contracts/Surebuy.sol\":3235:3337  !isVendor[temp.vendor] ||... */\n    tag_214:\n        /* \"contracts/Surebuy.sol\":3217:3403  if (... */\n      iszero\n      tag_215\n      jumpi\n        /* \"contracts/Surebuy.sol\":3371:3391  SureBuy_NotAllowed() */\n      mload(0x40)\n      0xc1f4106e00000000000000000000000000000000000000000000000000000000\n      dup2\n      mstore\n      0x04\n      add\n      mload(0x40)\n      dup1\n      swap2\n      sub\n      swap1\n      revert\n        /* \"contracts/Surebuy.sol\":3217:3403  if (... */\n    tag_215:\n        /* \"contracts/Surebuy.sol\":3413:3427  uint256 index1 */\n      0x00\n        /* \"contracts/Surebuy.sol\":3438:3448  uint256 n1 */\n      dup1\n        /* \"contracts/Surebuy.sol\":3451:3475  manufacturerToRequestIds */\n      0x07\n        /* \"contracts/Surebuy.sol\":3451:3487  manufacturerToRequestIds[msg.sender] */\n      0x00\n        /* \"contracts/Surebuy.sol\":3476:3486  msg.sender */\n      caller\n        /* \"contracts/Surebuy.sol\":3451:3487  manufacturerToRequestIds[msg.sender] */\n      0xffffffffffffffffffffffffffffffffffffffff\n      and\n      0xffffffffffffffffffffffffffffffffffffffff\n      and\n      dup2\n      mstore\n      0x20\n      add\n      swap1\n      dup2\n      mstore\n      0x20\n      add\n      0x00\n      keccak256\n        /* \"contracts/Surebuy.sol\":3451:3494  manufacturerToRequestIds[msg.sender].length */\n      dup1\n      sload\n      swap1\n      pop\n        /* \"contracts/Surebuy.sol\":3438:3494  uint256 n1 = manufacturerToRequestIds[msg.sender].length */\n      swap1\n      pop\n        /* \"contracts/Surebuy.sol\":3505:3514  bool flag */\n      0x00\n        /* \"contracts/Surebuy.sol\":3538:3547  uint256 i */\n      dup1\n        /* \"contracts/Surebuy.sol\":3533:3749  for (uint256 i = 0; i < n1; i++) {... */\n    tag_216:\n        /* \"contracts/Surebuy.sol\":3557:3559  n1 */\n      dup3\n        /* \"contracts/Surebuy.sol\":3553:3554  i */\n      dup2\n        /* \"contracts/Surebuy.sol\":3553:3559  i < n1 */\n      lt\n        /* \"contracts/Surebuy.sol\":3533:3749  for (uint256 i = 0; i < n1; i++) {... */\n      iszero\n      tag_217\n      jumpi\n        /* \"contracts/Surebuy.sol\":3598:3622  manufacturerToRequestIds */\n      0x07\n        /* \"contracts/Surebuy.sol\":3598:3634  manufacturerToRequestIds[msg.sender] */\n      0x00\n        /* \"contracts/Surebuy.sol\":3623:3633  msg.sender */\n      caller\n        /* \"contracts/Surebuy.sol\":3598:3634  manufacturerToRequestIds[msg.sender] */\n      0xffffffffffffffffffffffffffffffffffffffff\n      and\n      0xffffffffffffffffffffffffffffffffffffffff\n      and\n      dup2\n      mstore\n      0x20\n      add\n      swap1\n      dup2\n      mstore\n      0x20\n      add\n      0x00\n      keccak256\n        /* \"contracts/Surebuy.sol\":3635:3636  i */\n      dup2\n        /* \"contracts/Surebuy.sol\":3598:3637  manufacturerToRequestIds[msg.sender][i] */\n      dup2\n      sload\n      dup2\n      lt\n      tag_219\n      jumpi\n      tag_220\n      tag_107\n      jump\t// in\n    tag_220:\n    tag_219:\n      swap1\n      0x00\n      mstore\n      keccak256(0x00, 0x20)\n      add\n      sload\n        /* \"contracts/Surebuy.sol\":3585:3594  requestId */\n      dup8\n        /* \"contracts/Surebuy.sol\":3585:3637  requestId == manufacturerToRequestIds[msg.sender][i] */\n      sub\n        /* \"contracts/Surebuy.sol\":3581:3738  if (requestId == manufacturerToRequestIds[msg.sender][i]) {... */\n      tag_222\n      jumpi\n        /* \"contracts/Surebuy.sol\":3667:3668  i */\n      dup1\n        /* \"contracts/Surebuy.sol\":3658:3668  index1 = i */\n      swap4\n      pop\n        /* \"contracts/Surebuy.sol\":3694:3698  true */\n      0x01\n        /* \"contracts/Surebuy.sol\":3687:3698  flag = true */\n      swap2\n      pop\n        /* \"contracts/Surebuy.sol\":3717:3722  break */\n      jump(tag_217)\n        /* \"contracts/Surebuy.sol\":3581:3738  if (requestId == manufacturerToRequestIds[msg.sender][i]) {... */\n    tag_222:\n        /* \"contracts/Surebuy.sol\":3561:3564  i++ */\n      dup1\n      dup1\n      0x01\n      add\n      swap2\n      pop\n      pop\n        /* \"contracts/Surebuy.sol\":3533:3749  for (uint256 i = 0; i < n1; i++) {... */\n      jump(tag_216)\n    tag_217:\n      pop\n        /* \"contracts/Surebuy.sol\":3764:3768  flag */\n      dup1\n        /* \"contracts/Surebuy.sol\":3759:3824  if (!flag) {... */\n      tag_223\n      jumpi\n        /* \"contracts/Surebuy.sol\":3792:3812  SureBuy_NotAllowed() */\n      mload(0x40)\n      0xc1f4106e00000000000000000000000000000000000000000000000000000000\n      dup2\n      mstore\n      0x04\n      add\n      mload(0x40)\n      dup1\n      swap2\n      sub\n      swap1\n      revert\n        /* \"contracts/Surebuy.sol\":3759:3824  if (!flag) {... */\n    tag_223:\n        /* \"contracts/Surebuy.sol\":3881:3905  manufacturerToRequestIds */\n      0x07\n        /* \"contracts/Surebuy.sol\":3881:3941  manufacturerToRequestIds[... */\n      0x00\n        /* \"contracts/Surebuy.sol\":3920:3930  msg.sender */\n      caller\n        /* \"contracts/Surebuy.sol\":3881:3941  manufacturerToRequestIds[... */\n      0xffffffffffffffffffffffffffffffffffffffff\n      and\n      0xffffffffffffffffffffffffffffffffffffffff\n      and\n      dup2\n      mstore\n      0x20\n      add\n      swap1\n      dup2\n      mstore\n      0x20\n      add\n      0x00\n      keccak256\n        /* \"contracts/Surebuy.sol\":3947:3948  1 */\n      0x01\n        /* \"contracts/Surebuy.sol\":3942:3944  n1 */\n      dup4\n        /* \"contracts/Surebuy.sol\":3942:3948  n1 - 1 */\n      tag_224\n      swap2\n      swap1\n      tag_112\n      jump\t// in\n    tag_224:\n        /* \"contracts/Surebuy.sol\":3881:3949  manufacturerToRequestIds[... */\n      dup2\n      sload\n      dup2\n      lt\n      tag_225\n      jumpi\n      tag_226\n      tag_107\n      jump\t// in\n    tag_226:\n    tag_225:\n      swap1\n      0x00\n      mstore\n      keccak256(0x00, 0x20)\n      add\n      sload\n        /* \"contracts/Surebuy.sol\":3834:3858  manufacturerToRequestIds */\n      0x07\n        /* \"contracts/Surebuy.sol\":3834:3870  manufacturerToRequestIds[msg.sender] */\n      0x00\n        /* \"contracts/Surebuy.sol\":3859:3869  msg.sender */\n      caller\n        /* \"contracts/Surebuy.sol\":3834:3870  manufacturerToRequestIds[msg.sender] */\n      0xffffffffffffffffffffffffffffffffffffffff\n      and\n      0xffffffffffffffffffffffffffffffffffffffff\n      and\n      dup2\n      mstore\n      0x20\n      add\n      swap1\n      dup2\n      mstore\n      0x20\n      add\n      0x00\n      keccak256\n        /* \"contracts/Surebuy.sol\":3871:3877  index1 */\n      dup5\n        /* \"contracts/Surebuy.sol\":3834:3878  manufacturerToRequestIds[msg.sender][index1] */\n      dup2\n      sload\n      dup2\n      lt\n      tag_228\n      jumpi\n      tag_229\n      tag_107\n      jump\t// in\n    tag_229:\n    tag_228:\n      swap1\n      0x00\n      mstore\n      keccak256(0x00, 0x20)\n      add\n        /* \"contracts/Surebuy.sol\":3834:3949  manufacturerToRequestIds[msg.sender][index1] = manufacturerToRequestIds[... */\n      dup2\n      swap1\n      sstore\n      pop\n        /* \"contracts/Surebuy.sol\":3960:3984  manufacturerToRequestIds */\n      0x07\n        /* \"contracts/Surebuy.sol\":3960:3996  manufacturerToRequestIds[msg.sender] */\n      0x00\n        /* \"contracts/Surebuy.sol\":3985:3995  msg.sender */\n      caller\n        /* \"contracts/Surebuy.sol\":3960:3996  manufacturerToRequestIds[msg.sender] */\n      0xffffffffffffffffffffffffffffffffffffffff\n      and\n      0xffffffffffffffffffffffffffffffffffffffff\n      and\n      dup2\n      mstore\n      0x20\n      add\n      swap1\n      dup2\n      mstore\n      0x20\n      add\n      0x00\n      keccak256\n        /* \"contracts/Surebuy.sol\":3960:4002  manufacturerToRequestIds[msg.sender].pop() */\n      dup1\n      sload\n      dup1\n      tag_231\n      jumpi\n      tag_232\n      tag_121\n      jump\t// in\n    tag_232:\n    tag_231:\n      0x01\n      swap1\n      sub\n      dup2\n      dup2\n      swap1\n      0x00\n      mstore\n      keccak256(0x00, 0x20)\n      add\n      0x00\n      swap1\n      sstore\n      swap1\n      sstore\n        /* \"contracts/Surebuy.sol\":4013:4027  uint256 index2 */\n      0x00\n        /* \"contracts/Surebuy.sol\":4038:4048  uint256 n2 */\n      dup1\n        /* \"contracts/Surebuy.sol\":4051:4069  vendorToRequestIds */\n      0x06\n        /* \"contracts/Surebuy.sol\":4051:4082  vendorToRequestIds[temp.vendor] */\n      0x00\n        /* \"contracts/Surebuy.sol\":4070:4074  temp */\n      dup8\n        /* \"contracts/Surebuy.sol\":4070:4081  temp.vendor */\n      0x20\n      add\n      mload\n        /* \"contracts/Surebuy.sol\":4051:4082  vendorToRequestIds[temp.vendor] */\n      0xffffffffffffffffffffffffffffffffffffffff\n      and\n      0xffffffffffffffffffffffffffffffffffffffff\n      and\n      dup2\n      mstore\n      0x20\n      add\n      swap1\n      dup2\n      mstore\n      0x20\n      add\n      0x00\n      keccak256\n        /* \"contracts/Surebuy.sol\":4051:4089  vendorToRequestIds[temp.vendor].length */\n      dup1\n      sload\n      swap1\n      pop\n        /* \"contracts/Surebuy.sol\":4038:4089  uint256 n2 = vendorToRequestIds[temp.vendor].length */\n      swap1\n      pop\n        /* \"contracts/Surebuy.sol\":4105:4114  uint256 i */\n      0x00\n        /* \"contracts/Surebuy.sol\":4100:4281  for (uint256 i = 0; i < n2; i++) {... */\n    tag_234:\n        /* \"contracts/Surebuy.sol\":4124:4126  n2 */\n      dup2\n        /* \"contracts/Surebuy.sol\":4120:4121  i */\n      dup2\n        /* \"contracts/Surebuy.sol\":4120:4126  i < n2 */\n      lt\n        /* \"contracts/Surebuy.sol\":4100:4281  for (uint256 i = 0; i < n2; i++) {... */\n      iszero\n      tag_235\n      jumpi\n        /* \"contracts/Surebuy.sol\":4165:4183  vendorToRequestIds */\n      0x06\n        /* \"contracts/Surebuy.sol\":4165:4196  vendorToRequestIds[temp.vendor] */\n      0x00\n        /* \"contracts/Surebuy.sol\":4184:4188  temp */\n      dup9\n        /* \"contracts/Surebuy.sol\":4184:4195  temp.vendor */\n      0x20\n      add\n      mload\n        /* \"contracts/Surebuy.sol\":4165:4196  vendorToRequestIds[temp.vendor] */\n      0xffffffffffffffffffffffffffffffffffffffff\n      and\n      0xffffffffffffffffffffffffffffffffffffffff\n      and\n      dup2\n      mstore\n      0x20\n      add\n      swap1\n      dup2\n      mstore\n      0x20\n      add\n      0x00\n      keccak256\n        /* \"contracts/Surebuy.sol\":4197:4198  i */\n      dup2\n        /* \"contracts/Surebuy.sol\":4165:4199  vendorToRequestIds[temp.vendor][i] */\n      dup2\n      sload\n      dup2\n      lt\n      tag_237\n      jumpi\n      tag_238\n      tag_107\n      jump\t// in\n    tag_238:\n    tag_237:\n      swap1\n      0x00\n      mstore\n      keccak256(0x00, 0x20)\n      add\n      sload\n        /* \"contracts/Surebuy.sol\":4152:4161  requestId */\n      dup10\n        /* \"contracts/Surebuy.sol\":4152:4199  requestId == vendorToRequestIds[temp.vendor][i] */\n      sub\n        /* \"contracts/Surebuy.sol\":4148:4270  if (requestId == vendorToRequestIds[temp.vendor][i]) {... */\n      tag_240\n      jumpi\n        /* \"contracts/Surebuy.sol\":4229:4230  i */\n      dup1\n        /* \"contracts/Surebuy.sol\":4220:4230  index2 = i */\n      swap3\n      pop\n        /* \"contracts/Surebuy.sol\":4249:4254  break */\n      jump(tag_235)\n        /* \"contracts/Surebuy.sol\":4148:4270  if (requestId == vendorToRequestIds[temp.vendor][i]) {... */\n    tag_240:\n        /* \"contracts/Surebuy.sol\":4128:4131  i++ */\n      dup1\n      dup1\n      0x01\n      add\n      swap2\n      pop\n      pop\n        /* \"contracts/Surebuy.sol\":4100:4281  for (uint256 i = 0; i < n2; i++) {... */\n      jump(tag_234)\n    tag_235:\n      pop\n        /* \"contracts/Surebuy.sol\":4333:4351  vendorToRequestIds */\n      0x06\n        /* \"contracts/Surebuy.sol\":4333:4388  vendorToRequestIds[... */\n      0x00\n        /* \"contracts/Surebuy.sol\":4366:4370  temp */\n      dup8\n        /* \"contracts/Surebuy.sol\":4366:4377  temp.vendor */\n      0x20\n      add\n      mload\n        /* \"contracts/Surebuy.sol\":4333:4388  vendorToRequestIds[... */\n      0xffffffffffffffffffffffffffffffffffffffff\n      and\n      0xffffffffffffffffffffffffffffffffffffffff\n      and\n      dup2\n      mstore\n      0x20\n      add\n      swap1\n      dup2\n      mstore\n      0x20\n      add\n      0x00\n      keccak256\n        /* \"contracts/Surebuy.sol\":4394:4395  1 */\n      0x01\n        /* \"contracts/Surebuy.sol\":4389:4391  n2 */\n      dup3\n        /* \"contracts/Surebuy.sol\":4389:4395  n2 - 1 */\n      tag_241\n      swap2\n      swap1\n      tag_112\n      jump\t// in\n    tag_241:\n        /* \"contracts/Surebuy.sol\":4333:4396  vendorToRequestIds[... */\n      dup2\n      sload\n      dup2\n      lt\n      tag_242\n      jumpi\n      tag_243\n      tag_107\n      jump\t// in\n    tag_243:\n    tag_242:\n      swap1\n      0x00\n      mstore\n      keccak256(0x00, 0x20)\n      add\n      sload\n        /* \"contracts/Surebuy.sol\":4291:4309  vendorToRequestIds */\n      0x06\n        /* \"contracts/Surebuy.sol\":4291:4322  vendorToRequestIds[temp.vendor] */\n      0x00\n        /* \"contracts/Surebuy.sol\":4310:4314  temp */\n      dup9\n        /* \"contracts/Surebuy.sol\":4310:4321  temp.vendor */\n      0x20\n      add\n      mload\n        /* \"contracts/Surebuy.sol\":4291:4322  vendorToRequestIds[temp.vendor] */\n      0xffffffffffffffffffffffffffffffffffffffff\n      and\n      0xffffffffffffffffffffffffffffffffffffffff\n      and\n      dup2\n      mstore\n      0x20\n      add\n      swap1\n      dup2\n      mstore\n      0x20\n      add\n      0x00\n      keccak256\n        /* \"contracts/Surebuy.sol\":4323:4329  index2 */\n      dup4\n        /* \"contracts/Surebuy.sol\":4291:4330  vendorToRequestIds[temp.vendor][index2] */\n      dup2\n      sload\n      dup2\n      lt\n      tag_245\n      jumpi\n      tag_246\n      tag_107\n      jump\t// in\n    tag_246:\n    tag_245:\n      swap1\n      0x00\n      mstore\n      keccak256(0x00, 0x20)\n      add\n        /* \"contracts/Surebuy.sol\":4291:4396  vendorToRequestIds[temp.vendor][index2] = vendorToRequestIds[... */\n      dup2\n      swap1\n      sstore\n      pop\n        /* \"contracts/Surebuy.sol\":4407:4425  vendorToRequestIds */\n      0x06\n        /* \"contracts/Surebuy.sol\":4407:4438  vendorToRequestIds[temp.vendor] */\n      0x00\n        /* \"contracts/Surebuy.sol\":4426:4430  temp */\n      dup8\n        /* \"contracts/Surebuy.sol\":4426:4437  temp.vendor */\n      0x20\n      add\n      mload\n        /* \"contracts/Surebuy.sol\":4407:4438  vendorToRequestIds[temp.vendor] */\n      0xffffffffffffffffffffffffffffffffffffffff\n      and\n      0xffffffffffffffffffffffffffffffffffffffff\n      and\n      dup2\n      mstore\n      0x20\n      add\n      swap1\n      dup2\n      mstore\n      0x20\n      add\n      0x00\n      keccak256\n        /* \"contracts/Surebuy.sol\":4407:4444  vendorToRequestIds[temp.vendor].pop() */\n      dup1\n      sload\n      dup1\n      tag_248\n      jumpi\n      tag_249\n      tag_121\n      jump\t// in\n    tag_249:\n    tag_248:\n      0x01\n      swap1\n      sub\n      dup2\n      dup2\n      swap1\n      0x00\n      mstore\n      keccak256(0x00, 0x20)\n      add\n      0x00\n      swap1\n      sstore\n      swap1\n      sstore\n        /* \"contracts/Surebuy.sol\":4811:4815  true */\n      0x01\n        /* \"contracts/Surebuy.sol\":4756:4776  vendorToManufacturer */\n      0x08\n        /* \"contracts/Surebuy.sol\":4756:4789  vendorToManufacturer[temp.vendor] */\n      0x00\n        /* \"contracts/Surebuy.sol\":4777:4781  temp */\n      dup9\n        /* \"contracts/Surebuy.sol\":4777:4788  temp.vendor */\n      0x20\n      add\n      mload\n        /* \"contracts/Surebuy.sol\":4756:4789  vendorToManufacturer[temp.vendor] */\n      0xffffffffffffffffffffffffffffffffffffffff\n      and\n      0xffffffffffffffffffffffffffffffffffffffff\n      and\n      dup2\n      mstore\n      0x20\n      add\n      swap1\n      dup2\n      mstore\n      0x20\n      add\n      0x00\n      keccak256\n        /* \"contracts/Surebuy.sol\":4756:4808  vendorToManufacturer[temp.vendor][temp.manufacturer] */\n      0x00\n        /* \"contracts/Surebuy.sol\":4790:4794  temp */\n      dup9\n        /* \"contracts/Surebuy.sol\":4790:4807  temp.manufacturer */\n      0x40\n      add\n      mload\n        /* \"contracts/Surebuy.sol\":4756:4808  vendorToManufacturer[temp.vendor][temp.manufacturer] */\n      0xffffffffffffffffffffffffffffffffffffffff\n      and\n      0xffffffffffffffffffffffffffffffffffffffff\n      and\n      dup2\n      mstore\n      0x20\n      add\n      swap1\n      dup2\n      mstore\n      0x20\n      add\n      0x00\n      keccak256\n      0x00\n        /* \"contracts/Surebuy.sol\":4756:4815  vendorToManufacturer[temp.vendor][temp.manufacturer] = true */\n      0x0100\n      exp\n      dup2\n      sload\n      dup2\n      0xff\n      mul\n      not\n      and\n      swap1\n      dup4\n      iszero\n      iszero\n      mul\n      or\n      swap1\n      sstore\n      pop\n        /* \"contracts/Surebuy.sol\":4828:4857  approvedVendorsToManufacturer */\n      0x0a\n        /* \"contracts/Surebuy.sol\":4828:4870  approvedVendorsToManufacturer[temp.vendor] */\n      0x00\n        /* \"contracts/Surebuy.sol\":4858:4862  temp */\n      dup8\n        /* \"contracts/Surebuy.sol\":4858:4869  temp.vendor */\n      0x20\n      add\n      mload\n        /* \"contracts/Surebuy.sol\":4828:4870  approvedVendorsToManufacturer[temp.vendor] */\n      0xffffffffffffffffffffffffffffffffffffffff\n      and\n      0xffffffffffffffffffffffffffffffffffffffff\n      and\n      dup2\n      mstore\n      0x20\n      add\n      swap1\n      dup2\n      mstore\n      0x20\n      add\n      0x00\n      keccak256\n        /* \"contracts/Surebuy.sol\":4876:4880  temp */\n      dup7\n        /* \"contracts/Surebuy.sol\":4876:4893  temp.manufacturer */\n      0x40\n      add\n      mload\n        /* \"contracts/Surebuy.sol\":4828:4894  approvedVendorsToManufacturer[temp.vendor].push(temp.manufacturer) */\n      swap1\n      dup1\n      0x01\n      dup2\n      sload\n      add\n      dup1\n      dup3\n      sstore\n      dup1\n      swap2\n      pop\n      pop\n      0x01\n      swap1\n      sub\n      swap1\n      0x00\n      mstore\n      keccak256(0x00, 0x20)\n      add\n      0x00\n      swap1\n      swap2\n      swap1\n      swap2\n      swap1\n      swap2\n      0x0100\n      exp\n      dup2\n      sload\n      dup2\n      0xffffffffffffffffffffffffffffffffffffffff\n      mul\n      not\n      and\n      swap1\n      dup4\n      0xffffffffffffffffffffffffffffffffffffffff\n      and\n      mul\n      or\n      swap1\n      sstore\n      pop\n        /* \"contracts/Surebuy.sol\":4905:4933  approvedManufacturerToVendor */\n      0x0b\n        /* \"contracts/Surebuy.sol\":4905:4952  approvedManufacturerToVendor[temp.manufacturer] */\n      0x00\n        /* \"contracts/Surebuy.sol\":4934:4938  temp */\n      dup8\n        /* \"contracts/Surebuy.sol\":4934:4951  temp.manufacturer */\n      0x40\n      add\n      mload\n        /* \"contracts/Surebuy.sol\":4905:4952  approvedManufacturerToVendor[temp.manufacturer] */\n      0xffffffffffffffffffffffffffffffffffffffff\n      and\n      0xffffffffffffffffffffffffffffffffffffffff\n      and\n      dup2\n      mstore\n      0x20\n      add\n      swap1\n      dup2\n      mstore\n      0x20\n      add\n      0x00\n      keccak256\n        /* \"contracts/Surebuy.sol\":4958:4962  temp */\n      dup7\n        /* \"contracts/Surebuy.sol\":4958:4969  temp.vendor */\n      0x20\n      add\n      mload\n        /* \"contracts/Surebuy.sol\":4905:4970  approvedManufacturerToVendor[temp.manufacturer].push(temp.vendor) */\n      swap1\n      dup1\n      0x01\n      dup2\n      sload\n      add\n      dup1\n      dup3\n      sstore\n      dup1\n      swap2\n      pop\n      pop\n      0x01\n      swap1\n      sub\n      swap1\n      0x00\n      mstore\n      keccak256(0x00, 0x20)\n      add\n      0x00\n      swap1\n      swap2\n      swap1\n      swap2\n      swap1\n      swap2\n      0x0100\n      exp\n      dup2\n      sload\n      dup2\n      0xffffffffffffffffffffffffffffffffffffffff\n      mul\n      not\n      and\n      swap1\n      dup4\n      0xffffffffffffffffffffffffffffffffffffffff\n      and\n      mul\n      or\n      swap1\n      sstore\n      pop\n        /* \"contracts/Surebuy.sol\":5534:5535  0 */\n      0x00\n        /* \"contracts/Surebuy.sol\":5527:5535  return 0 */\n      swap7\n      pop\n      pop\n      pop\n      pop\n      pop\n      pop\n      pop\n        /* \"contracts/Surebuy.sol\":2879:5543  function confirmRequest(uint256 requestId) external returns (uint64) {... */\n      swap2\n      swap1\n      pop\n      jump\t// out\n        /* \"contracts/Surebuy.sol\":532:553  ISP public spInstance */\n    tag_71:\n      0x00\n      dup1\n      sload\n      swap1\n      0x0100\n      exp\n      swap1\n      div\n      0xffffffffffffffffffffffffffffffffffffffff\n      and\n      dup2\n      jump\t// out\n        /* \"contracts/Surebuy.sol\":1497:1841  function registerAsManufacturer(... */\n    tag_77:\n        /* \"contracts/Surebuy.sol\":1617:1631  isManufacturer */\n      0x02\n        /* \"contracts/Surebuy.sol\":1617:1643  isManufacturer[msg.sender] */\n      0x00\n        /* \"contracts/Surebuy.sol\":1632:1642  msg.sender */\n      caller\n        /* \"contracts/Surebuy.sol\":1617:1643  isManufacturer[msg.sender] */\n      0xffffffffffffffffffffffffffffffffffffffff\n      and\n      0xffffffffffffffffffffffffffffffffffffffff\n      and\n      dup2\n      mstore\n      0x20\n      add\n      swap1\n      dup2\n      mstore\n      0x20\n      add\n      0x00\n      keccak256\n      0x00\n      swap1\n      sload\n      swap1\n      0x0100\n      exp\n      swap1\n      div\n      0xff\n      and\n        /* \"contracts/Surebuy.sol\":1617:1667  isManufacturer[msg.sender] || isVendor[msg.sender] */\n      dup1\n      tag_254\n      jumpi\n      pop\n        /* \"contracts/Surebuy.sol\":1647:1655  isVendor */\n      0x03\n        /* \"contracts/Surebuy.sol\":1647:1667  isVendor[msg.sender] */\n      0x00\n        /* \"contracts/Surebuy.sol\":1656:1666  msg.sender */\n      caller\n        /* \"contracts/Surebuy.sol\":1647:1667  isVendor[msg.sender] */\n      0xffffffffffffffffffffffffffffffffffffffff\n      and\n      0xffffffffffffffffffffffffffffffffffffffff\n      and\n      dup2\n      mstore\n      0x20\n      add\n      swap1\n      dup2\n      mstore\n      0x20\n      add\n      0x00\n      keccak256\n      0x00\n      swap1\n      sload\n      swap1\n      0x0100\n      exp\n      swap1\n      div\n      0xff\n      and\n        /* \"contracts/Surebuy.sol\":1617:1667  isManufacturer[msg.sender] || isVendor[msg.sender] */\n    tag_254:\n        /* \"contracts/Surebuy.sol\":1613:1730  if (isManufacturer[msg.sender] || isVendor[msg.sender]) {... */\n      iszero\n      tag_255\n      jumpi\n        /* \"contracts/Surebuy.sol\":1691:1718  SureBuy_AlreadyRegistered() */\n      mload(0x40)\n      0x80ec519700000000000000000000000000000000000000000000000000000000\n      dup2\n      mstore\n      0x04\n      add\n      mload(0x40)\n      dup1\n      swap2\n      sub\n      swap1\n      revert\n        /* \"contracts/Surebuy.sol\":1613:1730  if (isManufacturer[msg.sender] || isVendor[msg.sender]) {... */\n    tag_255:\n        /* \"contracts/Surebuy.sol\":1770:1789  Entity(_pan, _name) */\n      mload(0x40)\n      dup1\n      0x40\n      add\n      0x40\n      mstore\n      dup1\n        /* \"contracts/Surebuy.sol\":1777:1781  _pan */\n      dup3\n        /* \"contracts/Surebuy.sol\":1770:1789  Entity(_pan, _name) */\n      dup2\n      mstore\n      0x20\n      add\n        /* \"contracts/Surebuy.sol\":1783:1788  _name */\n      dup4\n        /* \"contracts/Surebuy.sol\":1770:1789  Entity(_pan, _name) */\n      dup2\n      mstore\n      pop\n        /* \"contracts/Surebuy.sol\":1740:1755  addressToEntity */\n      0x05\n        /* \"contracts/Surebuy.sol\":1740:1767  addressToEntity[msg.sender] */\n      0x00\n        /* \"contracts/Surebuy.sol\":1756:1766  msg.sender */\n      caller\n        /* \"contracts/Surebuy.sol\":1740:1767  addressToEntity[msg.sender] */\n      0xffffffffffffffffffffffffffffffffffffffff\n      and\n      0xffffffffffffffffffffffffffffffffffffffff\n      and\n      dup2\n      mstore\n      0x20\n      add\n      swap1\n      dup2\n      mstore\n      0x20\n      add\n      0x00\n      keccak256\n        /* \"contracts/Surebuy.sol\":1740:1789  addressToEntity[msg.sender] = Entity(_pan, _name) */\n      0x00\n      dup3\n      add\n      mload\n      dup2\n      0x00\n      add\n      swap1\n      dup2\n      tag_256\n      swap2\n      swap1\n      tag_257\n      jump\t// in\n    tag_256:\n      pop\n      0x20\n      dup3\n      add\n      mload\n      dup2\n      0x01\n      add\n      swap1\n      dup2\n      tag_258\n      swap2\n      swap1\n      tag_257\n      jump\t// in\n    tag_258:\n      pop\n      swap1\n      pop\n      pop\n        /* \"contracts/Surebuy.sol\":1829:1833  true */\n      0x01\n        /* \"contracts/Surebuy.sol\":1800:1814  isManufacturer */\n      0x02\n        /* \"contracts/Surebuy.sol\":1800:1826  isManufacturer[msg.sender] */\n      0x00\n        /* \"contracts/Surebuy.sol\":1815:1825  msg.sender */\n      caller\n        /* \"contracts/Surebuy.sol\":1800:1826  isManufacturer[msg.sender] */\n      0xffffffffffffffffffffffffffffffffffffffff\n      and\n      0xffffffffffffffffffffffffffffffffffffffff\n      and\n      dup2\n      mstore\n      0x20\n      add\n      swap1\n      dup2\n      mstore\n      0x20\n      add\n      0x00\n      keccak256\n      0x00\n        /* \"contracts/Surebuy.sol\":1800:1833  isManufacturer[msg.sender] = true */\n      0x0100\n      exp\n      dup2\n      sload\n      dup2\n      0xff\n      mul\n      not\n      and\n      swap1\n      dup4\n      iszero\n      iszero\n      mul\n      or\n      swap1\n      sstore\n      pop\n        /* \"contracts/Surebuy.sol\":1497:1841  function registerAsManufacturer(... */\n      pop\n      pop\n      jump\t// out\n        /* \"contracts/Surebuy.sol\":8477:8660  function getRequest(uint256 _id) external view returns(Request memory){... */\n    tag_80:\n        /* \"contracts/Surebuy.sol\":8532:8546  Request memory */\n      tag_259\n      tag_179\n      jump\t// in\n    tag_259:\n        /* \"contracts/Surebuy.sol\":8568:8583  _requestCounter */\n      sload(0x01)\n        /* \"contracts/Surebuy.sol\":8561:8564  _id */\n      dup3\n        /* \"contracts/Surebuy.sol\":8561:8583  _id >= _requestCounter */\n      lt\n        /* \"contracts/Surebuy.sol\":8558:8619  if(_id >= _requestCounter){... */\n      tag_261\n      jumpi\n        /* \"contracts/Surebuy.sol\":8599:8607  revert() */\n      0x00\n      dup1\n      revert\n        /* \"contracts/Surebuy.sol\":8558:8619  if(_id >= _requestCounter){... */\n    tag_261:\n        /* \"contracts/Surebuy.sol\":8636:8647  idToRequest */\n      0x04\n        /* \"contracts/Surebuy.sol\":8636:8652  idToRequest[_id] */\n      0x00\n        /* \"contracts/Surebuy.sol\":8648:8651  _id */\n      dup4\n        /* \"contracts/Surebuy.sol\":8636:8652  idToRequest[_id] */\n      dup2\n      mstore\n      0x20\n      add\n      swap1\n      dup2\n      mstore\n      0x20\n      add\n      0x00\n      keccak256\n        /* \"contracts/Surebuy.sol\":8629:8652  return idToRequest[_id] */\n      mload(0x40)\n      dup1\n      0x80\n      add\n      0x40\n      mstore\n      swap1\n      dup2\n      0x00\n      dup3\n      add\n      sload\n      dup2\n      mstore\n      0x20\n      add\n      0x01\n      dup3\n      add\n      0x00\n      swap1\n      sload\n      swap1\n      0x0100\n      exp\n      swap1\n      div\n      0xffffffffffffffffffffffffffffffffffffffff\n      and\n      0xffffffffffffffffffffffffffffffffffffffff\n      and\n      0xffffffffffffffffffffffffffffffffffffffff\n      and\n      dup2\n      mstore\n      0x20\n      add\n      0x02\n      dup3\n      add\n      0x00\n      swap1\n      sload\n      swap1\n      0x0100\n      exp\n      swap1\n      div\n      0xffffffffffffffffffffffffffffffffffffffff\n      and\n      0xffffffffffffffffffffffffffffffffffffffff\n      and\n      0xffffffffffffffffffffffffffffffffffffffff\n      and\n      dup2\n      mstore\n      0x20\n      add\n      0x02\n      dup3\n      add\n      0x14\n      swap1\n      sload\n      swap1\n      0x0100\n      exp\n      swap1\n      div\n      0xff\n      and\n      iszero\n      iszero\n      iszero\n      iszero\n      dup2\n      mstore\n      pop\n      pop\n      swap1\n      pop\n        /* \"contracts/Surebuy.sol\":8477:8660  function getRequest(uint256 _id) external view returns(Request memory){... */\n      swap2\n      swap1\n      pop\n      jump\t// out\n        /* \"contracts/Surebuy.sol\":8668:8880  function getApprovedManufacturers(address _ven) external view returns(address[] memory){... */\n    tag_85:\n        /* \"contracts/Surebuy.sol\":8738:8754  address[] memory */\n      0x60\n        /* \"contracts/Surebuy.sol\":8770:8778  isVendor */\n      0x03\n        /* \"contracts/Surebuy.sol\":8770:8784  isVendor[_ven] */\n      0x00\n        /* \"contracts/Surebuy.sol\":8779:8783  _ven */\n      dup4\n        /* \"contracts/Surebuy.sol\":8770:8784  isVendor[_ven] */\n      0xffffffffffffffffffffffffffffffffffffffff\n      and\n      0xffffffffffffffffffffffffffffffffffffffff\n      and\n      dup2\n      mstore\n      0x20\n      add\n      swap1\n      dup2\n      mstore\n      0x20\n      add\n      0x00\n      keccak256\n      0x00\n      swap1\n      sload\n      swap1\n      0x0100\n      exp\n      swap1\n      div\n      0xff\n      and\n        /* \"contracts/Surebuy.sol\":8766:8820  if(!isVendor[_ven]){... */\n      tag_263\n      jumpi\n        /* \"contracts/Surebuy.sol\":8800:8808  revert() */\n      0x00\n      dup1\n      revert\n        /* \"contracts/Surebuy.sol\":8766:8820  if(!isVendor[_ven]){... */\n    tag_263:\n        /* \"contracts/Surebuy.sol\":8837:8866  approvedVendorsToManufacturer */\n      0x0a\n        /* \"contracts/Surebuy.sol\":8837:8872  approvedVendorsToManufacturer[_ven] */\n      0x00\n        /* \"contracts/Surebuy.sol\":8867:8871  _ven */\n      dup4\n        /* \"contracts/Surebuy.sol\":8837:8872  approvedVendorsToManufacturer[_ven] */\n      0xffffffffffffffffffffffffffffffffffffffff\n      and\n      0xffffffffffffffffffffffffffffffffffffffff\n      and\n      dup2\n      mstore\n      0x20\n      add\n      swap1\n      dup2\n      mstore\n      0x20\n      add\n      0x00\n      keccak256\n        /* \"contracts/Surebuy.sol\":8830:8872  return approvedVendorsToManufacturer[_ven] */\n      dup1\n      sload\n      dup1\n      0x20\n      mul\n      0x20\n      add\n      mload(0x40)\n      swap1\n      dup2\n      add\n      0x40\n      mstore\n      dup1\n      swap3\n      swap2\n      swap1\n      dup2\n      dup2\n      mstore\n      0x20\n      add\n      dup3\n      dup1\n      sload\n      dup1\n      iszero\n      tag_264\n      jumpi\n      0x20\n      mul\n      dup3\n      add\n      swap2\n      swap1\n      0x00\n      mstore\n      keccak256(0x00, 0x20)\n      swap1\n    tag_265:\n      dup2\n      0x00\n      swap1\n      sload\n      swap1\n      0x0100\n      exp\n      swap1\n      div\n      0xffffffffffffffffffffffffffffffffffffffff\n      and\n      0xffffffffffffffffffffffffffffffffffffffff\n      and\n      dup2\n      mstore\n      0x20\n      add\n      swap1\n      0x01\n      add\n      swap1\n      dup1\n      dup4\n      gt\n      tag_265\n      jumpi\n    tag_264:\n      pop\n      pop\n      pop\n      pop\n      pop\n      swap1\n      pop\n        /* \"contracts/Surebuy.sol\":8668:8880  function getApprovedManufacturers(address _ven) external view returns(address[] memory){... */\n      swap2\n      swap1\n      pop\n      jump\t// out\n        /* \"contracts/Surebuy.sol\":8125:8239  function isAManufacturer(address _addr) external view returns(bool){... */\n    tag_89:\n        /* \"contracts/Surebuy.sol\":8187:8191  bool */\n      0x00\n        /* \"contracts/Surebuy.sol\":8210:8224  isManufacturer */\n      0x02\n        /* \"contracts/Surebuy.sol\":8210:8231  isManufacturer[_addr] */\n      0x00\n        /* \"contracts/Surebuy.sol\":8225:8230  _addr */\n      dup4\n        /* \"contracts/Surebuy.sol\":8210:8231  isManufacturer[_addr] */\n      0xffffffffffffffffffffffffffffffffffffffff\n      and\n      0xffffffffffffffffffffffffffffffffffffffff\n      and\n      dup2\n      mstore\n      0x20\n      add\n      swap1\n      dup2\n      mstore\n      0x20\n      add\n      0x00\n      keccak256\n      0x00\n      swap1\n      sload\n      swap1\n      0x0100\n      exp\n      swap1\n      div\n      0xff\n      and\n        /* \"contracts/Surebuy.sol\":8203:8231  return isManufacturer[_addr] */\n      swap1\n      pop\n        /* \"contracts/Surebuy.sol\":8125:8239  function isAManufacturer(address _addr) external view returns(bool){... */\n      swap2\n      swap1\n      pop\n      jump\t// out\n        /* \"contracts/Surebuy.sol\":1849:2156  function registerAsVendor(string memory _name, string memory _pan) public {... */\n    tag_93:\n        /* \"contracts/Surebuy.sol\":1938:1952  isManufacturer */\n      0x02\n        /* \"contracts/Surebuy.sol\":1938:1964  isManufacturer[msg.sender] */\n      0x00\n        /* \"contracts/Surebuy.sol\":1953:1963  msg.sender */\n      caller\n        /* \"contracts/Surebuy.sol\":1938:1964  isManufacturer[msg.sender] */\n      0xffffffffffffffffffffffffffffffffffffffff\n      and\n      0xffffffffffffffffffffffffffffffffffffffff\n      and\n      dup2\n      mstore\n      0x20\n      add\n      swap1\n      dup2\n      mstore\n      0x20\n      add\n      0x00\n      keccak256\n      0x00\n      swap1\n      sload\n      swap1\n      0x0100\n      exp\n      swap1\n      div\n      0xff\n      and\n        /* \"contracts/Surebuy.sol\":1938:1988  isManufacturer[msg.sender] || isVendor[msg.sender] */\n      dup1\n      tag_268\n      jumpi\n      pop\n        /* \"contracts/Surebuy.sol\":1968:1976  isVendor */\n      0x03\n        /* \"contracts/Surebuy.sol\":1968:1988  isVendor[msg.sender] */\n      0x00\n        /* \"contracts/Surebuy.sol\":1977:1987  msg.sender */\n      caller\n        /* \"contracts/Surebuy.sol\":1968:1988  isVendor[msg.sender] */\n      0xffffffffffffffffffffffffffffffffffffffff\n      and\n      0xffffffffffffffffffffffffffffffffffffffff\n      and\n      dup2\n      mstore\n      0x20\n      add\n      swap1\n      dup2\n      mstore\n      0x20\n      add\n      0x00\n      keccak256\n      0x00\n      swap1\n      sload\n      swap1\n      0x0100\n      exp\n      swap1\n      div\n      0xff\n      and\n        /* \"contracts/Surebuy.sol\":1938:1988  isManufacturer[msg.sender] || isVendor[msg.sender] */\n    tag_268:\n        /* \"contracts/Surebuy.sol\":1934:2051  if (isManufacturer[msg.sender] || isVendor[msg.sender]) {... */\n      iszero\n      tag_269\n      jumpi\n        /* \"contracts/Surebuy.sol\":2012:2039  SureBuy_AlreadyRegistered() */\n      mload(0x40)\n      0x80ec519700000000000000000000000000000000000000000000000000000000\n      dup2\n      mstore\n      0x04\n      add\n      mload(0x40)\n      dup1\n      swap2\n      sub\n      swap1\n      revert\n        /* \"contracts/Surebuy.sol\":1934:2051  if (isManufacturer[msg.sender] || isVendor[msg.sender]) {... */\n    tag_269:\n        /* \"contracts/Surebuy.sol\":2091:2110  Entity(_pan, _name) */\n      mload(0x40)\n      dup1\n      0x40\n      add\n      0x40\n      mstore\n      dup1\n        /* \"contracts/Surebuy.sol\":2098:2102  _pan */\n      dup3\n        /* \"contracts/Surebuy.sol\":2091:2110  Entity(_pan, _name) */\n      dup2\n      mstore\n      0x20\n      add\n        /* \"contracts/Surebuy.sol\":2104:2109  _name */\n      dup4\n        /* \"contracts/Surebuy.sol\":2091:2110  Entity(_pan, _name) */\n      dup2\n      mstore\n      pop\n        /* \"contracts/Surebuy.sol\":2061:2076  addressToEntity */\n      0x05\n        /* \"contracts/Surebuy.sol\":2061:2088  addressToEntity[msg.sender] */\n      0x00\n        /* \"contracts/Surebuy.sol\":2077:2087  msg.sender */\n      caller\n        /* \"contracts/Surebuy.sol\":2061:2088  addressToEntity[msg.sender] */\n      0xffffffffffffffffffffffffffffffffffffffff\n      and\n      0xffffffffffffffffffffffffffffffffffffffff\n      and\n      dup2\n      mstore\n      0x20\n      add\n      swap1\n      dup2\n      mstore\n      0x20\n      add\n      0x00\n      keccak256\n        /* \"contracts/Surebuy.sol\":2061:2110  addressToEntity[msg.sender] = Entity(_pan, _name) */\n      0x00\n      dup3\n      add\n      mload\n      dup2\n      0x00\n      add\n      swap1\n      dup2\n      tag_270\n      swap2\n      swap1\n      tag_257\n      jump\t// in\n    tag_270:\n      pop\n      0x20\n      dup3\n      add\n      mload\n      dup2\n      0x01\n      add\n      swap1\n      dup2\n      tag_271\n      swap2\n      swap1\n      tag_257\n      jump\t// in\n    tag_271:\n      pop\n      swap1\n      pop\n      pop\n        /* \"contracts/Surebuy.sol\":2144:2148  true */\n      0x01\n        /* \"contracts/Surebuy.sol\":2121:2129  isVendor */\n      0x03\n        /* \"contracts/Surebuy.sol\":2121:2141  isVendor[msg.sender] */\n      0x00\n        /* \"contracts/Surebuy.sol\":2130:2140  msg.sender */\n      caller\n        /* \"contracts/Surebuy.sol\":2121:2141  isVendor[msg.sender] */\n      0xffffffffffffffffffffffffffffffffffffffff\n      and\n      0xffffffffffffffffffffffffffffffffffffffff\n      and\n      dup2\n      mstore\n      0x20\n      add\n      swap1\n      dup2\n      mstore\n      0x20\n      add\n      0x00\n      keccak256\n      0x00\n        /* \"contracts/Surebuy.sol\":2121:2148  isVendor[msg.sender] = true */\n      0x0100\n      exp\n      dup2\n      sload\n      dup2\n      0xff\n      mul\n      not\n      and\n      swap1\n      dup4\n      iszero\n      iszero\n      mul\n      or\n      swap1\n      sstore\n      pop\n        /* \"contracts/Surebuy.sol\":1849:2156  function registerAsVendor(string memory _name, string memory _pan) public {... */\n      pop\n      pop\n      jump\t// out\n    tag_144:\n      mload(0x40)\n      dup1\n      0x40\n      add\n      0x40\n      mstore\n      dup1\n      0x60\n      dup2\n      mstore\n      0x20\n      add\n      0x60\n      dup2\n      mstore\n      pop\n      swap1\n      jump\t// out\n    tag_179:\n      mload(0x40)\n      dup1\n      0x80\n      add\n      0x40\n      mstore\n      dup1\n      0x00\n      dup2\n      mstore\n      0x20\n      add\n      and(0xffffffffffffffffffffffffffffffffffffffff, 0x00)\n      dup2\n      mstore\n      0x20\n      add\n      and(0xffffffffffffffffffffffffffffffffffffffff, 0x00)\n      dup2\n      mstore\n      0x20\n      add\n      iszero(iszero(0x00))\n      dup2\n      mstore\n      pop\n      swap1\n      jump\t// out\n        /* \"#utility.yul\":7:82   */\n    tag_272:\n        /* \"#utility.yul\":40:46   */\n      0x00\n        /* \"#utility.yul\":73:75   */\n      0x40\n        /* \"#utility.yul\":67:76   */\n      mload\n        /* \"#utility.yul\":57:76   */\n      swap1\n      pop\n        /* \"#utility.yul\":7:82   */\n      swap1\n      jump\t// out\n        /* \"#utility.yul\":88:205   */\n    tag_273:\n        /* \"#utility.yul\":197:198   */\n      0x00\n        /* \"#utility.yul\":194:195   */\n      dup1\n        /* \"#utility.yul\":187:199   */\n      revert\n        /* \"#utility.yul\":211:328   */\n    tag_274:\n        /* \"#utility.yul\":320:321   */\n      0x00\n        /* \"#utility.yul\":317:318   */\n      dup1\n        /* \"#utility.yul\":310:322   */\n      revert\n        /* \"#utility.yul\":334:435   */\n    tag_275:\n        /* \"#utility.yul\":370:377   */\n      0x00\n        /* \"#utility.yul\":410:428   */\n      0xffffffffffffffff\n        /* \"#utility.yul\":403:408   */\n      dup3\n        /* \"#utility.yul\":399:429   */\n      and\n        /* \"#utility.yul\":388:429   */\n      swap1\n      pop\n        /* \"#utility.yul\":334:435   */\n      swap2\n      swap1\n      pop\n      jump\t// out\n        /* \"#utility.yul\":441:561   */\n    tag_276:\n        /* \"#utility.yul\":513:536   */\n      tag_346\n        /* \"#utility.yul\":530:535   */\n      dup2\n        /* \"#utility.yul\":513:536   */\n      tag_275\n      jump\t// in\n    tag_346:\n        /* \"#utility.yul\":506:511   */\n      dup2\n        /* \"#utility.yul\":503:537   */\n      eq\n        /* \"#utility.yul\":493:555   */\n      tag_347\n      jumpi\n        /* \"#utility.yul\":551:552   */\n      0x00\n        /* \"#utility.yul\":548:549   */\n      dup1\n        /* \"#utility.yul\":541:553   */\n      revert\n        /* \"#utility.yul\":493:555   */\n    tag_347:\n        /* \"#utility.yul\":441:561   */\n      pop\n      jump\t// out\n        /* \"#utility.yul\":567:704   */\n    tag_277:\n        /* \"#utility.yul\":612:617   */\n      0x00\n        /* \"#utility.yul\":650:656   */\n      dup2\n        /* \"#utility.yul\":637:657   */\n      calldataload\n        /* \"#utility.yul\":628:657   */\n      swap1\n      pop\n        /* \"#utility.yul\":666:698   */\n      tag_349\n        /* \"#utility.yul\":692:697   */\n      dup2\n        /* \"#utility.yul\":666:698   */\n      tag_276\n      jump\t// in\n    tag_349:\n        /* \"#utility.yul\":567:704   */\n      swap3\n      swap2\n      pop\n      pop\n      jump\t// out\n        /* \"#utility.yul\":710:1037   */\n    tag_25:\n        /* \"#utility.yul\":768:774   */\n      0x00\n        /* \"#utility.yul\":817:819   */\n      0x20\n        /* \"#utility.yul\":805:814   */\n      dup3\n        /* \"#utility.yul\":796:803   */\n      dup5\n        /* \"#utility.yul\":792:815   */\n      sub\n        /* \"#utility.yul\":788:820   */\n      slt\n        /* \"#utility.yul\":785:904   */\n      iszero\n      tag_351\n      jumpi\n        /* \"#utility.yul\":823:902   */\n      tag_352\n      tag_273\n      jump\t// in\n    tag_352:\n        /* \"#utility.yul\":785:904   */\n    tag_351:\n        /* \"#utility.yul\":943:944   */\n      0x00\n        /* \"#utility.yul\":968:1020   */\n      tag_353\n        /* \"#utility.yul\":1012:1019   */\n      dup5\n        /* \"#utility.yul\":1003:1009   */\n      dup3\n        /* \"#utility.yul\":992:1001   */\n      dup6\n        /* \"#utility.yul\":988:1010   */\n      add\n        /* \"#utility.yul\":968:1020   */\n      tag_277\n      jump\t// in\n    tag_353:\n        /* \"#utility.yul\":958:1020   */\n      swap2\n      pop\n        /* \"#utility.yul\":914:1030   */\n      pop\n        /* \"#utility.yul\":710:1037   */\n      swap3\n      swap2\n      pop\n      pop\n      jump\t// out\n        /* \"#utility.yul\":1043:1158   */\n    tag_278:\n        /* \"#utility.yul\":1128:1151   */\n      tag_355\n        /* \"#utility.yul\":1145:1150   */\n      dup2\n        /* \"#utility.yul\":1128:1151   */\n      tag_275\n      jump\t// in\n    tag_355:\n        /* \"#utility.yul\":1123:1126   */\n      dup3\n        /* \"#utility.yul\":1116:1152   */\n      mstore\n        /* \"#utility.yul\":1043:1158   */\n      pop\n      pop\n      jump\t// out\n        /* \"#utility.yul\":1164:1382   */\n    tag_30:\n        /* \"#utility.yul\":1255:1259   */\n      0x00\n        /* \"#utility.yul\":1293:1295   */\n      0x20\n        /* \"#utility.yul\":1282:1291   */\n      dup3\n        /* \"#utility.yul\":1278:1296   */\n      add\n        /* \"#utility.yul\":1270:1296   */\n      swap1\n      pop\n        /* \"#utility.yul\":1306:1375   */\n      tag_357\n        /* \"#utility.yul\":1372:1373   */\n      0x00\n        /* \"#utility.yul\":1361:1370   */\n      dup4\n        /* \"#utility.yul\":1357:1374   */\n      add\n        /* \"#utility.yul\":1348:1354   */\n      dup5\n        /* \"#utility.yul\":1306:1375   */\n      tag_278\n      jump\t// in\n    tag_357:\n        /* \"#utility.yul\":1164:1382   */\n      swap3\n      swap2\n      pop\n      pop\n      jump\t// out\n        /* \"#utility.yul\":1388:1465   */\n    tag_279:\n        /* \"#utility.yul\":1425:1432   */\n      0x00\n        /* \"#utility.yul\":1454:1459   */\n      dup2\n        /* \"#utility.yul\":1443:1459   */\n      swap1\n      pop\n        /* \"#utility.yul\":1388:1465   */\n      swap2\n      swap1\n      pop\n      jump\t// out\n        /* \"#utility.yul\":1471:1593   */\n    tag_280:\n        /* \"#utility.yul\":1544:1568   */\n      tag_360\n        /* \"#utility.yul\":1562:1567   */\n      dup2\n        /* \"#utility.yul\":1544:1568   */\n      tag_279\n      jump\t// in\n    tag_360:\n        /* \"#utility.yul\":1537:1542   */\n      dup2\n        /* \"#utility.yul\":1534:1569   */\n      eq\n        /* \"#utility.yul\":1524:1587   */\n      tag_361\n      jumpi\n        /* \"#utility.yul\":1583:1584   */\n      0x00\n        /* \"#utility.yul\":1580:1581   */\n      dup1\n        /* \"#utility.yul\":1573:1585   */\n      revert\n        /* \"#utility.yul\":1524:1587   */\n    tag_361:\n        /* \"#utility.yul\":1471:1593   */\n      pop\n      jump\t// out\n        /* \"#utility.yul\":1599:1738   */\n    tag_281:\n        /* \"#utility.yul\":1645:1650   */\n      0x00\n        /* \"#utility.yul\":1683:1689   */\n      dup2\n        /* \"#utility.yul\":1670:1690   */\n      calldataload\n        /* \"#utility.yul\":1661:1690   */\n      swap1\n      pop\n        /* \"#utility.yul\":1699:1732   */\n      tag_363\n        /* \"#utility.yul\":1726:1731   */\n      dup2\n        /* \"#utility.yul\":1699:1732   */\n      tag_280\n      jump\t// in\n    tag_363:\n        /* \"#utility.yul\":1599:1738   */\n      swap3\n      swap2\n      pop\n      pop\n      jump\t// out\n        /* \"#utility.yul\":1744:2073   */\n    tag_33:\n        /* \"#utility.yul\":1803:1809   */\n      0x00\n        /* \"#utility.yul\":1852:1854   */\n      0x20\n        /* \"#utility.yul\":1840:1849   */\n      dup3\n        /* \"#utility.yul\":1831:1838   */\n      dup5\n        /* \"#utility.yul\":1827:1850   */\n      sub\n        /* \"#utility.yul\":1823:1855   */\n      slt\n        /* \"#utility.yul\":1820:1939   */\n      iszero\n      tag_365\n      jumpi\n        /* \"#utility.yul\":1858:1937   */\n      tag_366\n      tag_273\n      jump\t// in\n    tag_366:\n        /* \"#utility.yul\":1820:1939   */\n    tag_365:\n        /* \"#utility.yul\":1978:1979   */\n      0x00\n        /* \"#utility.yul\":2003:2056   */\n      tag_367\n        /* \"#utility.yul\":2048:2055   */\n      dup5\n        /* \"#utility.yul\":2039:2045   */\n      dup3\n        /* \"#utility.yul\":2028:2037   */\n      dup6\n        /* \"#utility.yul\":2024:2046   */\n      add\n        /* \"#utility.yul\":2003:2056   */\n      tag_281\n      jump\t// in\n    tag_367:\n        /* \"#utility.yul\":1993:2056   */\n      swap2\n      pop\n        /* \"#utility.yul\":1949:2066   */\n      pop\n        /* \"#utility.yul\":1744:2073   */\n      swap3\n      swap2\n      pop\n      pop\n      jump\t// out\n        /* \"#utility.yul\":2079:2205   */\n    tag_282:\n        /* \"#utility.yul\":2116:2123   */\n      0x00\n        /* \"#utility.yul\":2156:2198   */\n      0xffffffffffffffffffffffffffffffffffffffff\n        /* \"#utility.yul\":2149:2154   */\n      dup3\n        /* \"#utility.yul\":2145:2199   */\n      and\n        /* \"#utility.yul\":2134:2199   */\n      swap1\n      pop\n        /* \"#utility.yul\":2079:2205   */\n      swap2\n      swap1\n      pop\n      jump\t// out\n        /* \"#utility.yul\":2211:2307   */\n    tag_283:\n        /* \"#utility.yul\":2248:2255   */\n      0x00\n        /* \"#utility.yul\":2277:2301   */\n      tag_370\n        /* \"#utility.yul\":2295:2300   */\n      dup3\n        /* \"#utility.yul\":2277:2301   */\n      tag_282\n      jump\t// in\n    tag_370:\n        /* \"#utility.yul\":2266:2301   */\n      swap1\n      pop\n        /* \"#utility.yul\":2211:2307   */\n      swap2\n      swap1\n      pop\n      jump\t// out\n        /* \"#utility.yul\":2313:2435   */\n    tag_284:\n        /* \"#utility.yul\":2386:2410   */\n      tag_372\n        /* \"#utility.yul\":2404:2409   */\n      dup2\n        /* \"#utility.yul\":2386:2410   */\n      tag_283\n      jump\t// in\n    tag_372:\n        /* \"#utility.yul\":2379:2384   */\n      dup2\n        /* \"#utility.yul\":2376:2411   */\n      eq\n        /* \"#utility.yul\":2366:2429   */\n      tag_373\n      jumpi\n        /* \"#utility.yul\":2425:2426   */\n      0x00\n        /* \"#utility.yul\":2422:2423   */\n      dup1\n        /* \"#utility.yul\":2415:2427   */\n      revert\n        /* \"#utility.yul\":2366:2429   */\n    tag_373:\n        /* \"#utility.yul\":2313:2435   */\n      pop\n      jump\t// out\n        /* \"#utility.yul\":2441:2580   */\n    tag_285:\n        /* \"#utility.yul\":2487:2492   */\n      0x00\n        /* \"#utility.yul\":2525:2531   */\n      dup2\n        /* \"#utility.yul\":2512:2532   */\n      calldataload\n        /* \"#utility.yul\":2503:2532   */\n      swap1\n      pop\n        /* \"#utility.yul\":2541:2574   */\n      tag_375\n        /* \"#utility.yul\":2568:2573   */\n      dup2\n        /* \"#utility.yul\":2541:2574   */\n      tag_284\n      jump\t// in\n    tag_375:\n        /* \"#utility.yul\":2441:2580   */\n      swap3\n      swap2\n      pop\n      pop\n      jump\t// out\n        /* \"#utility.yul\":2586:3060   */\n    tag_37:\n        /* \"#utility.yul\":2654:2660   */\n      0x00\n        /* \"#utility.yul\":2662:2668   */\n      dup1\n        /* \"#utility.yul\":2711:2713   */\n      0x40\n        /* \"#utility.yul\":2699:2708   */\n      dup4\n        /* \"#utility.yul\":2690:2697   */\n      dup6\n        /* \"#utility.yul\":2686:2709   */\n      sub\n        /* \"#utility.yul\":2682:2714   */\n      slt\n        /* \"#utility.yul\":2679:2798   */\n      iszero\n      tag_377\n      jumpi\n        /* \"#utility.yul\":2717:2796   */\n      tag_378\n      tag_273\n      jump\t// in\n    tag_378:\n        /* \"#utility.yul\":2679:2798   */\n    tag_377:\n        /* \"#utility.yul\":2837:2838   */\n      0x00\n        /* \"#utility.yul\":2862:2915   */\n      tag_379\n        /* \"#utility.yul\":2907:2914   */\n      dup6\n        /* \"#utility.yul\":2898:2904   */\n      dup3\n        /* \"#utility.yul\":2887:2896   */\n      dup7\n        /* \"#utility.yul\":2883:2905   */\n      add\n        /* \"#utility.yul\":2862:2915   */\n      tag_285\n      jump\t// in\n    tag_379:\n        /* \"#utility.yul\":2852:2915   */\n      swap3\n      pop\n        /* \"#utility.yul\":2808:2925   */\n      pop\n        /* \"#utility.yul\":2964:2966   */\n      0x20\n        /* \"#utility.yul\":2990:3043   */\n      tag_380\n        /* \"#utility.yul\":3035:3042   */\n      dup6\n        /* \"#utility.yul\":3026:3032   */\n      dup3\n        /* \"#utility.yul\":3015:3024   */\n      dup7\n        /* \"#utility.yul\":3011:3033   */\n      add\n        /* \"#utility.yul\":2990:3043   */\n      tag_285\n      jump\t// in\n    tag_380:\n        /* \"#utility.yul\":2980:3043   */\n      swap2\n      pop\n        /* \"#utility.yul\":2935:3053   */\n      pop\n        /* \"#utility.yul\":2586:3060   */\n      swap3\n      pop\n      swap3\n      swap1\n      pop\n      jump\t// out\n        /* \"#utility.yul\":3066:3156   */\n    tag_286:\n        /* \"#utility.yul\":3100:3107   */\n      0x00\n        /* \"#utility.yul\":3143:3148   */\n      dup2\n        /* \"#utility.yul\":3136:3149   */\n      iszero\n        /* \"#utility.yul\":3129:3150   */\n      iszero\n        /* \"#utility.yul\":3118:3150   */\n      swap1\n      pop\n        /* \"#utility.yul\":3066:3156   */\n      swap2\n      swap1\n      pop\n      jump\t// out\n        /* \"#utility.yul\":3162:3271   */\n    tag_287:\n        /* \"#utility.yul\":3243:3264   */\n      tag_383\n        /* \"#utility.yul\":3258:3263   */\n      dup2\n        /* \"#utility.yul\":3243:3264   */\n      tag_286\n      jump\t// in\n    tag_383:\n        /* \"#utility.yul\":3238:3241   */\n      dup3\n        /* \"#utility.yul\":3231:3265   */\n      mstore\n        /* \"#utility.yul\":3162:3271   */\n      pop\n      pop\n      jump\t// out\n        /* \"#utility.yul\":3277:3487   */\n    tag_40:\n        /* \"#utility.yul\":3364:3368   */\n      0x00\n        /* \"#utility.yul\":3402:3404   */\n      0x20\n        /* \"#utility.yul\":3391:3400   */\n      dup3\n        /* \"#utility.yul\":3387:3405   */\n      add\n        /* \"#utility.yul\":3379:3405   */\n      swap1\n      pop\n        /* \"#utility.yul\":3415:3480   */\n      tag_385\n        /* \"#utility.yul\":3477:3478   */\n      0x00\n        /* \"#utility.yul\":3466:3475   */\n      dup4\n        /* \"#utility.yul\":3462:3479   */\n      add\n        /* \"#utility.yul\":3453:3459   */\n      dup5\n        /* \"#utility.yul\":3415:3480   */\n      tag_287\n      jump\t// in\n    tag_385:\n        /* \"#utility.yul\":3277:3487   */\n      swap3\n      swap2\n      pop\n      pop\n      jump\t// out\n        /* \"#utility.yul\":3493:3822   */\n    tag_43:\n        /* \"#utility.yul\":3552:3558   */\n      0x00\n        /* \"#utility.yul\":3601:3603   */\n      0x20\n        /* \"#utility.yul\":3589:3598   */\n      dup3\n        /* \"#utility.yul\":3580:3587   */\n      dup5\n        /* \"#utility.yul\":3576:3599   */\n      sub\n        /* \"#utility.yul\":3572:3604   */\n      slt\n        /* \"#utility.yul\":3569:3688   */\n      iszero\n      tag_387\n      jumpi\n        /* \"#utility.yul\":3607:3686   */\n      tag_388\n      tag_273\n      jump\t// in\n    tag_388:\n        /* \"#utility.yul\":3569:3688   */\n    tag_387:\n        /* \"#utility.yul\":3727:3728   */\n      0x00\n        /* \"#utility.yul\":3752:3805   */\n      tag_389\n        /* \"#utility.yul\":3797:3804   */\n      dup5\n        /* \"#utility.yul\":3788:3794   */\n      dup3\n        /* \"#utility.yul\":3777:3786   */\n      dup6\n        /* \"#utility.yul\":3773:3795   */\n      add\n        /* \"#utility.yul\":3752:3805   */\n      tag_285\n      jump\t// in\n    tag_389:\n        /* \"#utility.yul\":3742:3805   */\n      swap2\n      pop\n        /* \"#utility.yul\":3698:3815   */\n      pop\n        /* \"#utility.yul\":3493:3822   */\n      swap3\n      swap2\n      pop\n      pop\n      jump\t// out\n        /* \"#utility.yul\":3828:3927   */\n    tag_288:\n        /* \"#utility.yul\":3880:3886   */\n      0x00\n        /* \"#utility.yul\":3914:3919   */\n      dup2\n        /* \"#utility.yul\":3908:3920   */\n      mload\n        /* \"#utility.yul\":3898:3920   */\n      swap1\n      pop\n        /* \"#utility.yul\":3828:3927   */\n      swap2\n      swap1\n      pop\n      jump\t// out\n        /* \"#utility.yul\":3933:4092   */\n    tag_289:\n        /* \"#utility.yul\":4007:4018   */\n      0x00\n        /* \"#utility.yul\":4041:4047   */\n      dup3\n        /* \"#utility.yul\":4036:4039   */\n      dup3\n        /* \"#utility.yul\":4029:4048   */\n      mstore\n        /* \"#utility.yul\":4081:4085   */\n      0x20\n        /* \"#utility.yul\":4076:4079   */\n      dup3\n        /* \"#utility.yul\":4072:4086   */\n      add\n        /* \"#utility.yul\":4057:4086   */\n      swap1\n      pop\n        /* \"#utility.yul\":3933:4092   */\n      swap3\n      swap2\n      pop\n      pop\n      jump\t// out\n        /* \"#utility.yul\":4098:4237   */\n    tag_290:\n        /* \"#utility.yul\":4187:4193   */\n      dup3\n        /* \"#utility.yul\":4182:4185   */\n      dup2\n        /* \"#utility.yul\":4177:4180   */\n      dup4\n        /* \"#utility.yul\":4171:4194   */\n      mcopy\n        /* \"#utility.yul\":4228:4229   */\n      0x00\n        /* \"#utility.yul\":4219:4225   */\n      dup4\n        /* \"#utility.yul\":4214:4217   */\n      dup4\n        /* \"#utility.yul\":4210:4226   */\n      add\n        /* \"#utility.yul\":4203:4230   */\n      mstore\n        /* \"#utility.yul\":4098:4237   */\n      pop\n      pop\n      pop\n      jump\t// out\n        /* \"#utility.yul\":4243:4345   */\n    tag_291:\n        /* \"#utility.yul\":4284:4290   */\n      0x00\n        /* \"#utility.yul\":4335:4337   */\n      0x1f\n        /* \"#utility.yul\":4331:4338   */\n      not\n        /* \"#utility.yul\":4326:4328   */\n      0x1f\n        /* \"#utility.yul\":4319:4324   */\n      dup4\n        /* \"#utility.yul\":4315:4329   */\n      add\n        /* \"#utility.yul\":4311:4339   */\n      and\n        /* \"#utility.yul\":4301:4339   */\n      swap1\n      pop\n        /* \"#utility.yul\":4243:4345   */\n      swap2\n      swap1\n      pop\n      jump\t// out\n        /* \"#utility.yul\":4351:4708   */\n    tag_292:\n        /* \"#utility.yul\":4429:4432   */\n      0x00\n        /* \"#utility.yul\":4457:4496   */\n      tag_395\n        /* \"#utility.yul\":4490:4495   */\n      dup3\n        /* \"#utility.yul\":4457:4496   */\n      tag_288\n      jump\t// in\n    tag_395:\n        /* \"#utility.yul\":4512:4573   */\n      tag_396\n        /* \"#utility.yul\":4566:4572   */\n      dup2\n        /* \"#utility.yul\":4561:4564   */\n      dup6\n        /* \"#utility.yul\":4512:4573   */\n      tag_289\n      jump\t// in\n    tag_396:\n        /* \"#utility.yul\":4505:4573   */\n      swap4\n      pop\n        /* \"#utility.yul\":4582:4647   */\n      tag_397\n        /* \"#utility.yul\":4640:4646   */\n      dup2\n        /* \"#utility.yul\":4635:4638   */\n      dup6\n        /* \"#utility.yul\":4628:4632   */\n      0x20\n        /* \"#utility.yul\":4621:4626   */\n      dup7\n        /* \"#utility.yul\":4617:4633   */\n      add\n        /* \"#utility.yul\":4582:4647   */\n      tag_290\n      jump\t// in\n    tag_397:\n        /* \"#utility.yul\":4672:4701   */\n      tag_398\n        /* \"#utility.yul\":4694:4700   */\n      dup2\n        /* \"#utility.yul\":4672:4701   */\n      tag_291\n      jump\t// in\n    tag_398:\n        /* \"#utility.yul\":4667:4670   */\n      dup5\n        /* \"#utility.yul\":4663:4702   */\n      add\n        /* \"#utility.yul\":4656:4702   */\n      swap2\n      pop\n        /* \"#utility.yul\":4433:4708   */\n      pop\n        /* \"#utility.yul\":4351:4708   */\n      swap3\n      swap2\n      pop\n      pop\n      jump\t// out\n        /* \"#utility.yul\":4768:5440   */\n    tag_293:\n        /* \"#utility.yul\":4883:4886   */\n      0x00\n        /* \"#utility.yul\":4919:4923   */\n      0x40\n        /* \"#utility.yul\":4914:4917   */\n      dup4\n        /* \"#utility.yul\":4910:4924   */\n      add\n        /* \"#utility.yul\":5005:5009   */\n      0x00\n        /* \"#utility.yul\":4998:5003   */\n      dup4\n        /* \"#utility.yul\":4994:5010   */\n      add\n        /* \"#utility.yul\":4988:5011   */\n      mload\n        /* \"#utility.yul\":5058:5061   */\n      dup5\n        /* \"#utility.yul\":5052:5056   */\n      dup3\n        /* \"#utility.yul\":5048:5062   */\n      sub\n        /* \"#utility.yul\":5041:5045   */\n      0x00\n        /* \"#utility.yul\":5036:5039   */\n      dup7\n        /* \"#utility.yul\":5032:5046   */\n      add\n        /* \"#utility.yul\":5025:5063   */\n      mstore\n        /* \"#utility.yul\":5084:5157   */\n      tag_400\n        /* \"#utility.yul\":5152:5156   */\n      dup3\n        /* \"#utility.yul\":5138:5150   */\n      dup3\n        /* \"#utility.yul\":5084:5157   */\n      tag_292\n      jump\t// in\n    tag_400:\n        /* \"#utility.yul\":5076:5157   */\n      swap2\n      pop\n        /* \"#utility.yul\":4934:5168   */\n      pop\n        /* \"#utility.yul\":5250:5254   */\n      0x20\n        /* \"#utility.yul\":5243:5248   */\n      dup4\n        /* \"#utility.yul\":5239:5255   */\n      add\n        /* \"#utility.yul\":5233:5256   */\n      mload\n        /* \"#utility.yul\":5303:5306   */\n      dup5\n        /* \"#utility.yul\":5297:5301   */\n      dup3\n        /* \"#utility.yul\":5293:5307   */\n      sub\n        /* \"#utility.yul\":5286:5290   */\n      0x20\n        /* \"#utility.yul\":5281:5284   */\n      dup7\n        /* \"#utility.yul\":5277:5291   */\n      add\n        /* \"#utility.yul\":5270:5308   */\n      mstore\n        /* \"#utility.yul\":5329:5402   */\n      tag_401\n        /* \"#utility.yul\":5397:5401   */\n      dup3\n        /* \"#utility.yul\":5383:5395   */\n      dup3\n        /* \"#utility.yul\":5329:5402   */\n      tag_292\n      jump\t// in\n    tag_401:\n        /* \"#utility.yul\":5321:5402   */\n      swap2\n      pop\n        /* \"#utility.yul\":5178:5413   */\n      pop\n        /* \"#utility.yul\":5430:5434   */\n      dup1\n        /* \"#utility.yul\":5423:5434   */\n      swap2\n      pop\n        /* \"#utility.yul\":4888:5440   */\n      pop\n        /* \"#utility.yul\":4768:5440   */\n      swap3\n      swap2\n      pop\n      pop\n      jump\t// out\n        /* \"#utility.yul\":5446:5811   */\n    tag_46:\n        /* \"#utility.yul\":5585:5589   */\n      0x00\n        /* \"#utility.yul\":5623:5625   */\n      0x20\n        /* \"#utility.yul\":5612:5621   */\n      dup3\n        /* \"#utility.yul\":5608:5626   */\n      add\n        /* \"#utility.yul\":5600:5626   */\n      swap1\n      pop\n        /* \"#utility.yul\":5672:5681   */\n      dup2\n        /* \"#utility.yul\":5666:5670   */\n      dup2\n        /* \"#utility.yul\":5662:5682   */\n      sub\n        /* \"#utility.yul\":5658:5659   */\n      0x00\n        /* \"#utility.yul\":5647:5656   */\n      dup4\n        /* \"#utility.yul\":5643:5660   */\n      add\n        /* \"#utility.yul\":5636:5683   */\n      mstore\n        /* \"#utility.yul\":5700:5804   */\n      tag_403\n        /* \"#utility.yul\":5799:5803   */\n      dup2\n        /* \"#utility.yul\":5790:5796   */\n      dup5\n        /* \"#utility.yul\":5700:5804   */\n      tag_293\n      jump\t// in\n    tag_403:\n        /* \"#utility.yul\":5692:5804   */\n      swap1\n      pop\n        /* \"#utility.yul\":5446:5811   */\n      swap3\n      swap2\n      pop\n      pop\n      jump\t// out\n        /* \"#utility.yul\":5817:5955   */\n    tag_294:\n        /* \"#utility.yul\":5908:5914   */\n      0x00\n        /* \"#utility.yul\":5942:5947   */\n      dup2\n        /* \"#utility.yul\":5936:5948   */\n      mload\n        /* \"#utility.yul\":5926:5948   */\n      swap1\n      pop\n        /* \"#utility.yul\":5817:5955   */\n      swap2\n      swap1\n      pop\n      jump\t// out\n        /* \"#utility.yul\":5961:6169   */\n    tag_295:\n        /* \"#utility.yul\":6084:6095   */\n      0x00\n        /* \"#utility.yul\":6118:6124   */\n      dup3\n        /* \"#utility.yul\":6113:6116   */\n      dup3\n        /* \"#utility.yul\":6106:6125   */\n      mstore\n        /* \"#utility.yul\":6158:6162   */\n      0x20\n        /* \"#utility.yul\":6153:6156   */\n      dup3\n        /* \"#utility.yul\":6149:6163   */\n      add\n        /* \"#utility.yul\":6134:6163   */\n      swap1\n      pop\n        /* \"#utility.yul\":5961:6169   */\n      swap3\n      swap2\n      pop\n      pop\n      jump\t// out\n        /* \"#utility.yul\":6175:6331   */\n    tag_296:\n        /* \"#utility.yul\":6266:6270   */\n      0x00\n        /* \"#utility.yul\":6289:6292   */\n      dup2\n        /* \"#utility.yul\":6281:6292   */\n      swap1\n      pop\n        /* \"#utility.yul\":6319:6323   */\n      0x20\n        /* \"#utility.yul\":6314:6317   */\n      dup3\n        /* \"#utility.yul\":6310:6324   */\n      add\n        /* \"#utility.yul\":6302:6324   */\n      swap1\n      pop\n        /* \"#utility.yul\":6175:6331   */\n      swap2\n      swap1\n      pop\n      jump\t// out\n        /* \"#utility.yul\":6337:6445   */\n    tag_297:\n        /* \"#utility.yul\":6414:6438   */\n      tag_408\n        /* \"#utility.yul\":6432:6437   */\n      dup2\n        /* \"#utility.yul\":6414:6438   */\n      tag_279\n      jump\t// in\n    tag_408:\n        /* \"#utility.yul\":6409:6412   */\n      dup3\n        /* \"#utility.yul\":6402:6439   */\n      mstore\n        /* \"#utility.yul\":6337:6445   */\n      pop\n      pop\n      jump\t// out\n        /* \"#utility.yul\":6451:6559   */\n    tag_298:\n        /* \"#utility.yul\":6528:6552   */\n      tag_410\n        /* \"#utility.yul\":6546:6551   */\n      dup2\n        /* \"#utility.yul\":6528:6552   */\n      tag_283\n      jump\t// in\n    tag_410:\n        /* \"#utility.yul\":6523:6526   */\n      dup3\n        /* \"#utility.yul\":6516:6553   */\n      mstore\n        /* \"#utility.yul\":6451:6559   */\n      pop\n      pop\n      jump\t// out\n        /* \"#utility.yul\":6565:6664   */\n    tag_299:\n        /* \"#utility.yul\":6636:6657   */\n      tag_412\n        /* \"#utility.yul\":6651:6656   */\n      dup2\n        /* \"#utility.yul\":6636:6657   */\n      tag_286\n      jump\t// in\n    tag_412:\n        /* \"#utility.yul\":6631:6634   */\n      dup3\n        /* \"#utility.yul\":6624:6658   */\n      mstore\n        /* \"#utility.yul\":6565:6664   */\n      pop\n      pop\n      jump\t// out\n        /* \"#utility.yul\":6726:7574   */\n    tag_300:\n        /* \"#utility.yul\":6861:6865   */\n      0x80\n        /* \"#utility.yul\":6856:6859   */\n      dup3\n        /* \"#utility.yul\":6852:6866   */\n      add\n        /* \"#utility.yul\":6946:6950   */\n      0x00\n        /* \"#utility.yul\":6939:6944   */\n      dup3\n        /* \"#utility.yul\":6935:6951   */\n      add\n        /* \"#utility.yul\":6929:6952   */\n      mload\n        /* \"#utility.yul\":6965:7028   */\n      tag_414\n        /* \"#utility.yul\":7022:7026   */\n      0x00\n        /* \"#utility.yul\":7017:7020   */\n      dup6\n        /* \"#utility.yul\":7013:7027   */\n      add\n        /* \"#utility.yul\":6999:7011   */\n      dup3\n        /* \"#utility.yul\":6965:7028   */\n      tag_297\n      jump\t// in\n    tag_414:\n        /* \"#utility.yul\":6876:7038   */\n      pop\n        /* \"#utility.yul\":7122:7126   */\n      0x20\n        /* \"#utility.yul\":7115:7120   */\n      dup3\n        /* \"#utility.yul\":7111:7127   */\n      add\n        /* \"#utility.yul\":7105:7128   */\n      mload\n        /* \"#utility.yul\":7141:7204   */\n      tag_415\n        /* \"#utility.yul\":7198:7202   */\n      0x20\n        /* \"#utility.yul\":7193:7196   */\n      dup6\n        /* \"#utility.yul\":7189:7203   */\n      add\n        /* \"#utility.yul\":7175:7187   */\n      dup3\n        /* \"#utility.yul\":7141:7204   */\n      tag_298\n      jump\t// in\n    tag_415:\n        /* \"#utility.yul\":7048:7214   */\n      pop\n        /* \"#utility.yul\":7304:7308   */\n      0x40\n        /* \"#utility.yul\":7297:7302   */\n      dup3\n        /* \"#utility.yul\":7293:7309   */\n      add\n        /* \"#utility.yul\":7287:7310   */\n      mload\n        /* \"#utility.yul\":7323:7386   */\n      tag_416\n        /* \"#utility.yul\":7380:7384   */\n      0x40\n        /* \"#utility.yul\":7375:7378   */\n      dup6\n        /* \"#utility.yul\":7371:7385   */\n      add\n        /* \"#utility.yul\":7357:7369   */\n      dup3\n        /* \"#utility.yul\":7323:7386   */\n      tag_298\n      jump\t// in\n    tag_416:\n        /* \"#utility.yul\":7224:7396   */\n      pop\n        /* \"#utility.yul\":7481:7485   */\n      0x60\n        /* \"#utility.yul\":7474:7479   */\n      dup3\n        /* \"#utility.yul\":7470:7486   */\n      add\n        /* \"#utility.yul\":7464:7487   */\n      mload\n        /* \"#utility.yul\":7500:7557   */\n      tag_417\n        /* \"#utility.yul\":7551:7555   */\n      0x60\n        /* \"#utility.yul\":7546:7549   */\n      dup6\n        /* \"#utility.yul\":7542:7556   */\n      add\n        /* \"#utility.yul\":7528:7540   */\n      dup3\n        /* \"#utility.yul\":7500:7557   */\n      tag_299\n      jump\t// in\n    tag_417:\n        /* \"#utility.yul\":7406:7567   */\n      pop\n        /* \"#utility.yul\":6830:7574   */\n      pop\n        /* \"#utility.yul\":6726:7574   */\n      pop\n      pop\n      jump\t// out\n        /* \"#utility.yul\":7580:7855   */\n    tag_301:\n        /* \"#utility.yul\":7697:7707   */\n      0x00\n        /* \"#utility.yul\":7718:7812   */\n      tag_419\n        /* \"#utility.yul\":7808:7811   */\n      dup4\n        /* \"#utility.yul\":7800:7806   */\n      dup4\n        /* \"#utility.yul\":7718:7812   */\n      tag_300\n      jump\t// in\n    tag_419:\n        /* \"#utility.yul\":7844:7848   */\n      0x80\n        /* \"#utility.yul\":7839:7842   */\n      dup4\n        /* \"#utility.yul\":7835:7849   */\n      add\n        /* \"#utility.yul\":7821:7849   */\n      swap1\n      pop\n        /* \"#utility.yul\":7580:7855   */\n      swap3\n      swap2\n      pop\n      pop\n      jump\t// out\n        /* \"#utility.yul\":7861:7998   */\n    tag_302:\n        /* \"#utility.yul\":7955:7959   */\n      0x00\n        /* \"#utility.yul\":7987:7991   */\n      0x20\n        /* \"#utility.yul\":7982:7985   */\n      dup3\n        /* \"#utility.yul\":7978:7992   */\n      add\n        /* \"#utility.yul\":7970:7992   */\n      swap1\n      pop\n        /* \"#utility.yul\":7861:7998   */\n      swap2\n      swap1\n      pop\n      jump\t// out\n        /* \"#utility.yul\":8064:8988   */\n    tag_303:\n        /* \"#utility.yul\":8231:8234   */\n      0x00\n        /* \"#utility.yul\":8260:8338   */\n      tag_422\n        /* \"#utility.yul\":8332:8337   */\n      dup3\n        /* \"#utility.yul\":8260:8338   */\n      tag_294\n      jump\t// in\n    tag_422:\n        /* \"#utility.yul\":8354:8464   */\n      tag_423\n        /* \"#utility.yul\":8457:8463   */\n      dup2\n        /* \"#utility.yul\":8452:8455   */\n      dup6\n        /* \"#utility.yul\":8354:8464   */\n      tag_295\n      jump\t// in\n    tag_423:\n        /* \"#utility.yul\":8347:8464   */\n      swap4\n      pop\n        /* \"#utility.yul\":8488:8568   */\n      tag_424\n        /* \"#utility.yul\":8562:8567   */\n      dup4\n        /* \"#utility.yul\":8488:8568   */\n      tag_296\n      jump\t// in\n    tag_424:\n        /* \"#utility.yul\":8591:8598   */\n      dup1\n        /* \"#utility.yul\":8622:8623   */\n      0x00\n        /* \"#utility.yul\":8607:8963   */\n    tag_425:\n        /* \"#utility.yul\":8632:8638   */\n      dup4\n        /* \"#utility.yul\":8629:8630   */\n      dup2\n        /* \"#utility.yul\":8626:8639   */\n      lt\n        /* \"#utility.yul\":8607:8963   */\n      iszero\n      tag_427\n      jumpi\n        /* \"#utility.yul\":8708:8714   */\n      dup2\n        /* \"#utility.yul\":8702:8715   */\n      mload\n        /* \"#utility.yul\":8735:8846   */\n      tag_428\n        /* \"#utility.yul\":8842:8845   */\n      dup9\n        /* \"#utility.yul\":8827:8840   */\n      dup3\n        /* \"#utility.yul\":8735:8846   */\n      tag_301\n      jump\t// in\n    tag_428:\n        /* \"#utility.yul\":8728:8846   */\n      swap8\n      pop\n        /* \"#utility.yul\":8869:8953   */\n      tag_429\n        /* \"#utility.yul\":8946:8952   */\n      dup4\n        /* \"#utility.yul\":8869:8953   */\n      tag_302\n      jump\t// in\n    tag_429:\n        /* \"#utility.yul\":8859:8953   */\n      swap3\n      pop\n        /* \"#utility.yul\":8667:8963   */\n      pop\n        /* \"#utility.yul\":8654:8655   */\n      0x01\n        /* \"#utility.yul\":8651:8652   */\n      dup2\n        /* \"#utility.yul\":8647:8656   */\n      add\n        /* \"#utility.yul\":8642:8656   */\n      swap1\n      pop\n        /* \"#utility.yul\":8607:8963   */\n      jump(tag_425)\n    tag_427:\n        /* \"#utility.yul\":8611:8625   */\n      pop\n        /* \"#utility.yul\":8979:8982   */\n      dup6\n        /* \"#utility.yul\":8972:8982   */\n      swap4\n      pop\n        /* \"#utility.yul\":8236:8988   */\n      pop\n      pop\n      pop\n        /* \"#utility.yul\":8064:8988   */\n      swap3\n      swap2\n      pop\n      pop\n      jump\t// out\n        /* \"#utility.yul\":8994:9463   */\n    tag_57:\n        /* \"#utility.yul\":9185:9189   */\n      0x00\n        /* \"#utility.yul\":9223:9225   */\n      0x20\n        /* \"#utility.yul\":9212:9221   */\n      dup3\n        /* \"#utility.yul\":9208:9226   */\n      add\n        /* \"#utility.yul\":9200:9226   */\n      swap1\n      pop\n        /* \"#utility.yul\":9272:9281   */\n      dup2\n        /* \"#utility.yul\":9266:9270   */\n      dup2\n        /* \"#utility.yul\":9262:9282   */\n      sub\n        /* \"#utility.yul\":9258:9259   */\n      0x00\n        /* \"#utility.yul\":9247:9256   */\n      dup4\n        /* \"#utility.yul\":9243:9260   */\n      add\n        /* \"#utility.yul\":9236:9283   */\n      mstore\n        /* \"#utility.yul\":9300:9456   */\n      tag_431\n        /* \"#utility.yul\":9451:9455   */\n      dup2\n        /* \"#utility.yul\":9442:9448   */\n      dup5\n        /* \"#utility.yul\":9300:9456   */\n      tag_303\n      jump\t// in\n    tag_431:\n        /* \"#utility.yul\":9292:9456   */\n      swap1\n      pop\n        /* \"#utility.yul\":8994:9463   */\n      swap3\n      swap2\n      pop\n      pop\n      jump\t// out\n        /* \"#utility.yul\":9469:9583   */\n    tag_304:\n        /* \"#utility.yul\":9536:9542   */\n      0x00\n        /* \"#utility.yul\":9570:9575   */\n      dup2\n        /* \"#utility.yul\":9564:9576   */\n      mload\n        /* \"#utility.yul\":9554:9576   */\n      swap1\n      pop\n        /* \"#utility.yul\":9469:9583   */\n      swap2\n      swap1\n      pop\n      jump\t// out\n        /* \"#utility.yul\":9589:9773   */\n    tag_305:\n        /* \"#utility.yul\":9688:9699   */\n      0x00\n        /* \"#utility.yul\":9722:9728   */\n      dup3\n        /* \"#utility.yul\":9717:9720   */\n      dup3\n        /* \"#utility.yul\":9710:9729   */\n      mstore\n        /* \"#utility.yul\":9762:9766   */\n      0x20\n        /* \"#utility.yul\":9757:9760   */\n      dup3\n        /* \"#utility.yul\":9753:9767   */\n      add\n        /* \"#utility.yul\":9738:9767   */\n      swap1\n      pop\n        /* \"#utility.yul\":9589:9773   */\n      swap3\n      swap2\n      pop\n      pop\n      jump\t// out\n        /* \"#utility.yul\":9779:9911   */\n    tag_306:\n        /* \"#utility.yul\":9846:9850   */\n      0x00\n        /* \"#utility.yul\":9869:9872   */\n      dup2\n        /* \"#utility.yul\":9861:9872   */\n      swap1\n      pop\n        /* \"#utility.yul\":9899:9903   */\n      0x20\n        /* \"#utility.yul\":9894:9897   */\n      dup3\n        /* \"#utility.yul\":9890:9904   */\n      add\n        /* \"#utility.yul\":9882:9904   */\n      swap1\n      pop\n        /* \"#utility.yul\":9779:9911   */\n      swap2\n      swap1\n      pop\n      jump\t// out\n        /* \"#utility.yul\":9917:10096   */\n    tag_307:\n        /* \"#utility.yul\":9986:9996   */\n      0x00\n        /* \"#utility.yul\":10007:10053   */\n      tag_436\n        /* \"#utility.yul\":10049:10052   */\n      dup4\n        /* \"#utility.yul\":10041:10047   */\n      dup4\n        /* \"#utility.yul\":10007:10053   */\n      tag_298\n      jump\t// in\n    tag_436:\n        /* \"#utility.yul\":10085:10089   */\n      0x20\n        /* \"#utility.yul\":10080:10083   */\n      dup4\n        /* \"#utility.yul\":10076:10090   */\n      add\n        /* \"#utility.yul\":10062:10090   */\n      swap1\n      pop\n        /* \"#utility.yul\":9917:10096   */\n      swap3\n      swap2\n      pop\n      pop\n      jump\t// out\n        /* \"#utility.yul\":10102:10215   */\n    tag_308:\n        /* \"#utility.yul\":10172:10176   */\n      0x00\n        /* \"#utility.yul\":10204:10208   */\n      0x20\n        /* \"#utility.yul\":10199:10202   */\n      dup3\n        /* \"#utility.yul\":10195:10209   */\n      add\n        /* \"#utility.yul\":10187:10209   */\n      swap1\n      pop\n        /* \"#utility.yul\":10102:10215   */\n      swap2\n      swap1\n      pop\n      jump\t// out\n        /* \"#utility.yul\":10251:10983   */\n    tag_309:\n        /* \"#utility.yul\":10370:10373   */\n      0x00\n        /* \"#utility.yul\":10399:10453   */\n      tag_439\n        /* \"#utility.yul\":10447:10452   */\n      dup3\n        /* \"#utility.yul\":10399:10453   */\n      tag_304\n      jump\t// in\n    tag_439:\n        /* \"#utility.yul\":10469:10555   */\n      tag_440\n        /* \"#utility.yul\":10548:10554   */\n      dup2\n        /* \"#utility.yul\":10543:10546   */\n      dup6\n        /* \"#utility.yul\":10469:10555   */\n      tag_305\n      jump\t// in\n    tag_440:\n        /* \"#utility.yul\":10462:10555   */\n      swap4\n      pop\n        /* \"#utility.yul\":10579:10635   */\n      tag_441\n        /* \"#utility.yul\":10629:10634   */\n      dup4\n        /* \"#utility.yul\":10579:10635   */\n      tag_306\n      jump\t// in\n    tag_441:\n        /* \"#utility.yul\":10658:10665   */\n      dup1\n        /* \"#utility.yul\":10689:10690   */\n      0x00\n        /* \"#utility.yul\":10674:10958   */\n    tag_442:\n        /* \"#utility.yul\":10699:10705   */\n      dup4\n        /* \"#utility.yul\":10696:10697   */\n      dup2\n        /* \"#utility.yul\":10693:10706   */\n      lt\n        /* \"#utility.yul\":10674:10958   */\n      iszero\n      tag_444\n      jumpi\n        /* \"#utility.yul\":10775:10781   */\n      dup2\n        /* \"#utility.yul\":10769:10782   */\n      mload\n        /* \"#utility.yul\":10802:10865   */\n      tag_445\n        /* \"#utility.yul\":10861:10864   */\n      dup9\n        /* \"#utility.yul\":10846:10859   */\n      dup3\n        /* \"#utility.yul\":10802:10865   */\n      tag_307\n      jump\t// in\n    tag_445:\n        /* \"#utility.yul\":10795:10865   */\n      swap8\n      pop\n        /* \"#utility.yul\":10888:10948   */\n      tag_446\n        /* \"#utility.yul\":10941:10947   */\n      dup4\n        /* \"#utility.yul\":10888:10948   */\n      tag_308\n      jump\t// in\n    tag_446:\n        /* \"#utility.yul\":10878:10948   */\n      swap3\n      pop\n        /* \"#utility.yul\":10734:10958   */\n      pop\n        /* \"#utility.yul\":10721:10722   */\n      0x01\n        /* \"#utility.yul\":10718:10719   */\n      dup2\n        /* \"#utility.yul\":10714:10723   */\n      add\n        /* \"#utility.yul\":10709:10723   */\n      swap1\n      pop\n        /* \"#utility.yul\":10674:10958   */\n      jump(tag_442)\n    tag_444:\n        /* \"#utility.yul\":10678:10692   */\n      pop\n        /* \"#utility.yul\":10974:10977   */\n      dup6\n        /* \"#utility.yul\":10967:10977   */\n      swap4\n      pop\n        /* \"#utility.yul\":10375:10983   */\n      pop\n      pop\n      pop\n        /* \"#utility.yul\":10251:10983   */\n      swap3\n      swap2\n      pop\n      pop\n      jump\t// out\n        /* \"#utility.yul\":10989:11362   */\n    tag_65:\n        /* \"#utility.yul\":11132:11136   */\n      0x00\n        /* \"#utility.yul\":11170:11172   */\n      0x20\n        /* \"#utility.yul\":11159:11168   */\n      dup3\n        /* \"#utility.yul\":11155:11173   */\n      add\n        /* \"#utility.yul\":11147:11173   */\n      swap1\n      pop\n        /* \"#utility.yul\":11219:11228   */\n      dup2\n        /* \"#utility.yul\":11213:11217   */\n      dup2\n        /* \"#utility.yul\":11209:11229   */\n      sub\n        /* \"#utility.yul\":11205:11206   */\n      0x00\n        /* \"#utility.yul\":11194:11203   */\n      dup4\n        /* \"#utility.yul\":11190:11207   */\n      add\n        /* \"#utility.yul\":11183:11230   */\n      mstore\n        /* \"#utility.yul\":11247:11355   */\n      tag_448\n        /* \"#utility.yul\":11350:11354   */\n      dup2\n        /* \"#utility.yul\":11341:11347   */\n      dup5\n        /* \"#utility.yul\":11247:11355   */\n      tag_309\n      jump\t// in\n    tag_448:\n        /* \"#utility.yul\":11239:11355   */\n      swap1\n      pop\n        /* \"#utility.yul\":10989:11362   */\n      swap3\n      swap2\n      pop\n      pop\n      jump\t// out\n        /* \"#utility.yul\":11368:11428   */\n    tag_310:\n        /* \"#utility.yul\":11396:11399   */\n      0x00\n        /* \"#utility.yul\":11417:11422   */\n      dup2\n        /* \"#utility.yul\":11410:11422   */\n      swap1\n      pop\n        /* \"#utility.yul\":11368:11428   */\n      swap2\n      swap1\n      pop\n      jump\t// out\n        /* \"#utility.yul\":11434:11576   */\n    tag_311:\n        /* \"#utility.yul\":11484:11493   */\n      0x00\n        /* \"#utility.yul\":11517:11570   */\n      tag_451\n        /* \"#utility.yul\":11535:11569   */\n      tag_452\n        /* \"#utility.yul\":11544:11568   */\n      tag_453\n        /* \"#utility.yul\":11562:11567   */\n      dup5\n        /* \"#utility.yul\":11544:11568   */\n      tag_282\n      jump\t// in\n    tag_453:\n        /* \"#utility.yul\":11535:11569   */\n      tag_310\n      jump\t// in\n    tag_452:\n        /* \"#utility.yul\":11517:11570   */\n      tag_282\n      jump\t// in\n    tag_451:\n        /* \"#utility.yul\":11504:11570   */\n      swap1\n      pop\n        /* \"#utility.yul\":11434:11576   */\n      swap2\n      swap1\n      pop\n      jump\t// out\n        /* \"#utility.yul\":11582:11708   */\n    tag_312:\n        /* \"#utility.yul\":11632:11641   */\n      0x00\n        /* \"#utility.yul\":11665:11702   */\n      tag_455\n        /* \"#utility.yul\":11696:11701   */\n      dup3\n        /* \"#utility.yul\":11665:11702   */\n      tag_311\n      jump\t// in\n    tag_455:\n        /* \"#utility.yul\":11652:11702   */\n      swap1\n      pop\n        /* \"#utility.yul\":11582:11708   */\n      swap2\n      swap1\n      pop\n      jump\t// out\n        /* \"#utility.yul\":11714:11851   */\n    tag_313:\n        /* \"#utility.yul\":11775:11784   */\n      0x00\n        /* \"#utility.yul\":11808:11845   */\n      tag_457\n        /* \"#utility.yul\":11839:11844   */\n      dup3\n        /* \"#utility.yul\":11808:11845   */\n      tag_312\n      jump\t// in\n    tag_457:\n        /* \"#utility.yul\":11795:11845   */\n      swap1\n      pop\n        /* \"#utility.yul\":11714:11851   */\n      swap2\n      swap1\n      pop\n      jump\t// out\n        /* \"#utility.yul\":11857:12010   */\n    tag_314:\n        /* \"#utility.yul\":11955:12003   */\n      tag_459\n        /* \"#utility.yul\":11997:12002   */\n      dup2\n        /* \"#utility.yul\":11955:12003   */\n      tag_313\n      jump\t// in\n    tag_459:\n        /* \"#utility.yul\":11950:11953   */\n      dup3\n        /* \"#utility.yul\":11943:12004   */\n      mstore\n        /* \"#utility.yul\":11857:12010   */\n      pop\n      pop\n      jump\t// out\n        /* \"#utility.yul\":12016:12260   */\n    tag_73:\n        /* \"#utility.yul\":12120:12124   */\n      0x00\n        /* \"#utility.yul\":12158:12160   */\n      0x20\n        /* \"#utility.yul\":12147:12156   */\n      dup3\n        /* \"#utility.yul\":12143:12161   */\n      add\n        /* \"#utility.yul\":12135:12161   */\n      swap1\n      pop\n        /* \"#utility.yul\":12171:12253   */\n      tag_461\n        /* \"#utility.yul\":12250:12251   */\n      0x00\n        /* \"#utility.yul\":12239:12248   */\n      dup4\n        /* \"#utility.yul\":12235:12252   */\n      add\n        /* \"#utility.yul\":12226:12232   */\n      dup5\n        /* \"#utility.yul\":12171:12253   */\n      tag_314\n      jump\t// in\n    tag_461:\n        /* \"#utility.yul\":12016:12260   */\n      swap3\n      swap2\n      pop\n      pop\n      jump\t// out\n        /* \"#utility.yul\":12266:12383   */\n    tag_315:\n        /* \"#utility.yul\":12375:12376   */\n      0x00\n        /* \"#utility.yul\":12372:12373   */\n      dup1\n        /* \"#utility.yul\":12365:12377   */\n      revert\n        /* \"#utility.yul\":12389:12506   */\n    tag_316:\n        /* \"#utility.yul\":12498:12499   */\n      0x00\n        /* \"#utility.yul\":12495:12496   */\n      dup1\n        /* \"#utility.yul\":12488:12500   */\n      revert\n        /* \"#utility.yul\":12512:12692   */\n    tag_175:\n        /* \"#utility.yul\":12560:12637   */\n      0x4e487b7100000000000000000000000000000000000000000000000000000000\n        /* \"#utility.yul\":12557:12558   */\n      0x00\n        /* \"#utility.yul\":12550:12638   */\n      mstore\n        /* \"#utility.yul\":12657:12661   */\n      0x41\n        /* \"#utility.yul\":12654:12655   */\n      0x04\n        /* \"#utility.yul\":12647:12662   */\n      mstore\n        /* \"#utility.yul\":12681:12685   */\n      0x24\n        /* \"#utility.yul\":12678:12679   */\n      0x00\n        /* \"#utility.yul\":12671:12686   */\n      revert\n        /* \"#utility.yul\":12698:12979   */\n    tag_317:\n        /* \"#utility.yul\":12781:12808   */\n      tag_466\n        /* \"#utility.yul\":12803:12807   */\n      dup3\n        /* \"#utility.yul\":12781:12808   */\n      tag_291\n      jump\t// in\n    tag_466:\n        /* \"#utility.yul\":12773:12779   */\n      dup2\n        /* \"#utility.yul\":12769:12809   */\n      add\n        /* \"#utility.yul\":12911:12917   */\n      dup2\n        /* \"#utility.yul\":12899:12909   */\n      dup2\n        /* \"#utility.yul\":12896:12918   */\n      lt\n        /* \"#utility.yul\":12875:12893   */\n      0xffffffffffffffff\n        /* \"#utility.yul\":12863:12873   */\n      dup3\n        /* \"#utility.yul\":12860:12894   */\n      gt\n        /* \"#utility.yul\":12857:12919   */\n      or\n        /* \"#utility.yul\":12854:12942   */\n      iszero\n      tag_467\n      jumpi\n        /* \"#utility.yul\":12922:12940   */\n      tag_468\n      tag_175\n      jump\t// in\n    tag_468:\n        /* \"#utility.yul\":12854:12942   */\n    tag_467:\n        /* \"#utility.yul\":12962:12972   */\n      dup1\n        /* \"#utility.yul\":12958:12960   */\n      0x40\n        /* \"#utility.yul\":12951:12973   */\n      mstore\n        /* \"#utility.yul\":12741:12979   */\n      pop\n        /* \"#utility.yul\":12698:12979   */\n      pop\n      pop\n      jump\t// out\n        /* \"#utility.yul\":12985:13114   */\n    tag_318:\n        /* \"#utility.yul\":13019:13025   */\n      0x00\n        /* \"#utility.yul\":13046:13066   */\n      tag_470\n      tag_272\n      jump\t// in\n    tag_470:\n        /* \"#utility.yul\":13036:13066   */\n      swap1\n      pop\n        /* \"#utility.yul\":13075:13108   */\n      tag_471\n        /* \"#utility.yul\":13103:13107   */\n      dup3\n        /* \"#utility.yul\":13095:13101   */\n      dup3\n        /* \"#utility.yul\":13075:13108   */\n      tag_317\n      jump\t// in\n    tag_471:\n        /* \"#utility.yul\":12985:13114   */\n      swap2\n      swap1\n      pop\n      jump\t// out\n        /* \"#utility.yul\":13120:13428   */\n    tag_319:\n        /* \"#utility.yul\":13182:13186   */\n      0x00\n        /* \"#utility.yul\":13272:13290   */\n      0xffffffffffffffff\n        /* \"#utility.yul\":13264:13270   */\n      dup3\n        /* \"#utility.yul\":13261:13291   */\n      gt\n        /* \"#utility.yul\":13258:13314   */\n      iszero\n      tag_473\n      jumpi\n        /* \"#utility.yul\":13294:13312   */\n      tag_474\n      tag_175\n      jump\t// in\n    tag_474:\n        /* \"#utility.yul\":13258:13314   */\n    tag_473:\n        /* \"#utility.yul\":13332:13361   */\n      tag_475\n        /* \"#utility.yul\":13354:13360   */\n      dup3\n        /* \"#utility.yul\":13332:13361   */\n      tag_291\n      jump\t// in\n    tag_475:\n        /* \"#utility.yul\":13324:13361   */\n      swap1\n      pop\n        /* \"#utility.yul\":13416:13420   */\n      0x20\n        /* \"#utility.yul\":13410:13414   */\n      dup2\n        /* \"#utility.yul\":13406:13421   */\n      add\n        /* \"#utility.yul\":13398:13421   */\n      swap1\n      pop\n        /* \"#utility.yul\":13120:13428   */\n      swap2\n      swap1\n      pop\n      jump\t// out\n        /* \"#utility.yul\":13434:13582   */\n    tag_320:\n        /* \"#utility.yul\":13532:13538   */\n      dup3\n        /* \"#utility.yul\":13527:13530   */\n      dup2\n        /* \"#utility.yul\":13522:13525   */\n      dup4\n        /* \"#utility.yul\":13509:13539   */\n      calldatacopy\n        /* \"#utility.yul\":13573:13574   */\n      0x00\n        /* \"#utility.yul\":13564:13570   */\n      dup4\n        /* \"#utility.yul\":13559:13562   */\n      dup4\n        /* \"#utility.yul\":13555:13571   */\n      add\n        /* \"#utility.yul\":13548:13575   */\n      mstore\n        /* \"#utility.yul\":13434:13582   */\n      pop\n      pop\n      pop\n      jump\t// out\n        /* \"#utility.yul\":13588:14013   */\n    tag_321:\n        /* \"#utility.yul\":13666:13671   */\n      0x00\n        /* \"#utility.yul\":13691:13757   */\n      tag_478\n        /* \"#utility.yul\":13707:13756   */\n      tag_479\n        /* \"#utility.yul\":13749:13755   */\n      dup5\n        /* \"#utility.yul\":13707:13756   */\n      tag_319\n      jump\t// in\n    tag_479:\n        /* \"#utility.yul\":13691:13757   */\n      tag_318\n      jump\t// in\n    tag_478:\n        /* \"#utility.yul\":13682:13757   */\n      swap1\n      pop\n        /* \"#utility.yul\":13780:13786   */\n      dup3\n        /* \"#utility.yul\":13773:13778   */\n      dup2\n        /* \"#utility.yul\":13766:13787   */\n      mstore\n        /* \"#utility.yul\":13818:13822   */\n      0x20\n        /* \"#utility.yul\":13811:13816   */\n      dup2\n        /* \"#utility.yul\":13807:13823   */\n      add\n        /* \"#utility.yul\":13856:13859   */\n      dup5\n        /* \"#utility.yul\":13847:13853   */\n      dup5\n        /* \"#utility.yul\":13842:13845   */\n      dup5\n        /* \"#utility.yul\":13838:13854   */\n      add\n        /* \"#utility.yul\":13835:13860   */\n      gt\n        /* \"#utility.yul\":13832:13944   */\n      iszero\n      tag_480\n      jumpi\n        /* \"#utility.yul\":13863:13942   */\n      tag_481\n      tag_316\n      jump\t// in\n    tag_481:\n        /* \"#utility.yul\":13832:13944   */\n    tag_480:\n        /* \"#utility.yul\":13953:14007   */\n      tag_482\n        /* \"#utility.yul\":14000:14006   */\n      dup5\n        /* \"#utility.yul\":13995:13998   */\n      dup3\n        /* \"#utility.yul\":13990:13993   */\n      dup6\n        /* \"#utility.yul\":13953:14007   */\n      tag_320\n      jump\t// in\n    tag_482:\n        /* \"#utility.yul\":13672:14013   */\n      pop\n        /* \"#utility.yul\":13588:14013   */\n      swap4\n      swap3\n      pop\n      pop\n      pop\n      jump\t// out\n        /* \"#utility.yul\":14033:14373   */\n    tag_322:\n        /* \"#utility.yul\":14089:14094   */\n      0x00\n        /* \"#utility.yul\":14138:14141   */\n      dup3\n        /* \"#utility.yul\":14131:14135   */\n      0x1f\n        /* \"#utility.yul\":14123:14129   */\n      dup4\n        /* \"#utility.yul\":14119:14136   */\n      add\n        /* \"#utility.yul\":14115:14142   */\n      slt\n        /* \"#utility.yul\":14105:14227   */\n      tag_484\n      jumpi\n        /* \"#utility.yul\":14146:14225   */\n      tag_485\n      tag_315\n      jump\t// in\n    tag_485:\n        /* \"#utility.yul\":14105:14227   */\n    tag_484:\n        /* \"#utility.yul\":14263:14269   */\n      dup2\n        /* \"#utility.yul\":14250:14270   */\n      calldataload\n        /* \"#utility.yul\":14288:14367   */\n      tag_486\n        /* \"#utility.yul\":14363:14366   */\n      dup5\n        /* \"#utility.yul\":14355:14361   */\n      dup3\n        /* \"#utility.yul\":14348:14352   */\n      0x20\n        /* \"#utility.yul\":14340:14346   */\n      dup7\n        /* \"#utility.yul\":14336:14353   */\n      add\n        /* \"#utility.yul\":14288:14367   */\n      tag_321\n      jump\t// in\n    tag_486:\n        /* \"#utility.yul\":14279:14367   */\n      swap2\n      pop\n        /* \"#utility.yul\":14095:14373   */\n      pop\n        /* \"#utility.yul\":14033:14373   */\n      swap3\n      swap2\n      pop\n      pop\n      jump\t// out\n        /* \"#utility.yul\":14379:15213   */\n    tag_76:\n        /* \"#utility.yul\":14467:14473   */\n      0x00\n        /* \"#utility.yul\":14475:14481   */\n      dup1\n        /* \"#utility.yul\":14524:14526   */\n      0x40\n        /* \"#utility.yul\":14512:14521   */\n      dup4\n        /* \"#utility.yul\":14503:14510   */\n      dup6\n        /* \"#utility.yul\":14499:14522   */\n      sub\n        /* \"#utility.yul\":14495:14527   */\n      slt\n        /* \"#utility.yul\":14492:14611   */\n      iszero\n      tag_488\n      jumpi\n        /* \"#utility.yul\":14530:14609   */\n      tag_489\n      tag_273\n      jump\t// in\n    tag_489:\n        /* \"#utility.yul\":14492:14611   */\n    tag_488:\n        /* \"#utility.yul\":14678:14679   */\n      0x00\n        /* \"#utility.yul\":14667:14676   */\n      dup4\n        /* \"#utility.yul\":14663:14680   */\n      add\n        /* \"#utility.yul\":14650:14681   */\n      calldataload\n        /* \"#utility.yul\":14708:14726   */\n      0xffffffffffffffff\n        /* \"#utility.yul\":14700:14706   */\n      dup2\n        /* \"#utility.yul\":14697:14727   */\n      gt\n        /* \"#utility.yul\":14694:14811   */\n      iszero\n      tag_490\n      jumpi\n        /* \"#utility.yul\":14730:14809   */\n      tag_491\n      tag_274\n      jump\t// in\n    tag_491:\n        /* \"#utility.yul\":14694:14811   */\n    tag_490:\n        /* \"#utility.yul\":14835:14898   */\n      tag_492\n        /* \"#utility.yul\":14890:14897   */\n      dup6\n        /* \"#utility.yul\":14881:14887   */\n      dup3\n        /* \"#utility.yul\":14870:14879   */\n      dup7\n        /* \"#utility.yul\":14866:14888   */\n      add\n        /* \"#utility.yul\":14835:14898   */\n      tag_322\n      jump\t// in\n    tag_492:\n        /* \"#utility.yul\":14825:14898   */\n      swap3\n      pop\n        /* \"#utility.yul\":14621:14908   */\n      pop\n        /* \"#utility.yul\":14975:14977   */\n      0x20\n        /* \"#utility.yul\":14964:14973   */\n      dup4\n        /* \"#utility.yul\":14960:14978   */\n      add\n        /* \"#utility.yul\":14947:14979   */\n      calldataload\n        /* \"#utility.yul\":15006:15024   */\n      0xffffffffffffffff\n        /* \"#utility.yul\":14998:15004   */\n      dup2\n        /* \"#utility.yul\":14995:15025   */\n      gt\n        /* \"#utility.yul\":14992:15109   */\n      iszero\n      tag_493\n      jumpi\n        /* \"#utility.yul\":15028:15107   */\n      tag_494\n      tag_274\n      jump\t// in\n    tag_494:\n        /* \"#utility.yul\":14992:15109   */\n    tag_493:\n        /* \"#utility.yul\":15133:15196   */\n      tag_495\n        /* \"#utility.yul\":15188:15195   */\n      dup6\n        /* \"#utility.yul\":15179:15185   */\n      dup3\n        /* \"#utility.yul\":15168:15177   */\n      dup7\n        /* \"#utility.yul\":15164:15186   */\n      add\n        /* \"#utility.yul\":15133:15196   */\n      tag_322\n      jump\t// in\n    tag_495:\n        /* \"#utility.yul\":15123:15196   */\n      swap2\n      pop\n        /* \"#utility.yul\":14918:15206   */\n      pop\n        /* \"#utility.yul\":14379:15213   */\n      swap3\n      pop\n      swap3\n      swap1\n      pop\n      jump\t// out\n        /* \"#utility.yul\":15275:16133   */\n    tag_323:\n        /* \"#utility.yul\":15420:15424   */\n      0x80\n        /* \"#utility.yul\":15415:15418   */\n      dup3\n        /* \"#utility.yul\":15411:15425   */\n      add\n        /* \"#utility.yul\":15505:15509   */\n      0x00\n        /* \"#utility.yul\":15498:15503   */\n      dup3\n        /* \"#utility.yul\":15494:15510   */\n      add\n        /* \"#utility.yul\":15488:15511   */\n      mload\n        /* \"#utility.yul\":15524:15587   */\n      tag_497\n        /* \"#utility.yul\":15581:15585   */\n      0x00\n        /* \"#utility.yul\":15576:15579   */\n      dup6\n        /* \"#utility.yul\":15572:15586   */\n      add\n        /* \"#utility.yul\":15558:15570   */\n      dup3\n        /* \"#utility.yul\":15524:15587   */\n      tag_297\n      jump\t// in\n    tag_497:\n        /* \"#utility.yul\":15435:15597   */\n      pop\n        /* \"#utility.yul\":15681:15685   */\n      0x20\n        /* \"#utility.yul\":15674:15679   */\n      dup3\n        /* \"#utility.yul\":15670:15686   */\n      add\n        /* \"#utility.yul\":15664:15687   */\n      mload\n        /* \"#utility.yul\":15700:15763   */\n      tag_498\n        /* \"#utility.yul\":15757:15761   */\n      0x20\n        /* \"#utility.yul\":15752:15755   */\n      dup6\n        /* \"#utility.yul\":15748:15762   */\n      add\n        /* \"#utility.yul\":15734:15746   */\n      dup3\n        /* \"#utility.yul\":15700:15763   */\n      tag_298\n      jump\t// in\n    tag_498:\n        /* \"#utility.yul\":15607:15773   */\n      pop\n        /* \"#utility.yul\":15863:15867   */\n      0x40\n        /* \"#utility.yul\":15856:15861   */\n      dup3\n        /* \"#utility.yul\":15852:15868   */\n      add\n        /* \"#utility.yul\":15846:15869   */\n      mload\n        /* \"#utility.yul\":15882:15945   */\n      tag_499\n        /* \"#utility.yul\":15939:15943   */\n      0x40\n        /* \"#utility.yul\":15934:15937   */\n      dup6\n        /* \"#utility.yul\":15930:15944   */\n      add\n        /* \"#utility.yul\":15916:15928   */\n      dup3\n        /* \"#utility.yul\":15882:15945   */\n      tag_298\n      jump\t// in\n    tag_499:\n        /* \"#utility.yul\":15783:15955   */\n      pop\n        /* \"#utility.yul\":16040:16044   */\n      0x60\n        /* \"#utility.yul\":16033:16038   */\n      dup3\n        /* \"#utility.yul\":16029:16045   */\n      add\n        /* \"#utility.yul\":16023:16046   */\n      mload\n        /* \"#utility.yul\":16059:16116   */\n      tag_500\n        /* \"#utility.yul\":16110:16114   */\n      0x60\n        /* \"#utility.yul\":16105:16108   */\n      dup6\n        /* \"#utility.yul\":16101:16115   */\n      add\n        /* \"#utility.yul\":16087:16099   */\n      dup3\n        /* \"#utility.yul\":16059:16116   */\n      tag_299\n      jump\t// in\n    tag_500:\n        /* \"#utility.yul\":15965:16126   */\n      pop\n        /* \"#utility.yul\":15389:16133   */\n      pop\n        /* \"#utility.yul\":15275:16133   */\n      pop\n      pop\n      jump\t// out\n        /* \"#utility.yul\":16139:16458   */\n    tag_82:\n        /* \"#utility.yul\":16280:16284   */\n      0x00\n        /* \"#utility.yul\":16318:16321   */\n      0x80\n        /* \"#utility.yul\":16307:16316   */\n      dup3\n        /* \"#utility.yul\":16303:16322   */\n      add\n        /* \"#utility.yul\":16295:16322   */\n      swap1\n      pop\n        /* \"#utility.yul\":16332:16451   */\n      tag_502\n        /* \"#utility.yul\":16448:16449   */\n      0x00\n        /* \"#utility.yul\":16437:16446   */\n      dup4\n        /* \"#utility.yul\":16433:16450   */\n      add\n        /* \"#utility.yul\":16424:16430   */\n      dup5\n        /* \"#utility.yul\":16332:16451   */\n      tag_323\n      jump\t// in\n    tag_502:\n        /* \"#utility.yul\":16139:16458   */\n      swap3\n      swap2\n      pop\n      pop\n      jump\t// out\n        /* \"#utility.yul\":16464:16644   */\n    tag_107:\n        /* \"#utility.yul\":16512:16589   */\n      0x4e487b7100000000000000000000000000000000000000000000000000000000\n        /* \"#utility.yul\":16509:16510   */\n      0x00\n        /* \"#utility.yul\":16502:16590   */\n      mstore\n        /* \"#utility.yul\":16609:16613   */\n      0x32\n        /* \"#utility.yul\":16606:16607   */\n      0x04\n        /* \"#utility.yul\":16599:16614   */\n      mstore\n        /* \"#utility.yul\":16633:16637   */\n      0x24\n        /* \"#utility.yul\":16630:16631   */\n      0x00\n        /* \"#utility.yul\":16623:16638   */\n      revert\n        /* \"#utility.yul\":16650:16830   */\n    tag_324:\n        /* \"#utility.yul\":16698:16775   */\n      0x4e487b7100000000000000000000000000000000000000000000000000000000\n        /* \"#utility.yul\":16695:16696   */\n      0x00\n        /* \"#utility.yul\":16688:16776   */\n      mstore\n        /* \"#utility.yul\":16795:16799   */\n      0x11\n        /* \"#utility.yul\":16792:16793   */\n      0x04\n        /* \"#utility.yul\":16785:16800   */\n      mstore\n        /* \"#utility.yul\":16819:16823   */\n      0x24\n        /* \"#utility.yul\":16816:16817   */\n      0x00\n        /* \"#utility.yul\":16809:16824   */\n      revert\n        /* \"#utility.yul\":16836:17030   */\n    tag_112:\n        /* \"#utility.yul\":16876:16880   */\n      0x00\n        /* \"#utility.yul\":16896:16916   */\n      tag_506\n        /* \"#utility.yul\":16914:16915   */\n      dup3\n        /* \"#utility.yul\":16896:16916   */\n      tag_279\n      jump\t// in\n    tag_506:\n        /* \"#utility.yul\":16891:16916   */\n      swap2\n      pop\n        /* \"#utility.yul\":16930:16950   */\n      tag_507\n        /* \"#utility.yul\":16948:16949   */\n      dup4\n        /* \"#utility.yul\":16930:16950   */\n      tag_279\n      jump\t// in\n    tag_507:\n        /* \"#utility.yul\":16925:16950   */\n      swap3\n      pop\n        /* \"#utility.yul\":16974:16975   */\n      dup3\n        /* \"#utility.yul\":16971:16972   */\n      dup3\n        /* \"#utility.yul\":16967:16976   */\n      sub\n        /* \"#utility.yul\":16959:16976   */\n      swap1\n      pop\n        /* \"#utility.yul\":16998:16999   */\n      dup2\n        /* \"#utility.yul\":16992:16996   */\n      dup2\n        /* \"#utility.yul\":16989:17000   */\n      gt\n        /* \"#utility.yul\":16986:17023   */\n      iszero\n      tag_508\n      jumpi\n        /* \"#utility.yul\":17003:17021   */\n      tag_509\n      tag_324\n      jump\t// in\n    tag_509:\n        /* \"#utility.yul\":16986:17023   */\n    tag_508:\n        /* \"#utility.yul\":16836:17030   */\n      swap3\n      swap2\n      pop\n      pop\n      jump\t// out\n        /* \"#utility.yul\":17036:17216   */\n    tag_121:\n        /* \"#utility.yul\":17084:17161   */\n      0x4e487b7100000000000000000000000000000000000000000000000000000000\n        /* \"#utility.yul\":17081:17082   */\n      0x00\n        /* \"#utility.yul\":17074:17162   */\n      mstore\n        /* \"#utility.yul\":17181:17185   */\n      0x31\n        /* \"#utility.yul\":17178:17179   */\n      0x04\n        /* \"#utility.yul\":17171:17186   */\n      mstore\n        /* \"#utility.yul\":17205:17209   */\n      0x24\n        /* \"#utility.yul\":17202:17203   */\n      0x00\n        /* \"#utility.yul\":17195:17210   */\n      revert\n        /* \"#utility.yul\":17222:17402   */\n    tag_325:\n        /* \"#utility.yul\":17270:17347   */\n      0x4e487b7100000000000000000000000000000000000000000000000000000000\n        /* \"#utility.yul\":17267:17268   */\n      0x00\n        /* \"#utility.yul\":17260:17348   */\n      mstore\n        /* \"#utility.yul\":17367:17371   */\n      0x22\n        /* \"#utility.yul\":17364:17365   */\n      0x04\n        /* \"#utility.yul\":17357:17372   */\n      mstore\n        /* \"#utility.yul\":17391:17395   */\n      0x24\n        /* \"#utility.yul\":17388:17389   */\n      0x00\n        /* \"#utility.yul\":17381:17396   */\n      revert\n        /* \"#utility.yul\":17408:17728   */\n    tag_149:\n        /* \"#utility.yul\":17452:17458   */\n      0x00\n        /* \"#utility.yul\":17489:17490   */\n      0x02\n        /* \"#utility.yul\":17483:17487   */\n      dup3\n        /* \"#utility.yul\":17479:17491   */\n      div\n        /* \"#utility.yul\":17469:17491   */\n      swap1\n      pop\n        /* \"#utility.yul\":17536:17537   */\n      0x01\n        /* \"#utility.yul\":17530:17534   */\n      dup3\n        /* \"#utility.yul\":17526:17538   */\n      and\n        /* \"#utility.yul\":17557:17575   */\n      dup1\n        /* \"#utility.yul\":17547:17628   */\n      tag_513\n      jumpi\n        /* \"#utility.yul\":17613:17617   */\n      0x7f\n        /* \"#utility.yul\":17605:17611   */\n      dup3\n        /* \"#utility.yul\":17601:17618   */\n      and\n        /* \"#utility.yul\":17591:17618   */\n      swap2\n      pop\n        /* \"#utility.yul\":17547:17628   */\n    tag_513:\n        /* \"#utility.yul\":17675:17677   */\n      0x20\n        /* \"#utility.yul\":17667:17673   */\n      dup3\n        /* \"#utility.yul\":17664:17678   */\n      lt\n        /* \"#utility.yul\":17644:17662   */\n      dup2\n        /* \"#utility.yul\":17641:17679   */\n      sub\n        /* \"#utility.yul\":17638:17722   */\n      tag_514\n      jumpi\n        /* \"#utility.yul\":17694:17712   */\n      tag_515\n      tag_325\n      jump\t// in\n    tag_515:\n        /* \"#utility.yul\":17638:17722   */\n    tag_514:\n        /* \"#utility.yul\":17459:17728   */\n      pop\n        /* \"#utility.yul\":17408:17728   */\n      swap2\n      swap1\n      pop\n      jump\t// out\n        /* \"#utility.yul\":17734:17925   */\n    tag_169:\n        /* \"#utility.yul\":17774:17777   */\n      0x00\n        /* \"#utility.yul\":17793:17813   */\n      tag_517\n        /* \"#utility.yul\":17811:17812   */\n      dup3\n        /* \"#utility.yul\":17793:17813   */\n      tag_279\n      jump\t// in\n    tag_517:\n        /* \"#utility.yul\":17788:17813   */\n      swap2\n      pop\n        /* \"#utility.yul\":17827:17847   */\n      tag_518\n        /* \"#utility.yul\":17845:17846   */\n      dup4\n        /* \"#utility.yul\":17827:17847   */\n      tag_279\n      jump\t// in\n    tag_518:\n        /* \"#utility.yul\":17822:17847   */\n      swap3\n      pop\n        /* \"#utility.yul\":17870:17871   */\n      dup3\n        /* \"#utility.yul\":17867:17868   */\n      dup3\n        /* \"#utility.yul\":17863:17872   */\n      add\n        /* \"#utility.yul\":17856:17872   */\n      swap1\n      pop\n        /* \"#utility.yul\":17891:17894   */\n      dup1\n        /* \"#utility.yul\":17888:17889   */\n      dup3\n        /* \"#utility.yul\":17885:17895   */\n      gt\n        /* \"#utility.yul\":17882:17918   */\n      iszero\n      tag_519\n      jumpi\n        /* \"#utility.yul\":17898:17916   */\n      tag_520\n      tag_324\n      jump\t// in\n    tag_520:\n        /* \"#utility.yul\":17882:17918   */\n    tag_519:\n        /* \"#utility.yul\":17734:17925   */\n      swap3\n      swap2\n      pop\n      pop\n      jump\t// out\n        /* \"#utility.yul\":17931:18072   */\n    tag_326:\n        /* \"#utility.yul\":17980:17984   */\n      0x00\n        /* \"#utility.yul\":18003:18006   */\n      dup2\n        /* \"#utility.yul\":17995:18006   */\n      swap1\n      pop\n        /* \"#utility.yul\":18026:18029   */\n      dup2\n        /* \"#utility.yul\":18023:18024   */\n      0x00\n        /* \"#utility.yul\":18016:18030   */\n      mstore\n        /* \"#utility.yul\":18060:18064   */\n      0x20\n        /* \"#utility.yul\":18057:18058   */\n      0x00\n        /* \"#utility.yul\":18047:18065   */\n      keccak256\n        /* \"#utility.yul\":18039:18065   */\n      swap1\n      pop\n        /* \"#utility.yul\":17931:18072   */\n      swap2\n      swap1\n      pop\n      jump\t// out\n        /* \"#utility.yul\":18078:18171   */\n    tag_327:\n        /* \"#utility.yul\":18115:18121   */\n      0x00\n        /* \"#utility.yul\":18162:18164   */\n      0x20\n        /* \"#utility.yul\":18157:18159   */\n      0x1f\n        /* \"#utility.yul\":18150:18155   */\n      dup4\n        /* \"#utility.yul\":18146:18160   */\n      add\n        /* \"#utility.yul\":18142:18165   */\n      div\n        /* \"#utility.yul\":18132:18165   */\n      swap1\n      pop\n        /* \"#utility.yul\":18078:18171   */\n      swap2\n      swap1\n      pop\n      jump\t// out\n        /* \"#utility.yul\":18177:18284   */\n    tag_328:\n        /* \"#utility.yul\":18221:18229   */\n      0x00\n        /* \"#utility.yul\":18271:18276   */\n      dup3\n        /* \"#utility.yul\":18265:18269   */\n      dup3\n        /* \"#utility.yul\":18261:18277   */\n      shl\n        /* \"#utility.yul\":18240:18277   */\n      swap1\n      pop\n        /* \"#utility.yul\":18177:18284   */\n      swap3\n      swap2\n      pop\n      pop\n      jump\t// out\n        /* \"#utility.yul\":18290:18683   */\n    tag_329:\n        /* \"#utility.yul\":18359:18365   */\n      0x00\n        /* \"#utility.yul\":18409:18410   */\n      0x08\n        /* \"#utility.yul\":18397:18407   */\n      dup4\n        /* \"#utility.yul\":18393:18411   */\n      mul\n        /* \"#utility.yul\":18432:18529   */\n      tag_525\n        /* \"#utility.yul\":18462:18528   */\n      0xffffffffffffffffffffffffffffffffffffffffffffffffffffffffffffffff\n        /* \"#utility.yul\":18451:18460   */\n      dup3\n        /* \"#utility.yul\":18432:18529   */\n      tag_328\n      jump\t// in\n    tag_525:\n        /* \"#utility.yul\":18550:18589   */\n      tag_526\n        /* \"#utility.yul\":18580:18588   */\n      dup7\n        /* \"#utility.yul\":18569:18578   */\n      dup4\n        /* \"#utility.yul\":18550:18589   */\n      tag_328\n      jump\t// in\n    tag_526:\n        /* \"#utility.yul\":18538:18589   */\n      swap6\n      pop\n        /* \"#utility.yul\":18622:18626   */\n      dup1\n        /* \"#utility.yul\":18618:18627   */\n      not\n        /* \"#utility.yul\":18611:18616   */\n      dup5\n        /* \"#utility.yul\":18607:18628   */\n      and\n        /* \"#utility.yul\":18598:18628   */\n      swap4\n      pop\n        /* \"#utility.yul\":18671:18675   */\n      dup1\n        /* \"#utility.yul\":18661:18669   */\n      dup7\n        /* \"#utility.yul\":18657:18676   */\n      and\n        /* \"#utility.yul\":18650:18655   */\n      dup5\n        /* \"#utility.yul\":18647:18677   */\n      or\n        /* \"#utility.yul\":18637:18677   */\n      swap3\n      pop\n        /* \"#utility.yul\":18366:18683   */\n      pop\n      pop\n        /* \"#utility.yul\":18290:18683   */\n      swap4\n      swap3\n      pop\n      pop\n      pop\n      jump\t// out\n        /* \"#utility.yul\":18689:18831   */\n    tag_330:\n        /* \"#utility.yul\":18739:18748   */\n      0x00\n        /* \"#utility.yul\":18772:18825   */\n      tag_528\n        /* \"#utility.yul\":18790:18824   */\n      tag_529\n        /* \"#utility.yul\":18799:18823   */\n      tag_530\n        /* \"#utility.yul\":18817:18822   */\n      dup5\n        /* \"#utility.yul\":18799:18823   */\n      tag_279\n      jump\t// in\n    tag_530:\n        /* \"#utility.yul\":18790:18824   */\n      tag_310\n      jump\t// in\n    tag_529:\n        /* \"#utility.yul\":18772:18825   */\n      tag_279\n      jump\t// in\n    tag_528:\n        /* \"#utility.yul\":18759:18825   */\n      swap1\n      pop\n        /* \"#utility.yul\":18689:18831   */\n      swap2\n      swap1\n      pop\n      jump\t// out\n        /* \"#utility.yul\":18837:18912   */\n    tag_331:\n        /* \"#utility.yul\":18880:18883   */\n      0x00\n        /* \"#utility.yul\":18901:18906   */\n      dup2\n        /* \"#utility.yul\":18894:18906   */\n      swap1\n      pop\n        /* \"#utility.yul\":18837:18912   */\n      swap2\n      swap1\n      pop\n      jump\t// out\n        /* \"#utility.yul\":18918:19187   */\n    tag_332:\n        /* \"#utility.yul\":19028:19067   */\n      tag_533\n        /* \"#utility.yul\":19059:19066   */\n      dup4\n        /* \"#utility.yul\":19028:19067   */\n      tag_330\n      jump\t// in\n    tag_533:\n        /* \"#utility.yul\":19089:19180   */\n      tag_534\n        /* \"#utility.yul\":19138:19179   */\n      tag_535\n        /* \"#utility.yul\":19162:19178   */\n      dup3\n        /* \"#utility.yul\":19138:19179   */\n      tag_331\n      jump\t// in\n    tag_535:\n        /* \"#utility.yul\":19130:19136   */\n      dup5\n        /* \"#utility.yul\":19123:19127   */\n      dup5\n        /* \"#utility.yul\":19117:19128   */\n      sload\n        /* \"#utility.yul\":19089:19180   */\n      tag_329\n      jump\t// in\n    tag_534:\n        /* \"#utility.yul\":19083:19087   */\n      dup3\n        /* \"#utility.yul\":19076:19181   */\n      sstore\n        /* \"#utility.yul\":18994:19187   */\n      pop\n        /* \"#utility.yul\":18918:19187   */\n      pop\n      pop\n      pop\n      jump\t// out\n        /* \"#utility.yul\":19193:19266   */\n    tag_333:\n        /* \"#utility.yul\":19238:19241   */\n      0x00\n        /* \"#utility.yul\":19193:19266   */\n      swap1\n      jump\t// out\n        /* \"#utility.yul\":19272:19461   */\n    tag_334:\n        /* \"#utility.yul\":19349:19381   */\n      tag_538\n      tag_333\n      jump\t// in\n    tag_538:\n        /* \"#utility.yul\":19390:19455   */\n      tag_539\n        /* \"#utility.yul\":19448:19454   */\n      dup2\n        /* \"#utility.yul\":19440:19446   */\n      dup5\n        /* \"#utility.yul\":19434:19438   */\n      dup5\n        /* \"#utility.yul\":19390:19455   */\n      tag_332\n      jump\t// in\n    tag_539:\n        /* \"#utility.yul\":19325:19461   */\n      pop\n        /* \"#utility.yul\":19272:19461   */\n      pop\n      pop\n      jump\t// out\n        /* \"#utility.yul\":19467:19653   */\n    tag_335:\n        /* \"#utility.yul\":19527:19647   */\n    tag_541:\n        /* \"#utility.yul\":19544:19547   */\n      dup2\n        /* \"#utility.yul\":19537:19542   */\n      dup2\n        /* \"#utility.yul\":19534:19548   */\n      lt\n        /* \"#utility.yul\":19527:19647   */\n      iszero\n      tag_543\n      jumpi\n        /* \"#utility.yul\":19598:19637   */\n      tag_544\n        /* \"#utility.yul\":19635:19636   */\n      0x00\n        /* \"#utility.yul\":19628:19633   */\n      dup3\n        /* \"#utility.yul\":19598:19637   */\n      tag_334\n      jump\t// in\n    tag_544:\n        /* \"#utility.yul\":19571:19572   */\n      0x01\n        /* \"#utility.yul\":19564:19569   */\n      dup2\n        /* \"#utility.yul\":19560:19573   */\n      add\n        /* \"#utility.yul\":19551:19573   */\n      swap1\n      pop\n        /* \"#utility.yul\":19527:19647   */\n      jump(tag_541)\n    tag_543:\n        /* \"#utility.yul\":19467:19653   */\n      pop\n      pop\n      jump\t// out\n        /* \"#utility.yul\":19659:20202   */\n    tag_336:\n        /* \"#utility.yul\":19760:19762   */\n      0x1f\n        /* \"#utility.yul\":19755:19758   */\n      dup3\n        /* \"#utility.yul\":19752:19763   */\n      gt\n        /* \"#utility.yul\":19749:20195   */\n      iszero\n      tag_546\n      jumpi\n        /* \"#utility.yul\":19794:19832   */\n      tag_547\n        /* \"#utility.yul\":19826:19831   */\n      dup2\n        /* \"#utility.yul\":19794:19832   */\n      tag_326\n      jump\t// in\n    tag_547:\n        /* \"#utility.yul\":19878:19907   */\n      tag_548\n        /* \"#utility.yul\":19896:19906   */\n      dup5\n        /* \"#utility.yul\":19878:19907   */\n      tag_327\n      jump\t// in\n    tag_548:\n        /* \"#utility.yul\":19868:19876   */\n      dup2\n        /* \"#utility.yul\":19864:19908   */\n      add\n        /* \"#utility.yul\":20061:20063   */\n      0x20\n        /* \"#utility.yul\":20049:20059   */\n      dup6\n        /* \"#utility.yul\":20046:20064   */\n      lt\n        /* \"#utility.yul\":20043:20092   */\n      iszero\n      tag_549\n      jumpi\n        /* \"#utility.yul\":20082:20090   */\n      dup2\n        /* \"#utility.yul\":20067:20090   */\n      swap1\n      pop\n        /* \"#utility.yul\":20043:20092   */\n    tag_549:\n        /* \"#utility.yul\":20105:20185   */\n      tag_550\n        /* \"#utility.yul\":20161:20183   */\n      tag_551\n        /* \"#utility.yul\":20179:20182   */\n      dup6\n        /* \"#utility.yul\":20161:20183   */\n      tag_327\n      jump\t// in\n    tag_551:\n        /* \"#utility.yul\":20151:20159   */\n      dup4\n        /* \"#utility.yul\":20147:20184   */\n      add\n        /* \"#utility.yul\":20134:20145   */\n      dup3\n        /* \"#utility.yul\":20105:20185   */\n      tag_335\n      jump\t// in\n    tag_550:\n        /* \"#utility.yul\":19764:20195   */\n      pop\n      pop\n        /* \"#utility.yul\":19749:20195   */\n    tag_546:\n        /* \"#utility.yul\":19659:20202   */\n      pop\n      pop\n      pop\n      jump\t// out\n        /* \"#utility.yul\":20208:20325   */\n    tag_337:\n        /* \"#utility.yul\":20262:20270   */\n      0x00\n        /* \"#utility.yul\":20312:20317   */\n      dup3\n        /* \"#utility.yul\":20306:20310   */\n      dup3\n        /* \"#utility.yul\":20302:20318   */\n      shr\n        /* \"#utility.yul\":20281:20318   */\n      swap1\n      pop\n        /* \"#utility.yul\":20208:20325   */\n      swap3\n      swap2\n      pop\n      pop\n      jump\t// out\n        /* \"#utility.yul\":20331:20500   */\n    tag_338:\n        /* \"#utility.yul\":20375:20381   */\n      0x00\n        /* \"#utility.yul\":20408:20459   */\n      tag_554\n        /* \"#utility.yul\":20456:20457   */\n      0x00\n        /* \"#utility.yul\":20452:20458   */\n      not\n        /* \"#utility.yul\":20444:20449   */\n      dup5\n        /* \"#utility.yul\":20441:20442   */\n      0x08\n        /* \"#utility.yul\":20437:20450   */\n      mul\n        /* \"#utility.yul\":20408:20459   */\n      tag_337\n      jump\t// in\n    tag_554:\n        /* \"#utility.yul\":20404:20460   */\n      not\n        /* \"#utility.yul\":20489:20493   */\n      dup1\n        /* \"#utility.yul\":20483:20487   */\n      dup4\n        /* \"#utility.yul\":20479:20494   */\n      and\n        /* \"#utility.yul\":20469:20494   */\n      swap2\n      pop\n        /* \"#utility.yul\":20382:20500   */\n      pop\n        /* \"#utility.yul\":20331:20500   */\n      swap3\n      swap2\n      pop\n      pop\n      jump\t// out\n        /* \"#utility.yul\":20505:20800   */\n    tag_339:\n        /* \"#utility.yul\":20581:20585   */\n      0x00\n        /* \"#utility.yul\":20727:20756   */\n      tag_556\n        /* \"#utility.yul\":20752:20755   */\n      dup4\n        /* \"#utility.yul\":20746:20750   */\n      dup4\n        /* \"#utility.yul\":20727:20756   */\n      tag_338\n      jump\t// in\n    tag_556:\n        /* \"#utility.yul\":20719:20756   */\n      swap2\n      pop\n        /* \"#utility.yul\":20789:20792   */\n      dup3\n        /* \"#utility.yul\":20786:20787   */\n      0x02\n        /* \"#utility.yul\":20782:20793   */\n      mul\n        /* \"#utility.yul\":20776:20780   */\n      dup3\n        /* \"#utility.yul\":20773:20794   */\n      or\n        /* \"#utility.yul\":20765:20794   */\n      swap1\n      pop\n        /* \"#utility.yul\":20505:20800   */\n      swap3\n      swap2\n      pop\n      pop\n      jump\t// out\n        /* \"#utility.yul\":20805:22200   */\n    tag_257:\n        /* \"#utility.yul\":20922:20959   */\n      tag_558\n        /* \"#utility.yul\":20955:20958   */\n      dup3\n        /* \"#utility.yul\":20922:20959   */\n      tag_288\n      jump\t// in\n    tag_558:\n        /* \"#utility.yul\":21024:21042   */\n      0xffffffffffffffff\n        /* \"#utility.yul\":21016:21022   */\n      dup2\n        /* \"#utility.yul\":21013:21043   */\n      gt\n        /* \"#utility.yul\":21010:21066   */\n      iszero\n      tag_559\n      jumpi\n        /* \"#utility.yul\":21046:21064   */\n      tag_560\n      tag_175\n      jump\t// in\n    tag_560:\n        /* \"#utility.yul\":21010:21066   */\n    tag_559:\n        /* \"#utility.yul\":21090:21128   */\n      tag_561\n        /* \"#utility.yul\":21122:21126   */\n      dup3\n        /* \"#utility.yul\":21116:21127   */\n      sload\n        /* \"#utility.yul\":21090:21128   */\n      tag_149\n      jump\t// in\n    tag_561:\n        /* \"#utility.yul\":21175:21242   */\n      tag_562\n        /* \"#utility.yul\":21235:21241   */\n      dup3\n        /* \"#utility.yul\":21227:21233   */\n      dup3\n        /* \"#utility.yul\":21221:21225   */\n      dup6\n        /* \"#utility.yul\":21175:21242   */\n      tag_336\n      jump\t// in\n    tag_562:\n        /* \"#utility.yul\":21269:21270   */\n      0x00\n        /* \"#utility.yul\":21293:21297   */\n      0x20\n        /* \"#utility.yul\":21280:21297   */\n      swap1\n      pop\n        /* \"#utility.yul\":21325:21327   */\n      0x1f\n        /* \"#utility.yul\":21317:21323   */\n      dup4\n        /* \"#utility.yul\":21314:21328   */\n      gt\n        /* \"#utility.yul\":21342:21343   */\n      0x01\n        /* \"#utility.yul\":21337:21955   */\n      dup2\n      eq\n      tag_564\n      jumpi\n        /* \"#utility.yul\":21999:22000   */\n      0x00\n        /* \"#utility.yul\":22016:22022   */\n      dup5\n        /* \"#utility.yul\":22013:22090   */\n      iszero\n      tag_565\n      jumpi\n        /* \"#utility.yul\":22065:22074   */\n      dup3\n        /* \"#utility.yul\":22060:22063   */\n      dup8\n        /* \"#utility.yul\":22056:22075   */\n      add\n        /* \"#utility.yul\":22050:22076   */\n      mload\n        /* \"#utility.yul\":22041:22076   */\n      swap1\n      pop\n        /* \"#utility.yul\":22013:22090   */\n    tag_565:\n        /* \"#utility.yul\":22116:22183   */\n      tag_566\n        /* \"#utility.yul\":22176:22182   */\n      dup6\n        /* \"#utility.yul\":22169:22174   */\n      dup3\n        /* \"#utility.yul\":22116:22183   */\n      tag_339\n      jump\t// in\n    tag_566:\n        /* \"#utility.yul\":22110:22114   */\n      dup7\n        /* \"#utility.yul\":22103:22184   */\n      sstore\n        /* \"#utility.yul\":21972:22194   */\n      pop\n        /* \"#utility.yul\":21307:22194   */\n      jump(tag_563)\n        /* \"#utility.yul\":21337:21955   */\n    tag_564:\n        /* \"#utility.yul\":21389:21393   */\n      0x1f\n        /* \"#utility.yul\":21385:21394   */\n      not\n        /* \"#utility.yul\":21377:21383   */\n      dup5\n        /* \"#utility.yul\":21373:21395   */\n      and\n        /* \"#utility.yul\":21423:21460   */\n      tag_567\n        /* \"#utility.yul\":21455:21459   */\n      dup7\n        /* \"#utility.yul\":21423:21460   */\n      tag_326\n      jump\t// in\n    tag_567:\n        /* \"#utility.yul\":21482:21483   */\n      0x00\n        /* \"#utility.yul\":21496:21704   */\n    tag_568:\n        /* \"#utility.yul\":21510:21517   */\n      dup3\n        /* \"#utility.yul\":21507:21508   */\n      dup2\n        /* \"#utility.yul\":21504:21518   */\n      lt\n        /* \"#utility.yul\":21496:21704   */\n      iszero\n      tag_570\n      jumpi\n        /* \"#utility.yul\":21589:21598   */\n      dup5\n        /* \"#utility.yul\":21584:21587   */\n      dup10\n        /* \"#utility.yul\":21580:21599   */\n      add\n        /* \"#utility.yul\":21574:21600   */\n      mload\n        /* \"#utility.yul\":21566:21572   */\n      dup3\n        /* \"#utility.yul\":21559:21601   */\n      sstore\n        /* \"#utility.yul\":21640:21641   */\n      0x01\n        /* \"#utility.yul\":21632:21638   */\n      dup3\n        /* \"#utility.yul\":21628:21642   */\n      add\n        /* \"#utility.yul\":21618:21642   */\n      swap2\n      pop\n        /* \"#utility.yul\":21687:21689   */\n      0x20\n        /* \"#utility.yul\":21676:21685   */\n      dup6\n        /* \"#utility.yul\":21672:21690   */\n      add\n        /* \"#utility.yul\":21659:21690   */\n      swap5\n      pop\n        /* \"#utility.yul\":21533:21537   */\n      0x20\n        /* \"#utility.yul\":21530:21531   */\n      dup2\n        /* \"#utility.yul\":21526:21538   */\n      add\n        /* \"#utility.yul\":21521:21538   */\n      swap1\n      pop\n        /* \"#utility.yul\":21496:21704   */\n      jump(tag_568)\n    tag_570:\n        /* \"#utility.yul\":21732:21738   */\n      dup7\n        /* \"#utility.yul\":21723:21730   */\n      dup4\n        /* \"#utility.yul\":21720:21739   */\n      lt\n        /* \"#utility.yul\":21717:21896   */\n      iszero\n      tag_571\n      jumpi\n        /* \"#utility.yul\":21790:21799   */\n      dup5\n        /* \"#utility.yul\":21785:21788   */\n      dup10\n        /* \"#utility.yul\":21781:21800   */\n      add\n        /* \"#utility.yul\":21775:21801   */\n      mload\n        /* \"#utility.yul\":21833:21881   */\n      tag_572\n        /* \"#utility.yul\":21875:21879   */\n      0x1f\n        /* \"#utility.yul\":21867:21873   */\n      dup10\n        /* \"#utility.yul\":21863:21880   */\n      and\n        /* \"#utility.yul\":21852:21861   */\n      dup3\n        /* \"#utility.yul\":21833:21881   */\n      tag_338\n      jump\t// in\n    tag_572:\n        /* \"#utility.yul\":21825:21831   */\n      dup4\n        /* \"#utility.yul\":21818:21882   */\n      sstore\n        /* \"#utility.yul\":21740:21896   */\n      pop\n        /* \"#utility.yul\":21717:21896   */\n    tag_571:\n        /* \"#utility.yul\":21942:21943   */\n      0x01\n        /* \"#utility.yul\":21938:21939   */\n      0x02\n        /* \"#utility.yul\":21930:21936   */\n      dup9\n        /* \"#utility.yul\":21926:21940   */\n      mul\n        /* \"#utility.yul\":21922:21944   */\n      add\n        /* \"#utility.yul\":21916:21920   */\n      dup9\n        /* \"#utility.yul\":21909:21945   */\n      sstore\n        /* \"#utility.yul\":21344:21955   */\n      pop\n      pop\n      pop\n        /* \"#utility.yul\":21307:22194   */\n    tag_563:\n      pop\n        /* \"#utility.yul\":20897:22200   */\n      pop\n      pop\n      pop\n        /* \"#utility.yul\":20805:22200   */\n      pop\n      pop\n      jump\t// out\n\n    auxdata: 0xa2646970667358221220fb5c8d5fd1c643e9148ea624f1f1ef09616f2928e6cf189ccc6cee88905d1ecd64736f6c634300081a0033\n}\n",
				"bytecode": {
					"linkReferences": {},
					"object": "60806040525f6001553480156012575f80fd5b50613369806100205f395ff3fe608060405234801561000f575f80fd5b5060043610610109575f3560e01c80638e9d660f116100a0578063a9524aa41161006f578063a9524aa4146102c7578063c58343ef146102e3578063c84a940714610313578063f9d1d0c014610343578063fb7d5bf61461037357610109565b80638e9d660f1461022d57806393a87d3c14610249578063a6b2c43714610279578063a8c5dc33146102a957610109565b806375894e8c116100dc57806375894e8c1461019357806385e1b15b146101c357806386b602f8146101df5780638813ce121461020f57610109565b806305ca8ee31461010d578063075b1a0914610129578063399b4ddc14610147578063665bb09514610163575b5f80fd5b6101276004803603810190610122919061287c565b61038f565b005b6101316103ba565b60405161013e91906128b6565b60405180910390f35b610161600480360381019061015c9190612902565b6103d3565b005b61017d60048036038101906101789190612987565b610ade565b60405161018a91906129df565b60405180910390f35b6101ad60048036038101906101a891906129f8565b610c12565b6040516101ba9190612ad4565b60405180910390f35b6101dd60048036038101906101d891906129f8565b610e31565b005b6101f960048036038101906101f491906129f8565b611296565b60405161020691906129df565b60405180910390f35b6102176112e8565b6040516102249190612c1c565b60405180910390f35b610247600480360381019061024291906129f8565b6117c7565b005b610263600480360381019061025e91906129f8565b611809565b6040516102709190612ce4565b60405180910390f35b610293600480360381019061028e9190612902565b611923565b6040516102a091906128b6565b60405180910390f35b6102b16121d9565b6040516102be9190612d5f565b60405180910390f35b6102e160048036038101906102dc9190612ea4565b6121fc565b005b6102fd60048036038101906102f89190612902565b6123a6565b60405161030a9190612f6d565b60405180910390f35b61032d600480360381019061032891906129f8565b6124ac565b60405161033a9190612ce4565b60405180910390f35b61035d600480360381019061035891906129f8565b6125c6565b60405161036a91906129df565b60405180910390f35b61038d60048036038101906103889190612ea4565b612618565b005b805f60146101000a81548167ffffffffffffffff021916908367ffffffffffffffff16021790555050565b5f60149054906101000a900467ffffffffffffffff1681565b6001548110158061042b575060025f3373ffffffffffffffffffffffffffffffffffffffff1673ffffffffffffffffffffffffffffffffffffffff1681526020019081526020015f205f9054906101000a900460ff16155b8061047c575060035f3373ffffffffffffffffffffffffffffffffffffffff1673ffffffffffffffffffffffffffffffffffffffff1681526020019081526020015f205f9054906101000a900460ff165b15610485575f80fd5b5f60045f8381526020019081526020015f206040518060800160405290815f8201548152602001600182015f9054906101000a900473ffffffffffffffffffffffffffffffffffffffff1673ffffffffffffffffffffffffffffffffffffffff1673ffffffffffffffffffffffffffffffffffffffff168152602001600282015f9054906101000a900473ffffffffffffffffffffffffffffffffffffffff1673ffffffffffffffffffffffffffffffffffffffff1673ffffffffffffffffffffffffffffffffffffffff1681526020016002820160149054906101000a900460ff161515151581525050905060035f826020015173ffffffffffffffffffffffffffffffffffffffff1673ffffffffffffffffffffffffffffffffffffffff1681526020019081526020015f205f9054906101000a900460ff161580610617575060025f826040015173ffffffffffffffffffffffffffffffffffffffff1673ffffffffffffffffffffffffffffffffffffffff1681526020019081526020015f205f9054906101000a900460ff16155b80610623575080606001515b1561062c575f80fd5b5f60045f8481526020019081526020015f2060020160146101000a81548160ff0219169083151502179055505f8060075f3373ffffffffffffffffffffffffffffffffffffffff1673ffffffffffffffffffffffffffffffffffffffff1681526020019081526020015f208054905090505f805b8281101561071f5760075f3373ffffffffffffffffffffffffffffffffffffffff1673ffffffffffffffffffffffffffffffffffffffff1681526020019081526020015f2081815481106106f7576106f6612f86565b5b905f5260205f2001548603610712578093506001915061071f565b80806001019150506106a0565b5080610729575f80fd5b60075f3373ffffffffffffffffffffffffffffffffffffffff1673ffffffffffffffffffffffffffffffffffffffff1681526020019081526020015f206001836107739190612fe0565b8154811061078457610783612f86565b5b905f5260205f20015460075f3373ffffffffffffffffffffffffffffffffffffffff1673ffffffffffffffffffffffffffffffffffffffff1681526020019081526020015f2084815481106107dc576107db612f86565b5b905f5260205f20018190555060075f3373ffffffffffffffffffffffffffffffffffffffff1673ffffffffffffffffffffffffffffffffffffffff1681526020019081526020015f2080548061083557610834613013565b5b600190038181905f5260205f20015f905590555f8060065f876020015173ffffffffffffffffffffffffffffffffffffffff1673ffffffffffffffffffffffffffffffffffffffff1681526020019081526020015f208054905090505f5b818110156109125760065f886020015173ffffffffffffffffffffffffffffffffffffffff1673ffffffffffffffffffffffffffffffffffffffff1681526020019081526020015f2081815481106108ee576108ed612f86565b5b905f5260205f200154880361090557809250610912565b8080600101915050610893565b5060065f876020015173ffffffffffffffffffffffffffffffffffffffff1673ffffffffffffffffffffffffffffffffffffffff1681526020019081526020015f206001826109619190612fe0565b8154811061097257610971612f86565b5b905f5260205f20015460065f886020015173ffffffffffffffffffffffffffffffffffffffff1673ffffffffffffffffffffffffffffffffffffffff1681526020019081526020015f2083815481106109ce576109cd612f86565b5b905f5260205f20018190555060065f876020015173ffffffffffffffffffffffffffffffffffffffff1673ffffffffffffffffffffffffffffffffffffffff1681526020019081526020015f20805480610a2b57610a2a613013565b5b600190038181905f5260205f20015f905590555f60095f886020015173ffffffffffffffffffffffffffffffffffffffff1673ffffffffffffffffffffffffffffffffffffffff1681526020019081526020015f205f886040015173ffffffffffffffffffffffffffffffffffffffff1673ffffffffffffffffffffffffffffffffffffffff1681526020019081526020015f205f6101000a81548160ff02191690831515021790555050505050505050565b5f60035f8473ffffffffffffffffffffffffffffffffffffffff1673ffffffffffffffffffffffffffffffffffffffff1681526020019081526020015f205f9054906101000a900460ff161580610b7c575060025f8373ffffffffffffffffffffffffffffffffffffffff1673ffffffffffffffffffffffffffffffffffffffff1681526020019081526020015f205f9054906101000a900460ff16155b15610b85575f80fd5b60085f8473ffffffffffffffffffffffffffffffffffffffff1673ffffffffffffffffffffffffffffffffffffffff1681526020019081526020015f205f8373ffffffffffffffffffffffffffffffffffffffff1673ffffffffffffffffffffffffffffffffffffffff1681526020019081526020015f205f9054906101000a900460ff16905092915050565b610c1a6127c2565b60025f8373ffffffffffffffffffffffffffffffffffffffff1673ffffffffffffffffffffffffffffffffffffffff1681526020019081526020015f205f9054906101000a900460ff1680610cb5575060035f8373ffffffffffffffffffffffffffffffffffffffff1673ffffffffffffffffffffffffffffffffffffffff1681526020019081526020015f205f9054906101000a900460ff165b15610e285760055f8373ffffffffffffffffffffffffffffffffffffffff1673ffffffffffffffffffffffffffffffffffffffff1681526020019081526020015f206040518060400160405290815f82018054610d119061306d565b80601f0160208091040260200160405190810160405280929190818152602001828054610d3d9061306d565b8015610d885780601f10610d5f57610100808354040283529160200191610d88565b820191905f5260205f20905b815481529060010190602001808311610d6b57829003601f168201915b50505050508152602001600182018054610da19061306d565b80601f0160208091040260200160405190810160405280929190818152602001828054610dcd9061306d565b8015610e185780601f10610def57610100808354040283529160200191610e18565b820191905f5260205f20905b815481529060010190602001808311610dfb57829003601f168201915b5050505050815250509050610e2c565b5f80fd5b919050565b60035f3373ffffffffffffffffffffffffffffffffffffffff1673ffffffffffffffffffffffffffffffffffffffff1681526020019081526020015f205f9054906101000a900460ff161580610ecd575060025f3373ffffffffffffffffffffffffffffffffffffffff1673ffffffffffffffffffffffffffffffffffffffff1681526020019081526020015f205f9054906101000a900460ff165b80610f59575060095f3373ffffffffffffffffffffffffffffffffffffffff1673ffffffffffffffffffffffffffffffffffffffff1681526020019081526020015f205f8273ffffffffffffffffffffffffffffffffffffffff1673ffffffffffffffffffffffffffffffffffffffff1681526020019081526020015f205f9054906101000a900460ff165b80610fab575060025f8273ffffffffffffffffffffffffffffffffffffffff1673ffffffffffffffffffffffffffffffffffffffff1681526020019081526020015f205f9054906101000a900460ff16155b80610ffc575060035f8273ffffffffffffffffffffffffffffffffffffffff1673ffffffffffffffffffffffffffffffffffffffff1681526020019081526020015f205f9054906101000a900460ff165b15611005575f80fd5b5f604051806080016040528060015481526020013373ffffffffffffffffffffffffffffffffffffffff1681526020018373ffffffffffffffffffffffffffffffffffffffff1681526020015f151581525090508060045f60015481526020019081526020015f205f820151815f01556020820151816001015f6101000a81548173ffffffffffffffffffffffffffffffffffffffff021916908373ffffffffffffffffffffffffffffffffffffffff1602179055506040820151816002015f6101000a81548173ffffffffffffffffffffffffffffffffffffffff021916908373ffffffffffffffffffffffffffffffffffffffff16021790555060608201518160020160146101000a81548160ff02191690831515021790555090505060065f3373ffffffffffffffffffffffffffffffffffffffff1673ffffffffffffffffffffffffffffffffffffffff1681526020019081526020015f20600154908060018154018082558091505060019003905f5260205f20015f909190919091505560075f8373ffffffffffffffffffffffffffffffffffffffff1673ffffffffffffffffffffffffffffffffffffffff1681526020019081526020015f20600154908060018154018082558091505060019003905f5260205f20015f9091909190915055600160095f3373ffffffffffffffffffffffffffffffffffffffff1673ffffffffffffffffffffffffffffffffffffffff1681526020019081526020015f205f8473ffffffffffffffffffffffffffffffffffffffff1673ffffffffffffffffffffffffffffffffffffffff1681526020019081526020015f205f6101000a81548160ff0219169083151502179055506001805f82825461128b919061309d565b925050819055505050565b5f60035f8373ffffffffffffffffffffffffffffffffffffffff1673ffffffffffffffffffffffffffffffffffffffff1681526020019081526020015f205f9054906101000a900460ff169050919050565b606060035f3373ffffffffffffffffffffffffffffffffffffffff1673ffffffffffffffffffffffffffffffffffffffff1681526020019081526020015f205f9054906101000a900460ff1615611555575f60065f3373ffffffffffffffffffffffffffffffffffffffff1673ffffffffffffffffffffffffffffffffffffffff1681526020019081526020015f208054905090505f8167ffffffffffffffff81111561139857611397612d80565b5b6040519080825280602002602001820160405280156113d157816020015b6113be6127dc565b8152602001906001900390816113b65790505b5090505f5b8281101561154a5760045f60065f3373ffffffffffffffffffffffffffffffffffffffff1673ffffffffffffffffffffffffffffffffffffffff1681526020019081526020015f2083815481106114305761142f612f86565b5b905f5260205f20015481526020019081526020015f206040518060800160405290815f8201548152602001600182015f9054906101000a900473ffffffffffffffffffffffffffffffffffffffff1673ffffffffffffffffffffffffffffffffffffffff1673ffffffffffffffffffffffffffffffffffffffff168152602001600282015f9054906101000a900473ffffffffffffffffffffffffffffffffffffffff1673ffffffffffffffffffffffffffffffffffffffff1673ffffffffffffffffffffffffffffffffffffffff1681526020016002820160149054906101000a900460ff16151515158152505082828151811061153257611531612f86565b5b602002602001018190525080806001019150506113d6565b5080925050506117c4565b60025f3373ffffffffffffffffffffffffffffffffffffffff1673ffffffffffffffffffffffffffffffffffffffff1681526020019081526020015f205f9054906101000a900460ff16156117c0575f60075f3373ffffffffffffffffffffffffffffffffffffffff1673ffffffffffffffffffffffffffffffffffffffff1681526020019081526020015f208054905090505f8167ffffffffffffffff81111561160357611602612d80565b5b60405190808252806020026020018201604052801561163c57816020015b6116296127dc565b8152602001906001900390816116215790505b5090505f5b828110156117b55760045f60075f3373ffffffffffffffffffffffffffffffffffffffff1673ffffffffffffffffffffffffffffffffffffffff1681526020019081526020015f20838154811061169b5761169a612f86565b5b905f5260205f20015481526020019081526020015f206040518060800160405290815f8201548152602001600182015f9054906101000a900473ffffffffffffffffffffffffffffffffffffffff1673ffffffffffffffffffffffffffffffffffffffff1673ffffffffffffffffffffffffffffffffffffffff168152602001600282015f9054906101000a900473ffffffffffffffffffffffffffffffffffffffff1673ffffffffffffffffffffffffffffffffffffffff1673ffffffffffffffffffffffffffffffffffffffff1681526020016002820160149054906101000a900460ff16151515158152505082828151811061179d5761179c612f86565b5b60200260200101819052508080600101915050611641565b5080925050506117c4565b5f80fd5b90565b805f806101000a81548173ffffffffffffffffffffffffffffffffffffffff021916908373ffffffffffffffffffffffffffffffffffffffff16021790555050565b606060025f8373ffffffffffffffffffffffffffffffffffffffff1673ffffffffffffffffffffffffffffffffffffffff1681526020019081526020015f205f9054906101000a900460ff1661185d575f80fd5b600b5f8373ffffffffffffffffffffffffffffffffffffffff1673ffffffffffffffffffffffffffffffffffffffff1681526020019081526020015f2080548060200260200160405190810160405280929190818152602001828054801561191757602002820191905f5260205f20905b815f9054906101000a900473ffffffffffffffffffffffffffffffffffffffff1673ffffffffffffffffffffffffffffffffffffffff16815260200190600101908083116118ce575b50505050509050919050565b5f6001548210158061197c575060025f3373ffffffffffffffffffffffffffffffffffffffff1673ffffffffffffffffffffffffffffffffffffffff1681526020019081526020015f205f9054906101000a900460ff16155b806119cd575060035f3373ffffffffffffffffffffffffffffffffffffffff1673ffffffffffffffffffffffffffffffffffffffff1681526020019081526020015f205f9054906101000a900460ff165b15611a04576040517fc1f4106e00000000000000000000000000000000000000000000000000000000815260040160405180910390fd5b5f60045f8481526020019081526020015f206040518060800160405290815f8201548152602001600182015f9054906101000a900473ffffffffffffffffffffffffffffffffffffffff1673ffffffffffffffffffffffffffffffffffffffff1673ffffffffffffffffffffffffffffffffffffffff168152602001600282015f9054906101000a900473ffffffffffffffffffffffffffffffffffffffff1673ffffffffffffffffffffffffffffffffffffffff1673ffffffffffffffffffffffffffffffffffffffff1681526020016002820160149054906101000a900460ff161515151581525050905060035f826020015173ffffffffffffffffffffffffffffffffffffffff1673ffffffffffffffffffffffffffffffffffffffff1681526020019081526020015f205f9054906101000a900460ff161580611b96575060025f826040015173ffffffffffffffffffffffffffffffffffffffff1673ffffffffffffffffffffffffffffffffffffffff1681526020019081526020015f205f9054906101000a900460ff16155b80611ba2575080606001515b15611bd9576040517fc1f4106e00000000000000000000000000000000000000000000000000000000815260040160405180910390fd5b5f8060075f3373ffffffffffffffffffffffffffffffffffffffff1673ffffffffffffffffffffffffffffffffffffffff1681526020019081526020015f208054905090505f805b82811015611ca05760075f3373ffffffffffffffffffffffffffffffffffffffff1673ffffffffffffffffffffffffffffffffffffffff1681526020019081526020015f208181548110611c7857611c77612f86565b5b905f5260205f2001548703611c935780935060019150611ca0565b8080600101915050611c21565b5080611cd8576040517fc1f4106e00000000000000000000000000000000000000000000000000000000815260040160405180910390fd5b60075f3373ffffffffffffffffffffffffffffffffffffffff1673ffffffffffffffffffffffffffffffffffffffff1681526020019081526020015f20600183611d229190612fe0565b81548110611d3357611d32612f86565b5b905f5260205f20015460075f3373ffffffffffffffffffffffffffffffffffffffff1673ffffffffffffffffffffffffffffffffffffffff1681526020019081526020015f208481548110611d8b57611d8a612f86565b5b905f5260205f20018190555060075f3373ffffffffffffffffffffffffffffffffffffffff1673ffffffffffffffffffffffffffffffffffffffff1681526020019081526020015f20805480611de457611de3613013565b5b600190038181905f5260205f20015f905590555f8060065f876020015173ffffffffffffffffffffffffffffffffffffffff1673ffffffffffffffffffffffffffffffffffffffff1681526020019081526020015f208054905090505f5b81811015611ec15760065f886020015173ffffffffffffffffffffffffffffffffffffffff1673ffffffffffffffffffffffffffffffffffffffff1681526020019081526020015f208181548110611e9d57611e9c612f86565b5b905f5260205f2001548903611eb457809250611ec1565b8080600101915050611e42565b5060065f876020015173ffffffffffffffffffffffffffffffffffffffff1673ffffffffffffffffffffffffffffffffffffffff1681526020019081526020015f20600182611f109190612fe0565b81548110611f2157611f20612f86565b5b905f5260205f20015460065f886020015173ffffffffffffffffffffffffffffffffffffffff1673ffffffffffffffffffffffffffffffffffffffff1681526020019081526020015f208381548110611f7d57611f7c612f86565b5b905f5260205f20018190555060065f876020015173ffffffffffffffffffffffffffffffffffffffff1673ffffffffffffffffffffffffffffffffffffffff1681526020019081526020015f20805480611fda57611fd9613013565b5b600190038181905f5260205f20015f90559055600160085f886020015173ffffffffffffffffffffffffffffffffffffffff1673ffffffffffffffffffffffffffffffffffffffff1681526020019081526020015f205f886040015173ffffffffffffffffffffffffffffffffffffffff1673ffffffffffffffffffffffffffffffffffffffff1681526020019081526020015f205f6101000a81548160ff021916908315150217905550600a5f876020015173ffffffffffffffffffffffffffffffffffffffff1673ffffffffffffffffffffffffffffffffffffffff1681526020019081526020015f208660400151908060018154018082558091505060019003905f5260205f20015f9091909190916101000a81548173ffffffffffffffffffffffffffffffffffffffff021916908373ffffffffffffffffffffffffffffffffffffffff160217905550600b5f876040015173ffffffffffffffffffffffffffffffffffffffff1673ffffffffffffffffffffffffffffffffffffffff1681526020019081526020015f208660200151908060018154018082558091505060019003905f5260205f20015f9091909190916101000a81548173ffffffffffffffffffffffffffffffffffffffff021916908373ffffffffffffffffffffffffffffffffffffffff1602179055505f9650505050505050919050565b5f8054906101000a900473ffffffffffffffffffffffffffffffffffffffff1681565b60025f3373ffffffffffffffffffffffffffffffffffffffff1673ffffffffffffffffffffffffffffffffffffffff1681526020019081526020015f205f9054906101000a900460ff1680612297575060035f3373ffffffffffffffffffffffffffffffffffffffff1673ffffffffffffffffffffffffffffffffffffffff1681526020019081526020015f205f9054906101000a900460ff165b156122ce576040517f80ec519700000000000000000000000000000000000000000000000000000000815260040160405180910390fd5b60405180604001604052808281526020018381525060055f3373ffffffffffffffffffffffffffffffffffffffff1673ffffffffffffffffffffffffffffffffffffffff1681526020019081526020015f205f820151815f0190816123339190613264565b5060208201518160010190816123499190613264565b50905050600160025f3373ffffffffffffffffffffffffffffffffffffffff1673ffffffffffffffffffffffffffffffffffffffff1681526020019081526020015f205f6101000a81548160ff0219169083151502179055505050565b6123ae6127dc565b60015482106123bb575f80fd5b60045f8381526020019081526020015f206040518060800160405290815f8201548152602001600182015f9054906101000a900473ffffffffffffffffffffffffffffffffffffffff1673ffffffffffffffffffffffffffffffffffffffff1673ffffffffffffffffffffffffffffffffffffffff168152602001600282015f9054906101000a900473ffffffffffffffffffffffffffffffffffffffff1673ffffffffffffffffffffffffffffffffffffffff1673ffffffffffffffffffffffffffffffffffffffff1681526020016002820160149054906101000a900460ff1615151515815250509050919050565b606060035f8373ffffffffffffffffffffffffffffffffffffffff1673ffffffffffffffffffffffffffffffffffffffff1681526020019081526020015f205f9054906101000a900460ff16612500575f80fd5b600a5f8373ffffffffffffffffffffffffffffffffffffffff1673ffffffffffffffffffffffffffffffffffffffff1681526020019081526020015f208054806020026020016040519081016040528092919081815260200182805480156125ba57602002820191905f5260205f20905b815f9054906101000a900473ffffffffffffffffffffffffffffffffffffffff1673ffffffffffffffffffffffffffffffffffffffff1681526020019060010190808311612571575b50505050509050919050565b5f60025f8373ffffffffffffffffffffffffffffffffffffffff1673ffffffffffffffffffffffffffffffffffffffff1681526020019081526020015f205f9054906101000a900460ff169050919050565b60025f3373ffffffffffffffffffffffffffffffffffffffff1673ffffffffffffffffffffffffffffffffffffffff1681526020019081526020015f205f9054906101000a900460ff16806126b3575060035f3373ffffffffffffffffffffffffffffffffffffffff1673ffffffffffffffffffffffffffffffffffffffff1681526020019081526020015f205f9054906101000a900460ff165b156126ea576040517f80ec519700000000000000000000000000000000000000000000000000000000815260040160405180910390fd5b60405180604001604052808281526020018381525060055f3373ffffffffffffffffffffffffffffffffffffffff1673ffffffffffffffffffffffffffffffffffffffff1681526020019081526020015f205f820151815f01908161274f9190613264565b5060208201518160010190816127659190613264565b50905050600160035f3373ffffffffffffffffffffffffffffffffffffffff1673ffffffffffffffffffffffffffffffffffffffff1681526020019081526020015f205f6101000a81548160ff0219169083151502179055505050565b604051806040016040528060608152602001606081525090565b60405180608001604052805f81526020015f73ffffffffffffffffffffffffffffffffffffffff1681526020015f73ffffffffffffffffffffffffffffffffffffffff1681526020015f151581525090565b5f604051905090565b5f80fd5b5f80fd5b5f67ffffffffffffffff82169050919050565b61285b8161283f565b8114612865575f80fd5b50565b5f8135905061287681612852565b92915050565b5f6020828403121561289157612890612837565b5b5f61289e84828501612868565b91505092915050565b6128b08161283f565b82525050565b5f6020820190506128c95f8301846128a7565b92915050565b5f819050919050565b6128e1816128cf565b81146128eb575f80fd5b50565b5f813590506128fc816128d8565b92915050565b5f6020828403121561291757612916612837565b5b5f612924848285016128ee565b91505092915050565b5f73ffffffffffffffffffffffffffffffffffffffff82169050919050565b5f6129568261292d565b9050919050565b6129668161294c565b8114612970575f80fd5b50565b5f813590506129818161295d565b92915050565b5f806040838503121561299d5761299c612837565b5b5f6129aa85828601612973565b92505060206129bb85828601612973565b9150509250929050565b5f8115159050919050565b6129d9816129c5565b82525050565b5f6020820190506129f25f8301846129d0565b92915050565b5f60208284031215612a0d57612a0c612837565b5b5f612a1a84828501612973565b91505092915050565b5f81519050919050565b5f82825260208201905092915050565b8281835e5f83830152505050565b5f601f19601f8301169050919050565b5f612a6582612a23565b612a6f8185612a2d565b9350612a7f818560208601612a3d565b612a8881612a4b565b840191505092915050565b5f604083015f8301518482035f860152612aad8282612a5b565b91505060208301518482036020860152612ac78282612a5b565b9150508091505092915050565b5f6020820190508181035f830152612aec8184612a93565b905092915050565b5f81519050919050565b5f82825260208201905092915050565b5f819050602082019050919050565b612b26816128cf565b82525050565b612b358161294c565b82525050565b612b44816129c5565b82525050565b608082015f820151612b5e5f850182612b1d565b506020820151612b716020850182612b2c565b506040820151612b846040850182612b2c565b506060820151612b976060850182612b3b565b50505050565b5f612ba88383612b4a565b60808301905092915050565b5f602082019050919050565b5f612bca82612af4565b612bd48185612afe565b9350612bdf83612b0e565b805f5b83811015612c0f578151612bf68882612b9d565b9750612c0183612bb4565b925050600181019050612be2565b5085935050505092915050565b5f6020820190508181035f830152612c348184612bc0565b905092915050565b5f81519050919050565b5f82825260208201905092915050565b5f819050602082019050919050565b5f612c708383612b2c565b60208301905092915050565b5f602082019050919050565b5f612c9282612c3c565b612c9c8185612c46565b9350612ca783612c56565b805f5b83811015612cd7578151612cbe8882612c65565b9750612cc983612c7c565b925050600181019050612caa565b5085935050505092915050565b5f6020820190508181035f830152612cfc8184612c88565b905092915050565b5f819050919050565b5f612d27612d22612d1d8461292d565b612d04565b61292d565b9050919050565b5f612d3882612d0d565b9050919050565b5f612d4982612d2e565b9050919050565b612d5981612d3f565b82525050565b5f602082019050612d725f830184612d50565b92915050565b5f80fd5b5f80fd5b7f4e487b71000000000000000000000000000000000000000000000000000000005f52604160045260245ffd5b612db682612a4b565b810181811067ffffffffffffffff82111715612dd557612dd4612d80565b5b80604052505050565b5f612de761282e565b9050612df38282612dad565b919050565b5f67ffffffffffffffff821115612e1257612e11612d80565b5b612e1b82612a4b565b9050602081019050919050565b828183375f83830152505050565b5f612e48612e4384612df8565b612dde565b905082815260208101848484011115612e6457612e63612d7c565b5b612e6f848285612e28565b509392505050565b5f82601f830112612e8b57612e8a612d78565b5b8135612e9b848260208601612e36565b91505092915050565b5f8060408385031215612eba57612eb9612837565b5b5f83013567ffffffffffffffff811115612ed757612ed661283b565b5b612ee385828601612e77565b925050602083013567ffffffffffffffff811115612f0457612f0361283b565b5b612f1085828601612e77565b9150509250929050565b608082015f820151612f2e5f850182612b1d565b506020820151612f416020850182612b2c565b506040820151612f546040850182612b2c565b506060820151612f676060850182612b3b565b50505050565b5f608082019050612f805f830184612f1a565b92915050565b7f4e487b71000000000000000000000000000000000000000000000000000000005f52603260045260245ffd5b7f4e487b71000000000000000000000000000000000000000000000000000000005f52601160045260245ffd5b5f612fea826128cf565b9150612ff5836128cf565b925082820390508181111561300d5761300c612fb3565b5b92915050565b7f4e487b71000000000000000000000000000000000000000000000000000000005f52603160045260245ffd5b7f4e487b71000000000000000000000000000000000000000000000000000000005f52602260045260245ffd5b5f600282049050600182168061308457607f821691505b60208210810361309757613096613040565b5b50919050565b5f6130a7826128cf565b91506130b2836128cf565b92508282019050808211156130ca576130c9612fb3565b5b92915050565b5f819050815f5260205f209050919050565b5f6020601f8301049050919050565b5f82821b905092915050565b5f6008830261312c7fffffffffffffffffffffffffffffffffffffffffffffffffffffffffffffffff826130f1565b61313686836130f1565b95508019841693508086168417925050509392505050565b5f61316861316361315e846128cf565b612d04565b6128cf565b9050919050565b5f819050919050565b6131818361314e565b61319561318d8261316f565b8484546130fd565b825550505050565b5f90565b6131a961319d565b6131b4818484613178565b505050565b5b818110156131d7576131cc5f826131a1565b6001810190506131ba565b5050565b601f82111561321c576131ed816130d0565b6131f6846130e2565b81016020851015613205578190505b613219613211856130e2565b8301826131b9565b50505b505050565b5f82821c905092915050565b5f61323c5f1984600802613221565b1980831691505092915050565b5f613254838361322d565b9150826002028217905092915050565b61326d82612a23565b67ffffffffffffffff81111561328657613285612d80565b5b613290825461306d565b61329b8282856131db565b5f60209050601f8311600181146132cc575f84156132ba578287015190505b6132c48582613249565b86555061332b565b601f1984166132da866130d0565b5f5b82811015613301578489015182556001820191506020850194506020810190506132dc565b8683101561331e578489015161331a601f89168261322d565b8355505b6001600288020188555050505b50505050505056fea2646970667358221220fb5c8d5fd1c643e9148ea624f1f1ef09616f2928e6cf189ccc6cee88905d1ecd64736f6c634300081a0033",
					"opcodes": "PUSH1 0x80 PUSH1 0x40 MSTORE PUSH0 PUSH1 0x1 SSTORE CALLVALUE DUP1 ISZERO PUSH1 0x12 JUMPI PUSH0 DUP1 REVERT JUMPDEST POP PUSH2 0x3369 DUP1 PUSH2 0x20 PUSH0 CODECOPY PUSH0 RETURN INVALID PUSH1 0x80 PUSH1 0x40 MSTORE CALLVALUE DUP1 ISZERO PUSH2 0xF JUMPI PUSH0 DUP1 REVERT JUMPDEST POP PUSH1 0x4 CALLDATASIZE LT PUSH2 0x109 JUMPI PUSH0 CALLDATALOAD PUSH1 0xE0 SHR DUP1 PUSH4 0x8E9D660F GT PUSH2 0xA0 JUMPI DUP1 PUSH4 0xA9524AA4 GT PUSH2 0x6F JUMPI DUP1 PUSH4 0xA9524AA4 EQ PUSH2 0x2C7 JUMPI DUP1 PUSH4 0xC58343EF EQ PUSH2 0x2E3 JUMPI DUP1 PUSH4 0xC84A9407 EQ PUSH2 0x313 JUMPI DUP1 PUSH4 0xF9D1D0C0 EQ PUSH2 0x343 JUMPI DUP1 PUSH4 0xFB7D5BF6 EQ PUSH2 0x373 JUMPI PUSH2 0x109 JUMP JUMPDEST DUP1 PUSH4 0x8E9D660F EQ PUSH2 0x22D JUMPI DUP1 PUSH4 0x93A87D3C EQ PUSH2 0x249 JUMPI DUP1 PUSH4 0xA6B2C437 EQ PUSH2 0x279 JUMPI DUP1 PUSH4 0xA8C5DC33 EQ PUSH2 0x2A9 JUMPI PUSH2 0x109 JUMP JUMPDEST DUP1 PUSH4 0x75894E8C GT PUSH2 0xDC JUMPI DUP1 PUSH4 0x75894E8C EQ PUSH2 0x193 JUMPI DUP1 PUSH4 0x85E1B15B EQ PUSH2 0x1C3 JUMPI DUP1 PUSH4 0x86B602F8 EQ PUSH2 0x1DF JUMPI DUP1 PUSH4 0x8813CE12 EQ PUSH2 0x20F JUMPI PUSH2 0x109 JUMP JUMPDEST DUP1 PUSH4 0x5CA8EE3 EQ PUSH2 0x10D JUMPI DUP1 PUSH4 0x75B1A09 EQ PUSH2 0x129 JUMPI DUP1 PUSH4 0x399B4DDC EQ PUSH2 0x147 JUMPI DUP1 PUSH4 0x665BB095 EQ PUSH2 0x163 JUMPI JUMPDEST PUSH0 DUP1 REVERT JUMPDEST PUSH2 0x127 PUSH1 0x4 DUP1 CALLDATASIZE SUB DUP2 ADD SWAP1 PUSH2 0x122 SWAP2 SWAP1 PUSH2 0x287C JUMP JUMPDEST PUSH2 0x38F JUMP JUMPDEST STOP JUMPDEST PUSH2 0x131 PUSH2 0x3BA JUMP JUMPDEST PUSH1 0x40 MLOAD PUSH2 0x13E SWAP2 SWAP1 PUSH2 0x28B6 JUMP JUMPDEST PUSH1 0x40 MLOAD DUP1 SWAP2 SUB SWAP1 RETURN JUMPDEST PUSH2 0x161 PUSH1 0x4 DUP1 CALLDATASIZE SUB DUP2 ADD SWAP1 PUSH2 0x15C SWAP2 SWAP1 PUSH2 0x2902 JUMP JUMPDEST PUSH2 0x3D3 JUMP JUMPDEST STOP JUMPDEST PUSH2 0x17D PUSH1 0x4 DUP1 CALLDATASIZE SUB DUP2 ADD SWAP1 PUSH2 0x178 SWAP2 SWAP1 PUSH2 0x2987 JUMP JUMPDEST PUSH2 0xADE JUMP JUMPDEST PUSH1 0x40 MLOAD PUSH2 0x18A SWAP2 SWAP1 PUSH2 0x29DF JUMP JUMPDEST PUSH1 0x40 MLOAD DUP1 SWAP2 SUB SWAP1 RETURN JUMPDEST PUSH2 0x1AD PUSH1 0x4 DUP1 CALLDATASIZE SUB DUP2 ADD SWAP1 PUSH2 0x1A8 SWAP2 SWAP1 PUSH2 0x29F8 JUMP JUMPDEST PUSH2 0xC12 JUMP JUMPDEST PUSH1 0x40 MLOAD PUSH2 0x1BA SWAP2 SWAP1 PUSH2 0x2AD4 JUMP JUMPDEST PUSH1 0x40 MLOAD DUP1 SWAP2 SUB SWAP1 RETURN JUMPDEST PUSH2 0x1DD PUSH1 0x4 DUP1 CALLDATASIZE SUB DUP2 ADD SWAP1 PUSH2 0x1D8 SWAP2 SWAP1 PUSH2 0x29F8 JUMP JUMPDEST PUSH2 0xE31 JUMP JUMPDEST STOP JUMPDEST PUSH2 0x1F9 PUSH1 0x4 DUP1 CALLDATASIZE SUB DUP2 ADD SWAP1 PUSH2 0x1F4 SWAP2 SWAP1 PUSH2 0x29F8 JUMP JUMPDEST PUSH2 0x1296 JUMP JUMPDEST PUSH1 0x40 MLOAD PUSH2 0x206 SWAP2 SWAP1 PUSH2 0x29DF JUMP JUMPDEST PUSH1 0x40 MLOAD DUP1 SWAP2 SUB SWAP1 RETURN JUMPDEST PUSH2 0x217 PUSH2 0x12E8 JUMP JUMPDEST PUSH1 0x40 MLOAD PUSH2 0x224 SWAP2 SWAP1 PUSH2 0x2C1C JUMP JUMPDEST PUSH1 0x40 MLOAD DUP1 SWAP2 SUB SWAP1 RETURN JUMPDEST PUSH2 0x247 PUSH1 0x4 DUP1 CALLDATASIZE SUB DUP2 ADD SWAP1 PUSH2 0x242 SWAP2 SWAP1 PUSH2 0x29F8 JUMP JUMPDEST PUSH2 0x17C7 JUMP JUMPDEST STOP JUMPDEST PUSH2 0x263 PUSH1 0x4 DUP1 CALLDATASIZE SUB DUP2 ADD SWAP1 PUSH2 0x25E SWAP2 SWAP1 PUSH2 0x29F8 JUMP JUMPDEST PUSH2 0x1809 JUMP JUMPDEST PUSH1 0x40 MLOAD PUSH2 0x270 SWAP2 SWAP1 PUSH2 0x2CE4 JUMP JUMPDEST PUSH1 0x40 MLOAD DUP1 SWAP2 SUB SWAP1 RETURN JUMPDEST PUSH2 0x293 PUSH1 0x4 DUP1 CALLDATASIZE SUB DUP2 ADD SWAP1 PUSH2 0x28E SWAP2 SWAP1 PUSH2 0x2902 JUMP JUMPDEST PUSH2 0x1923 JUMP JUMPDEST PUSH1 0x40 MLOAD PUSH2 0x2A0 SWAP2 SWAP1 PUSH2 0x28B6 JUMP JUMPDEST PUSH1 0x40 MLOAD DUP1 SWAP2 SUB SWAP1 RETURN JUMPDEST PUSH2 0x2B1 PUSH2 0x21D9 JUMP JUMPDEST PUSH1 0x40 MLOAD PUSH2 0x2BE SWAP2 SWAP1 PUSH2 0x2D5F JUMP JUMPDEST PUSH1 0x40 MLOAD DUP1 SWAP2 SUB SWAP1 RETURN JUMPDEST PUSH2 0x2E1 PUSH1 0x4 DUP1 CALLDATASIZE SUB DUP2 ADD SWAP1 PUSH2 0x2DC SWAP2 SWAP1 PUSH2 0x2EA4 JUMP JUMPDEST PUSH2 0x21FC JUMP JUMPDEST STOP JUMPDEST PUSH2 0x2FD PUSH1 0x4 DUP1 CALLDATASIZE SUB DUP2 ADD SWAP1 PUSH2 0x2F8 SWAP2 SWAP1 PUSH2 0x2902 JUMP JUMPDEST PUSH2 0x23A6 JUMP JUMPDEST PUSH1 0x40 MLOAD PUSH2 0x30A SWAP2 SWAP1 PUSH2 0x2F6D JUMP JUMPDEST PUSH1 0x40 MLOAD DUP1 SWAP2 SUB SWAP1 RETURN JUMPDEST PUSH2 0x32D PUSH1 0x4 DUP1 CALLDATASIZE SUB DUP2 ADD SWAP1 PUSH2 0x328 SWAP2 SWAP1 PUSH2 0x29F8 JUMP JUMPDEST PUSH2 0x24AC JUMP JUMPDEST PUSH1 0x40 MLOAD PUSH2 0x33A SWAP2 SWAP1 PUSH2 0x2CE4 JUMP JUMPDEST PUSH1 0x40 MLOAD DUP1 SWAP2 SUB SWAP1 RETURN JUMPDEST PUSH2 0x35D PUSH1 0x4 DUP1 CALLDATASIZE SUB DUP2 ADD SWAP1 PUSH2 0x358 SWAP2 SWAP1 PUSH2 0x29F8 JUMP JUMPDEST PUSH2 0x25C6 JUMP JUMPDEST PUSH1 0x40 MLOAD PUSH2 0x36A SWAP2 SWAP1 PUSH2 0x29DF JUMP JUMPDEST PUSH1 0x40 MLOAD DUP1 SWAP2 SUB SWAP1 RETURN JUMPDEST PUSH2 0x38D PUSH1 0x4 DUP1 CALLDATASIZE SUB DUP2 ADD SWAP1 PUSH2 0x388 SWAP2 SWAP1 PUSH2 0x2EA4 JUMP JUMPDEST PUSH2 0x2618 JUMP JUMPDEST STOP JUMPDEST DUP1 PUSH0 PUSH1 0x14 PUSH2 0x100 EXP DUP2 SLOAD DUP2 PUSH8 0xFFFFFFFFFFFFFFFF MUL NOT AND SWAP1 DUP4 PUSH8 0xFFFFFFFFFFFFFFFF AND MUL OR SWAP1 SSTORE POP POP JUMP JUMPDEST PUSH0 PUSH1 0x14 SWAP1 SLOAD SWAP1 PUSH2 0x100 EXP SWAP1 DIV PUSH8 0xFFFFFFFFFFFFFFFF AND DUP2 JUMP JUMPDEST PUSH1 0x1 SLOAD DUP2 LT ISZERO DUP1 PUSH2 0x42B JUMPI POP PUSH1 0x2 PUSH0 CALLER PUSH20 0xFFFFFFFFFFFFFFFFFFFFFFFFFFFFFFFFFFFFFFFF AND PUSH20 0xFFFFFFFFFFFFFFFFFFFFFFFFFFFFFFFFFFFFFFFF AND DUP2 MSTORE PUSH1 0x20 ADD SWAP1 DUP2 MSTORE PUSH1 0x20 ADD PUSH0 KECCAK256 PUSH0 SWAP1 SLOAD SWAP1 PUSH2 0x100 EXP SWAP1 DIV PUSH1 0xFF AND ISZERO JUMPDEST DUP1 PUSH2 0x47C JUMPI POP PUSH1 0x3 PUSH0 CALLER PUSH20 0xFFFFFFFFFFFFFFFFFFFFFFFFFFFFFFFFFFFFFFFF AND PUSH20 0xFFFFFFFFFFFFFFFFFFFFFFFFFFFFFFFFFFFFFFFF AND DUP2 MSTORE PUSH1 0x20 ADD SWAP1 DUP2 MSTORE PUSH1 0x20 ADD PUSH0 KECCAK256 PUSH0 SWAP1 SLOAD SWAP1 PUSH2 0x100 EXP SWAP1 DIV PUSH1 0xFF AND JUMPDEST ISZERO PUSH2 0x485 JUMPI PUSH0 DUP1 REVERT JUMPDEST PUSH0 PUSH1 0x4 PUSH0 DUP4 DUP2 MSTORE PUSH1 0x20 ADD SWAP1 DUP2 MSTORE PUSH1 0x20 ADD PUSH0 KECCAK256 PUSH1 0x40 MLOAD DUP1 PUSH1 0x80 ADD PUSH1 0x40 MSTORE SWAP1 DUP2 PUSH0 DUP3 ADD SLOAD DUP2 MSTORE PUSH1 0x20 ADD PUSH1 0x1 DUP3 ADD PUSH0 SWAP1 SLOAD SWAP1 PUSH2 0x100 EXP SWAP1 DIV PUSH20 0xFFFFFFFFFFFFFFFFFFFFFFFFFFFFFFFFFFFFFFFF AND PUSH20 0xFFFFFFFFFFFFFFFFFFFFFFFFFFFFFFFFFFFFFFFF AND PUSH20 0xFFFFFFFFFFFFFFFFFFFFFFFFFFFFFFFFFFFFFFFF AND DUP2 MSTORE PUSH1 0x20 ADD PUSH1 0x2 DUP3 ADD PUSH0 SWAP1 SLOAD SWAP1 PUSH2 0x100 EXP SWAP1 DIV PUSH20 0xFFFFFFFFFFFFFFFFFFFFFFFFFFFFFFFFFFFFFFFF AND PUSH20 0xFFFFFFFFFFFFFFFFFFFFFFFFFFFFFFFFFFFFFFFF AND PUSH20 0xFFFFFFFFFFFFFFFFFFFFFFFFFFFFFFFFFFFFFFFF AND DUP2 MSTORE PUSH1 0x20 ADD PUSH1 0x2 DUP3 ADD PUSH1 0x14 SWAP1 SLOAD SWAP1 PUSH2 0x100 EXP SWAP1 DIV PUSH1 0xFF AND ISZERO ISZERO ISZERO ISZERO DUP2 MSTORE POP POP SWAP1 POP PUSH1 0x3 PUSH0 DUP3 PUSH1 0x20 ADD MLOAD PUSH20 0xFFFFFFFFFFFFFFFFFFFFFFFFFFFFFFFFFFFFFFFF AND PUSH20 0xFFFFFFFFFFFFFFFFFFFFFFFFFFFFFFFFFFFFFFFF AND DUP2 MSTORE PUSH1 0x20 ADD SWAP1 DUP2 MSTORE PUSH1 0x20 ADD PUSH0 KECCAK256 PUSH0 SWAP1 SLOAD SWAP1 PUSH2 0x100 EXP SWAP1 DIV PUSH1 0xFF AND ISZERO DUP1 PUSH2 0x617 JUMPI POP PUSH1 0x2 PUSH0 DUP3 PUSH1 0x40 ADD MLOAD PUSH20 0xFFFFFFFFFFFFFFFFFFFFFFFFFFFFFFFFFFFFFFFF AND PUSH20 0xFFFFFFFFFFFFFFFFFFFFFFFFFFFFFFFFFFFFFFFF AND DUP2 MSTORE PUSH1 0x20 ADD SWAP1 DUP2 MSTORE PUSH1 0x20 ADD PUSH0 KECCAK256 PUSH0 SWAP1 SLOAD SWAP1 PUSH2 0x100 EXP SWAP1 DIV PUSH1 0xFF AND ISZERO JUMPDEST DUP1 PUSH2 0x623 JUMPI POP DUP1 PUSH1 0x60 ADD MLOAD JUMPDEST ISZERO PUSH2 0x62C JUMPI PUSH0 DUP1 REVERT JUMPDEST PUSH0 PUSH1 0x4 PUSH0 DUP5 DUP2 MSTORE PUSH1 0x20 ADD SWAP1 DUP2 MSTORE PUSH1 0x20 ADD PUSH0 KECCAK256 PUSH1 0x2 ADD PUSH1 0x14 PUSH2 0x100 EXP DUP2 SLOAD DUP2 PUSH1 0xFF MUL NOT AND SWAP1 DUP4 ISZERO ISZERO MUL OR SWAP1 SSTORE POP PUSH0 DUP1 PUSH1 0x7 PUSH0 CALLER PUSH20 0xFFFFFFFFFFFFFFFFFFFFFFFFFFFFFFFFFFFFFFFF AND PUSH20 0xFFFFFFFFFFFFFFFFFFFFFFFFFFFFFFFFFFFFFFFF AND DUP2 MSTORE PUSH1 0x20 ADD SWAP1 DUP2 MSTORE PUSH1 0x20 ADD PUSH0 KECCAK256 DUP1 SLOAD SWAP1 POP SWAP1 POP PUSH0 DUP1 JUMPDEST DUP3 DUP2 LT ISZERO PUSH2 0x71F JUMPI PUSH1 0x7 PUSH0 CALLER PUSH20 0xFFFFFFFFFFFFFFFFFFFFFFFFFFFFFFFFFFFFFFFF AND PUSH20 0xFFFFFFFFFFFFFFFFFFFFFFFFFFFFFFFFFFFFFFFF AND DUP2 MSTORE PUSH1 0x20 ADD SWAP1 DUP2 MSTORE PUSH1 0x20 ADD PUSH0 KECCAK256 DUP2 DUP2 SLOAD DUP2 LT PUSH2 0x6F7 JUMPI PUSH2 0x6F6 PUSH2 0x2F86 JUMP JUMPDEST JUMPDEST SWAP1 PUSH0 MSTORE PUSH1 0x20 PUSH0 KECCAK256 ADD SLOAD DUP7 SUB PUSH2 0x712 JUMPI DUP1 SWAP4 POP PUSH1 0x1 SWAP2 POP PUSH2 0x71F JUMP JUMPDEST DUP1 DUP1 PUSH1 0x1 ADD SWAP2 POP POP PUSH2 0x6A0 JUMP JUMPDEST POP DUP1 PUSH2 0x729 JUMPI PUSH0 DUP1 REVERT JUMPDEST PUSH1 0x7 PUSH0 CALLER PUSH20 0xFFFFFFFFFFFFFFFFFFFFFFFFFFFFFFFFFFFFFFFF AND PUSH20 0xFFFFFFFFFFFFFFFFFFFFFFFFFFFFFFFFFFFFFFFF AND DUP2 MSTORE PUSH1 0x20 ADD SWAP1 DUP2 MSTORE PUSH1 0x20 ADD PUSH0 KECCAK256 PUSH1 0x1 DUP4 PUSH2 0x773 SWAP2 SWAP1 PUSH2 0x2FE0 JUMP JUMPDEST DUP2 SLOAD DUP2 LT PUSH2 0x784 JUMPI PUSH2 0x783 PUSH2 0x2F86 JUMP JUMPDEST JUMPDEST SWAP1 PUSH0 MSTORE PUSH1 0x20 PUSH0 KECCAK256 ADD SLOAD PUSH1 0x7 PUSH0 CALLER PUSH20 0xFFFFFFFFFFFFFFFFFFFFFFFFFFFFFFFFFFFFFFFF AND PUSH20 0xFFFFFFFFFFFFFFFFFFFFFFFFFFFFFFFFFFFFFFFF AND DUP2 MSTORE PUSH1 0x20 ADD SWAP1 DUP2 MSTORE PUSH1 0x20 ADD PUSH0 KECCAK256 DUP5 DUP2 SLOAD DUP2 LT PUSH2 0x7DC JUMPI PUSH2 0x7DB PUSH2 0x2F86 JUMP JUMPDEST JUMPDEST SWAP1 PUSH0 MSTORE PUSH1 0x20 PUSH0 KECCAK256 ADD DUP2 SWAP1 SSTORE POP PUSH1 0x7 PUSH0 CALLER PUSH20 0xFFFFFFFFFFFFFFFFFFFFFFFFFFFFFFFFFFFFFFFF AND PUSH20 0xFFFFFFFFFFFFFFFFFFFFFFFFFFFFFFFFFFFFFFFF AND DUP2 MSTORE PUSH1 0x20 ADD SWAP1 DUP2 MSTORE PUSH1 0x20 ADD PUSH0 KECCAK256 DUP1 SLOAD DUP1 PUSH2 0x835 JUMPI PUSH2 0x834 PUSH2 0x3013 JUMP JUMPDEST JUMPDEST PUSH1 0x1 SWAP1 SUB DUP2 DUP2 SWAP1 PUSH0 MSTORE PUSH1 0x20 PUSH0 KECCAK256 ADD PUSH0 SWAP1 SSTORE SWAP1 SSTORE PUSH0 DUP1 PUSH1 0x6 PUSH0 DUP8 PUSH1 0x20 ADD MLOAD PUSH20 0xFFFFFFFFFFFFFFFFFFFFFFFFFFFFFFFFFFFFFFFF AND PUSH20 0xFFFFFFFFFFFFFFFFFFFFFFFFFFFFFFFFFFFFFFFF AND DUP2 MSTORE PUSH1 0x20 ADD SWAP1 DUP2 MSTORE PUSH1 0x20 ADD PUSH0 KECCAK256 DUP1 SLOAD SWAP1 POP SWAP1 POP PUSH0 JUMPDEST DUP2 DUP2 LT ISZERO PUSH2 0x912 JUMPI PUSH1 0x6 PUSH0 DUP9 PUSH1 0x20 ADD MLOAD PUSH20 0xFFFFFFFFFFFFFFFFFFFFFFFFFFFFFFFFFFFFFFFF AND PUSH20 0xFFFFFFFFFFFFFFFFFFFFFFFFFFFFFFFFFFFFFFFF AND DUP2 MSTORE PUSH1 0x20 ADD SWAP1 DUP2 MSTORE PUSH1 0x20 ADD PUSH0 KECCAK256 DUP2 DUP2 SLOAD DUP2 LT PUSH2 0x8EE JUMPI PUSH2 0x8ED PUSH2 0x2F86 JUMP JUMPDEST JUMPDEST SWAP1 PUSH0 MSTORE PUSH1 0x20 PUSH0 KECCAK256 ADD SLOAD DUP9 SUB PUSH2 0x905 JUMPI DUP1 SWAP3 POP PUSH2 0x912 JUMP JUMPDEST DUP1 DUP1 PUSH1 0x1 ADD SWAP2 POP POP PUSH2 0x893 JUMP JUMPDEST POP PUSH1 0x6 PUSH0 DUP8 PUSH1 0x20 ADD MLOAD PUSH20 0xFFFFFFFFFFFFFFFFFFFFFFFFFFFFFFFFFFFFFFFF AND PUSH20 0xFFFFFFFFFFFFFFFFFFFFFFFFFFFFFFFFFFFFFFFF AND DUP2 MSTORE PUSH1 0x20 ADD SWAP1 DUP2 MSTORE PUSH1 0x20 ADD PUSH0 KECCAK256 PUSH1 0x1 DUP3 PUSH2 0x961 SWAP2 SWAP1 PUSH2 0x2FE0 JUMP JUMPDEST DUP2 SLOAD DUP2 LT PUSH2 0x972 JUMPI PUSH2 0x971 PUSH2 0x2F86 JUMP JUMPDEST JUMPDEST SWAP1 PUSH0 MSTORE PUSH1 0x20 PUSH0 KECCAK256 ADD SLOAD PUSH1 0x6 PUSH0 DUP9 PUSH1 0x20 ADD MLOAD PUSH20 0xFFFFFFFFFFFFFFFFFFFFFFFFFFFFFFFFFFFFFFFF AND PUSH20 0xFFFFFFFFFFFFFFFFFFFFFFFFFFFFFFFFFFFFFFFF AND DUP2 MSTORE PUSH1 0x20 ADD SWAP1 DUP2 MSTORE PUSH1 0x20 ADD PUSH0 KECCAK256 DUP4 DUP2 SLOAD DUP2 LT PUSH2 0x9CE JUMPI PUSH2 0x9CD PUSH2 0x2F86 JUMP JUMPDEST JUMPDEST SWAP1 PUSH0 MSTORE PUSH1 0x20 PUSH0 KECCAK256 ADD DUP2 SWAP1 SSTORE POP PUSH1 0x6 PUSH0 DUP8 PUSH1 0x20 ADD MLOAD PUSH20 0xFFFFFFFFFFFFFFFFFFFFFFFFFFFFFFFFFFFFFFFF AND PUSH20 0xFFFFFFFFFFFFFFFFFFFFFFFFFFFFFFFFFFFFFFFF AND DUP2 MSTORE PUSH1 0x20 ADD SWAP1 DUP2 MSTORE PUSH1 0x20 ADD PUSH0 KECCAK256 DUP1 SLOAD DUP1 PUSH2 0xA2B JUMPI PUSH2 0xA2A PUSH2 0x3013 JUMP JUMPDEST JUMPDEST PUSH1 0x1 SWAP1 SUB DUP2 DUP2 SWAP1 PUSH0 MSTORE PUSH1 0x20 PUSH0 KECCAK256 ADD PUSH0 SWAP1 SSTORE SWAP1 SSTORE PUSH0 PUSH1 0x9 PUSH0 DUP9 PUSH1 0x20 ADD MLOAD PUSH20 0xFFFFFFFFFFFFFFFFFFFFFFFFFFFFFFFFFFFFFFFF AND PUSH20 0xFFFFFFFFFFFFFFFFFFFFFFFFFFFFFFFFFFFFFFFF AND DUP2 MSTORE PUSH1 0x20 ADD SWAP1 DUP2 MSTORE PUSH1 0x20 ADD PUSH0 KECCAK256 PUSH0 DUP9 PUSH1 0x40 ADD MLOAD PUSH20 0xFFFFFFFFFFFFFFFFFFFFFFFFFFFFFFFFFFFFFFFF AND PUSH20 0xFFFFFFFFFFFFFFFFFFFFFFFFFFFFFFFFFFFFFFFF AND DUP2 MSTORE PUSH1 0x20 ADD SWAP1 DUP2 MSTORE PUSH1 0x20 ADD PUSH0 KECCAK256 PUSH0 PUSH2 0x100 EXP DUP2 SLOAD DUP2 PUSH1 0xFF MUL NOT AND SWAP1 DUP4 ISZERO ISZERO MUL OR SWAP1 SSTORE POP POP POP POP POP POP POP POP JUMP JUMPDEST PUSH0 PUSH1 0x3 PUSH0 DUP5 PUSH20 0xFFFFFFFFFFFFFFFFFFFFFFFFFFFFFFFFFFFFFFFF AND PUSH20 0xFFFFFFFFFFFFFFFFFFFFFFFFFFFFFFFFFFFFFFFF AND DUP2 MSTORE PUSH1 0x20 ADD SWAP1 DUP2 MSTORE PUSH1 0x20 ADD PUSH0 KECCAK256 PUSH0 SWAP1 SLOAD SWAP1 PUSH2 0x100 EXP SWAP1 DIV PUSH1 0xFF AND ISZERO DUP1 PUSH2 0xB7C JUMPI POP PUSH1 0x2 PUSH0 DUP4 PUSH20 0xFFFFFFFFFFFFFFFFFFFFFFFFFFFFFFFFFFFFFFFF AND PUSH20 0xFFFFFFFFFFFFFFFFFFFFFFFFFFFFFFFFFFFFFFFF AND DUP2 MSTORE PUSH1 0x20 ADD SWAP1 DUP2 MSTORE PUSH1 0x20 ADD PUSH0 KECCAK256 PUSH0 SWAP1 SLOAD SWAP1 PUSH2 0x100 EXP SWAP1 DIV PUSH1 0xFF AND ISZERO JUMPDEST ISZERO PUSH2 0xB85 JUMPI PUSH0 DUP1 REVERT JUMPDEST PUSH1 0x8 PUSH0 DUP5 PUSH20 0xFFFFFFFFFFFFFFFFFFFFFFFFFFFFFFFFFFFFFFFF AND PUSH20 0xFFFFFFFFFFFFFFFFFFFFFFFFFFFFFFFFFFFFFFFF AND DUP2 MSTORE PUSH1 0x20 ADD SWAP1 DUP2 MSTORE PUSH1 0x20 ADD PUSH0 KECCAK256 PUSH0 DUP4 PUSH20 0xFFFFFFFFFFFFFFFFFFFFFFFFFFFFFFFFFFFFFFFF AND PUSH20 0xFFFFFFFFFFFFFFFFFFFFFFFFFFFFFFFFFFFFFFFF AND DUP2 MSTORE PUSH1 0x20 ADD SWAP1 DUP2 MSTORE PUSH1 0x20 ADD PUSH0 KECCAK256 PUSH0 SWAP1 SLOAD SWAP1 PUSH2 0x100 EXP SWAP1 DIV PUSH1 0xFF AND SWAP1 POP SWAP3 SWAP2 POP POP JUMP JUMPDEST PUSH2 0xC1A PUSH2 0x27C2 JUMP JUMPDEST PUSH1 0x2 PUSH0 DUP4 PUSH20 0xFFFFFFFFFFFFFFFFFFFFFFFFFFFFFFFFFFFFFFFF AND PUSH20 0xFFFFFFFFFFFFFFFFFFFFFFFFFFFFFFFFFFFFFFFF AND DUP2 MSTORE PUSH1 0x20 ADD SWAP1 DUP2 MSTORE PUSH1 0x20 ADD PUSH0 KECCAK256 PUSH0 SWAP1 SLOAD SWAP1 PUSH2 0x100 EXP SWAP1 DIV PUSH1 0xFF AND DUP1 PUSH2 0xCB5 JUMPI POP PUSH1 0x3 PUSH0 DUP4 PUSH20 0xFFFFFFFFFFFFFFFFFFFFFFFFFFFFFFFFFFFFFFFF AND PUSH20 0xFFFFFFFFFFFFFFFFFFFFFFFFFFFFFFFFFFFFFFFF AND DUP2 MSTORE PUSH1 0x20 ADD SWAP1 DUP2 MSTORE PUSH1 0x20 ADD PUSH0 KECCAK256 PUSH0 SWAP1 SLOAD SWAP1 PUSH2 0x100 EXP SWAP1 DIV PUSH1 0xFF AND JUMPDEST ISZERO PUSH2 0xE28 JUMPI PUSH1 0x5 PUSH0 DUP4 PUSH20 0xFFFFFFFFFFFFFFFFFFFFFFFFFFFFFFFFFFFFFFFF AND PUSH20 0xFFFFFFFFFFFFFFFFFFFFFFFFFFFFFFFFFFFFFFFF AND DUP2 MSTORE PUSH1 0x20 ADD SWAP1 DUP2 MSTORE PUSH1 0x20 ADD PUSH0 KECCAK256 PUSH1 0x40 MLOAD DUP1 PUSH1 0x40 ADD PUSH1 0x40 MSTORE SWAP1 DUP2 PUSH0 DUP3 ADD DUP1 SLOAD PUSH2 0xD11 SWAP1 PUSH2 0x306D JUMP JUMPDEST DUP1 PUSH1 0x1F ADD PUSH1 0x20 DUP1 SWAP2 DIV MUL PUSH1 0x20 ADD PUSH1 0x40 MLOAD SWAP1 DUP2 ADD PUSH1 0x40 MSTORE DUP1 SWAP3 SWAP2 SWAP1 DUP2 DUP2 MSTORE PUSH1 0x20 ADD DUP3 DUP1 SLOAD PUSH2 0xD3D SWAP1 PUSH2 0x306D JUMP JUMPDEST DUP1 ISZERO PUSH2 0xD88 JUMPI DUP1 PUSH1 0x1F LT PUSH2 0xD5F JUMPI PUSH2 0x100 DUP1 DUP4 SLOAD DIV MUL DUP4 MSTORE SWAP2 PUSH1 0x20 ADD SWAP2 PUSH2 0xD88 JUMP JUMPDEST DUP3 ADD SWAP2 SWAP1 PUSH0 MSTORE PUSH1 0x20 PUSH0 KECCAK256 SWAP1 JUMPDEST DUP2 SLOAD DUP2 MSTORE SWAP1 PUSH1 0x1 ADD SWAP1 PUSH1 0x20 ADD DUP1 DUP4 GT PUSH2 0xD6B JUMPI DUP3 SWAP1 SUB PUSH1 0x1F AND DUP3 ADD SWAP2 JUMPDEST POP POP POP POP POP DUP2 MSTORE PUSH1 0x20 ADD PUSH1 0x1 DUP3 ADD DUP1 SLOAD PUSH2 0xDA1 SWAP1 PUSH2 0x306D JUMP JUMPDEST DUP1 PUSH1 0x1F ADD PUSH1 0x20 DUP1 SWAP2 DIV MUL PUSH1 0x20 ADD PUSH1 0x40 MLOAD SWAP1 DUP2 ADD PUSH1 0x40 MSTORE DUP1 SWAP3 SWAP2 SWAP1 DUP2 DUP2 MSTORE PUSH1 0x20 ADD DUP3 DUP1 SLOAD PUSH2 0xDCD SWAP1 PUSH2 0x306D JUMP JUMPDEST DUP1 ISZERO PUSH2 0xE18 JUMPI DUP1 PUSH1 0x1F LT PUSH2 0xDEF JUMPI PUSH2 0x100 DUP1 DUP4 SLOAD DIV MUL DUP4 MSTORE SWAP2 PUSH1 0x20 ADD SWAP2 PUSH2 0xE18 JUMP JUMPDEST DUP3 ADD SWAP2 SWAP1 PUSH0 MSTORE PUSH1 0x20 PUSH0 KECCAK256 SWAP1 JUMPDEST DUP2 SLOAD DUP2 MSTORE SWAP1 PUSH1 0x1 ADD SWAP1 PUSH1 0x20 ADD DUP1 DUP4 GT PUSH2 0xDFB JUMPI DUP3 SWAP1 SUB PUSH1 0x1F AND DUP3 ADD SWAP2 JUMPDEST POP POP POP POP POP DUP2 MSTORE POP POP SWAP1 POP PUSH2 0xE2C JUMP JUMPDEST PUSH0 DUP1 REVERT JUMPDEST SWAP2 SWAP1 POP JUMP JUMPDEST PUSH1 0x3 PUSH0 CALLER PUSH20 0xFFFFFFFFFFFFFFFFFFFFFFFFFFFFFFFFFFFFFFFF AND PUSH20 0xFFFFFFFFFFFFFFFFFFFFFFFFFFFFFFFFFFFFFFFF AND DUP2 MSTORE PUSH1 0x20 ADD SWAP1 DUP2 MSTORE PUSH1 0x20 ADD PUSH0 KECCAK256 PUSH0 SWAP1 SLOAD SWAP1 PUSH2 0x100 EXP SWAP1 DIV PUSH1 0xFF AND ISZERO DUP1 PUSH2 0xECD JUMPI POP PUSH1 0x2 PUSH0 CALLER PUSH20 0xFFFFFFFFFFFFFFFFFFFFFFFFFFFFFFFFFFFFFFFF AND PUSH20 0xFFFFFFFFFFFFFFFFFFFFFFFFFFFFFFFFFFFFFFFF AND DUP2 MSTORE PUSH1 0x20 ADD SWAP1 DUP2 MSTORE PUSH1 0x20 ADD PUSH0 KECCAK256 PUSH0 SWAP1 SLOAD SWAP1 PUSH2 0x100 EXP SWAP1 DIV PUSH1 0xFF AND JUMPDEST DUP1 PUSH2 0xF59 JUMPI POP PUSH1 0x9 PUSH0 CALLER PUSH20 0xFFFFFFFFFFFFFFFFFFFFFFFFFFFFFFFFFFFFFFFF AND PUSH20 0xFFFFFFFFFFFFFFFFFFFFFFFFFFFFFFFFFFFFFFFF AND DUP2 MSTORE PUSH1 0x20 ADD SWAP1 DUP2 MSTORE PUSH1 0x20 ADD PUSH0 KECCAK256 PUSH0 DUP3 PUSH20 0xFFFFFFFFFFFFFFFFFFFFFFFFFFFFFFFFFFFFFFFF AND PUSH20 0xFFFFFFFFFFFFFFFFFFFFFFFFFFFFFFFFFFFFFFFF AND DUP2 MSTORE PUSH1 0x20 ADD SWAP1 DUP2 MSTORE PUSH1 0x20 ADD PUSH0 KECCAK256 PUSH0 SWAP1 SLOAD SWAP1 PUSH2 0x100 EXP SWAP1 DIV PUSH1 0xFF AND JUMPDEST DUP1 PUSH2 0xFAB JUMPI POP PUSH1 0x2 PUSH0 DUP3 PUSH20 0xFFFFFFFFFFFFFFFFFFFFFFFFFFFFFFFFFFFFFFFF AND PUSH20 0xFFFFFFFFFFFFFFFFFFFFFFFFFFFFFFFFFFFFFFFF AND DUP2 MSTORE PUSH1 0x20 ADD SWAP1 DUP2 MSTORE PUSH1 0x20 ADD PUSH0 KECCAK256 PUSH0 SWAP1 SLOAD SWAP1 PUSH2 0x100 EXP SWAP1 DIV PUSH1 0xFF AND ISZERO JUMPDEST DUP1 PUSH2 0xFFC JUMPI POP PUSH1 0x3 PUSH0 DUP3 PUSH20 0xFFFFFFFFFFFFFFFFFFFFFFFFFFFFFFFFFFFFFFFF AND PUSH20 0xFFFFFFFFFFFFFFFFFFFFFFFFFFFFFFFFFFFFFFFF AND DUP2 MSTORE PUSH1 0x20 ADD SWAP1 DUP2 MSTORE PUSH1 0x20 ADD PUSH0 KECCAK256 PUSH0 SWAP1 SLOAD SWAP1 PUSH2 0x100 EXP SWAP1 DIV PUSH1 0xFF AND JUMPDEST ISZERO PUSH2 0x1005 JUMPI PUSH0 DUP1 REVERT JUMPDEST PUSH0 PUSH1 0x40 MLOAD DUP1 PUSH1 0x80 ADD PUSH1 0x40 MSTORE DUP1 PUSH1 0x1 SLOAD DUP2 MSTORE PUSH1 0x20 ADD CALLER PUSH20 0xFFFFFFFFFFFFFFFFFFFFFFFFFFFFFFFFFFFFFFFF AND DUP2 MSTORE PUSH1 0x20 ADD DUP4 PUSH20 0xFFFFFFFFFFFFFFFFFFFFFFFFFFFFFFFFFFFFFFFF AND DUP2 MSTORE PUSH1 0x20 ADD PUSH0 ISZERO ISZERO DUP2 MSTORE POP SWAP1 POP DUP1 PUSH1 0x4 PUSH0 PUSH1 0x1 SLOAD DUP2 MSTORE PUSH1 0x20 ADD SWAP1 DUP2 MSTORE PUSH1 0x20 ADD PUSH0 KECCAK256 PUSH0 DUP3 ADD MLOAD DUP2 PUSH0 ADD SSTORE PUSH1 0x20 DUP3 ADD MLOAD DUP2 PUSH1 0x1 ADD PUSH0 PUSH2 0x100 EXP DUP2 SLOAD DUP2 PUSH20 0xFFFFFFFFFFFFFFFFFFFFFFFFFFFFFFFFFFFFFFFF MUL NOT AND SWAP1 DUP4 PUSH20 0xFFFFFFFFFFFFFFFFFFFFFFFFFFFFFFFFFFFFFFFF AND MUL OR SWAP1 SSTORE POP PUSH1 0x40 DUP3 ADD MLOAD DUP2 PUSH1 0x2 ADD PUSH0 PUSH2 0x100 EXP DUP2 SLOAD DUP2 PUSH20 0xFFFFFFFFFFFFFFFFFFFFFFFFFFFFFFFFFFFFFFFF MUL NOT AND SWAP1 DUP4 PUSH20 0xFFFFFFFFFFFFFFFFFFFFFFFFFFFFFFFFFFFFFFFF AND MUL OR SWAP1 SSTORE POP PUSH1 0x60 DUP3 ADD MLOAD DUP2 PUSH1 0x2 ADD PUSH1 0x14 PUSH2 0x100 EXP DUP2 SLOAD DUP2 PUSH1 0xFF MUL NOT AND SWAP1 DUP4 ISZERO ISZERO MUL OR SWAP1 SSTORE POP SWAP1 POP POP PUSH1 0x6 PUSH0 CALLER PUSH20 0xFFFFFFFFFFFFFFFFFFFFFFFFFFFFFFFFFFFFFFFF AND PUSH20 0xFFFFFFFFFFFFFFFFFFFFFFFFFFFFFFFFFFFFFFFF AND DUP2 MSTORE PUSH1 0x20 ADD SWAP1 DUP2 MSTORE PUSH1 0x20 ADD PUSH0 KECCAK256 PUSH1 0x1 SLOAD SWAP1 DUP1 PUSH1 0x1 DUP2 SLOAD ADD DUP1 DUP3 SSTORE DUP1 SWAP2 POP POP PUSH1 0x1 SWAP1 SUB SWAP1 PUSH0 MSTORE PUSH1 0x20 PUSH0 KECCAK256 ADD PUSH0 SWAP1 SWAP2 SWAP1 SWAP2 SWAP1 SWAP2 POP SSTORE PUSH1 0x7 PUSH0 DUP4 PUSH20 0xFFFFFFFFFFFFFFFFFFFFFFFFFFFFFFFFFFFFFFFF AND PUSH20 0xFFFFFFFFFFFFFFFFFFFFFFFFFFFFFFFFFFFFFFFF AND DUP2 MSTORE PUSH1 0x20 ADD SWAP1 DUP2 MSTORE PUSH1 0x20 ADD PUSH0 KECCAK256 PUSH1 0x1 SLOAD SWAP1 DUP1 PUSH1 0x1 DUP2 SLOAD ADD DUP1 DUP3 SSTORE DUP1 SWAP2 POP POP PUSH1 0x1 SWAP1 SUB SWAP1 PUSH0 MSTORE PUSH1 0x20 PUSH0 KECCAK256 ADD PUSH0 SWAP1 SWAP2 SWAP1 SWAP2 SWAP1 SWAP2 POP SSTORE PUSH1 0x1 PUSH1 0x9 PUSH0 CALLER PUSH20 0xFFFFFFFFFFFFFFFFFFFFFFFFFFFFFFFFFFFFFFFF AND PUSH20 0xFFFFFFFFFFFFFFFFFFFFFFFFFFFFFFFFFFFFFFFF AND DUP2 MSTORE PUSH1 0x20 ADD SWAP1 DUP2 MSTORE PUSH1 0x20 ADD PUSH0 KECCAK256 PUSH0 DUP5 PUSH20 0xFFFFFFFFFFFFFFFFFFFFFFFFFFFFFFFFFFFFFFFF AND PUSH20 0xFFFFFFFFFFFFFFFFFFFFFFFFFFFFFFFFFFFFFFFF AND DUP2 MSTORE PUSH1 0x20 ADD SWAP1 DUP2 MSTORE PUSH1 0x20 ADD PUSH0 KECCAK256 PUSH0 PUSH2 0x100 EXP DUP2 SLOAD DUP2 PUSH1 0xFF MUL NOT AND SWAP1 DUP4 ISZERO ISZERO MUL OR SWAP1 SSTORE POP PUSH1 0x1 DUP1 PUSH0 DUP3 DUP3 SLOAD PUSH2 0x128B SWAP2 SWAP1 PUSH2 0x309D JUMP JUMPDEST SWAP3 POP POP DUP2 SWAP1 SSTORE POP POP POP JUMP JUMPDEST PUSH0 PUSH1 0x3 PUSH0 DUP4 PUSH20 0xFFFFFFFFFFFFFFFFFFFFFFFFFFFFFFFFFFFFFFFF AND PUSH20 0xFFFFFFFFFFFFFFFFFFFFFFFFFFFFFFFFFFFFFFFF AND DUP2 MSTORE PUSH1 0x20 ADD SWAP1 DUP2 MSTORE PUSH1 0x20 ADD PUSH0 KECCAK256 PUSH0 SWAP1 SLOAD SWAP1 PUSH2 0x100 EXP SWAP1 DIV PUSH1 0xFF AND SWAP1 POP SWAP2 SWAP1 POP JUMP JUMPDEST PUSH1 0x60 PUSH1 0x3 PUSH0 CALLER PUSH20 0xFFFFFFFFFFFFFFFFFFFFFFFFFFFFFFFFFFFFFFFF AND PUSH20 0xFFFFFFFFFFFFFFFFFFFFFFFFFFFFFFFFFFFFFFFF AND DUP2 MSTORE PUSH1 0x20 ADD SWAP1 DUP2 MSTORE PUSH1 0x20 ADD PUSH0 KECCAK256 PUSH0 SWAP1 SLOAD SWAP1 PUSH2 0x100 EXP SWAP1 DIV PUSH1 0xFF AND ISZERO PUSH2 0x1555 JUMPI PUSH0 PUSH1 0x6 PUSH0 CALLER PUSH20 0xFFFFFFFFFFFFFFFFFFFFFFFFFFFFFFFFFFFFFFFF AND PUSH20 0xFFFFFFFFFFFFFFFFFFFFFFFFFFFFFFFFFFFFFFFF AND DUP2 MSTORE PUSH1 0x20 ADD SWAP1 DUP2 MSTORE PUSH1 0x20 ADD PUSH0 KECCAK256 DUP1 SLOAD SWAP1 POP SWAP1 POP PUSH0 DUP2 PUSH8 0xFFFFFFFFFFFFFFFF DUP2 GT ISZERO PUSH2 0x1398 JUMPI PUSH2 0x1397 PUSH2 0x2D80 JUMP JUMPDEST JUMPDEST PUSH1 0x40 MLOAD SWAP1 DUP1 DUP3 MSTORE DUP1 PUSH1 0x20 MUL PUSH1 0x20 ADD DUP3 ADD PUSH1 0x40 MSTORE DUP1 ISZERO PUSH2 0x13D1 JUMPI DUP2 PUSH1 0x20 ADD JUMPDEST PUSH2 0x13BE PUSH2 0x27DC JUMP JUMPDEST DUP2 MSTORE PUSH1 0x20 ADD SWAP1 PUSH1 0x1 SWAP1 SUB SWAP1 DUP2 PUSH2 0x13B6 JUMPI SWAP1 POP JUMPDEST POP SWAP1 POP PUSH0 JUMPDEST DUP3 DUP2 LT ISZERO PUSH2 0x154A JUMPI PUSH1 0x4 PUSH0 PUSH1 0x6 PUSH0 CALLER PUSH20 0xFFFFFFFFFFFFFFFFFFFFFFFFFFFFFFFFFFFFFFFF AND PUSH20 0xFFFFFFFFFFFFFFFFFFFFFFFFFFFFFFFFFFFFFFFF AND DUP2 MSTORE PUSH1 0x20 ADD SWAP1 DUP2 MSTORE PUSH1 0x20 ADD PUSH0 KECCAK256 DUP4 DUP2 SLOAD DUP2 LT PUSH2 0x1430 JUMPI PUSH2 0x142F PUSH2 0x2F86 JUMP JUMPDEST JUMPDEST SWAP1 PUSH0 MSTORE PUSH1 0x20 PUSH0 KECCAK256 ADD SLOAD DUP2 MSTORE PUSH1 0x20 ADD SWAP1 DUP2 MSTORE PUSH1 0x20 ADD PUSH0 KECCAK256 PUSH1 0x40 MLOAD DUP1 PUSH1 0x80 ADD PUSH1 0x40 MSTORE SWAP1 DUP2 PUSH0 DUP3 ADD SLOAD DUP2 MSTORE PUSH1 0x20 ADD PUSH1 0x1 DUP3 ADD PUSH0 SWAP1 SLOAD SWAP1 PUSH2 0x100 EXP SWAP1 DIV PUSH20 0xFFFFFFFFFFFFFFFFFFFFFFFFFFFFFFFFFFFFFFFF AND PUSH20 0xFFFFFFFFFFFFFFFFFFFFFFFFFFFFFFFFFFFFFFFF AND PUSH20 0xFFFFFFFFFFFFFFFFFFFFFFFFFFFFFFFFFFFFFFFF AND DUP2 MSTORE PUSH1 0x20 ADD PUSH1 0x2 DUP3 ADD PUSH0 SWAP1 SLOAD SWAP1 PUSH2 0x100 EXP SWAP1 DIV PUSH20 0xFFFFFFFFFFFFFFFFFFFFFFFFFFFFFFFFFFFFFFFF AND PUSH20 0xFFFFFFFFFFFFFFFFFFFFFFFFFFFFFFFFFFFFFFFF AND PUSH20 0xFFFFFFFFFFFFFFFFFFFFFFFFFFFFFFFFFFFFFFFF AND DUP2 MSTORE PUSH1 0x20 ADD PUSH1 0x2 DUP3 ADD PUSH1 0x14 SWAP1 SLOAD SWAP1 PUSH2 0x100 EXP SWAP1 DIV PUSH1 0xFF AND ISZERO ISZERO ISZERO ISZERO DUP2 MSTORE POP POP DUP3 DUP3 DUP2 MLOAD DUP2 LT PUSH2 0x1532 JUMPI PUSH2 0x1531 PUSH2 0x2F86 JUMP JUMPDEST JUMPDEST PUSH1 0x20 MUL PUSH1 0x20 ADD ADD DUP2 SWAP1 MSTORE POP DUP1 DUP1 PUSH1 0x1 ADD SWAP2 POP POP PUSH2 0x13D6 JUMP JUMPDEST POP DUP1 SWAP3 POP POP POP PUSH2 0x17C4 JUMP JUMPDEST PUSH1 0x2 PUSH0 CALLER PUSH20 0xFFFFFFFFFFFFFFFFFFFFFFFFFFFFFFFFFFFFFFFF AND PUSH20 0xFFFFFFFFFFFFFFFFFFFFFFFFFFFFFFFFFFFFFFFF AND DUP2 MSTORE PUSH1 0x20 ADD SWAP1 DUP2 MSTORE PUSH1 0x20 ADD PUSH0 KECCAK256 PUSH0 SWAP1 SLOAD SWAP1 PUSH2 0x100 EXP SWAP1 DIV PUSH1 0xFF AND ISZERO PUSH2 0x17C0 JUMPI PUSH0 PUSH1 0x7 PUSH0 CALLER PUSH20 0xFFFFFFFFFFFFFFFFFFFFFFFFFFFFFFFFFFFFFFFF AND PUSH20 0xFFFFFFFFFFFFFFFFFFFFFFFFFFFFFFFFFFFFFFFF AND DUP2 MSTORE PUSH1 0x20 ADD SWAP1 DUP2 MSTORE PUSH1 0x20 ADD PUSH0 KECCAK256 DUP1 SLOAD SWAP1 POP SWAP1 POP PUSH0 DUP2 PUSH8 0xFFFFFFFFFFFFFFFF DUP2 GT ISZERO PUSH2 0x1603 JUMPI PUSH2 0x1602 PUSH2 0x2D80 JUMP JUMPDEST JUMPDEST PUSH1 0x40 MLOAD SWAP1 DUP1 DUP3 MSTORE DUP1 PUSH1 0x20 MUL PUSH1 0x20 ADD DUP3 ADD PUSH1 0x40 MSTORE DUP1 ISZERO PUSH2 0x163C JUMPI DUP2 PUSH1 0x20 ADD JUMPDEST PUSH2 0x1629 PUSH2 0x27DC JUMP JUMPDEST DUP2 MSTORE PUSH1 0x20 ADD SWAP1 PUSH1 0x1 SWAP1 SUB SWAP1 DUP2 PUSH2 0x1621 JUMPI SWAP1 POP JUMPDEST POP SWAP1 POP PUSH0 JUMPDEST DUP3 DUP2 LT ISZERO PUSH2 0x17B5 JUMPI PUSH1 0x4 PUSH0 PUSH1 0x7 PUSH0 CALLER PUSH20 0xFFFFFFFFFFFFFFFFFFFFFFFFFFFFFFFFFFFFFFFF AND PUSH20 0xFFFFFFFFFFFFFFFFFFFFFFFFFFFFFFFFFFFFFFFF AND DUP2 MSTORE PUSH1 0x20 ADD SWAP1 DUP2 MSTORE PUSH1 0x20 ADD PUSH0 KECCAK256 DUP4 DUP2 SLOAD DUP2 LT PUSH2 0x169B JUMPI PUSH2 0x169A PUSH2 0x2F86 JUMP JUMPDEST JUMPDEST SWAP1 PUSH0 MSTORE PUSH1 0x20 PUSH0 KECCAK256 ADD SLOAD DUP2 MSTORE PUSH1 0x20 ADD SWAP1 DUP2 MSTORE PUSH1 0x20 ADD PUSH0 KECCAK256 PUSH1 0x40 MLOAD DUP1 PUSH1 0x80 ADD PUSH1 0x40 MSTORE SWAP1 DUP2 PUSH0 DUP3 ADD SLOAD DUP2 MSTORE PUSH1 0x20 ADD PUSH1 0x1 DUP3 ADD PUSH0 SWAP1 SLOAD SWAP1 PUSH2 0x100 EXP SWAP1 DIV PUSH20 0xFFFFFFFFFFFFFFFFFFFFFFFFFFFFFFFFFFFFFFFF AND PUSH20 0xFFFFFFFFFFFFFFFFFFFFFFFFFFFFFFFFFFFFFFFF AND PUSH20 0xFFFFFFFFFFFFFFFFFFFFFFFFFFFFFFFFFFFFFFFF AND DUP2 MSTORE PUSH1 0x20 ADD PUSH1 0x2 DUP3 ADD PUSH0 SWAP1 SLOAD SWAP1 PUSH2 0x100 EXP SWAP1 DIV PUSH20 0xFFFFFFFFFFFFFFFFFFFFFFFFFFFFFFFFFFFFFFFF AND PUSH20 0xFFFFFFFFFFFFFFFFFFFFFFFFFFFFFFFFFFFFFFFF AND PUSH20 0xFFFFFFFFFFFFFFFFFFFFFFFFFFFFFFFFFFFFFFFF AND DUP2 MSTORE PUSH1 0x20 ADD PUSH1 0x2 DUP3 ADD PUSH1 0x14 SWAP1 SLOAD SWAP1 PUSH2 0x100 EXP SWAP1 DIV PUSH1 0xFF AND ISZERO ISZERO ISZERO ISZERO DUP2 MSTORE POP POP DUP3 DUP3 DUP2 MLOAD DUP2 LT PUSH2 0x179D JUMPI PUSH2 0x179C PUSH2 0x2F86 JUMP JUMPDEST JUMPDEST PUSH1 0x20 MUL PUSH1 0x20 ADD ADD DUP2 SWAP1 MSTORE POP DUP1 DUP1 PUSH1 0x1 ADD SWAP2 POP POP PUSH2 0x1641 JUMP JUMPDEST POP DUP1 SWAP3 POP POP POP PUSH2 0x17C4 JUMP JUMPDEST PUSH0 DUP1 REVERT JUMPDEST SWAP1 JUMP JUMPDEST DUP1 PUSH0 DUP1 PUSH2 0x100 EXP DUP2 SLOAD DUP2 PUSH20 0xFFFFFFFFFFFFFFFFFFFFFFFFFFFFFFFFFFFFFFFF MUL NOT AND SWAP1 DUP4 PUSH20 0xFFFFFFFFFFFFFFFFFFFFFFFFFFFFFFFFFFFFFFFF AND MUL OR SWAP1 SSTORE POP POP JUMP JUMPDEST PUSH1 0x60 PUSH1 0x2 PUSH0 DUP4 PUSH20 0xFFFFFFFFFFFFFFFFFFFFFFFFFFFFFFFFFFFFFFFF AND PUSH20 0xFFFFFFFFFFFFFFFFFFFFFFFFFFFFFFFFFFFFFFFF AND DUP2 MSTORE PUSH1 0x20 ADD SWAP1 DUP2 MSTORE PUSH1 0x20 ADD PUSH0 KECCAK256 PUSH0 SWAP1 SLOAD SWAP1 PUSH2 0x100 EXP SWAP1 DIV PUSH1 0xFF AND PUSH2 0x185D JUMPI PUSH0 DUP1 REVERT JUMPDEST PUSH1 0xB PUSH0 DUP4 PUSH20 0xFFFFFFFFFFFFFFFFFFFFFFFFFFFFFFFFFFFFFFFF AND PUSH20 0xFFFFFFFFFFFFFFFFFFFFFFFFFFFFFFFFFFFFFFFF AND DUP2 MSTORE PUSH1 0x20 ADD SWAP1 DUP2 MSTORE PUSH1 0x20 ADD PUSH0 KECCAK256 DUP1 SLOAD DUP1 PUSH1 0x20 MUL PUSH1 0x20 ADD PUSH1 0x40 MLOAD SWAP1 DUP2 ADD PUSH1 0x40 MSTORE DUP1 SWAP3 SWAP2 SWAP1 DUP2 DUP2 MSTORE PUSH1 0x20 ADD DUP3 DUP1 SLOAD DUP1 ISZERO PUSH2 0x1917 JUMPI PUSH1 0x20 MUL DUP3 ADD SWAP2 SWAP1 PUSH0 MSTORE PUSH1 0x20 PUSH0 KECCAK256 SWAP1 JUMPDEST DUP2 PUSH0 SWAP1 SLOAD SWAP1 PUSH2 0x100 EXP SWAP1 DIV PUSH20 0xFFFFFFFFFFFFFFFFFFFFFFFFFFFFFFFFFFFFFFFF AND PUSH20 0xFFFFFFFFFFFFFFFFFFFFFFFFFFFFFFFFFFFFFFFF AND DUP2 MSTORE PUSH1 0x20 ADD SWAP1 PUSH1 0x1 ADD SWAP1 DUP1 DUP4 GT PUSH2 0x18CE JUMPI JUMPDEST POP POP POP POP POP SWAP1 POP SWAP2 SWAP1 POP JUMP JUMPDEST PUSH0 PUSH1 0x1 SLOAD DUP3 LT ISZERO DUP1 PUSH2 0x197C JUMPI POP PUSH1 0x2 PUSH0 CALLER PUSH20 0xFFFFFFFFFFFFFFFFFFFFFFFFFFFFFFFFFFFFFFFF AND PUSH20 0xFFFFFFFFFFFFFFFFFFFFFFFFFFFFFFFFFFFFFFFF AND DUP2 MSTORE PUSH1 0x20 ADD SWAP1 DUP2 MSTORE PUSH1 0x20 ADD PUSH0 KECCAK256 PUSH0 SWAP1 SLOAD SWAP1 PUSH2 0x100 EXP SWAP1 DIV PUSH1 0xFF AND ISZERO JUMPDEST DUP1 PUSH2 0x19CD JUMPI POP PUSH1 0x3 PUSH0 CALLER PUSH20 0xFFFFFFFFFFFFFFFFFFFFFFFFFFFFFFFFFFFFFFFF AND PUSH20 0xFFFFFFFFFFFFFFFFFFFFFFFFFFFFFFFFFFFFFFFF AND DUP2 MSTORE PUSH1 0x20 ADD SWAP1 DUP2 MSTORE PUSH1 0x20 ADD PUSH0 KECCAK256 PUSH0 SWAP1 SLOAD SWAP1 PUSH2 0x100 EXP SWAP1 DIV PUSH1 0xFF AND JUMPDEST ISZERO PUSH2 0x1A04 JUMPI PUSH1 0x40 MLOAD PUSH32 0xC1F4106E00000000000000000000000000000000000000000000000000000000 DUP2 MSTORE PUSH1 0x4 ADD PUSH1 0x40 MLOAD DUP1 SWAP2 SUB SWAP1 REVERT JUMPDEST PUSH0 PUSH1 0x4 PUSH0 DUP5 DUP2 MSTORE PUSH1 0x20 ADD SWAP1 DUP2 MSTORE PUSH1 0x20 ADD PUSH0 KECCAK256 PUSH1 0x40 MLOAD DUP1 PUSH1 0x80 ADD PUSH1 0x40 MSTORE SWAP1 DUP2 PUSH0 DUP3 ADD SLOAD DUP2 MSTORE PUSH1 0x20 ADD PUSH1 0x1 DUP3 ADD PUSH0 SWAP1 SLOAD SWAP1 PUSH2 0x100 EXP SWAP1 DIV PUSH20 0xFFFFFFFFFFFFFFFFFFFFFFFFFFFFFFFFFFFFFFFF AND PUSH20 0xFFFFFFFFFFFFFFFFFFFFFFFFFFFFFFFFFFFFFFFF AND PUSH20 0xFFFFFFFFFFFFFFFFFFFFFFFFFFFFFFFFFFFFFFFF AND DUP2 MSTORE PUSH1 0x20 ADD PUSH1 0x2 DUP3 ADD PUSH0 SWAP1 SLOAD SWAP1 PUSH2 0x100 EXP SWAP1 DIV PUSH20 0xFFFFFFFFFFFFFFFFFFFFFFFFFFFFFFFFFFFFFFFF AND PUSH20 0xFFFFFFFFFFFFFFFFFFFFFFFFFFFFFFFFFFFFFFFF AND PUSH20 0xFFFFFFFFFFFFFFFFFFFFFFFFFFFFFFFFFFFFFFFF AND DUP2 MSTORE PUSH1 0x20 ADD PUSH1 0x2 DUP3 ADD PUSH1 0x14 SWAP1 SLOAD SWAP1 PUSH2 0x100 EXP SWAP1 DIV PUSH1 0xFF AND ISZERO ISZERO ISZERO ISZERO DUP2 MSTORE POP POP SWAP1 POP PUSH1 0x3 PUSH0 DUP3 PUSH1 0x20 ADD MLOAD PUSH20 0xFFFFFFFFFFFFFFFFFFFFFFFFFFFFFFFFFFFFFFFF AND PUSH20 0xFFFFFFFFFFFFFFFFFFFFFFFFFFFFFFFFFFFFFFFF AND DUP2 MSTORE PUSH1 0x20 ADD SWAP1 DUP2 MSTORE PUSH1 0x20 ADD PUSH0 KECCAK256 PUSH0 SWAP1 SLOAD SWAP1 PUSH2 0x100 EXP SWAP1 DIV PUSH1 0xFF AND ISZERO DUP1 PUSH2 0x1B96 JUMPI POP PUSH1 0x2 PUSH0 DUP3 PUSH1 0x40 ADD MLOAD PUSH20 0xFFFFFFFFFFFFFFFFFFFFFFFFFFFFFFFFFFFFFFFF AND PUSH20 0xFFFFFFFFFFFFFFFFFFFFFFFFFFFFFFFFFFFFFFFF AND DUP2 MSTORE PUSH1 0x20 ADD SWAP1 DUP2 MSTORE PUSH1 0x20 ADD PUSH0 KECCAK256 PUSH0 SWAP1 SLOAD SWAP1 PUSH2 0x100 EXP SWAP1 DIV PUSH1 0xFF AND ISZERO JUMPDEST DUP1 PUSH2 0x1BA2 JUMPI POP DUP1 PUSH1 0x60 ADD MLOAD JUMPDEST ISZERO PUSH2 0x1BD9 JUMPI PUSH1 0x40 MLOAD PUSH32 0xC1F4106E00000000000000000000000000000000000000000000000000000000 DUP2 MSTORE PUSH1 0x4 ADD PUSH1 0x40 MLOAD DUP1 SWAP2 SUB SWAP1 REVERT JUMPDEST PUSH0 DUP1 PUSH1 0x7 PUSH0 CALLER PUSH20 0xFFFFFFFFFFFFFFFFFFFFFFFFFFFFFFFFFFFFFFFF AND PUSH20 0xFFFFFFFFFFFFFFFFFFFFFFFFFFFFFFFFFFFFFFFF AND DUP2 MSTORE PUSH1 0x20 ADD SWAP1 DUP2 MSTORE PUSH1 0x20 ADD PUSH0 KECCAK256 DUP1 SLOAD SWAP1 POP SWAP1 POP PUSH0 DUP1 JUMPDEST DUP3 DUP2 LT ISZERO PUSH2 0x1CA0 JUMPI PUSH1 0x7 PUSH0 CALLER PUSH20 0xFFFFFFFFFFFFFFFFFFFFFFFFFFFFFFFFFFFFFFFF AND PUSH20 0xFFFFFFFFFFFFFFFFFFFFFFFFFFFFFFFFFFFFFFFF AND DUP2 MSTORE PUSH1 0x20 ADD SWAP1 DUP2 MSTORE PUSH1 0x20 ADD PUSH0 KECCAK256 DUP2 DUP2 SLOAD DUP2 LT PUSH2 0x1C78 JUMPI PUSH2 0x1C77 PUSH2 0x2F86 JUMP JUMPDEST JUMPDEST SWAP1 PUSH0 MSTORE PUSH1 0x20 PUSH0 KECCAK256 ADD SLOAD DUP8 SUB PUSH2 0x1C93 JUMPI DUP1 SWAP4 POP PUSH1 0x1 SWAP2 POP PUSH2 0x1CA0 JUMP JUMPDEST DUP1 DUP1 PUSH1 0x1 ADD SWAP2 POP POP PUSH2 0x1C21 JUMP JUMPDEST POP DUP1 PUSH2 0x1CD8 JUMPI PUSH1 0x40 MLOAD PUSH32 0xC1F4106E00000000000000000000000000000000000000000000000000000000 DUP2 MSTORE PUSH1 0x4 ADD PUSH1 0x40 MLOAD DUP1 SWAP2 SUB SWAP1 REVERT JUMPDEST PUSH1 0x7 PUSH0 CALLER PUSH20 0xFFFFFFFFFFFFFFFFFFFFFFFFFFFFFFFFFFFFFFFF AND PUSH20 0xFFFFFFFFFFFFFFFFFFFFFFFFFFFFFFFFFFFFFFFF AND DUP2 MSTORE PUSH1 0x20 ADD SWAP1 DUP2 MSTORE PUSH1 0x20 ADD PUSH0 KECCAK256 PUSH1 0x1 DUP4 PUSH2 0x1D22 SWAP2 SWAP1 PUSH2 0x2FE0 JUMP JUMPDEST DUP2 SLOAD DUP2 LT PUSH2 0x1D33 JUMPI PUSH2 0x1D32 PUSH2 0x2F86 JUMP JUMPDEST JUMPDEST SWAP1 PUSH0 MSTORE PUSH1 0x20 PUSH0 KECCAK256 ADD SLOAD PUSH1 0x7 PUSH0 CALLER PUSH20 0xFFFFFFFFFFFFFFFFFFFFFFFFFFFFFFFFFFFFFFFF AND PUSH20 0xFFFFFFFFFFFFFFFFFFFFFFFFFFFFFFFFFFFFFFFF AND DUP2 MSTORE PUSH1 0x20 ADD SWAP1 DUP2 MSTORE PUSH1 0x20 ADD PUSH0 KECCAK256 DUP5 DUP2 SLOAD DUP2 LT PUSH2 0x1D8B JUMPI PUSH2 0x1D8A PUSH2 0x2F86 JUMP JUMPDEST JUMPDEST SWAP1 PUSH0 MSTORE PUSH1 0x20 PUSH0 KECCAK256 ADD DUP2 SWAP1 SSTORE POP PUSH1 0x7 PUSH0 CALLER PUSH20 0xFFFFFFFFFFFFFFFFFFFFFFFFFFFFFFFFFFFFFFFF AND PUSH20 0xFFFFFFFFFFFFFFFFFFFFFFFFFFFFFFFFFFFFFFFF AND DUP2 MSTORE PUSH1 0x20 ADD SWAP1 DUP2 MSTORE PUSH1 0x20 ADD PUSH0 KECCAK256 DUP1 SLOAD DUP1 PUSH2 0x1DE4 JUMPI PUSH2 0x1DE3 PUSH2 0x3013 JUMP JUMPDEST JUMPDEST PUSH1 0x1 SWAP1 SUB DUP2 DUP2 SWAP1 PUSH0 MSTORE PUSH1 0x20 PUSH0 KECCAK256 ADD PUSH0 SWAP1 SSTORE SWAP1 SSTORE PUSH0 DUP1 PUSH1 0x6 PUSH0 DUP8 PUSH1 0x20 ADD MLOAD PUSH20 0xFFFFFFFFFFFFFFFFFFFFFFFFFFFFFFFFFFFFFFFF AND PUSH20 0xFFFFFFFFFFFFFFFFFFFFFFFFFFFFFFFFFFFFFFFF AND DUP2 MSTORE PUSH1 0x20 ADD SWAP1 DUP2 MSTORE PUSH1 0x20 ADD PUSH0 KECCAK256 DUP1 SLOAD SWAP1 POP SWAP1 POP PUSH0 JUMPDEST DUP2 DUP2 LT ISZERO PUSH2 0x1EC1 JUMPI PUSH1 0x6 PUSH0 DUP9 PUSH1 0x20 ADD MLOAD PUSH20 0xFFFFFFFFFFFFFFFFFFFFFFFFFFFFFFFFFFFFFFFF AND PUSH20 0xFFFFFFFFFFFFFFFFFFFFFFFFFFFFFFFFFFFFFFFF AND DUP2 MSTORE PUSH1 0x20 ADD SWAP1 DUP2 MSTORE PUSH1 0x20 ADD PUSH0 KECCAK256 DUP2 DUP2 SLOAD DUP2 LT PUSH2 0x1E9D JUMPI PUSH2 0x1E9C PUSH2 0x2F86 JUMP JUMPDEST JUMPDEST SWAP1 PUSH0 MSTORE PUSH1 0x20 PUSH0 KECCAK256 ADD SLOAD DUP10 SUB PUSH2 0x1EB4 JUMPI DUP1 SWAP3 POP PUSH2 0x1EC1 JUMP JUMPDEST DUP1 DUP1 PUSH1 0x1 ADD SWAP2 POP POP PUSH2 0x1E42 JUMP JUMPDEST POP PUSH1 0x6 PUSH0 DUP8 PUSH1 0x20 ADD MLOAD PUSH20 0xFFFFFFFFFFFFFFFFFFFFFFFFFFFFFFFFFFFFFFFF AND PUSH20 0xFFFFFFFFFFFFFFFFFFFFFFFFFFFFFFFFFFFFFFFF AND DUP2 MSTORE PUSH1 0x20 ADD SWAP1 DUP2 MSTORE PUSH1 0x20 ADD PUSH0 KECCAK256 PUSH1 0x1 DUP3 PUSH2 0x1F10 SWAP2 SWAP1 PUSH2 0x2FE0 JUMP JUMPDEST DUP2 SLOAD DUP2 LT PUSH2 0x1F21 JUMPI PUSH2 0x1F20 PUSH2 0x2F86 JUMP JUMPDEST JUMPDEST SWAP1 PUSH0 MSTORE PUSH1 0x20 PUSH0 KECCAK256 ADD SLOAD PUSH1 0x6 PUSH0 DUP9 PUSH1 0x20 ADD MLOAD PUSH20 0xFFFFFFFFFFFFFFFFFFFFFFFFFFFFFFFFFFFFFFFF AND PUSH20 0xFFFFFFFFFFFFFFFFFFFFFFFFFFFFFFFFFFFFFFFF AND DUP2 MSTORE PUSH1 0x20 ADD SWAP1 DUP2 MSTORE PUSH1 0x20 ADD PUSH0 KECCAK256 DUP4 DUP2 SLOAD DUP2 LT PUSH2 0x1F7D JUMPI PUSH2 0x1F7C PUSH2 0x2F86 JUMP JUMPDEST JUMPDEST SWAP1 PUSH0 MSTORE PUSH1 0x20 PUSH0 KECCAK256 ADD DUP2 SWAP1 SSTORE POP PUSH1 0x6 PUSH0 DUP8 PUSH1 0x20 ADD MLOAD PUSH20 0xFFFFFFFFFFFFFFFFFFFFFFFFFFFFFFFFFFFFFFFF AND PUSH20 0xFFFFFFFFFFFFFFFFFFFFFFFFFFFFFFFFFFFFFFFF AND DUP2 MSTORE PUSH1 0x20 ADD SWAP1 DUP2 MSTORE PUSH1 0x20 ADD PUSH0 KECCAK256 DUP1 SLOAD DUP1 PUSH2 0x1FDA JUMPI PUSH2 0x1FD9 PUSH2 0x3013 JUMP JUMPDEST JUMPDEST PUSH1 0x1 SWAP1 SUB DUP2 DUP2 SWAP1 PUSH0 MSTORE PUSH1 0x20 PUSH0 KECCAK256 ADD PUSH0 SWAP1 SSTORE SWAP1 SSTORE PUSH1 0x1 PUSH1 0x8 PUSH0 DUP9 PUSH1 0x20 ADD MLOAD PUSH20 0xFFFFFFFFFFFFFFFFFFFFFFFFFFFFFFFFFFFFFFFF AND PUSH20 0xFFFFFFFFFFFFFFFFFFFFFFFFFFFFFFFFFFFFFFFF AND DUP2 MSTORE PUSH1 0x20 ADD SWAP1 DUP2 MSTORE PUSH1 0x20 ADD PUSH0 KECCAK256 PUSH0 DUP9 PUSH1 0x40 ADD MLOAD PUSH20 0xFFFFFFFFFFFFFFFFFFFFFFFFFFFFFFFFFFFFFFFF AND PUSH20 0xFFFFFFFFFFFFFFFFFFFFFFFFFFFFFFFFFFFFFFFF AND DUP2 MSTORE PUSH1 0x20 ADD SWAP1 DUP2 MSTORE PUSH1 0x20 ADD PUSH0 KECCAK256 PUSH0 PUSH2 0x100 EXP DUP2 SLOAD DUP2 PUSH1 0xFF MUL NOT AND SWAP1 DUP4 ISZERO ISZERO MUL OR SWAP1 SSTORE POP PUSH1 0xA PUSH0 DUP8 PUSH1 0x20 ADD MLOAD PUSH20 0xFFFFFFFFFFFFFFFFFFFFFFFFFFFFFFFFFFFFFFFF AND PUSH20 0xFFFFFFFFFFFFFFFFFFFFFFFFFFFFFFFFFFFFFFFF AND DUP2 MSTORE PUSH1 0x20 ADD SWAP1 DUP2 MSTORE PUSH1 0x20 ADD PUSH0 KECCAK256 DUP7 PUSH1 0x40 ADD MLOAD SWAP1 DUP1 PUSH1 0x1 DUP2 SLOAD ADD DUP1 DUP3 SSTORE DUP1 SWAP2 POP POP PUSH1 0x1 SWAP1 SUB SWAP1 PUSH0 MSTORE PUSH1 0x20 PUSH0 KECCAK256 ADD PUSH0 SWAP1 SWAP2 SWAP1 SWAP2 SWAP1 SWAP2 PUSH2 0x100 EXP DUP2 SLOAD DUP2 PUSH20 0xFFFFFFFFFFFFFFFFFFFFFFFFFFFFFFFFFFFFFFFF MUL NOT AND SWAP1 DUP4 PUSH20 0xFFFFFFFFFFFFFFFFFFFFFFFFFFFFFFFFFFFFFFFF AND MUL OR SWAP1 SSTORE POP PUSH1 0xB PUSH0 DUP8 PUSH1 0x40 ADD MLOAD PUSH20 0xFFFFFFFFFFFFFFFFFFFFFFFFFFFFFFFFFFFFFFFF AND PUSH20 0xFFFFFFFFFFFFFFFFFFFFFFFFFFFFFFFFFFFFFFFF AND DUP2 MSTORE PUSH1 0x20 ADD SWAP1 DUP2 MSTORE PUSH1 0x20 ADD PUSH0 KECCAK256 DUP7 PUSH1 0x20 ADD MLOAD SWAP1 DUP1 PUSH1 0x1 DUP2 SLOAD ADD DUP1 DUP3 SSTORE DUP1 SWAP2 POP POP PUSH1 0x1 SWAP1 SUB SWAP1 PUSH0 MSTORE PUSH1 0x20 PUSH0 KECCAK256 ADD PUSH0 SWAP1 SWAP2 SWAP1 SWAP2 SWAP1 SWAP2 PUSH2 0x100 EXP DUP2 SLOAD DUP2 PUSH20 0xFFFFFFFFFFFFFFFFFFFFFFFFFFFFFFFFFFFFFFFF MUL NOT AND SWAP1 DUP4 PUSH20 0xFFFFFFFFFFFFFFFFFFFFFFFFFFFFFFFFFFFFFFFF AND MUL OR SWAP1 SSTORE POP PUSH0 SWAP7 POP POP POP POP POP POP POP SWAP2 SWAP1 POP JUMP JUMPDEST PUSH0 DUP1 SLOAD SWAP1 PUSH2 0x100 EXP SWAP1 DIV PUSH20 0xFFFFFFFFFFFFFFFFFFFFFFFFFFFFFFFFFFFFFFFF AND DUP2 JUMP JUMPDEST PUSH1 0x2 PUSH0 CALLER PUSH20 0xFFFFFFFFFFFFFFFFFFFFFFFFFFFFFFFFFFFFFFFF AND PUSH20 0xFFFFFFFFFFFFFFFFFFFFFFFFFFFFFFFFFFFFFFFF AND DUP2 MSTORE PUSH1 0x20 ADD SWAP1 DUP2 MSTORE PUSH1 0x20 ADD PUSH0 KECCAK256 PUSH0 SWAP1 SLOAD SWAP1 PUSH2 0x100 EXP SWAP1 DIV PUSH1 0xFF AND DUP1 PUSH2 0x2297 JUMPI POP PUSH1 0x3 PUSH0 CALLER PUSH20 0xFFFFFFFFFFFFFFFFFFFFFFFFFFFFFFFFFFFFFFFF AND PUSH20 0xFFFFFFFFFFFFFFFFFFFFFFFFFFFFFFFFFFFFFFFF AND DUP2 MSTORE PUSH1 0x20 ADD SWAP1 DUP2 MSTORE PUSH1 0x20 ADD PUSH0 KECCAK256 PUSH0 SWAP1 SLOAD SWAP1 PUSH2 0x100 EXP SWAP1 DIV PUSH1 0xFF AND JUMPDEST ISZERO PUSH2 0x22CE JUMPI PUSH1 0x40 MLOAD PUSH32 0x80EC519700000000000000000000000000000000000000000000000000000000 DUP2 MSTORE PUSH1 0x4 ADD PUSH1 0x40 MLOAD DUP1 SWAP2 SUB SWAP1 REVERT JUMPDEST PUSH1 0x40 MLOAD DUP1 PUSH1 0x40 ADD PUSH1 0x40 MSTORE DUP1 DUP3 DUP2 MSTORE PUSH1 0x20 ADD DUP4 DUP2 MSTORE POP PUSH1 0x5 PUSH0 CALLER PUSH20 0xFFFFFFFFFFFFFFFFFFFFFFFFFFFFFFFFFFFFFFFF AND PUSH20 0xFFFFFFFFFFFFFFFFFFFFFFFFFFFFFFFFFFFFFFFF AND DUP2 MSTORE PUSH1 0x20 ADD SWAP1 DUP2 MSTORE PUSH1 0x20 ADD PUSH0 KECCAK256 PUSH0 DUP3 ADD MLOAD DUP2 PUSH0 ADD SWAP1 DUP2 PUSH2 0x2333 SWAP2 SWAP1 PUSH2 0x3264 JUMP JUMPDEST POP PUSH1 0x20 DUP3 ADD MLOAD DUP2 PUSH1 0x1 ADD SWAP1 DUP2 PUSH2 0x2349 SWAP2 SWAP1 PUSH2 0x3264 JUMP JUMPDEST POP SWAP1 POP POP PUSH1 0x1 PUSH1 0x2 PUSH0 CALLER PUSH20 0xFFFFFFFFFFFFFFFFFFFFFFFFFFFFFFFFFFFFFFFF AND PUSH20 0xFFFFFFFFFFFFFFFFFFFFFFFFFFFFFFFFFFFFFFFF AND DUP2 MSTORE PUSH1 0x20 ADD SWAP1 DUP2 MSTORE PUSH1 0x20 ADD PUSH0 KECCAK256 PUSH0 PUSH2 0x100 EXP DUP2 SLOAD DUP2 PUSH1 0xFF MUL NOT AND SWAP1 DUP4 ISZERO ISZERO MUL OR SWAP1 SSTORE POP POP POP JUMP JUMPDEST PUSH2 0x23AE PUSH2 0x27DC JUMP JUMPDEST PUSH1 0x1 SLOAD DUP3 LT PUSH2 0x23BB JUMPI PUSH0 DUP1 REVERT JUMPDEST PUSH1 0x4 PUSH0 DUP4 DUP2 MSTORE PUSH1 0x20 ADD SWAP1 DUP2 MSTORE PUSH1 0x20 ADD PUSH0 KECCAK256 PUSH1 0x40 MLOAD DUP1 PUSH1 0x80 ADD PUSH1 0x40 MSTORE SWAP1 DUP2 PUSH0 DUP3 ADD SLOAD DUP2 MSTORE PUSH1 0x20 ADD PUSH1 0x1 DUP3 ADD PUSH0 SWAP1 SLOAD SWAP1 PUSH2 0x100 EXP SWAP1 DIV PUSH20 0xFFFFFFFFFFFFFFFFFFFFFFFFFFFFFFFFFFFFFFFF AND PUSH20 0xFFFFFFFFFFFFFFFFFFFFFFFFFFFFFFFFFFFFFFFF AND PUSH20 0xFFFFFFFFFFFFFFFFFFFFFFFFFFFFFFFFFFFFFFFF AND DUP2 MSTORE PUSH1 0x20 ADD PUSH1 0x2 DUP3 ADD PUSH0 SWAP1 SLOAD SWAP1 PUSH2 0x100 EXP SWAP1 DIV PUSH20 0xFFFFFFFFFFFFFFFFFFFFFFFFFFFFFFFFFFFFFFFF AND PUSH20 0xFFFFFFFFFFFFFFFFFFFFFFFFFFFFFFFFFFFFFFFF AND PUSH20 0xFFFFFFFFFFFFFFFFFFFFFFFFFFFFFFFFFFFFFFFF AND DUP2 MSTORE PUSH1 0x20 ADD PUSH1 0x2 DUP3 ADD PUSH1 0x14 SWAP1 SLOAD SWAP1 PUSH2 0x100 EXP SWAP1 DIV PUSH1 0xFF AND ISZERO ISZERO ISZERO ISZERO DUP2 MSTORE POP POP SWAP1 POP SWAP2 SWAP1 POP JUMP JUMPDEST PUSH1 0x60 PUSH1 0x3 PUSH0 DUP4 PUSH20 0xFFFFFFFFFFFFFFFFFFFFFFFFFFFFFFFFFFFFFFFF AND PUSH20 0xFFFFFFFFFFFFFFFFFFFFFFFFFFFFFFFFFFFFFFFF AND DUP2 MSTORE PUSH1 0x20 ADD SWAP1 DUP2 MSTORE PUSH1 0x20 ADD PUSH0 KECCAK256 PUSH0 SWAP1 SLOAD SWAP1 PUSH2 0x100 EXP SWAP1 DIV PUSH1 0xFF AND PUSH2 0x2500 JUMPI PUSH0 DUP1 REVERT JUMPDEST PUSH1 0xA PUSH0 DUP4 PUSH20 0xFFFFFFFFFFFFFFFFFFFFFFFFFFFFFFFFFFFFFFFF AND PUSH20 0xFFFFFFFFFFFFFFFFFFFFFFFFFFFFFFFFFFFFFFFF AND DUP2 MSTORE PUSH1 0x20 ADD SWAP1 DUP2 MSTORE PUSH1 0x20 ADD PUSH0 KECCAK256 DUP1 SLOAD DUP1 PUSH1 0x20 MUL PUSH1 0x20 ADD PUSH1 0x40 MLOAD SWAP1 DUP2 ADD PUSH1 0x40 MSTORE DUP1 SWAP3 SWAP2 SWAP1 DUP2 DUP2 MSTORE PUSH1 0x20 ADD DUP3 DUP1 SLOAD DUP1 ISZERO PUSH2 0x25BA JUMPI PUSH1 0x20 MUL DUP3 ADD SWAP2 SWAP1 PUSH0 MSTORE PUSH1 0x20 PUSH0 KECCAK256 SWAP1 JUMPDEST DUP2 PUSH0 SWAP1 SLOAD SWAP1 PUSH2 0x100 EXP SWAP1 DIV PUSH20 0xFFFFFFFFFFFFFFFFFFFFFFFFFFFFFFFFFFFFFFFF AND PUSH20 0xFFFFFFFFFFFFFFFFFFFFFFFFFFFFFFFFFFFFFFFF AND DUP2 MSTORE PUSH1 0x20 ADD SWAP1 PUSH1 0x1 ADD SWAP1 DUP1 DUP4 GT PUSH2 0x2571 JUMPI JUMPDEST POP POP POP POP POP SWAP1 POP SWAP2 SWAP1 POP JUMP JUMPDEST PUSH0 PUSH1 0x2 PUSH0 DUP4 PUSH20 0xFFFFFFFFFFFFFFFFFFFFFFFFFFFFFFFFFFFFFFFF AND PUSH20 0xFFFFFFFFFFFFFFFFFFFFFFFFFFFFFFFFFFFFFFFF AND DUP2 MSTORE PUSH1 0x20 ADD SWAP1 DUP2 MSTORE PUSH1 0x20 ADD PUSH0 KECCAK256 PUSH0 SWAP1 SLOAD SWAP1 PUSH2 0x100 EXP SWAP1 DIV PUSH1 0xFF AND SWAP1 POP SWAP2 SWAP1 POP JUMP JUMPDEST PUSH1 0x2 PUSH0 CALLER PUSH20 0xFFFFFFFFFFFFFFFFFFFFFFFFFFFFFFFFFFFFFFFF AND PUSH20 0xFFFFFFFFFFFFFFFFFFFFFFFFFFFFFFFFFFFFFFFF AND DUP2 MSTORE PUSH1 0x20 ADD SWAP1 DUP2 MSTORE PUSH1 0x20 ADD PUSH0 KECCAK256 PUSH0 SWAP1 SLOAD SWAP1 PUSH2 0x100 EXP SWAP1 DIV PUSH1 0xFF AND DUP1 PUSH2 0x26B3 JUMPI POP PUSH1 0x3 PUSH0 CALLER PUSH20 0xFFFFFFFFFFFFFFFFFFFFFFFFFFFFFFFFFFFFFFFF AND PUSH20 0xFFFFFFFFFFFFFFFFFFFFFFFFFFFFFFFFFFFFFFFF AND DUP2 MSTORE PUSH1 0x20 ADD SWAP1 DUP2 MSTORE PUSH1 0x20 ADD PUSH0 KECCAK256 PUSH0 SWAP1 SLOAD SWAP1 PUSH2 0x100 EXP SWAP1 DIV PUSH1 0xFF AND JUMPDEST ISZERO PUSH2 0x26EA JUMPI PUSH1 0x40 MLOAD PUSH32 0x80EC519700000000000000000000000000000000000000000000000000000000 DUP2 MSTORE PUSH1 0x4 ADD PUSH1 0x40 MLOAD DUP1 SWAP2 SUB SWAP1 REVERT JUMPDEST PUSH1 0x40 MLOAD DUP1 PUSH1 0x40 ADD PUSH1 0x40 MSTORE DUP1 DUP3 DUP2 MSTORE PUSH1 0x20 ADD DUP4 DUP2 MSTORE POP PUSH1 0x5 PUSH0 CALLER PUSH20 0xFFFFFFFFFFFFFFFFFFFFFFFFFFFFFFFFFFFFFFFF AND PUSH20 0xFFFFFFFFFFFFFFFFFFFFFFFFFFFFFFFFFFFFFFFF AND DUP2 MSTORE PUSH1 0x20 ADD SWAP1 DUP2 MSTORE PUSH1 0x20 ADD PUSH0 KECCAK256 PUSH0 DUP3 ADD MLOAD DUP2 PUSH0 ADD SWAP1 DUP2 PUSH2 0x274F SWAP2 SWAP1 PUSH2 0x3264 JUMP JUMPDEST POP PUSH1 0x20 DUP3 ADD MLOAD DUP2 PUSH1 0x1 ADD SWAP1 DUP2 PUSH2 0x2765 SWAP2 SWAP1 PUSH2 0x3264 JUMP JUMPDEST POP SWAP1 POP POP PUSH1 0x1 PUSH1 0x3 PUSH0 CALLER PUSH20 0xFFFFFFFFFFFFFFFFFFFFFFFFFFFFFFFFFFFFFFFF AND PUSH20 0xFFFFFFFFFFFFFFFFFFFFFFFFFFFFFFFFFFFFFFFF AND DUP2 MSTORE PUSH1 0x20 ADD SWAP1 DUP2 MSTORE PUSH1 0x20 ADD PUSH0 KECCAK256 PUSH0 PUSH2 0x100 EXP DUP2 SLOAD DUP2 PUSH1 0xFF MUL NOT AND SWAP1 DUP4 ISZERO ISZERO MUL OR SWAP1 SSTORE POP POP POP JUMP JUMPDEST PUSH1 0x40 MLOAD DUP1 PUSH1 0x40 ADD PUSH1 0x40 MSTORE DUP1 PUSH1 0x60 DUP2 MSTORE PUSH1 0x20 ADD PUSH1 0x60 DUP2 MSTORE POP SWAP1 JUMP JUMPDEST PUSH1 0x40 MLOAD DUP1 PUSH1 0x80 ADD PUSH1 0x40 MSTORE DUP1 PUSH0 DUP2 MSTORE PUSH1 0x20 ADD PUSH0 PUSH20 0xFFFFFFFFFFFFFFFFFFFFFFFFFFFFFFFFFFFFFFFF AND DUP2 MSTORE PUSH1 0x20 ADD PUSH0 PUSH20 0xFFFFFFFFFFFFFFFFFFFFFFFFFFFFFFFFFFFFFFFF AND DUP2 MSTORE PUSH1 0x20 ADD PUSH0 ISZERO ISZERO DUP2 MSTORE POP SWAP1 JUMP JUMPDEST PUSH0 PUSH1 0x40 MLOAD SWAP1 POP SWAP1 JUMP JUMPDEST PUSH0 DUP1 REVERT JUMPDEST PUSH0 DUP1 REVERT JUMPDEST PUSH0 PUSH8 0xFFFFFFFFFFFFFFFF DUP3 AND SWAP1 POP SWAP2 SWAP1 POP JUMP JUMPDEST PUSH2 0x285B DUP2 PUSH2 0x283F JUMP JUMPDEST DUP2 EQ PUSH2 0x2865 JUMPI PUSH0 DUP1 REVERT JUMPDEST POP JUMP JUMPDEST PUSH0 DUP2 CALLDATALOAD SWAP1 POP PUSH2 0x2876 DUP2 PUSH2 0x2852 JUMP JUMPDEST SWAP3 SWAP2 POP POP JUMP JUMPDEST PUSH0 PUSH1 0x20 DUP3 DUP5 SUB SLT ISZERO PUSH2 0x2891 JUMPI PUSH2 0x2890 PUSH2 0x2837 JUMP JUMPDEST JUMPDEST PUSH0 PUSH2 0x289E DUP5 DUP3 DUP6 ADD PUSH2 0x2868 JUMP JUMPDEST SWAP2 POP POP SWAP3 SWAP2 POP POP JUMP JUMPDEST PUSH2 0x28B0 DUP2 PUSH2 0x283F JUMP JUMPDEST DUP3 MSTORE POP POP JUMP JUMPDEST PUSH0 PUSH1 0x20 DUP3 ADD SWAP1 POP PUSH2 0x28C9 PUSH0 DUP4 ADD DUP5 PUSH2 0x28A7 JUMP JUMPDEST SWAP3 SWAP2 POP POP JUMP JUMPDEST PUSH0 DUP2 SWAP1 POP SWAP2 SWAP1 POP JUMP JUMPDEST PUSH2 0x28E1 DUP2 PUSH2 0x28CF JUMP JUMPDEST DUP2 EQ PUSH2 0x28EB JUMPI PUSH0 DUP1 REVERT JUMPDEST POP JUMP JUMPDEST PUSH0 DUP2 CALLDATALOAD SWAP1 POP PUSH2 0x28FC DUP2 PUSH2 0x28D8 JUMP JUMPDEST SWAP3 SWAP2 POP POP JUMP JUMPDEST PUSH0 PUSH1 0x20 DUP3 DUP5 SUB SLT ISZERO PUSH2 0x2917 JUMPI PUSH2 0x2916 PUSH2 0x2837 JUMP JUMPDEST JUMPDEST PUSH0 PUSH2 0x2924 DUP5 DUP3 DUP6 ADD PUSH2 0x28EE JUMP JUMPDEST SWAP2 POP POP SWAP3 SWAP2 POP POP JUMP JUMPDEST PUSH0 PUSH20 0xFFFFFFFFFFFFFFFFFFFFFFFFFFFFFFFFFFFFFFFF DUP3 AND SWAP1 POP SWAP2 SWAP1 POP JUMP JUMPDEST PUSH0 PUSH2 0x2956 DUP3 PUSH2 0x292D JUMP JUMPDEST SWAP1 POP SWAP2 SWAP1 POP JUMP JUMPDEST PUSH2 0x2966 DUP2 PUSH2 0x294C JUMP JUMPDEST DUP2 EQ PUSH2 0x2970 JUMPI PUSH0 DUP1 REVERT JUMPDEST POP JUMP JUMPDEST PUSH0 DUP2 CALLDATALOAD SWAP1 POP PUSH2 0x2981 DUP2 PUSH2 0x295D JUMP JUMPDEST SWAP3 SWAP2 POP POP JUMP JUMPDEST PUSH0 DUP1 PUSH1 0x40 DUP4 DUP6 SUB SLT ISZERO PUSH2 0x299D JUMPI PUSH2 0x299C PUSH2 0x2837 JUMP JUMPDEST JUMPDEST PUSH0 PUSH2 0x29AA DUP6 DUP3 DUP7 ADD PUSH2 0x2973 JUMP JUMPDEST SWAP3 POP POP PUSH1 0x20 PUSH2 0x29BB DUP6 DUP3 DUP7 ADD PUSH2 0x2973 JUMP JUMPDEST SWAP2 POP POP SWAP3 POP SWAP3 SWAP1 POP JUMP JUMPDEST PUSH0 DUP2 ISZERO ISZERO SWAP1 POP SWAP2 SWAP1 POP JUMP JUMPDEST PUSH2 0x29D9 DUP2 PUSH2 0x29C5 JUMP JUMPDEST DUP3 MSTORE POP POP JUMP JUMPDEST PUSH0 PUSH1 0x20 DUP3 ADD SWAP1 POP PUSH2 0x29F2 PUSH0 DUP4 ADD DUP5 PUSH2 0x29D0 JUMP JUMPDEST SWAP3 SWAP2 POP POP JUMP JUMPDEST PUSH0 PUSH1 0x20 DUP3 DUP5 SUB SLT ISZERO PUSH2 0x2A0D JUMPI PUSH2 0x2A0C PUSH2 0x2837 JUMP JUMPDEST JUMPDEST PUSH0 PUSH2 0x2A1A DUP5 DUP3 DUP6 ADD PUSH2 0x2973 JUMP JUMPDEST SWAP2 POP POP SWAP3 SWAP2 POP POP JUMP JUMPDEST PUSH0 DUP2 MLOAD SWAP1 POP SWAP2 SWAP1 POP JUMP JUMPDEST PUSH0 DUP3 DUP3 MSTORE PUSH1 0x20 DUP3 ADD SWAP1 POP SWAP3 SWAP2 POP POP JUMP JUMPDEST DUP3 DUP2 DUP4 MCOPY PUSH0 DUP4 DUP4 ADD MSTORE POP POP POP JUMP JUMPDEST PUSH0 PUSH1 0x1F NOT PUSH1 0x1F DUP4 ADD AND SWAP1 POP SWAP2 SWAP1 POP JUMP JUMPDEST PUSH0 PUSH2 0x2A65 DUP3 PUSH2 0x2A23 JUMP JUMPDEST PUSH2 0x2A6F DUP2 DUP6 PUSH2 0x2A2D JUMP JUMPDEST SWAP4 POP PUSH2 0x2A7F DUP2 DUP6 PUSH1 0x20 DUP7 ADD PUSH2 0x2A3D JUMP JUMPDEST PUSH2 0x2A88 DUP2 PUSH2 0x2A4B JUMP JUMPDEST DUP5 ADD SWAP2 POP POP SWAP3 SWAP2 POP POP JUMP JUMPDEST PUSH0 PUSH1 0x40 DUP4 ADD PUSH0 DUP4 ADD MLOAD DUP5 DUP3 SUB PUSH0 DUP7 ADD MSTORE PUSH2 0x2AAD DUP3 DUP3 PUSH2 0x2A5B JUMP JUMPDEST SWAP2 POP POP PUSH1 0x20 DUP4 ADD MLOAD DUP5 DUP3 SUB PUSH1 0x20 DUP7 ADD MSTORE PUSH2 0x2AC7 DUP3 DUP3 PUSH2 0x2A5B JUMP JUMPDEST SWAP2 POP POP DUP1 SWAP2 POP POP SWAP3 SWAP2 POP POP JUMP JUMPDEST PUSH0 PUSH1 0x20 DUP3 ADD SWAP1 POP DUP2 DUP2 SUB PUSH0 DUP4 ADD MSTORE PUSH2 0x2AEC DUP2 DUP5 PUSH2 0x2A93 JUMP JUMPDEST SWAP1 POP SWAP3 SWAP2 POP POP JUMP JUMPDEST PUSH0 DUP2 MLOAD SWAP1 POP SWAP2 SWAP1 POP JUMP JUMPDEST PUSH0 DUP3 DUP3 MSTORE PUSH1 0x20 DUP3 ADD SWAP1 POP SWAP3 SWAP2 POP POP JUMP JUMPDEST PUSH0 DUP2 SWAP1 POP PUSH1 0x20 DUP3 ADD SWAP1 POP SWAP2 SWAP1 POP JUMP JUMPDEST PUSH2 0x2B26 DUP2 PUSH2 0x28CF JUMP JUMPDEST DUP3 MSTORE POP POP JUMP JUMPDEST PUSH2 0x2B35 DUP2 PUSH2 0x294C JUMP JUMPDEST DUP3 MSTORE POP POP JUMP JUMPDEST PUSH2 0x2B44 DUP2 PUSH2 0x29C5 JUMP JUMPDEST DUP3 MSTORE POP POP JUMP JUMPDEST PUSH1 0x80 DUP3 ADD PUSH0 DUP3 ADD MLOAD PUSH2 0x2B5E PUSH0 DUP6 ADD DUP3 PUSH2 0x2B1D JUMP JUMPDEST POP PUSH1 0x20 DUP3 ADD MLOAD PUSH2 0x2B71 PUSH1 0x20 DUP6 ADD DUP3 PUSH2 0x2B2C JUMP JUMPDEST POP PUSH1 0x40 DUP3 ADD MLOAD PUSH2 0x2B84 PUSH1 0x40 DUP6 ADD DUP3 PUSH2 0x2B2C JUMP JUMPDEST POP PUSH1 0x60 DUP3 ADD MLOAD PUSH2 0x2B97 PUSH1 0x60 DUP6 ADD DUP3 PUSH2 0x2B3B JUMP JUMPDEST POP POP POP POP JUMP JUMPDEST PUSH0 PUSH2 0x2BA8 DUP4 DUP4 PUSH2 0x2B4A JUMP JUMPDEST PUSH1 0x80 DUP4 ADD SWAP1 POP SWAP3 SWAP2 POP POP JUMP JUMPDEST PUSH0 PUSH1 0x20 DUP3 ADD SWAP1 POP SWAP2 SWAP1 POP JUMP JUMPDEST PUSH0 PUSH2 0x2BCA DUP3 PUSH2 0x2AF4 JUMP JUMPDEST PUSH2 0x2BD4 DUP2 DUP6 PUSH2 0x2AFE JUMP JUMPDEST SWAP4 POP PUSH2 0x2BDF DUP4 PUSH2 0x2B0E JUMP JUMPDEST DUP1 PUSH0 JUMPDEST DUP4 DUP2 LT ISZERO PUSH2 0x2C0F JUMPI DUP2 MLOAD PUSH2 0x2BF6 DUP9 DUP3 PUSH2 0x2B9D JUMP JUMPDEST SWAP8 POP PUSH2 0x2C01 DUP4 PUSH2 0x2BB4 JUMP JUMPDEST SWAP3 POP POP PUSH1 0x1 DUP2 ADD SWAP1 POP PUSH2 0x2BE2 JUMP JUMPDEST POP DUP6 SWAP4 POP POP POP POP SWAP3 SWAP2 POP POP JUMP JUMPDEST PUSH0 PUSH1 0x20 DUP3 ADD SWAP1 POP DUP2 DUP2 SUB PUSH0 DUP4 ADD MSTORE PUSH2 0x2C34 DUP2 DUP5 PUSH2 0x2BC0 JUMP JUMPDEST SWAP1 POP SWAP3 SWAP2 POP POP JUMP JUMPDEST PUSH0 DUP2 MLOAD SWAP1 POP SWAP2 SWAP1 POP JUMP JUMPDEST PUSH0 DUP3 DUP3 MSTORE PUSH1 0x20 DUP3 ADD SWAP1 POP SWAP3 SWAP2 POP POP JUMP JUMPDEST PUSH0 DUP2 SWAP1 POP PUSH1 0x20 DUP3 ADD SWAP1 POP SWAP2 SWAP1 POP JUMP JUMPDEST PUSH0 PUSH2 0x2C70 DUP4 DUP4 PUSH2 0x2B2C JUMP JUMPDEST PUSH1 0x20 DUP4 ADD SWAP1 POP SWAP3 SWAP2 POP POP JUMP JUMPDEST PUSH0 PUSH1 0x20 DUP3 ADD SWAP1 POP SWAP2 SWAP1 POP JUMP JUMPDEST PUSH0 PUSH2 0x2C92 DUP3 PUSH2 0x2C3C JUMP JUMPDEST PUSH2 0x2C9C DUP2 DUP6 PUSH2 0x2C46 JUMP JUMPDEST SWAP4 POP PUSH2 0x2CA7 DUP4 PUSH2 0x2C56 JUMP JUMPDEST DUP1 PUSH0 JUMPDEST DUP4 DUP2 LT ISZERO PUSH2 0x2CD7 JUMPI DUP2 MLOAD PUSH2 0x2CBE DUP9 DUP3 PUSH2 0x2C65 JUMP JUMPDEST SWAP8 POP PUSH2 0x2CC9 DUP4 PUSH2 0x2C7C JUMP JUMPDEST SWAP3 POP POP PUSH1 0x1 DUP2 ADD SWAP1 POP PUSH2 0x2CAA JUMP JUMPDEST POP DUP6 SWAP4 POP POP POP POP SWAP3 SWAP2 POP POP JUMP JUMPDEST PUSH0 PUSH1 0x20 DUP3 ADD SWAP1 POP DUP2 DUP2 SUB PUSH0 DUP4 ADD MSTORE PUSH2 0x2CFC DUP2 DUP5 PUSH2 0x2C88 JUMP JUMPDEST SWAP1 POP SWAP3 SWAP2 POP POP JUMP JUMPDEST PUSH0 DUP2 SWAP1 POP SWAP2 SWAP1 POP JUMP JUMPDEST PUSH0 PUSH2 0x2D27 PUSH2 0x2D22 PUSH2 0x2D1D DUP5 PUSH2 0x292D JUMP JUMPDEST PUSH2 0x2D04 JUMP JUMPDEST PUSH2 0x292D JUMP JUMPDEST SWAP1 POP SWAP2 SWAP1 POP JUMP JUMPDEST PUSH0 PUSH2 0x2D38 DUP3 PUSH2 0x2D0D JUMP JUMPDEST SWAP1 POP SWAP2 SWAP1 POP JUMP JUMPDEST PUSH0 PUSH2 0x2D49 DUP3 PUSH2 0x2D2E JUMP JUMPDEST SWAP1 POP SWAP2 SWAP1 POP JUMP JUMPDEST PUSH2 0x2D59 DUP2 PUSH2 0x2D3F JUMP JUMPDEST DUP3 MSTORE POP POP JUMP JUMPDEST PUSH0 PUSH1 0x20 DUP3 ADD SWAP1 POP PUSH2 0x2D72 PUSH0 DUP4 ADD DUP5 PUSH2 0x2D50 JUMP JUMPDEST SWAP3 SWAP2 POP POP JUMP JUMPDEST PUSH0 DUP1 REVERT JUMPDEST PUSH0 DUP1 REVERT JUMPDEST PUSH32 0x4E487B7100000000000000000000000000000000000000000000000000000000 PUSH0 MSTORE PUSH1 0x41 PUSH1 0x4 MSTORE PUSH1 0x24 PUSH0 REVERT JUMPDEST PUSH2 0x2DB6 DUP3 PUSH2 0x2A4B JUMP JUMPDEST DUP2 ADD DUP2 DUP2 LT PUSH8 0xFFFFFFFFFFFFFFFF DUP3 GT OR ISZERO PUSH2 0x2DD5 JUMPI PUSH2 0x2DD4 PUSH2 0x2D80 JUMP JUMPDEST JUMPDEST DUP1 PUSH1 0x40 MSTORE POP POP POP JUMP JUMPDEST PUSH0 PUSH2 0x2DE7 PUSH2 0x282E JUMP JUMPDEST SWAP1 POP PUSH2 0x2DF3 DUP3 DUP3 PUSH2 0x2DAD JUMP JUMPDEST SWAP2 SWAP1 POP JUMP JUMPDEST PUSH0 PUSH8 0xFFFFFFFFFFFFFFFF DUP3 GT ISZERO PUSH2 0x2E12 JUMPI PUSH2 0x2E11 PUSH2 0x2D80 JUMP JUMPDEST JUMPDEST PUSH2 0x2E1B DUP3 PUSH2 0x2A4B JUMP JUMPDEST SWAP1 POP PUSH1 0x20 DUP2 ADD SWAP1 POP SWAP2 SWAP1 POP JUMP JUMPDEST DUP3 DUP2 DUP4 CALLDATACOPY PUSH0 DUP4 DUP4 ADD MSTORE POP POP POP JUMP JUMPDEST PUSH0 PUSH2 0x2E48 PUSH2 0x2E43 DUP5 PUSH2 0x2DF8 JUMP JUMPDEST PUSH2 0x2DDE JUMP JUMPDEST SWAP1 POP DUP3 DUP2 MSTORE PUSH1 0x20 DUP2 ADD DUP5 DUP5 DUP5 ADD GT ISZERO PUSH2 0x2E64 JUMPI PUSH2 0x2E63 PUSH2 0x2D7C JUMP JUMPDEST JUMPDEST PUSH2 0x2E6F DUP5 DUP3 DUP6 PUSH2 0x2E28 JUMP JUMPDEST POP SWAP4 SWAP3 POP POP POP JUMP JUMPDEST PUSH0 DUP3 PUSH1 0x1F DUP4 ADD SLT PUSH2 0x2E8B JUMPI PUSH2 0x2E8A PUSH2 0x2D78 JUMP JUMPDEST JUMPDEST DUP2 CALLDATALOAD PUSH2 0x2E9B DUP5 DUP3 PUSH1 0x20 DUP7 ADD PUSH2 0x2E36 JUMP JUMPDEST SWAP2 POP POP SWAP3 SWAP2 POP POP JUMP JUMPDEST PUSH0 DUP1 PUSH1 0x40 DUP4 DUP6 SUB SLT ISZERO PUSH2 0x2EBA JUMPI PUSH2 0x2EB9 PUSH2 0x2837 JUMP JUMPDEST JUMPDEST PUSH0 DUP4 ADD CALLDATALOAD PUSH8 0xFFFFFFFFFFFFFFFF DUP2 GT ISZERO PUSH2 0x2ED7 JUMPI PUSH2 0x2ED6 PUSH2 0x283B JUMP JUMPDEST JUMPDEST PUSH2 0x2EE3 DUP6 DUP3 DUP7 ADD PUSH2 0x2E77 JUMP JUMPDEST SWAP3 POP POP PUSH1 0x20 DUP4 ADD CALLDATALOAD PUSH8 0xFFFFFFFFFFFFFFFF DUP2 GT ISZERO PUSH2 0x2F04 JUMPI PUSH2 0x2F03 PUSH2 0x283B JUMP JUMPDEST JUMPDEST PUSH2 0x2F10 DUP6 DUP3 DUP7 ADD PUSH2 0x2E77 JUMP JUMPDEST SWAP2 POP POP SWAP3 POP SWAP3 SWAP1 POP JUMP JUMPDEST PUSH1 0x80 DUP3 ADD PUSH0 DUP3 ADD MLOAD PUSH2 0x2F2E PUSH0 DUP6 ADD DUP3 PUSH2 0x2B1D JUMP JUMPDEST POP PUSH1 0x20 DUP3 ADD MLOAD PUSH2 0x2F41 PUSH1 0x20 DUP6 ADD DUP3 PUSH2 0x2B2C JUMP JUMPDEST POP PUSH1 0x40 DUP3 ADD MLOAD PUSH2 0x2F54 PUSH1 0x40 DUP6 ADD DUP3 PUSH2 0x2B2C JUMP JUMPDEST POP PUSH1 0x60 DUP3 ADD MLOAD PUSH2 0x2F67 PUSH1 0x60 DUP6 ADD DUP3 PUSH2 0x2B3B JUMP JUMPDEST POP POP POP POP JUMP JUMPDEST PUSH0 PUSH1 0x80 DUP3 ADD SWAP1 POP PUSH2 0x2F80 PUSH0 DUP4 ADD DUP5 PUSH2 0x2F1A JUMP JUMPDEST SWAP3 SWAP2 POP POP JUMP JUMPDEST PUSH32 0x4E487B7100000000000000000000000000000000000000000000000000000000 PUSH0 MSTORE PUSH1 0x32 PUSH1 0x4 MSTORE PUSH1 0x24 PUSH0 REVERT JUMPDEST PUSH32 0x4E487B7100000000000000000000000000000000000000000000000000000000 PUSH0 MSTORE PUSH1 0x11 PUSH1 0x4 MSTORE PUSH1 0x24 PUSH0 REVERT JUMPDEST PUSH0 PUSH2 0x2FEA DUP3 PUSH2 0x28CF JUMP JUMPDEST SWAP2 POP PUSH2 0x2FF5 DUP4 PUSH2 0x28CF JUMP JUMPDEST SWAP3 POP DUP3 DUP3 SUB SWAP1 POP DUP2 DUP2 GT ISZERO PUSH2 0x300D JUMPI PUSH2 0x300C PUSH2 0x2FB3 JUMP JUMPDEST JUMPDEST SWAP3 SWAP2 POP POP JUMP JUMPDEST PUSH32 0x4E487B7100000000000000000000000000000000000000000000000000000000 PUSH0 MSTORE PUSH1 0x31 PUSH1 0x4 MSTORE PUSH1 0x24 PUSH0 REVERT JUMPDEST PUSH32 0x4E487B7100000000000000000000000000000000000000000000000000000000 PUSH0 MSTORE PUSH1 0x22 PUSH1 0x4 MSTORE PUSH1 0x24 PUSH0 REVERT JUMPDEST PUSH0 PUSH1 0x2 DUP3 DIV SWAP1 POP PUSH1 0x1 DUP3 AND DUP1 PUSH2 0x3084 JUMPI PUSH1 0x7F DUP3 AND SWAP2 POP JUMPDEST PUSH1 0x20 DUP3 LT DUP2 SUB PUSH2 0x3097 JUMPI PUSH2 0x3096 PUSH2 0x3040 JUMP JUMPDEST JUMPDEST POP SWAP2 SWAP1 POP JUMP JUMPDEST PUSH0 PUSH2 0x30A7 DUP3 PUSH2 0x28CF JUMP JUMPDEST SWAP2 POP PUSH2 0x30B2 DUP4 PUSH2 0x28CF JUMP JUMPDEST SWAP3 POP DUP3 DUP3 ADD SWAP1 POP DUP1 DUP3 GT ISZERO PUSH2 0x30CA JUMPI PUSH2 0x30C9 PUSH2 0x2FB3 JUMP JUMPDEST JUMPDEST SWAP3 SWAP2 POP POP JUMP JUMPDEST PUSH0 DUP2 SWAP1 POP DUP2 PUSH0 MSTORE PUSH1 0x20 PUSH0 KECCAK256 SWAP1 POP SWAP2 SWAP1 POP JUMP JUMPDEST PUSH0 PUSH1 0x20 PUSH1 0x1F DUP4 ADD DIV SWAP1 POP SWAP2 SWAP1 POP JUMP JUMPDEST PUSH0 DUP3 DUP3 SHL SWAP1 POP SWAP3 SWAP2 POP POP JUMP JUMPDEST PUSH0 PUSH1 0x8 DUP4 MUL PUSH2 0x312C PUSH32 0xFFFFFFFFFFFFFFFFFFFFFFFFFFFFFFFFFFFFFFFFFFFFFFFFFFFFFFFFFFFFFFFF DUP3 PUSH2 0x30F1 JUMP JUMPDEST PUSH2 0x3136 DUP7 DUP4 PUSH2 0x30F1 JUMP JUMPDEST SWAP6 POP DUP1 NOT DUP5 AND SWAP4 POP DUP1 DUP7 AND DUP5 OR SWAP3 POP POP POP SWAP4 SWAP3 POP POP POP JUMP JUMPDEST PUSH0 PUSH2 0x3168 PUSH2 0x3163 PUSH2 0x315E DUP5 PUSH2 0x28CF JUMP JUMPDEST PUSH2 0x2D04 JUMP JUMPDEST PUSH2 0x28CF JUMP JUMPDEST SWAP1 POP SWAP2 SWAP1 POP JUMP JUMPDEST PUSH0 DUP2 SWAP1 POP SWAP2 SWAP1 POP JUMP JUMPDEST PUSH2 0x3181 DUP4 PUSH2 0x314E JUMP JUMPDEST PUSH2 0x3195 PUSH2 0x318D DUP3 PUSH2 0x316F JUMP JUMPDEST DUP5 DUP5 SLOAD PUSH2 0x30FD JUMP JUMPDEST DUP3 SSTORE POP POP POP POP JUMP JUMPDEST PUSH0 SWAP1 JUMP JUMPDEST PUSH2 0x31A9 PUSH2 0x319D JUMP JUMPDEST PUSH2 0x31B4 DUP2 DUP5 DUP5 PUSH2 0x3178 JUMP JUMPDEST POP POP POP JUMP JUMPDEST JUMPDEST DUP2 DUP2 LT ISZERO PUSH2 0x31D7 JUMPI PUSH2 0x31CC PUSH0 DUP3 PUSH2 0x31A1 JUMP JUMPDEST PUSH1 0x1 DUP2 ADD SWAP1 POP PUSH2 0x31BA JUMP JUMPDEST POP POP JUMP JUMPDEST PUSH1 0x1F DUP3 GT ISZERO PUSH2 0x321C JUMPI PUSH2 0x31ED DUP2 PUSH2 0x30D0 JUMP JUMPDEST PUSH2 0x31F6 DUP5 PUSH2 0x30E2 JUMP JUMPDEST DUP2 ADD PUSH1 0x20 DUP6 LT ISZERO PUSH2 0x3205 JUMPI DUP2 SWAP1 POP JUMPDEST PUSH2 0x3219 PUSH2 0x3211 DUP6 PUSH2 0x30E2 JUMP JUMPDEST DUP4 ADD DUP3 PUSH2 0x31B9 JUMP JUMPDEST POP POP JUMPDEST POP POP POP JUMP JUMPDEST PUSH0 DUP3 DUP3 SHR SWAP1 POP SWAP3 SWAP2 POP POP JUMP JUMPDEST PUSH0 PUSH2 0x323C PUSH0 NOT DUP5 PUSH1 0x8 MUL PUSH2 0x3221 JUMP JUMPDEST NOT DUP1 DUP4 AND SWAP2 POP POP SWAP3 SWAP2 POP POP JUMP JUMPDEST PUSH0 PUSH2 0x3254 DUP4 DUP4 PUSH2 0x322D JUMP JUMPDEST SWAP2 POP DUP3 PUSH1 0x2 MUL DUP3 OR SWAP1 POP SWAP3 SWAP2 POP POP JUMP JUMPDEST PUSH2 0x326D DUP3 PUSH2 0x2A23 JUMP JUMPDEST PUSH8 0xFFFFFFFFFFFFFFFF DUP2 GT ISZERO PUSH2 0x3286 JUMPI PUSH2 0x3285 PUSH2 0x2D80 JUMP JUMPDEST JUMPDEST PUSH2 0x3290 DUP3 SLOAD PUSH2 0x306D JUMP JUMPDEST PUSH2 0x329B DUP3 DUP3 DUP6 PUSH2 0x31DB JUMP JUMPDEST PUSH0 PUSH1 0x20 SWAP1 POP PUSH1 0x1F DUP4 GT PUSH1 0x1 DUP2 EQ PUSH2 0x32CC JUMPI PUSH0 DUP5 ISZERO PUSH2 0x32BA JUMPI DUP3 DUP8 ADD MLOAD SWAP1 POP JUMPDEST PUSH2 0x32C4 DUP6 DUP3 PUSH2 0x3249 JUMP JUMPDEST DUP7 SSTORE POP PUSH2 0x332B JUMP JUMPDEST PUSH1 0x1F NOT DUP5 AND PUSH2 0x32DA DUP7 PUSH2 0x30D0 JUMP JUMPDEST PUSH0 JUMPDEST DUP3 DUP2 LT ISZERO PUSH2 0x3301 JUMPI DUP5 DUP10 ADD MLOAD DUP3 SSTORE PUSH1 0x1 DUP3 ADD SWAP2 POP PUSH1 0x20 DUP6 ADD SWAP5 POP PUSH1 0x20 DUP2 ADD SWAP1 POP PUSH2 0x32DC JUMP JUMPDEST DUP7 DUP4 LT ISZERO PUSH2 0x331E JUMPI DUP5 DUP10 ADD MLOAD PUSH2 0x331A PUSH1 0x1F DUP10 AND DUP3 PUSH2 0x322D JUMP JUMPDEST DUP4 SSTORE POP JUMPDEST PUSH1 0x1 PUSH1 0x2 DUP9 MUL ADD DUP9 SSTORE POP POP POP JUMPDEST POP POP POP POP POP POP JUMP INVALID LOG2 PUSH5 0x6970667358 0x22 SLT KECCAK256 0xFB TLOAD DUP14 PUSH0 0xD1 0xC6 NUMBER 0xE9 EQ DUP15 0xA6 0x24 CALL CALL 0xEF MULMOD PUSH2 0x6F29 0x28 0xE6 0xCF XOR SWAP13 0xCC PUSH13 0xEE88905D1ECD64736F6C634300 ADDMOD BYTE STOP CALLER "
				},
				"gasEstimates": {
					"creation": {
						"codeDepositCost": "2632200",
						"executionCost": "7857",
						"totalCost": "2640057"
					},
					"external": {
						"confirmRequest(uint256)": "infinite",
						"declineRequest(uint256)": "infinite",
						"getApprovedManufacturers(address)": "infinite",
						"getApprovedVendors(address)": "infinite",
						"getEntity(address)": "infinite",
						"getRequest(uint256)": "infinite",
						"getRequests()": "infinite",
						"isAManufacturer(address)": "2958",
						"isAVendor(address)": "2937",
						"isAttested(address,address)": "infinite",
						"registerAsManufacturer(string,string)": "infinite",
						"registerAsVendor(string,string)": "infinite",
						"schemaId()": "2562",
						"sendRequest(address)": "infinite",
						"setSPInstance(address)": "24738",
						"setSchemaID(uint64)": "24747",
						"spInstance()": "infinite"
					}
				},
				"methodIdentifiers": {
					"confirmRequest(uint256)": "a6b2c437",
					"declineRequest(uint256)": "399b4ddc",
					"getApprovedManufacturers(address)": "c84a9407",
					"getApprovedVendors(address)": "93a87d3c",
					"getEntity(address)": "75894e8c",
					"getRequest(uint256)": "c58343ef",
					"getRequests()": "8813ce12",
					"isAManufacturer(address)": "f9d1d0c0",
					"isAVendor(address)": "86b602f8",
					"isAttested(address,address)": "665bb095",
					"registerAsManufacturer(string,string)": "a9524aa4",
					"registerAsVendor(string,string)": "fb7d5bf6",
					"schemaId()": "075b1a09",
					"sendRequest(address)": "85e1b15b",
					"setSPInstance(address)": "8e9d660f",
					"setSchemaID(uint64)": "05ca8ee3",
					"spInstance()": "a8c5dc33"
				}
			},
			"storageLayout": {
				"storage": [
					{
						"astId": 733,
						"contract": "contracts/Surebuy.sol:Surebuy",
						"label": "spInstance",
						"offset": 0,
						"slot": "0",
						"type": "t_contract(ISP)495"
					},
					{
						"astId": 735,
						"contract": "contracts/Surebuy.sol:Surebuy",
						"label": "schemaId",
						"offset": 20,
						"slot": "0",
						"type": "t_uint64"
					},
					{
						"astId": 738,
						"contract": "contracts/Surebuy.sol:Surebuy",
						"label": "_requestCounter",
						"offset": 0,
						"slot": "1",
						"type": "t_uint256"
					},
					{
						"astId": 742,
						"contract": "contracts/Surebuy.sol:Surebuy",
						"label": "isManufacturer",
						"offset": 0,
						"slot": "2",
						"type": "t_mapping(t_address,t_bool)"
					},
					{
						"astId": 746,
						"contract": "contracts/Surebuy.sol:Surebuy",
						"label": "isVendor",
						"offset": 0,
						"slot": "3",
						"type": "t_mapping(t_address,t_bool)"
					},
					{
						"astId": 751,
						"contract": "contracts/Surebuy.sol:Surebuy",
						"label": "idToRequest",
						"offset": 0,
						"slot": "4",
						"type": "t_mapping(t_uint256,t_struct(Request)730_storage)"
					},
					{
						"astId": 756,
						"contract": "contracts/Surebuy.sol:Surebuy",
						"label": "addressToEntity",
						"offset": 0,
						"slot": "5",
						"type": "t_mapping(t_address,t_struct(Entity)721_storage)"
					},
					{
						"astId": 761,
						"contract": "contracts/Surebuy.sol:Surebuy",
						"label": "vendorToRequestIds",
						"offset": 0,
						"slot": "6",
						"type": "t_mapping(t_address,t_array(t_uint256)dyn_storage)"
					},
					{
						"astId": 766,
						"contract": "contracts/Surebuy.sol:Surebuy",
						"label": "manufacturerToRequestIds",
						"offset": 0,
						"slot": "7",
						"type": "t_mapping(t_address,t_array(t_uint256)dyn_storage)"
					},
					{
						"astId": 772,
						"contract": "contracts/Surebuy.sol:Surebuy",
						"label": "vendorToManufacturer",
						"offset": 0,
						"slot": "8",
						"type": "t_mapping(t_address,t_mapping(t_address,t_bool))"
					},
					{
						"astId": 778,
						"contract": "contracts/Surebuy.sol:Surebuy",
						"label": "requested",
						"offset": 0,
						"slot": "9",
						"type": "t_mapping(t_address,t_mapping(t_address,t_bool))"
					},
					{
						"astId": 783,
						"contract": "contracts/Surebuy.sol:Surebuy",
						"label": "approvedVendorsToManufacturer",
						"offset": 0,
						"slot": "10",
						"type": "t_mapping(t_address,t_array(t_address)dyn_storage)"
					},
					{
						"astId": 788,
						"contract": "contracts/Surebuy.sol:Surebuy",
						"label": "approvedManufacturerToVendor",
						"offset": 0,
						"slot": "11",
						"type": "t_mapping(t_address,t_array(t_address)dyn_storage)"
					}
				],
				"types": {
					"t_address": {
						"encoding": "inplace",
						"label": "address",
						"numberOfBytes": "20"
					},
					"t_array(t_address)dyn_storage": {
						"base": "t_address",
						"encoding": "dynamic_array",
						"label": "address[]",
						"numberOfBytes": "32"
					},
					"t_array(t_uint256)dyn_storage": {
						"base": "t_uint256",
						"encoding": "dynamic_array",
						"label": "uint256[]",
						"numberOfBytes": "32"
					},
					"t_bool": {
						"encoding": "inplace",
						"label": "bool",
						"numberOfBytes": "1"
					},
					"t_contract(ISP)495": {
						"encoding": "inplace",
						"label": "contract ISP",
						"numberOfBytes": "20"
					},
					"t_mapping(t_address,t_array(t_address)dyn_storage)": {
						"encoding": "mapping",
						"key": "t_address",
						"label": "mapping(address => address[])",
						"numberOfBytes": "32",
						"value": "t_array(t_address)dyn_storage"
					},
					"t_mapping(t_address,t_array(t_uint256)dyn_storage)": {
						"encoding": "mapping",
						"key": "t_address",
						"label": "mapping(address => uint256[])",
						"numberOfBytes": "32",
						"value": "t_array(t_uint256)dyn_storage"
					},
					"t_mapping(t_address,t_bool)": {
						"encoding": "mapping",
						"key": "t_address",
						"label": "mapping(address => bool)",
						"numberOfBytes": "32",
						"value": "t_bool"
					},
					"t_mapping(t_address,t_mapping(t_address,t_bool))": {
						"encoding": "mapping",
						"key": "t_address",
						"label": "mapping(address => mapping(address => bool))",
						"numberOfBytes": "32",
						"value": "t_mapping(t_address,t_bool)"
					},
					"t_mapping(t_address,t_struct(Entity)721_storage)": {
						"encoding": "mapping",
						"key": "t_address",
						"label": "mapping(address => struct Surebuy.Entity)",
						"numberOfBytes": "32",
						"value": "t_struct(Entity)721_storage"
					},
					"t_mapping(t_uint256,t_struct(Request)730_storage)": {
						"encoding": "mapping",
						"key": "t_uint256",
						"label": "mapping(uint256 => struct Surebuy.Request)",
						"numberOfBytes": "32",
						"value": "t_struct(Request)730_storage"
					},
					"t_string_storage": {
						"encoding": "bytes",
						"label": "string",
						"numberOfBytes": "32"
					},
					"t_struct(Entity)721_storage": {
						"encoding": "inplace",
						"label": "struct Surebuy.Entity",
						"members": [
							{
								"astId": 718,
								"contract": "contracts/Surebuy.sol:Surebuy",
								"label": "pan",
								"offset": 0,
								"slot": "0",
								"type": "t_string_storage"
							},
							{
								"astId": 720,
								"contract": "contracts/Surebuy.sol:Surebuy",
								"label": "name",
								"offset": 0,
								"slot": "1",
								"type": "t_string_storage"
							}
						],
						"numberOfBytes": "64"
					},
					"t_struct(Request)730_storage": {
						"encoding": "inplace",
						"label": "struct Surebuy.Request",
						"members": [
							{
								"astId": 723,
								"contract": "contracts/Surebuy.sol:Surebuy",
								"label": "id",
								"offset": 0,
								"slot": "0",
								"type": "t_uint256"
							},
							{
								"astId": 725,
								"contract": "contracts/Surebuy.sol:Surebuy",
								"label": "vendor",
								"offset": 0,
								"slot": "1",
								"type": "t_address"
							},
							{
								"astId": 727,
								"contract": "contracts/Surebuy.sol:Surebuy",
								"label": "manufacturer",
								"offset": 0,
								"slot": "2",
								"type": "t_address"
							},
							{
								"astId": 729,
								"contract": "contracts/Surebuy.sol:Surebuy",
								"label": "granted",
								"offset": 20,
								"slot": "2",
								"type": "t_bool"
							}
						],
						"numberOfBytes": "96"
					},
					"t_uint256": {
						"encoding": "inplace",
						"label": "uint256",
						"numberOfBytes": "32"
					},
					"t_uint64": {
						"encoding": "inplace",
						"label": "uint64",
						"numberOfBytes": "8"
					}
				}
			},
			"userdoc": {
				"kind": "user",
				"methods": {},
				"version": 1
			}
		}
	}
}